{
  "address": "0x711aD68C5D4ED10f4d6D1350Db65460eA233b03a",
  "abi": [
    {
      "inputs": [
        {
          "internalType": "address",
          "name": "_baseToken",
          "type": "address"
        },
        {
          "internalType": "address",
          "name": "_stakingContract",
          "type": "address"
        },
        {
          "internalType": "address",
          "name": "_owner",
          "type": "address"
        },
        {
          "internalType": "address",
          "name": "_walletImplementation",
          "type": "address"
        }
      ],
      "stateMutability": "nonpayable",
      "type": "constructor"
    },
    {
      "inputs": [
        {
          "internalType": "uint256",
          "name": "prod1",
          "type": "uint256"
        }
      ],
      "name": "PRBMath__MulDivFixedPointOverflow",
      "type": "error"
    },
    {
      "anonymous": false,
      "inputs": [
        {
          "indexed": true,
          "internalType": "address",
          "name": "previousOwner",
          "type": "address"
        },
        {
          "indexed": true,
          "internalType": "address",
          "name": "newOwner",
          "type": "address"
        }
      ],
      "name": "OwnershipTransferred",
      "type": "event"
    },
    {
      "anonymous": false,
      "inputs": [
        {
          "indexed": true,
          "internalType": "address",
          "name": "owner",
          "type": "address"
        },
        {
          "indexed": true,
          "internalType": "address",
          "name": "daoToken",
          "type": "address"
        },
        {
          "indexed": false,
          "internalType": "uint256",
          "name": "causeId",
          "type": "uint256"
        }
      ],
      "name": "RegisterCause",
      "type": "event"
    },
    {
      "anonymous": false,
      "inputs": [
        {
          "indexed": true,
          "internalType": "address",
          "name": "walletAddress",
          "type": "address"
        },
        {
          "components": [
            {
              "internalType": "uint256",
              "name": "causeId",
              "type": "uint256"
            },
            {
              "internalType": "bytes",
              "name": "thinWalletId",
              "type": "bytes"
            }
          ],
          "indexed": false,
          "internalType": "struct IDonationsRouter.ThinWalletID",
          "name": "walletId",
          "type": "tuple"
        }
      ],
      "name": "RegisterWallet",
      "type": "event"
    },
    {
      "anonymous": false,
      "inputs": [
        {
          "components": [
            {
              "internalType": "address",
              "name": "owner",
              "type": "address"
            },
            {
              "internalType": "address",
              "name": "defaultWallet",
              "type": "address"
            },
            {
              "internalType": "address",
              "name": "daoToken",
              "type": "address"
            },
            {
              "internalType": "uint256",
              "name": "rewardPercentage",
              "type": "uint256"
            }
          ],
          "indexed": false,
          "internalType": "struct IDonationsRouter.CauseRecord",
          "name": "cause",
          "type": "tuple"
        }
      ],
      "name": "UpdateCause",
      "type": "event"
    },
    {
      "anonymous": false,
      "inputs": [
        {
          "indexed": false,
          "internalType": "uint256",
          "name": "oldFee",
          "type": "uint256"
        },
        {
          "indexed": false,
          "internalType": "uint256",
          "name": "newFee",
          "type": "uint256"
        }
      ],
      "name": "UpdateFee",
      "type": "event"
    },
    {
      "anonymous": false,
      "inputs": [
        {
          "indexed": true,
          "internalType": "address",
          "name": "oldRewardAddress",
          "type": "address"
        },
        {
          "indexed": true,
          "internalType": "address",
          "name": "newAddress",
          "type": "address"
        }
      ],
      "name": "UpdateRewardAddress",
      "type": "event"
    },
    {
      "anonymous": false,
      "inputs": [
        {
          "components": [
            {
              "internalType": "uint256",
              "name": "causeId",
              "type": "uint256"
            },
            {
              "internalType": "bytes",
              "name": "thinWalletId",
              "type": "bytes"
            }
          ],
          "indexed": false,
          "internalType": "struct IDonationsRouter.ThinWalletID",
          "name": "wallet",
          "type": "tuple"
        },
        {
          "components": [
            {
              "internalType": "address",
              "name": "token",
              "type": "address"
            },
            {
              "internalType": "address",
              "name": "recipient",
              "type": "address"
            },
            {
              "internalType": "uint256",
              "name": "amount",
              "type": "uint256"
            }
          ],
          "indexed": false,
          "internalType": "struct IDonationsRouter.WithdrawalRequest",
          "name": "request",
          "type": "tuple"
        }
      ],
      "name": "WithdrawFromWallet",
      "type": "event"
    },
    {
      "inputs": [
        {
          "internalType": "uint256",
          "name": "_causeId",
          "type": "uint256"
        },
        {
          "internalType": "bytes32",
          "name": "_proposalId",
          "type": "bytes32"
        }
      ],
      "name": "addToQueue",
      "outputs": [],
      "stateMutability": "nonpayable",
      "type": "function"
    },
    {
      "inputs": [],
      "name": "baseToken",
      "outputs": [
        {
          "internalType": "contract ERC20",
          "name": "",
          "type": "address"
        }
      ],
      "stateMutability": "view",
      "type": "function"
    },
    {
      "inputs": [
        {
          "components": [
            {
              "internalType": "uint256",
              "name": "causeId",
              "type": "uint256"
            },
            {
              "internalType": "bytes",
              "name": "thinWalletId",
              "type": "bytes"
            }
          ],
          "internalType": "struct IDonationsRouter.ThinWalletID",
          "name": "_walletId",
          "type": "tuple"
        }
      ],
      "name": "calculateThinWallet",
      "outputs": [
        {
          "internalType": "address",
          "name": "wallet",
          "type": "address"
        }
      ],
      "stateMutability": "view",
      "type": "function"
    },
    {
      "inputs": [],
      "name": "causeId",
      "outputs": [
        {
          "internalType": "uint256",
          "name": "",
          "type": "uint256"
        }
      ],
      "stateMutability": "view",
      "type": "function"
    },
    {
      "inputs": [
        {
          "internalType": "uint256",
          "name": "",
          "type": "uint256"
        }
      ],
      "name": "causeRecords",
      "outputs": [
        {
          "internalType": "address",
          "name": "owner",
          "type": "address"
        },
        {
          "internalType": "address",
          "name": "defaultWallet",
          "type": "address"
        },
        {
          "internalType": "address",
          "name": "daoToken",
          "type": "address"
        },
        {
          "internalType": "uint256",
          "name": "rewardPercentage",
          "type": "uint256"
        }
      ],
      "stateMutability": "view",
      "type": "function"
    },
    {
      "inputs": [
        {
          "internalType": "bytes32",
          "name": "",
          "type": "bytes32"
        }
      ],
      "name": "deployedWallets",
      "outputs": [
        {
          "internalType": "address",
          "name": "",
          "type": "address"
        }
      ],
      "stateMutability": "view",
      "type": "function"
    },
    {
      "inputs": [
        {
          "internalType": "uint256",
          "name": "_causeId",
          "type": "uint256"
        }
      ],
      "name": "getFirstInQueue",
      "outputs": [
        {
          "internalType": "uint128",
          "name": "queueFront",
          "type": "uint128"
        }
      ],
      "stateMutability": "view",
      "type": "function"
    },
    {
      "inputs": [
        {
          "internalType": "uint256",
          "name": "_causeId",
          "type": "uint256"
        }
      ],
      "name": "getLastInQueue",
      "outputs": [
        {
          "internalType": "uint128",
          "name": "queueBack",
          "type": "uint128"
        }
      ],
      "stateMutability": "view",
      "type": "function"
    },
    {
      "inputs": [
        {
          "internalType": "uint256",
          "name": "_causeId",
          "type": "uint256"
        },
        {
          "internalType": "uint128",
          "name": "_index",
          "type": "uint128"
        }
      ],
      "name": "getQueueAtIndex",
      "outputs": [
        {
          "components": [
            {
              "internalType": "uint128",
              "name": "next",
              "type": "uint128"
            },
            {
              "internalType": "uint128",
              "name": "previous",
              "type": "uint128"
            },
            {
              "internalType": "bytes32",
              "name": "id",
              "type": "bytes32"
            },
            {
              "internalType": "bool",
              "name": "isUnclaimed",
              "type": "bool"
            }
          ],
          "internalType": "struct IDonationsRouter.QueuedItem",
          "name": "item",
          "type": "tuple"
        }
      ],
      "stateMutability": "view",
      "type": "function"
    },
    {
      "inputs": [
        {
          "internalType": "bytes32",
          "name": "",
          "type": "bytes32"
        }
      ],
      "name": "isRegistered",
      "outputs": [
        {
          "internalType": "bool",
          "name": "",
          "type": "bool"
        }
      ],
      "stateMutability": "view",
      "type": "function"
    },
    {
      "inputs": [],
      "name": "owner",
      "outputs": [
        {
          "internalType": "address",
          "name": "",
          "type": "address"
        }
      ],
      "stateMutability": "view",
      "type": "function"
    },
    {
      "inputs": [],
      "name": "platformFee",
      "outputs": [
        {
          "internalType": "uint256",
          "name": "",
          "type": "uint256"
        }
      ],
      "stateMutability": "view",
      "type": "function"
    },
    {
      "inputs": [
        {
          "components": [
            {
              "internalType": "address",
              "name": "owner",
              "type": "address"
            },
            {
              "internalType": "uint256",
              "name": "rewardPercentage",
              "type": "uint256"
            },
            {
              "internalType": "address",
              "name": "daoToken",
              "type": "address"
            }
          ],
          "internalType": "struct IDonationsRouter.CauseRegistrationRequest",
          "name": "_cause",
          "type": "tuple"
        }
      ],
      "name": "registerCause",
      "outputs": [],
      "stateMutability": "nonpayable",
      "type": "function"
    },
    {
      "inputs": [
        {
          "components": [
            {
              "internalType": "uint256",
              "name": "causeId",
              "type": "uint256"
            },
            {
              "internalType": "bytes",
              "name": "thinWalletId",
              "type": "bytes"
            }
          ],
          "internalType": "struct IDonationsRouter.ThinWalletID",
          "name": "_walletId",
          "type": "tuple"
        },
        {
          "internalType": "address[]",
          "name": "_owners",
          "type": "address[]"
        }
      ],
      "name": "registerThinWallet",
      "outputs": [],
      "stateMutability": "nonpayable",
      "type": "function"
    },
    {
      "inputs": [
        {
          "internalType": "uint256",
          "name": "_causeId",
          "type": "uint256"
        },
        {
          "internalType": "bytes32",
          "name": "_proposalId",
          "type": "bytes32"
        },
        {
          "internalType": "uint128",
          "name": "_index",
          "type": "uint128"
        }
      ],
      "name": "removeFromQueue",
      "outputs": [],
      "stateMutability": "nonpayable",
      "type": "function"
    },
    {
      "inputs": [],
      "name": "renounceOwnership",
      "outputs": [],
      "stateMutability": "nonpayable",
      "type": "function"
    },
    {
      "inputs": [
        {
          "internalType": "uint256",
          "name": "_fee",
          "type": "uint256"
        }
      ],
      "name": "setPlatformFee",
      "outputs": [],
      "stateMutability": "nonpayable",
      "type": "function"
    },
    {
      "inputs": [],
      "name": "stakingContract",
      "outputs": [
        {
          "internalType": "contract IStakingRewards",
          "name": "",
          "type": "address"
        }
      ],
      "stateMutability": "view",
      "type": "function"
    },
    {
      "inputs": [
        {
          "internalType": "address",
          "name": "",
          "type": "address"
        }
      ],
      "name": "tokenCauseIds",
      "outputs": [
        {
          "internalType": "uint256",
          "name": "",
          "type": "uint256"
        }
      ],
      "stateMutability": "view",
      "type": "function"
    },
    {
      "inputs": [
        {
          "internalType": "address",
          "name": "newOwner",
          "type": "address"
        }
      ],
      "name": "transferOwnership",
      "outputs": [],
      "stateMutability": "nonpayable",
      "type": "function"
    },
    {
      "inputs": [
        {
          "internalType": "uint256",
          "name": "_causeId",
          "type": "uint256"
        },
        {
          "components": [
            {
              "internalType": "address",
              "name": "owner",
              "type": "address"
            },
            {
              "internalType": "uint256",
              "name": "rewardPercentage",
              "type": "uint256"
            }
          ],
          "internalType": "struct IDonationsRouter.CauseUpdateRequest",
          "name": "_cause",
          "type": "tuple"
        }
      ],
      "name": "updateCause",
      "outputs": [],
      "stateMutability": "nonpayable",
      "type": "function"
    },
    {
      "inputs": [],
      "name": "walletImplementation",
      "outputs": [
        {
          "internalType": "address",
          "name": "",
          "type": "address"
        }
      ],
      "stateMutability": "view",
      "type": "function"
    },
    {
      "inputs": [
        {
          "components": [
            {
              "internalType": "uint256",
              "name": "causeId",
              "type": "uint256"
            },
            {
              "internalType": "bytes",
              "name": "thinWalletId",
              "type": "bytes"
            }
          ],
          "internalType": "struct IDonationsRouter.ThinWalletID",
          "name": "_walletId",
          "type": "tuple"
        },
        {
          "components": [
            {
              "internalType": "address",
              "name": "token",
              "type": "address"
            },
            {
              "internalType": "address",
              "name": "recipient",
              "type": "address"
            },
            {
              "internalType": "uint256",
              "name": "amount",
              "type": "uint256"
            }
          ],
          "internalType": "struct IDonationsRouter.WithdrawalRequest",
          "name": "_withdrawal",
          "type": "tuple"
        },
        {
          "internalType": "bytes32",
          "name": "_proposalId",
          "type": "bytes32"
        }
      ],
      "name": "withdrawFromThinWallet",
      "outputs": [],
      "stateMutability": "nonpayable",
      "type": "function"
    }
  ],
  "transactionHash": "0x79e6a4e4848f3eee8ae7de73fa51b6280bd224a6f142406b94342a61c21968e7",
  "args": [
    "0x10b570704116426B310C0f27CD29455F06aA30dB",
    "0xD4107EAaA60997a3b3487cfe94Df6DEF079362a8",
    "0x95BE86F56dF18E6F6a60427527df0fDE09D0Cce8",
    "0x1EF688B91F5c5Ad0e7f028D3a3c0E14437967194"
  ],
  "numDeployments": 1,
  "solcInputHash": "321de8bf6d358ba9e101b630f6846c2d",
  "bytecode": "0x60e06040523480156200001157600080fd5b50604051620053283803806200532883398181016040528101906200003791906200040c565b620000576200004b620002d660201b60201c565b620002de60201b60201c565b600073ffffffffffffffffffffffffffffffffffffffff168473ffffffffffffffffffffffffffffffffffffffff1603620000c9576040517f08c379a0000000000000000000000000000000000000000000000000000000008152600401620000c090620004df565b60405180910390fd5b600073ffffffffffffffffffffffffffffffffffffffff168373ffffffffffffffffffffffffffffffffffffffff16036200013b576040517f08c379a0000000000000000000000000000000000000000000000000000000008152600401620001329062000551565b60405180910390fd5b600073ffffffffffffffffffffffffffffffffffffffff168273ffffffffffffffffffffffffffffffffffffffff1603620001ad576040517f08c379a0000000000000000000000000000000000000000000000000000000008152600401620001a490620005c3565b60405180910390fd5b600073ffffffffffffffffffffffffffffffffffffffff168173ffffffffffffffffffffffffffffffffffffffff16036200021f576040517f08c379a0000000000000000000000000000000000000000000000000000000008152600401620002169062000635565b60405180910390fd5b8373ffffffffffffffffffffffffffffffffffffffff1660808173ffffffffffffffffffffffffffffffffffffffff16815250508273ffffffffffffffffffffffffffffffffffffffff1660a08173ffffffffffffffffffffffffffffffffffffffff16815250508073ffffffffffffffffffffffffffffffffffffffff1660c08173ffffffffffffffffffffffffffffffffffffffff1681525050620002cc82620002de60201b60201c565b5050505062000657565b600033905090565b60008060009054906101000a900473ffffffffffffffffffffffffffffffffffffffff169050816000806101000a81548173ffffffffffffffffffffffffffffffffffffffff021916908373ffffffffffffffffffffffffffffffffffffffff1602179055508173ffffffffffffffffffffffffffffffffffffffff168173ffffffffffffffffffffffffffffffffffffffff167f8be0079c531659141344cd1fd0a4f28419497f9722a3daafe3b4186f6b6457e060405160405180910390a35050565b600080fd5b600073ffffffffffffffffffffffffffffffffffffffff82169050919050565b6000620003d482620003a7565b9050919050565b620003e681620003c7565b8114620003f257600080fd5b50565b6000815190506200040681620003db565b92915050565b60008060008060808587031215620004295762000428620003a2565b5b60006200043987828801620003f5565b94505060206200044c87828801620003f5565b93505060406200045f87828801620003f5565b92505060606200047287828801620003f5565b91505092959194509250565b600082825260208201905092915050565b7f696e76616c6964206261736520746f6b656e0000000000000000000000000000600082015250565b6000620004c76012836200047e565b9150620004d4826200048f565b602082019050919050565b60006020820190508181036000830152620004fa81620004b8565b9050919050565b7f696e76616c6964207374616b696e6720636f6e74726163740000000000000000600082015250565b6000620005396018836200047e565b9150620005468262000501565b602082019050919050565b600060208201905081810360008301526200056c816200052a565b9050919050565b7f696e76616c6964206f776e657200000000000000000000000000000000000000600082015250565b6000620005ab600d836200047e565b9150620005b88262000573565b602082019050919050565b60006020820190508181036000830152620005de816200059c565b9050919050565b7f696e76616c696420696d706c656d656e746174696f6e00000000000000000000600082015250565b60006200061d6016836200047e565b91506200062a82620005e5565b602082019050919050565b6000602082019050818103600083015262000650816200060e565b9050919050565b60805160a05160c051614c70620006b86000396000818161053b0152818161154101526127090152600081816111940152818161123e015281816112c10152818161216c01526122b0015260008181610ec701526122160152614c706000f3fe608060405234801561001057600080fd5b506004361061014d5760003560e01c80637ea35aff116100c3578063c55dae631161007c578063c55dae63146103b1578063d198af52146103cf578063ee99205c146103ff578063f2fde38b1461041d578063f7c15fc814610439578063fecedb16146104555761014d565b80637ea35aff146102f15780638117abc1146103215780638da5cb5b1461033f57806391be2cdc1461035d578063a2e780c614610379578063b666b516146103955761014d565b806327258b221161011557806327258b221461021f5780632b3f8cfa1461024f5780632c8614bb1461027f5780635ae8b159146102af57806367dcb57b146102cb578063715018a6146102e75761014d565b806312e8e2c314610152578063196a8dca1461016e5780631ea6c2db1461019e5780631ff24c0a146101ce57806326232a2e14610201575b600080fd5b61016c600480360381019061016791906134d4565b610473565b005b610188600480360381019061018391906136bd565b610534565b6040516101959190613747565b60405180910390f35b6101b860048036038101906101b39190613798565b61056f565b6040516101c59190613747565b60405180910390f35b6101e860048036038101906101e391906134d4565b6105a2565b6040516101f894939291906137d4565b60405180910390f35b610209610632565b6040516102169190613819565b60405180910390f35b61023960048036038101906102349190613798565b610638565b604051610246919061384f565b60405180910390f35b610269600480360381019061026491906134d4565b610658565b6040516102769190613895565b60405180910390f35b610299600480360381019061029491906138dc565b61066a565b6040516102a69190613819565b60405180910390f35b6102c960048036038101906102c4919061398d565b610682565b005b6102e560048036038101906102e09190613a28565b610a26565b005b6102ef6114a5565b005b61030b600480360381019061030691906134d4565b61152d565b6040516103189190613895565b60405180910390f35b61032961153f565b6040516103369190613747565b60405180910390f35b610347611563565b6040516103549190613747565b60405180910390f35b61037760048036038101906103729190613ac3565b61158c565b005b610393600480360381019061038e9190613b35565b6117bf565b005b6103af60048036038101906103aa9190613b94565b611baf565b005b6103b9612214565b6040516103c69190613c20565b60405180910390f35b6103e960048036038101906103e49190613c3b565b612238565b6040516103f69190613cfd565b60405180910390f35b6104076122ae565b6040516104149190613d39565b60405180910390f35b610437600480360381019061043291906138dc565b6122d2565b005b610453600480360381019061044e9190613d54565b6123c9565b005b61045d6125eb565b60405161046a9190613819565b60405180910390f35b61047b6125f1565b73ffffffffffffffffffffffffffffffffffffffff16610499611563565b73ffffffffffffffffffffffffffffffffffffffff16146104ef576040517f08c379a00000000000000000000000000000000000000000000000000000000081526004016104e690613df1565b60405180910390fd5b7f8987e6f43a6c6bf408c8c427dceb2f98377f859348939ef4ab7b770b510a395a60045482604051610522929190613e11565b60405180910390a18060048190555050565b60006105687f0000000000000000000000000000000000000000000000000000000000000000610563846125f9565b612629565b9050919050565b60076020528060005260406000206000915054906101000a900473ffffffffffffffffffffffffffffffffffffffff1681565b60056020528060005260406000206000915090508060000160009054906101000a900473ffffffffffffffffffffffffffffffffffffffff16908060010160009054906101000a900473ffffffffffffffffffffffffffffffffffffffff16908060020160009054906101000a900473ffffffffffffffffffffffffffffffffffffffff16908060030154905084565b60045481565b60086020528060005260406000206000915054906101000a900460ff1681565b60006106638261263e565b9050919050565b60066020528060005260406000206000915090505481565b60006106968461069190613e3a565b6125f9565b9050600073ffffffffffffffffffffffffffffffffffffffff166007600083815260200190815260200160002060009054906101000a900473ffffffffffffffffffffffffffffffffffffffff1673ffffffffffffffffffffffffffffffffffffffff161461073a576040517f08c379a000000000000000000000000000000000000000000000000000000000815260040161073190613e99565b60405180910390fd5b6001838390501015610781576040517f08c379a000000000000000000000000000000000000000000000000000000000815260040161077890613f05565b60405180910390fd5b600060056000866000013581526020019081526020016000206040518060800160405290816000820160009054906101000a900473ffffffffffffffffffffffffffffffffffffffff1673ffffffffffffffffffffffffffffffffffffffff1673ffffffffffffffffffffffffffffffffffffffff1681526020016001820160009054906101000a900473ffffffffffffffffffffffffffffffffffffffff1673ffffffffffffffffffffffffffffffffffffffff1673ffffffffffffffffffffffffffffffffffffffff1681526020016002820160009054906101000a900473ffffffffffffffffffffffffffffffffffffffff1673ffffffffffffffffffffffffffffffffffffffff1673ffffffffffffffffffffffffffffffffffffffff1681526020016003820154815250509050600354856000013511156108fc576040517f08c379a00000000000000000000000000000000000000000000000000000000081526004016108f390613f71565b60405180910390fd5b806000015173ffffffffffffffffffffffffffffffffffffffff163373ffffffffffffffffffffffffffffffffffffffff161461096e576040517f08c379a000000000000000000000000000000000000000000000000000000000815260040161096590613fdd565b60405180910390fd5b60006109828661097d90613e3a565b610534565b90508073ffffffffffffffffffffffffffffffffffffffff167f5cac467a9f516dfefc872243d16e0a608f33ffa3ef9ecde3f5bcc88f4e4fbec0876040516109ca9190614122565b60405180910390a2610a1d83868680806020026020016040519081016040528093929190818152602001838360200280828437600081840152601f19601f82011690508083019250505050505050612702565b50505050505050565b60035483600001351115610a6f576040517f08c379a0000000000000000000000000000000000000000000000000000000008152600401610a6690613f71565b60405180910390fd5b600060056000856000013581526020019081526020016000206040518060800160405290816000820160009054906101000a900473ffffffffffffffffffffffffffffffffffffffff1673ffffffffffffffffffffffffffffffffffffffff1673ffffffffffffffffffffffffffffffffffffffff1681526020016001820160009054906101000a900473ffffffffffffffffffffffffffffffffffffffff1673ffffffffffffffffffffffffffffffffffffffff1673ffffffffffffffffffffffffffffffffffffffff1681526020016002820160009054906101000a900473ffffffffffffffffffffffffffffffffffffffff1673ffffffffffffffffffffffffffffffffffffffff1673ffffffffffffffffffffffffffffffffffffffff1681526020016003820154815250509050806000015173ffffffffffffffffffffffffffffffffffffffff163373ffffffffffffffffffffffffffffffffffffffff1614610c13576040517f08c379a0000000000000000000000000000000000000000000000000000000008152600401610c0a90613fdd565b60405180910390fd5b60008203610c56576040517f08c379a0000000000000000000000000000000000000000000000000000000008152600401610c4d90614190565b60405180910390fd5b6000610c6585600001356127f5565b90506000610c778660000135836128b9565b905080606001518015610cb95750856000013584604051602001610c9c9291906141bf565b604051602081830303815290604052805190602001208160400151145b15610cd057610ccb86600001356129c8565b610d0b565b6040517f08c379a0000000000000000000000000000000000000000000000000000000008152600401610d0290614234565b60405180910390fd5b6000610d1f87610d1a90613e3a565b6125f9565b905060006007600083815260200190815260200160002060009054906101000a900473ffffffffffffffffffffffffffffffffffffffff169050600073ffffffffffffffffffffffffffffffffffffffff168173ffffffffffffffffffffffffffffffffffffffff1603610e8a576000600167ffffffffffffffff811115610daa57610da9613517565b5b604051908082528060200260200182016040528015610dd85781602001602082028036833780820191505090505b509050856000015181600081518110610df457610df3614254565b5b602002602001019073ffffffffffffffffffffffffffffffffffffffff16908173ffffffffffffffffffffffffffffffffffffffff1681525050610e388382612702565b91508173ffffffffffffffffffffffffffffffffffffffff167f5cac467a9f516dfefc872243d16e0a608f33ffa3ef9ecde3f5bcc88f4e4fbec08a604051610e809190614122565b60405180910390a2505b7f4e9cc86b1370c2f6c435e2051a21470d3a62fa34d77277ed8bcd6855ea9e249d8888604051610ebb929190614303565b60405180910390a160007f000000000000000000000000000000000000000000000000000000000000000090508073ffffffffffffffffffffffffffffffffffffffff16886000016020810190610f1291906138dc565b73ffffffffffffffffffffffffffffffffffffffff1603611358576000610f4a87606001518a604001356129dd90919063ffffffff16565b90506000610f676004548b604001356129dd90919063ffffffff16565b90506000600367ffffffffffffffff811115610f8657610f85613517565b5b604051908082528060200260200182016040528015610fbf57816020015b610fac61339b565b815260200190600190039081610fa45790505b50905060405180606001604052808573ffffffffffffffffffffffffffffffffffffffff168152602001610ff1611563565b73ffffffffffffffffffffffffffffffffffffffff168152602001838152508160008151811061102457611023614254565b5b602002602001018190525060405180606001604052808573ffffffffffffffffffffffffffffffffffffffff1681526020018c602001602081019061106991906138dc565b73ffffffffffffffffffffffffffffffffffffffff16815260200184846110909190614362565b8d6040013561109f91906143b8565b815250816001815181106110b6576110b5614254565b5b602002602001018190525060405180606001604052808573ffffffffffffffffffffffffffffffffffffffff1681526020013073ffffffffffffffffffffffffffffffffffffffff168152602001848152508160028151811061111c5761111b614254565b5b60200260200101819052508473ffffffffffffffffffffffffffffffffffffffff166332a06d3a826040518263ffffffff1660e01b815260040161116091906144dd565b600060405180830381600087803b15801561117a57600080fd5b505af115801561118e573d6000803e3d6000fd5b505050507f000000000000000000000000000000000000000000000000000000000000000073ffffffffffffffffffffffffffffffffffffffff1663f7c618c16040518163ffffffff1660e01b8152600401602060405180830381865afa1580156111fd573d6000803e3d6000fd5b505050506040513d601f19601f82011682018060405250810190611221919061453d565b73ffffffffffffffffffffffffffffffffffffffff1663395093517f0000000000000000000000000000000000000000000000000000000000000000856040518363ffffffff1660e01b815260040161127b92919061456a565b6020604051808303816000875af115801561129a573d6000803e3d6000fd5b505050506040513d601f19601f820116820180604052508101906112be91906145bf565b507f000000000000000000000000000000000000000000000000000000000000000073ffffffffffffffffffffffffffffffffffffffff1663a8031a1d8a60400151856040518363ffffffff1660e01b815260040161131e92919061456a565b600060405180830381600087803b15801561133857600080fd5b505af115801561134c573d6000803e3d6000fd5b5050505050505061149a565b6000600167ffffffffffffffff81111561137557611374613517565b5b6040519080825280602002602001820160405280156113ae57816020015b61139b61339b565b8152602001906001900390816113935790505b50905060405180606001604052808373ffffffffffffffffffffffffffffffffffffffff1681526020018a60200160208101906113eb91906138dc565b73ffffffffffffffffffffffffffffffffffffffff1681526020018a604001358152508160008151811061142257611421614254565b5b60200260200101819052508273ffffffffffffffffffffffffffffffffffffffff166332a06d3a826040518263ffffffff1660e01b815260040161146691906144dd565b600060405180830381600087803b15801561148057600080fd5b505af1158015611494573d6000803e3d6000fd5b50505050505b505050505050505050565b6114ad6125f1565b73ffffffffffffffffffffffffffffffffffffffff166114cb611563565b73ffffffffffffffffffffffffffffffffffffffff1614611521576040517f08c379a000000000000000000000000000000000000000000000000000000000815260040161151890613df1565b60405180910390fd5b61152b60006129f1565b565b6000611538826127f5565b9050919050565b7f000000000000000000000000000000000000000000000000000000000000000081565b60008060009054906101000a900473ffffffffffffffffffffffffffffffffffffffff16905090565b6000600560008581526020019081526020016000206040518060800160405290816000820160009054906101000a900473ffffffffffffffffffffffffffffffffffffffff1673ffffffffffffffffffffffffffffffffffffffff1673ffffffffffffffffffffffffffffffffffffffff1681526020016001820160009054906101000a900473ffffffffffffffffffffffffffffffffffffffff1673ffffffffffffffffffffffffffffffffffffffff1673ffffffffffffffffffffffffffffffffffffffff1681526020016002820160009054906101000a900473ffffffffffffffffffffffffffffffffffffffff1673ffffffffffffffffffffffffffffffffffffffff1673ffffffffffffffffffffffffffffffffffffffff1681526020016003820154815250509050806000015173ffffffffffffffffffffffffffffffffffffffff163373ffffffffffffffffffffffffffffffffffffffff161461172c576040517f08c379a000000000000000000000000000000000000000000000000000000000815260040161172390613fdd565b60405180910390fd5b600084846040516020016117419291906141bf565b604051602081830303815290604052805190602001209050600061176586856128b9565b9050818160400151146117ad576040517f08c379a00000000000000000000000000000000000000000000000000000000081526004016117a490614638565b60405180910390fd5b6117b78685612ab5565b505050505050565b600354821115611804576040517f08c379a00000000000000000000000000000000000000000000000000000000081526004016117fb90613f71565b60405180910390fd5b6000600560008481526020019081526020016000206040518060800160405290816000820160009054906101000a900473ffffffffffffffffffffffffffffffffffffffff1673ffffffffffffffffffffffffffffffffffffffff1673ffffffffffffffffffffffffffffffffffffffff1681526020016001820160009054906101000a900473ffffffffffffffffffffffffffffffffffffffff1673ffffffffffffffffffffffffffffffffffffffff1673ffffffffffffffffffffffffffffffffffffffff1681526020016002820160009054906101000a900473ffffffffffffffffffffffffffffffffffffffff1673ffffffffffffffffffffffffffffffffffffffff1673ffffffffffffffffffffffffffffffffffffffff1681526020016003820154815250509050806000015173ffffffffffffffffffffffffffffffffffffffff163373ffffffffffffffffffffffffffffffffffffffff16146119a4576040517f08c379a000000000000000000000000000000000000000000000000000000000815260040161199b906146a4565b60405180910390fd5b600073ffffffffffffffffffffffffffffffffffffffff168260000160208101906119cf91906138dc565b73ffffffffffffffffffffffffffffffffffffffff1603611a25576040517f08c379a0000000000000000000000000000000000000000000000000000000008152600401611a1c90614710565b60405180910390fd5b816000016020810190611a3891906138dc565b816000019073ffffffffffffffffffffffffffffffffffffffff16908173ffffffffffffffffffffffffffffffffffffffff16815250508160200135816060018181525050806005600085815260200190815260200160002060008201518160000160006101000a81548173ffffffffffffffffffffffffffffffffffffffff021916908373ffffffffffffffffffffffffffffffffffffffff16021790555060208201518160010160006101000a81548173ffffffffffffffffffffffffffffffffffffffff021916908373ffffffffffffffffffffffffffffffffffffffff16021790555060408201518160020160006101000a81548173ffffffffffffffffffffffffffffffffffffffff021916908373ffffffffffffffffffffffffffffffffffffffff160217905550606082015181600301559050507fa2f7e907e712d4a209c1edcf720be2ba2b6b369166e415d492994b46c70c094781604051611ba29190614785565b60405180910390a1505050565b600073ffffffffffffffffffffffffffffffffffffffff16816000016020810190611bda91906138dc565b73ffffffffffffffffffffffffffffffffffffffff1603611c30576040517f08c379a0000000000000000000000000000000000000000000000000000000008152600401611c2790614710565b60405180910390fd5b600073ffffffffffffffffffffffffffffffffffffffff16816040016020810190611c5b91906138dc565b73ffffffffffffffffffffffffffffffffffffffff1603611cb1576040517f08c379a0000000000000000000000000000000000000000000000000000000008152600401611ca8906147ec565b60405180910390fd5b6000816000016020810190611cc691906138dc565b826040016020810190611cd991906138dc565b604051602001611cea92919061480c565b6040516020818303038152906040528051906020012090506008600082815260200190815260200160002060009054906101000a900460ff1615611d63576040517f08c379a0000000000000000000000000000000000000000000000000000000008152600401611d5a90614881565b60405180910390fd5b60016008600083815260200190815260200160002060006101000a81548160ff0219169083151502179055506000600360008154611da0906148a1565b919050819055905060006040518060800160405280856000016020810190611dc891906138dc565b73ffffffffffffffffffffffffffffffffffffffff168152602001611e1f604051806040016040528086815260200186604051602001611e089190613819565b604051602081830303815290604052815250610534565b73ffffffffffffffffffffffffffffffffffffffff168152602001856040016020810190611e4d91906138dc565b73ffffffffffffffffffffffffffffffffffffffff16815260200185602001358152509050806005600084815260200190815260200160002060008201518160000160006101000a81548173ffffffffffffffffffffffffffffffffffffffff021916908373ffffffffffffffffffffffffffffffffffffffff16021790555060208201518160010160006101000a81548173ffffffffffffffffffffffffffffffffffffffff021916908373ffffffffffffffffffffffffffffffffffffffff16021790555060408201518160020160006101000a81548173ffffffffffffffffffffffffffffffffffffffff021916908373ffffffffffffffffffffffffffffffffffffffff16021790555060608201518160030155905050836040016020810190611f7b91906138dc565b73ffffffffffffffffffffffffffffffffffffffff16846000016020810190611fa491906138dc565b73ffffffffffffffffffffffffffffffffffffffff167f77cb97353736f63b852cd0f3c363ae2ea0fc3ac1b67dcbad7f9366cf13eeb75784604051611fe99190613819565b60405180910390a3816006600086604001602081019061200991906138dc565b73ffffffffffffffffffffffffffffffffffffffff1673ffffffffffffffffffffffffffffffffffffffff168152602001908152602001600020819055506000600167ffffffffffffffff81111561206457612063613517565b5b6040519080825280602002602001820160405280156120925781602001602082028036833780820191505090505b5090508460000160208101906120a891906138dc565b816000815181106120bc576120bb614254565b5b602002602001019073ffffffffffffffffffffffffffffffffffffffff16908173ffffffffffffffffffffffffffffffffffffffff168152505061213b61213560405180604001604052808681526020018660405160200161211e9190613819565b6040516020818303038152906040528152506125f9565b82612702565b5084604001602081019061214f91906138dc565b73ffffffffffffffffffffffffffffffffffffffff1663095ea7b37f00000000000000000000000000000000000000000000000000000000000000007fffffffffffffffffffffffffffffffffffffffffffffffffffffffffffffffff6040518363ffffffff1660e01b81526004016121c992919061456a565b6020604051808303816000875af11580156121e8573d6000803e3d6000fd5b505050506040513d601f19601f8201168201806040525081019061220c91906145bf565b505050505050565b7f000000000000000000000000000000000000000000000000000000000000000081565b6122406133e8565b600061224c84846128b9565b9050604051806080016040528082600001516fffffffffffffffffffffffffffffffff16815260200182602001516fffffffffffffffffffffffffffffffff168152602001826040015181526020018260600151151581525091505092915050565b7f000000000000000000000000000000000000000000000000000000000000000081565b6122da6125f1565b73ffffffffffffffffffffffffffffffffffffffff166122f8611563565b73ffffffffffffffffffffffffffffffffffffffff161461234e576040517f08c379a000000000000000000000000000000000000000000000000000000000815260040161234590613df1565b60405180910390fd5b600073ffffffffffffffffffffffffffffffffffffffff168173ffffffffffffffffffffffffffffffffffffffff16036123bd576040517f08c379a00000000000000000000000000000000000000000000000000000000081526004016123b49061495b565b60405180910390fd5b6123c6816129f1565b50565b6000801b810361240e576040517f08c379a000000000000000000000000000000000000000000000000000000000815260040161240590614190565b60405180910390fd5b6000600560008481526020019081526020016000206040518060800160405290816000820160009054906101000a900473ffffffffffffffffffffffffffffffffffffffff1673ffffffffffffffffffffffffffffffffffffffff1673ffffffffffffffffffffffffffffffffffffffff1681526020016001820160009054906101000a900473ffffffffffffffffffffffffffffffffffffffff1673ffffffffffffffffffffffffffffffffffffffff1673ffffffffffffffffffffffffffffffffffffffff1681526020016002820160009054906101000a900473ffffffffffffffffffffffffffffffffffffffff1673ffffffffffffffffffffffffffffffffffffffff1673ffffffffffffffffffffffffffffffffffffffff1681526020016003820154815250509050806000015173ffffffffffffffffffffffffffffffffffffffff163373ffffffffffffffffffffffffffffffffffffffff16146125ae576040517f08c379a00000000000000000000000000000000000000000000000000000000081526004016125a590613fdd565b60405180910390fd5b600083836040516020016125c39291906141bf565b6040516020818303038152906040528051906020012090506125e58482612ac3565b50505050565b60035481565b600033905090565b60008160405160200161260c9190614a2f565b604051602081830303815290604052805190602001209050919050565b6000612636838330612e7b565b905092915050565b600080600160008481526020019081526020016000206040518060400160405290816000820160009054906101000a90046fffffffffffffffffffffffffffffffff166fffffffffffffffffffffffffffffffff166fffffffffffffffffffffffffffffffff1681526020016000820160109054906101000a90046fffffffffffffffffffffffffffffffff166fffffffffffffffffffffffffffffffff166fffffffffffffffffffffffffffffffff168152505090508060200151915050919050565b600061272e7f000000000000000000000000000000000000000000000000000000000000000084612efb565b9050806007600085815260200190815260200160002060006101000a81548173ffffffffffffffffffffffffffffffffffffffff021916908373ffffffffffffffffffffffffffffffffffffffff1602179055508073ffffffffffffffffffffffffffffffffffffffff1663946d920430846040518363ffffffff1660e01b81526004016127bd929190614b00565b600060405180830381600087803b1580156127d757600080fd5b505af11580156127eb573d6000803e3d6000fd5b5050505092915050565b600080600160008481526020019081526020016000206040518060400160405290816000820160009054906101000a90046fffffffffffffffffffffffffffffffff166fffffffffffffffffffffffffffffffff166fffffffffffffffffffffffffffffffff1681526020016000820160109054906101000a90046fffffffffffffffffffffffffffffffff166fffffffffffffffffffffffffffffffff166fffffffffffffffffffffffffffffffff168152505090508060000151915050919050565b6128c1613439565b6002600084846040516020016128d8929190614b30565b6040516020818303038152906040528051906020012081526020019081526020016000206040518060800160405290816000820160009054906101000a90046fffffffffffffffffffffffffffffffff166fffffffffffffffffffffffffffffffff166fffffffffffffffffffffffffffffffff1681526020016000820160109054906101000a90046fffffffffffffffffffffffffffffffff166fffffffffffffffffffffffffffffffff166fffffffffffffffffffffffffffffffff168152602001600182015481526020016002820160009054906101000a900460ff161515151581525050905092915050565b6129da816129d5836127f5565b612fd1565b50565b60006129e9838361329e565b905092915050565b60008060009054906101000a900473ffffffffffffffffffffffffffffffffffffffff169050816000806101000a81548173ffffffffffffffffffffffffffffffffffffffff021916908373ffffffffffffffffffffffffffffffffffffffff1602179055508173ffffffffffffffffffffffffffffffffffffffff168173ffffffffffffffffffffffffffffffffffffffff167f8be0079c531659141344cd1fd0a4f28419497f9722a3daafe3b4186f6b6457e060405160405180910390a35050565b612abf8282612fd1565b5050565b6000612ace836127f5565b90506000612adb8461263e565b90506000600182612aec9190614b59565b90506000836fffffffffffffffffffffffffffffffff1603612b0c578092505b604051806080016040528060006fffffffffffffffffffffffffffffffff168152602001836fffffffffffffffffffffffffffffffff16815260200185815260200160011515815250600260008784604051602001612b6c929190614b30565b60405160208183030381529060405280519060200120815260200190815260200160002060008201518160000160006101000a8154816fffffffffffffffffffffffffffffffff02191690836fffffffffffffffffffffffffffffffff16021790555060208201518160000160106101000a8154816fffffffffffffffffffffffffffffffff02191690836fffffffffffffffffffffffffffffffff1602179055506040820151816001015560608201518160020160006101000a81548160ff0219169083151502179055509050506000826fffffffffffffffffffffffffffffffff1614612da7576000612c6186846128b9565b90506000816020015190506000826040015190506040518060800160405280856fffffffffffffffffffffffffffffffff168152602001836fffffffffffffffffffffffffffffffff16815260200182815260200160011515815250600260008a88604051602001612cd4929190614b30565b60405160208183030381529060405280519060200120815260200190815260200160002060008201518160000160006101000a8154816fffffffffffffffffffffffffffffffff02191690836fffffffffffffffffffffffffffffffff16021790555060208201518160000160106101000a8154816fffffffffffffffffffffffffffffffff02191690836fffffffffffffffffffffffffffffffff1602179055506040820151816001015560608201518160020160006101000a81548160ff0219169083151502179055509050505050505b6040518060400160405280846fffffffffffffffffffffffffffffffff168152602001826fffffffffffffffffffffffffffffffff168152506001600087815260200190815260200160002060008201518160000160006101000a8154816fffffffffffffffffffffffffffffffff02191690836fffffffffffffffffffffffffffffffff16021790555060208201518160000160106101000a8154816fffffffffffffffffffffffffffffffff02191690836fffffffffffffffffffffffffffffffff1602179055509050505050505050565b60006040517f3d602d80600a3d3981f3363d3d373d3d3d363d7300000000000000000000000081528460601b60148201527f5af43d82803e903d91602b57fd5bf3ff0000000000000000000000000000000060288201528260601b603882015283604c82015260378120606c820152605560378201209150509392505050565b60006040517f3d602d80600a3d3981f3363d3d373d3d3d363d7300000000000000000000000081528360601b60148201527f5af43d82803e903d91602b57fd5bf300000000000000000000000000000000006028820152826037826000f5915050600073ffffffffffffffffffffffffffffffffffffffff168173ffffffffffffffffffffffffffffffffffffffff1603612fcb576040517f08c379a0000000000000000000000000000000000000000000000000000000008152600401612fc290614beb565b60405180910390fd5b92915050565b6000612fdc836127f5565b90506000612fe98461263e565b905060008484604051602001613000929190614b30565b604051602081830303815290604052805190602001209050600061302486866128b9565b90506000816000015190506000826020015190506000600160008a8152602001908152602001600020905060008390506000839050886fffffffffffffffffffffffffffffffff168a6fffffffffffffffffffffffffffffffff16036130c45760009150848360000160006101000a8154816fffffffffffffffffffffffffffffffff02191690836fffffffffffffffffffffffffffffffff1602179055505b876fffffffffffffffffffffffffffffffff168a6fffffffffffffffffffffffffffffffff160361312f5760009050838360000160106101000a8154816fffffffffffffffffffffffffffffffff02191690836fffffffffffffffffffffffffffffffff1602179055505b81600260008d88604051602001613147929190614b30565b60405160208183030381529060405280519060200120815260200190815260200160002060000160106101000a8154816fffffffffffffffffffffffffffffffff02191690836fffffffffffffffffffffffffffffffff16021790555080600260008d876040516020016131bc929190614b30565b60405160208183030381529060405280519060200120815260200190815260200160002060000160006101000a8154816fffffffffffffffffffffffffffffffff02191690836fffffffffffffffffffffffffffffffff16021790555060026000888152602001908152602001600020600080820160006101000a8154906fffffffffffffffffffffffffffffffff02191690556000820160106101000a8154906fffffffffffffffffffffffffffffffff021916905560018201600090556002820160006101000a81549060ff021916905550505050505050505050505050565b60008060008019848609848602925082811083820303915050670de0b6b3a7640000811061330357806040517fd31b34020000000000000000000000000000000000000000000000000000000081526004016132fa9190613819565b60405180910390fd5b600080670de0b6b3a764000086880991506706f05b59d3b1ffff821190506000830361334f5780670de0b6b3a7640000858161334257613341614c0b565b5b0401945050505050613395565b807faccb18165bd6fe31ae1cf318dc5b51eee0e1ba569b88cd74c1773b91fac1066960016204000080600003040186851186030262040000858803041702019450505050505b92915050565b6040518060600160405280600073ffffffffffffffffffffffffffffffffffffffff168152602001600073ffffffffffffffffffffffffffffffffffffffff168152602001600081525090565b604051806080016040528060006fffffffffffffffffffffffffffffffff16815260200160006fffffffffffffffffffffffffffffffff168152602001600080191681526020016000151581525090565b604051806080016040528060006fffffffffffffffffffffffffffffffff16815260200160006fffffffffffffffffffffffffffffffff168152602001600080191681526020016000151581525090565b6000604051905090565b600080fd5b600080fd5b6000819050919050565b6134b18161349e565b81146134bc57600080fd5b50565b6000813590506134ce816134a8565b92915050565b6000602082840312156134ea576134e9613494565b5b60006134f8848285016134bf565b91505092915050565b600080fd5b6000601f19601f8301169050919050565b7f4e487b7100000000000000000000000000000000000000000000000000000000600052604160045260246000fd5b61354f82613506565b810181811067ffffffffffffffff8211171561356e5761356d613517565b5b80604052505050565b600061358161348a565b905061358d8282613546565b919050565b600080fd5b600080fd5b600080fd5b600067ffffffffffffffff8211156135bc576135bb613517565b5b6135c582613506565b9050602081019050919050565b82818337600083830152505050565b60006135f46135ef846135a1565b613577565b9050828152602081018484840111156136105761360f61359c565b5b61361b8482856135d2565b509392505050565b600082601f83011261363857613637613597565b5b81356136488482602086016135e1565b91505092915050565b60006040828403121561366757613666613501565b5b6136716040613577565b90506000613681848285016134bf565b600083015250602082013567ffffffffffffffff8111156136a5576136a4613592565b5b6136b184828501613623565b60208301525092915050565b6000602082840312156136d3576136d2613494565b5b600082013567ffffffffffffffff8111156136f1576136f0613499565b5b6136fd84828501613651565b91505092915050565b600073ffffffffffffffffffffffffffffffffffffffff82169050919050565b600061373182613706565b9050919050565b61374181613726565b82525050565b600060208201905061375c6000830184613738565b92915050565b6000819050919050565b61377581613762565b811461378057600080fd5b50565b6000813590506137928161376c565b92915050565b6000602082840312156137ae576137ad613494565b5b60006137bc84828501613783565b91505092915050565b6137ce8161349e565b82525050565b60006080820190506137e96000830187613738565b6137f66020830186613738565b6138036040830185613738565b61381060608301846137c5565b95945050505050565b600060208201905061382e60008301846137c5565b92915050565b60008115159050919050565b61384981613834565b82525050565b60006020820190506138646000830184613840565b92915050565b60006fffffffffffffffffffffffffffffffff82169050919050565b61388f8161386a565b82525050565b60006020820190506138aa6000830184613886565b92915050565b6138b981613726565b81146138c457600080fd5b50565b6000813590506138d6816138b0565b92915050565b6000602082840312156138f2576138f1613494565b5b6000613900848285016138c7565b91505092915050565b600080fd5b60006040828403121561392457613923613909565b5b81905092915050565b600080fd5b600080fd5b60008083601f84011261394d5761394c613597565b5b8235905067ffffffffffffffff81111561396a5761396961392d565b5b60208301915083602082028301111561398657613985613932565b5b9250929050565b6000806000604084860312156139a6576139a5613494565b5b600084013567ffffffffffffffff8111156139c4576139c3613499565b5b6139d08682870161390e565b935050602084013567ffffffffffffffff8111156139f1576139f0613499565b5b6139fd86828701613937565b92509250509250925092565b600060608284031215613a1f57613a1e613909565b5b81905092915050565b600080600060a08486031215613a4157613a40613494565b5b600084013567ffffffffffffffff811115613a5f57613a5e613499565b5b613a6b8682870161390e565b9350506020613a7c86828701613a09565b9250506080613a8d86828701613783565b9150509250925092565b613aa08161386a565b8114613aab57600080fd5b50565b600081359050613abd81613a97565b92915050565b600080600060608486031215613adc57613adb613494565b5b6000613aea868287016134bf565b9350506020613afb86828701613783565b9250506040613b0c86828701613aae565b9150509250925092565b600060408284031215613b2c57613b2b613909565b5b81905092915050565b60008060608385031215613b4c57613b4b613494565b5b6000613b5a858286016134bf565b9250506020613b6b85828601613b16565b9150509250929050565b600060608284031215613b8b57613b8a613909565b5b81905092915050565b600060608284031215613baa57613ba9613494565b5b6000613bb884828501613b75565b91505092915050565b6000819050919050565b6000613be6613be1613bdc84613706565b613bc1565b613706565b9050919050565b6000613bf882613bcb565b9050919050565b6000613c0a82613bed565b9050919050565b613c1a81613bff565b82525050565b6000602082019050613c356000830184613c11565b92915050565b60008060408385031215613c5257613c51613494565b5b6000613c60858286016134bf565b9250506020613c7185828601613aae565b9150509250929050565b613c848161386a565b82525050565b613c9381613762565b82525050565b613ca281613834565b82525050565b608082016000820151613cbe6000850182613c7b565b506020820151613cd16020850182613c7b565b506040820151613ce46040850182613c8a565b506060820151613cf76060850182613c99565b50505050565b6000608082019050613d126000830184613ca8565b92915050565b6000613d2382613bed565b9050919050565b613d3381613d18565b82525050565b6000602082019050613d4e6000830184613d2a565b92915050565b60008060408385031215613d6b57613d6a613494565b5b6000613d79858286016134bf565b9250506020613d8a85828601613783565b9150509250929050565b600082825260208201905092915050565b7f4f776e61626c653a2063616c6c6572206973206e6f7420746865206f776e6572600082015250565b6000613ddb602083613d94565b9150613de682613da5565b602082019050919050565b60006020820190508181036000830152613e0a81613dce565b9050919050565b6000604082019050613e2660008301856137c5565b613e3360208301846137c5565b9392505050565b6000613e463683613651565b9050919050565b7f616c7265616479206465706c6f79656400000000000000000000000000000000600082015250565b6000613e83601083613d94565b9150613e8e82613e4d565b602082019050919050565b60006020820190508181036000830152613eb281613e76565b9050919050565b7f696e76616c6964206f776e657273000000000000000000000000000000000000600082015250565b6000613eef600e83613d94565b9150613efa82613eb9565b602082019050919050565b60006020820190508181036000830152613f1e81613ee2565b9050919050565b7f696e76616c696420636175736500000000000000000000000000000000000000600082015250565b6000613f5b600d83613d94565b9150613f6682613f25565b602082019050919050565b60006020820190508181036000830152613f8a81613f4e565b9050919050565b7f756e617574686f72697a65640000000000000000000000000000000000000000600082015250565b6000613fc7600c83613d94565b9150613fd282613f91565b602082019050919050565b60006020820190508181036000830152613ff681613fba565b9050919050565b600061400c60208401846134bf565b905092915050565b61401d8161349e565b82525050565b600080fd5b600080fd5b600080fd5b6000808335600160200384360303811261404f5761404e61402d565b5b83810192508235915060208301925067ffffffffffffffff82111561407757614076614023565b5b60018202360384131561408d5761408c614028565b5b509250929050565b600082825260208201905092915050565b60006140b28385614095565b93506140bf8385846135d2565b6140c883613506565b840190509392505050565b6000604083016140e66000840184613ffd565b6140f36000860182614014565b506141016020840184614032565b85830360208701526141148382846140a6565b925050508091505092915050565b6000602082019050818103600083015261413c81846140d3565b905092915050565b7f696e76616c69642070726f706f73616c20696400000000000000000000000000600082015250565b600061417a601383613d94565b915061418582614144565b602082019050919050565b600060208201905081810360008301526141a98161416d565b9050919050565b6141b981613762565b82525050565b60006040820190506141d460008301856137c5565b6141e160208301846141b0565b9392505050565b7f6e6f742068656164206f66207175657565000000000000000000000000000000600082015250565b600061421e601183613d94565b9150614229826141e8565b602082019050919050565b6000602082019050818103600083015261424d81614211565b9050919050565b7f4e487b7100000000000000000000000000000000000000000000000000000000600052603260045260246000fd5b600061429260208401846138c7565b905092915050565b6142a381613726565b82525050565b606082016142ba6000830183614283565b6142c7600085018261429a565b506142d56020830183614283565b6142e2602085018261429a565b506142f06040830183613ffd565b6142fd6040850182614014565b50505050565b6000608082019050818103600083015261431d81856140d3565b905061432c60208301846142a9565b9392505050565b7f4e487b7100000000000000000000000000000000000000000000000000000000600052601160045260246000fd5b600061436d8261349e565b91506143788361349e565b9250827fffffffffffffffffffffffffffffffffffffffffffffffffffffffffffffffff038211156143ad576143ac614333565b5b828201905092915050565b60006143c38261349e565b91506143ce8361349e565b9250828210156143e1576143e0614333565b5b828203905092915050565b600081519050919050565b600082825260208201905092915050565b6000819050602082019050919050565b60608201600082015161442e600085018261429a565b506020820151614441602085018261429a565b5060408201516144546040850182614014565b50505050565b60006144668383614418565b60608301905092915050565b6000602082019050919050565b600061448a826143ec565b61449481856143f7565b935061449f83614408565b8060005b838110156144d05781516144b7888261445a565b97506144c283614472565b9250506001810190506144a3565b5085935050505092915050565b600060208201905081810360008301526144f7818461447f565b905092915050565b600061450a82613726565b9050919050565b61451a816144ff565b811461452557600080fd5b50565b60008151905061453781614511565b92915050565b60006020828403121561455357614552613494565b5b600061456184828501614528565b91505092915050565b600060408201905061457f6000830185613738565b61458c60208301846137c5565b9392505050565b61459c81613834565b81146145a757600080fd5b50565b6000815190506145b981614593565b92915050565b6000602082840312156145d5576145d4613494565b5b60006145e3848285016145aa565b91505092915050565b7f696420646f6573206e6f74206d6174636820696e646578206974656d00000000600082015250565b6000614622601c83613d94565b915061462d826145ec565b602082019050919050565b6000602082019050818103600083015261465181614615565b9050919050565b7f6e6f7420617574686f72697a6564000000000000000000000000000000000000600082015250565b600061468e600e83613d94565b915061469982614658565b602082019050919050565b600060208201905081810360008301526146bd81614681565b9050919050565b7f696e76616c6964206f776e657200000000000000000000000000000000000000600082015250565b60006146fa600d83613d94565b9150614705826146c4565b602082019050919050565b60006020820190508181036000830152614729816146ed565b9050919050565b608082016000820151614746600085018261429a565b506020820151614759602085018261429a565b50604082015161476c604085018261429a565b50606082015161477f6060850182614014565b50505050565b600060808201905061479a6000830184614730565b92915050565b7f696e76616c696420746f6b656e00000000000000000000000000000000000000600082015250565b60006147d6600d83613d94565b91506147e1826147a0565b602082019050919050565b60006020820190508181036000830152614805816147c9565b9050919050565b60006040820190506148216000830185613738565b61482e6020830184613738565b9392505050565b7f6361757365206578697374730000000000000000000000000000000000000000600082015250565b600061486b600c83613d94565b915061487682614835565b602082019050919050565b6000602082019050818103600083015261489a8161485e565b9050919050565b60006148ac8261349e565b91507fffffffffffffffffffffffffffffffffffffffffffffffffffffffffffffffff82036148de576148dd614333565b5b600182019050919050565b7f4f776e61626c653a206e6577206f776e657220697320746865207a65726f206160008201527f6464726573730000000000000000000000000000000000000000000000000000602082015250565b6000614945602683613d94565b9150614950826148e9565b604082019050919050565b6000602082019050818103600083015261497481614938565b9050919050565b600081519050919050565b60005b838110156149a4578082015181840152602081019050614989565b838111156149b3576000848401525b50505050565b60006149c48261497b565b6149ce8185614095565b93506149de818560208601614986565b6149e781613506565b840191505092915050565b6000604083016000830151614a0a6000860182614014565b5060208301518482036020860152614a2282826149b9565b9150508091505092915050565b60006020820190508181036000830152614a4981846149f2565b905092915050565b600081519050919050565b600082825260208201905092915050565b6000819050602082019050919050565b6000614a89838361429a565b60208301905092915050565b6000602082019050919050565b6000614aad82614a51565b614ab78185614a5c565b9350614ac283614a6d565b8060005b83811015614af3578151614ada8882614a7d565b9750614ae583614a95565b925050600181019050614ac6565b5085935050505092915050565b6000604082019050614b156000830185613738565b8181036020830152614b278184614aa2565b90509392505050565b6000604082019050614b4560008301856137c5565b614b526020830184613886565b9392505050565b6000614b648261386a565b9150614b6f8361386a565b9250826fffffffffffffffffffffffffffffffff03821115614b9457614b93614333565b5b828201905092915050565b7f455243313136373a2063726561746532206661696c6564000000000000000000600082015250565b6000614bd5601783613d94565b9150614be082614b9f565b602082019050919050565b60006020820190508181036000830152614c0481614bc8565b9050919050565b7f4e487b7100000000000000000000000000000000000000000000000000000000600052601260045260246000fdfea2646970667358221220bd723133f0974666ba2c23c4cb293fdcfc58630b45bec87ca60f8011f840432264736f6c634300080d0033",
  "devdoc": {
    "kind": "dev",
    "methods": {
      "addToQueue(uint256,bytes32)": {
        "params": {
          "_causeId": "The cause id",
          "_proposalId": "The proposal id"
        }
      },
      "calculateThinWallet((uint256,bytes))": {
        "params": {
          "_walletId": "The wallet parameters to calculate the address from"
        }
      },
      "getFirstInQueue(uint256)": {
        "params": {
          "_causeId": "The cause id"
        }
      },
      "getLastInQueue(uint256)": {
        "params": {
          "_causeId": "The cause id"
        }
      },
      "getQueueAtIndex(uint256,uint128)": {
        "params": {
          "_causeId": "The cause id",
          "_index": "The queue index"
        }
      },
      "owner()": {
        "details": "Returns the address of the current owner."
      },
      "registerCause((address,uint256,address))": {
        "details": "This should be an open function",
        "params": {
          "_cause": "The cause to be registered"
        }
      },
      "registerThinWallet((uint256,bytes),address[])": {
        "params": {
          "_owners": "The wallet owners to set. These accounts can transfer funds, so they should be limited",
          "_walletId": "The wallet parameters"
        }
      },
      "removeFromQueue(uint256,bytes32,uint128)": {
        "params": {
          "_causeId": "The cause id",
          "_index": "The queue index",
          "_proposalId": "The proposal id"
        }
      },
      "renounceOwnership()": {
        "details": "Leaves the contract without owner. It will not be possible to call `onlyOwner` functions anymore. Can only be called by the current owner. NOTE: Renouncing ownership will leave the contract without an owner, thereby removing any functionality that is only available to the owner."
      },
      "setPlatformFee(uint256)": {
        "details": "Only the platform owner should be able to call this",
        "params": {
          "_fee": "The new platform fee"
        }
      },
      "transferOwnership(address)": {
        "details": "Transfers ownership of the contract to a new account (`newOwner`). Can only be called by the current owner."
      },
      "updateCause(uint256,(address,uint256))": {
        "details": "Can only be called by the current owner of the cause",
        "params": {
          "_cause": "The new details of the cause",
          "_causeId": "The cause to update"
        }
      },
      "withdrawFromThinWallet((uint256,bytes),(address,address,uint256),bytes32)": {
        "params": {
          "_walletId": "The wallet address parameters",
          "_withdrawal": "An array of withdrawal requests for the wallet to process"
        }
      }
    },
    "version": 1
  },
  "userdoc": {
    "errors": {
      "PRBMath__MulDivFixedPointOverflow(uint256)": [
        {
          "notice": "Emitted when the result overflows uint256."
        }
      ]
    },
    "events": {
      "RegisterCause(address,address,uint256)": {
        "notice": "### Events"
      }
    },
    "kind": "user",
    "methods": {
      "addToQueue(uint256,bytes32)": {
        "notice": "Adds a queue which is linked to a unique identifier using the hash of combined causeID and proposalID"
      },
      "baseToken()": {
        "notice": "### Autogenerated getters"
      },
      "calculateThinWallet((uint256,bytes))": {
        "notice": "Calculates the address that a given thin wallet is or will be deployed to"
      },
      "causeRecords(uint256)": {
        "notice": "Cause ID => Cause record"
      },
      "deployedWallets(bytes32)": {
        "notice": "Thin wallet salt => thin wallet address"
      },
      "getFirstInQueue(uint256)": {
        "notice": "Gets first item in queue"
      },
      "getLastInQueue(uint256)": {
        "notice": "Gets last item in queue"
      },
      "getQueueAtIndex(uint256,uint128)": {
        "notice": "Gets queue item at specific index"
      },
      "registerCause((address,uint256,address))": {
        "notice": "Creates a cause so that it can start using thin wallets that it controls"
      },
      "registerThinWallet((uint256,bytes),address[])": {
        "notice": "Deploys a thin wallet to the address derived from the parameters given"
      },
      "removeFromQueue(uint256,bytes32,uint128)": {
        "notice": "Removes a queue arbitrarily at specified index"
      },
      "setPlatformFee(uint256)": {
        "notice": "Allows the platform owner to set the platform fee"
      },
      "tokenCauseIds(address)": {
        "notice": "Token => CauseID"
      },
      "updateCause(uint256,(address,uint256))": {
        "notice": "Updates a cause"
      },
      "withdrawFromThinWallet((uint256,bytes),(address,address,uint256),bytes32)": {
        "notice": "Withdraws funds from the specified thin wallet"
      }
    },
    "version": 1
  },
  "storageLayout": {
    "storage": [
      {
        "astId": 6552,
        "contract": "contracts/implementations/DonationsRouter.sol:DonationsRouter",
        "label": "_owner",
        "offset": 0,
        "slot": "0",
        "type": "t_address"
      },
      {
        "astId": 14457,
        "contract": "contracts/implementations/DonationsRouter.sol:DonationsRouter",
        "label": "queueManagers",
        "offset": 0,
        "slot": "1",
        "type": "t_mapping(t_uint256,t_struct(QueueManager)14443_storage)"
      },
      {
        "astId": 14462,
        "contract": "contracts/implementations/DonationsRouter.sol:DonationsRouter",
        "label": "queueItems",
        "offset": 0,
        "slot": "2",
        "type": "t_mapping(t_bytes32,t_struct(QueueItem)14452_storage)"
      },
      {
        "astId": 12332,
        "contract": "contracts/implementations/DonationsRouter.sol:DonationsRouter",
        "label": "causeId",
        "offset": 0,
        "slot": "3",
        "type": "t_uint256"
      },
      {
        "astId": 12335,
        "contract": "contracts/implementations/DonationsRouter.sol:DonationsRouter",
        "label": "platformFee",
        "offset": 0,
        "slot": "4",
        "type": "t_uint256"
      },
      {
        "astId": 12342,
        "contract": "contracts/implementations/DonationsRouter.sol:DonationsRouter",
        "label": "causeRecords",
        "offset": 0,
        "slot": "5",
        "type": "t_mapping(t_uint256,t_struct(CauseRecord)15875_storage)"
      },
      {
        "astId": 12348,
        "contract": "contracts/implementations/DonationsRouter.sol:DonationsRouter",
        "label": "tokenCauseIds",
        "offset": 0,
        "slot": "6",
        "type": "t_mapping(t_address,t_uint256)"
      },
      {
        "astId": 12354,
        "contract": "contracts/implementations/DonationsRouter.sol:DonationsRouter",
        "label": "deployedWallets",
        "offset": 0,
        "slot": "7",
        "type": "t_mapping(t_bytes32,t_address)"
      },
      {
        "astId": 12358,
        "contract": "contracts/implementations/DonationsRouter.sol:DonationsRouter",
        "label": "isRegistered",
        "offset": 0,
        "slot": "8",
        "type": "t_mapping(t_bytes32,t_bool)"
      }
    ],
    "types": {
      "t_address": {
        "encoding": "inplace",
        "label": "address",
        "numberOfBytes": "20"
      },
      "t_bool": {
        "encoding": "inplace",
        "label": "bool",
        "numberOfBytes": "1"
      },
      "t_bytes32": {
        "encoding": "inplace",
        "label": "bytes32",
        "numberOfBytes": "32"
      },
      "t_mapping(t_address,t_uint256)": {
        "encoding": "mapping",
        "key": "t_address",
        "label": "mapping(address => uint256)",
        "numberOfBytes": "32",
        "value": "t_uint256"
      },
      "t_mapping(t_bytes32,t_address)": {
        "encoding": "mapping",
        "key": "t_bytes32",
        "label": "mapping(bytes32 => address)",
        "numberOfBytes": "32",
        "value": "t_address"
      },
      "t_mapping(t_bytes32,t_bool)": {
        "encoding": "mapping",
        "key": "t_bytes32",
        "label": "mapping(bytes32 => bool)",
        "numberOfBytes": "32",
        "value": "t_bool"
      },
      "t_mapping(t_bytes32,t_struct(QueueItem)14452_storage)": {
        "encoding": "mapping",
        "key": "t_bytes32",
        "label": "mapping(bytes32 => struct Queue.QueueItem)",
        "numberOfBytes": "32",
        "value": "t_struct(QueueItem)14452_storage"
      },
      "t_mapping(t_uint256,t_struct(CauseRecord)15875_storage)": {
        "encoding": "mapping",
        "key": "t_uint256",
        "label": "mapping(uint256 => struct IDonationsRouter.CauseRecord)",
        "numberOfBytes": "32",
        "value": "t_struct(CauseRecord)15875_storage"
      },
      "t_mapping(t_uint256,t_struct(QueueManager)14443_storage)": {
        "encoding": "mapping",
        "key": "t_uint256",
        "label": "mapping(uint256 => struct Queue.QueueManager)",
        "numberOfBytes": "32",
        "value": "t_struct(QueueManager)14443_storage"
      },
      "t_struct(CauseRecord)15875_storage": {
        "encoding": "inplace",
        "label": "struct IDonationsRouter.CauseRecord",
        "members": [
          {
            "astId": 15867,
            "contract": "contracts/implementations/DonationsRouter.sol:DonationsRouter",
            "label": "owner",
            "offset": 0,
            "slot": "0",
            "type": "t_address"
          },
          {
            "astId": 15869,
            "contract": "contracts/implementations/DonationsRouter.sol:DonationsRouter",
            "label": "defaultWallet",
            "offset": 0,
            "slot": "1",
            "type": "t_address"
          },
          {
            "astId": 15872,
            "contract": "contracts/implementations/DonationsRouter.sol:DonationsRouter",
            "label": "daoToken",
            "offset": 0,
            "slot": "2",
            "type": "t_address"
          },
          {
            "astId": 15874,
            "contract": "contracts/implementations/DonationsRouter.sol:DonationsRouter",
            "label": "rewardPercentage",
            "offset": 0,
            "slot": "3",
            "type": "t_uint256"
          }
        ],
        "numberOfBytes": "128"
      },
      "t_struct(QueueItem)14452_storage": {
        "encoding": "inplace",
        "label": "struct Queue.QueueItem",
        "members": [
          {
            "astId": 14445,
            "contract": "contracts/implementations/DonationsRouter.sol:DonationsRouter",
            "label": "next",
            "offset": 0,
            "slot": "0",
            "type": "t_uint128"
          },
          {
            "astId": 14447,
            "contract": "contracts/implementations/DonationsRouter.sol:DonationsRouter",
            "label": "previous",
            "offset": 16,
            "slot": "0",
            "type": "t_uint128"
          },
          {
            "astId": 14449,
            "contract": "contracts/implementations/DonationsRouter.sol:DonationsRouter",
            "label": "id",
            "offset": 0,
            "slot": "1",
            "type": "t_bytes32"
          },
          {
            "astId": 14451,
            "contract": "contracts/implementations/DonationsRouter.sol:DonationsRouter",
            "label": "isUnclaimed",
            "offset": 0,
            "slot": "2",
            "type": "t_bool"
          }
        ],
        "numberOfBytes": "96"
      },
      "t_struct(QueueManager)14443_storage": {
        "encoding": "inplace",
        "label": "struct Queue.QueueManager",
        "members": [
          {
            "astId": 14440,
            "contract": "contracts/implementations/DonationsRouter.sol:DonationsRouter",
            "label": "front",
            "offset": 0,
            "slot": "0",
            "type": "t_uint128"
          },
          {
            "astId": 14442,
            "contract": "contracts/implementations/DonationsRouter.sol:DonationsRouter",
            "label": "back",
            "offset": 16,
            "slot": "0",
            "type": "t_uint128"
          }
        ],
        "numberOfBytes": "32"
      },
      "t_uint128": {
        "encoding": "inplace",
        "label": "uint128",
        "numberOfBytes": "16"
      },
      "t_uint256": {
        "encoding": "inplace",
        "label": "uint256",
        "numberOfBytes": "32"
      }
    }
  }
}