{
  "address": "0x92F5AF71E229a42c323B6bE71Dd2195E5B56Bb2f",
  "abi": [
    {
      "inputs": [],
      "stateMutability": "nonpayable",
      "type": "constructor"
    },
    {
      "inputs": [],
      "name": "MaxSupplyReached",
      "type": "error"
    },
    {
      "anonymous": false,
      "inputs": [
        {
          "indexed": true,
          "internalType": "address",
          "name": "owner",
          "type": "address"
        },
        {
          "indexed": true,
          "internalType": "address",
          "name": "spender",
          "type": "address"
        },
        {
          "indexed": false,
          "internalType": "uint256",
          "name": "value",
          "type": "uint256"
        }
      ],
      "name": "Approval",
      "type": "event"
    },
    {
      "anonymous": false,
      "inputs": [
        {
          "indexed": true,
          "internalType": "address",
          "name": "previousOwner",
          "type": "address"
        },
        {
          "indexed": true,
          "internalType": "address",
          "name": "newOwner",
          "type": "address"
        }
      ],
      "name": "OwnershipTransferred",
      "type": "event"
    },
    {
      "anonymous": false,
      "inputs": [
        {
          "indexed": true,
          "internalType": "address",
          "name": "from",
          "type": "address"
        },
        {
          "indexed": true,
          "internalType": "address",
          "name": "to",
          "type": "address"
        },
        {
          "indexed": false,
          "internalType": "uint256",
          "name": "value",
          "type": "uint256"
        }
      ],
      "name": "Transfer",
      "type": "event"
    },
    {
      "inputs": [
        {
          "internalType": "address",
          "name": "owner",
          "type": "address"
        },
        {
          "internalType": "address",
          "name": "spender",
          "type": "address"
        }
      ],
      "name": "allowance",
      "outputs": [
        {
          "internalType": "uint256",
          "name": "",
          "type": "uint256"
        }
      ],
      "stateMutability": "view",
      "type": "function"
    },
    {
      "inputs": [
        {
          "internalType": "address",
          "name": "spender",
          "type": "address"
        },
        {
          "internalType": "uint256",
          "name": "amount",
          "type": "uint256"
        }
      ],
      "name": "approve",
      "outputs": [
        {
          "internalType": "bool",
          "name": "",
          "type": "bool"
        }
      ],
      "stateMutability": "nonpayable",
      "type": "function"
    },
    {
      "inputs": [
        {
          "internalType": "address",
          "name": "account",
          "type": "address"
        }
      ],
      "name": "balanceOf",
      "outputs": [
        {
          "internalType": "uint256",
          "name": "",
          "type": "uint256"
        }
      ],
      "stateMutability": "view",
      "type": "function"
    },
    {
      "inputs": [
        {
          "internalType": "address",
          "name": "account",
          "type": "address"
        },
        {
          "internalType": "uint256",
          "name": "amount",
          "type": "uint256"
        }
      ],
      "name": "burn",
      "outputs": [],
      "stateMutability": "nonpayable",
      "type": "function"
    },
    {
      "inputs": [],
      "name": "decimals",
      "outputs": [
        {
          "internalType": "uint8",
          "name": "",
          "type": "uint8"
        }
      ],
      "stateMutability": "view",
      "type": "function"
    },
    {
      "inputs": [
        {
          "internalType": "address",
          "name": "spender",
          "type": "address"
        },
        {
          "internalType": "uint256",
          "name": "subtractedValue",
          "type": "uint256"
        }
      ],
      "name": "decreaseAllowance",
      "outputs": [
        {
          "internalType": "bool",
          "name": "",
          "type": "bool"
        }
      ],
      "stateMutability": "nonpayable",
      "type": "function"
    },
    {
      "inputs": [
        {
          "internalType": "address",
          "name": "spender",
          "type": "address"
        },
        {
          "internalType": "uint256",
          "name": "addedValue",
          "type": "uint256"
        }
      ],
      "name": "increaseAllowance",
      "outputs": [
        {
          "internalType": "bool",
          "name": "",
          "type": "bool"
        }
      ],
      "stateMutability": "nonpayable",
      "type": "function"
    },
    {
      "inputs": [
        {
          "internalType": "bytes",
          "name": "_name",
          "type": "bytes"
        },
        {
          "internalType": "bytes",
          "name": "_symbol",
          "type": "bytes"
        },
        {
          "internalType": "uint256",
          "name": "_maxSupply",
          "type": "uint256"
        },
        {
          "internalType": "address",
          "name": "_owner",
          "type": "address"
        }
      ],
      "name": "initialize",
      "outputs": [],
      "stateMutability": "nonpayable",
      "type": "function"
    },
    {
      "inputs": [
        {
          "internalType": "address",
          "name": "account",
          "type": "address"
        },
        {
          "internalType": "uint256",
          "name": "amount",
          "type": "uint256"
        }
      ],
      "name": "mint",
      "outputs": [],
      "stateMutability": "nonpayable",
      "type": "function"
    },
    {
      "inputs": [],
      "name": "name",
      "outputs": [
        {
          "internalType": "string",
          "name": "",
          "type": "string"
        }
      ],
      "stateMutability": "view",
      "type": "function"
    },
    {
      "inputs": [],
      "name": "owner",
      "outputs": [
        {
          "internalType": "address",
          "name": "",
          "type": "address"
        }
      ],
      "stateMutability": "view",
      "type": "function"
    },
    {
      "inputs": [],
      "name": "renounceOwnership",
      "outputs": [],
      "stateMutability": "nonpayable",
      "type": "function"
    },
    {
      "inputs": [],
      "name": "symbol",
      "outputs": [
        {
          "internalType": "string",
          "name": "",
          "type": "string"
        }
      ],
      "stateMutability": "view",
      "type": "function"
    },
    {
      "inputs": [],
      "name": "totalSupply",
      "outputs": [
        {
          "internalType": "uint256",
          "name": "",
          "type": "uint256"
        }
      ],
      "stateMutability": "view",
      "type": "function"
    },
    {
      "inputs": [
        {
          "internalType": "address",
          "name": "to",
          "type": "address"
        },
        {
          "internalType": "uint256",
          "name": "amount",
          "type": "uint256"
        }
      ],
      "name": "transfer",
      "outputs": [
        {
          "internalType": "bool",
          "name": "",
          "type": "bool"
        }
      ],
      "stateMutability": "nonpayable",
      "type": "function"
    },
    {
      "inputs": [
        {
          "internalType": "address",
          "name": "from",
          "type": "address"
        },
        {
          "internalType": "address",
          "name": "to",
          "type": "address"
        },
        {
          "internalType": "uint256",
          "name": "amount",
          "type": "uint256"
        }
      ],
      "name": "transferFrom",
      "outputs": [
        {
          "internalType": "bool",
          "name": "",
          "type": "bool"
        }
      ],
      "stateMutability": "nonpayable",
      "type": "function"
    },
    {
      "inputs": [
        {
          "internalType": "address",
          "name": "newOwner",
          "type": "address"
        }
      ],
      "name": "transferOwnership",
      "outputs": [],
      "stateMutability": "nonpayable",
      "type": "function"
    }
  ],
  "transactionHash": "0x3a0a219e32aa4ee0b9827aa3c24da997f7bacf0eff4c817b1fd19de781ada6db",
  "args": [],
  "numDeployments": 1,
  "solcInputHash": "321de8bf6d358ba9e101b630f6846c2d",
  "bytecode": "0x60806040523480156200001157600080fd5b50600060019054906101000a900460ff166200003c5760008054906101000a900460ff16156200004d565b6200004c620001b660201b60201c565b5b6200008f576040517f08c379a0000000000000000000000000000000000000000000000000000000008152600401620000869062000703565b60405180910390fd5b60008060019054906101000a900460ff161590508015620000e0576001600060016101000a81548160ff02191690831515021790555060016000806101000a81548160ff0219169083151502179055505b6200015c6040518060400160405280600e81526020017f53696e676c65746f6e20426173650000000000000000000000000000000000008152506040518060400160405280600481526020017f4241534500000000000000000000000000000000000000000000000000000000815250620001d460201b60201c565b6200016c6200023c60201b60201c565b670de0b6b3a76400006097819055506200018d6001620002a060201b60201c565b8015620001af5760008060016101000a81548160ff0219169083151502179055505b506200092b565b6000620001ce30620003b560201b62000c861760201c565b15905090565b600060019054906101000a900460ff1662000226576040517f08c379a00000000000000000000000000000000000000000000000000000000081526004016200021d906200079b565b60405180910390fd5b620002388282620003d860201b60201c565b5050565b600060019054906101000a900460ff166200028e576040517f08c379a000000000000000000000000000000000000000000000000000000000815260040162000285906200079b565b60405180910390fd5b6200029e6200046060201b60201c565b565b620002b0620004d460201b60201c565b73ffffffffffffffffffffffffffffffffffffffff16620002d6620004dc60201b60201c565b73ffffffffffffffffffffffffffffffffffffffff16146200032f576040517f08c379a000000000000000000000000000000000000000000000000000000000815260040162000326906200080d565b60405180910390fd5b600073ffffffffffffffffffffffffffffffffffffffff168173ffffffffffffffffffffffffffffffffffffffff1603620003a1576040517f08c379a00000000000000000000000000000000000000000000000000000000081526004016200039890620008a5565b60405180910390fd5b620003b2816200050660201b60201c565b50565b6000808273ffffffffffffffffffffffffffffffffffffffff163b119050919050565b600060019054906101000a900460ff166200042a576040517f08c379a000000000000000000000000000000000000000000000000000000000815260040162000421906200079b565b60405180910390fd5b816036908051906020019062000442929190620005cc565b5080603790805190602001906200045b929190620005cc565b505050565b600060019054906101000a900460ff16620004b2576040517f08c379a0000000000000000000000000000000000000000000000000000000008152600401620004a9906200079b565b60405180910390fd5b620004d2620004c6620004d460201b60201c565b6200050660201b60201c565b565b600033905090565b6000606560009054906101000a900473ffffffffffffffffffffffffffffffffffffffff16905090565b6000606560009054906101000a900473ffffffffffffffffffffffffffffffffffffffff16905081606560006101000a81548173ffffffffffffffffffffffffffffffffffffffff021916908373ffffffffffffffffffffffffffffffffffffffff1602179055508173ffffffffffffffffffffffffffffffffffffffff168173ffffffffffffffffffffffffffffffffffffffff167f8be0079c531659141344cd1fd0a4f28419497f9722a3daafe3b4186f6b6457e060405160405180910390a35050565b828054620005da90620008f6565b90600052602060002090601f016020900481019282620005fe57600085556200064a565b82601f106200061957805160ff19168380011785556200064a565b828001600101855582156200064a579182015b82811115620006495782518255916020019190600101906200062c565b5b5090506200065991906200065d565b5090565b5b80821115620006785760008160009055506001016200065e565b5090565b600082825260208201905092915050565b7f496e697469616c697a61626c653a20636f6e747261637420697320616c72656160008201527f647920696e697469616c697a6564000000000000000000000000000000000000602082015250565b6000620006eb602e836200067c565b9150620006f8826200068d565b604082019050919050565b600060208201905081810360008301526200071e81620006dc565b9050919050565b7f496e697469616c697a61626c653a20636f6e7472616374206973206e6f74206960008201527f6e697469616c697a696e67000000000000000000000000000000000000000000602082015250565b600062000783602b836200067c565b9150620007908262000725565b604082019050919050565b60006020820190508181036000830152620007b68162000774565b9050919050565b7f4f776e61626c653a2063616c6c6572206973206e6f7420746865206f776e6572600082015250565b6000620007f56020836200067c565b91506200080282620007bd565b602082019050919050565b600060208201905081810360008301526200082881620007e6565b9050919050565b7f4f776e61626c653a206e6577206f776e657220697320746865207a65726f206160008201527f6464726573730000000000000000000000000000000000000000000000000000602082015250565b60006200088d6026836200067c565b91506200089a826200082f565b604082019050919050565b60006020820190508181036000830152620008c0816200087e565b9050919050565b7f4e487b7100000000000000000000000000000000000000000000000000000000600052602260045260246000fd5b600060028204905060018216806200090f57607f821691505b602082108103620009255762000924620008c7565b5b50919050565b61251d806200093b6000396000f3fe608060405234801561001057600080fd5b506004361061010b5760003560e01c806370a08231116100a25780639dc29fac116100715780639dc29fac146102a8578063a457c2d7146102c4578063a9059cbb146102f4578063dd62ed3e14610324578063f2fde38b146103545761010b565b806370a0823114610232578063715018a6146102625780638da5cb5b1461026c57806395d89b411461028a5761010b565b8063313ce567116100de578063313ce567146101ac57806339509351146101ca57806340c10f19146101fa5780634507fc69146102165761010b565b806306fdde0314610110578063095ea7b31461012e57806318160ddd1461015e57806323b872dd1461017c575b600080fd5b610118610370565b6040516101259190611875565b60405180910390f35b61014860048036038101906101439190611935565b610402565b6040516101559190611990565b60405180910390f35b610166610425565b60405161017391906119ba565b60405180910390f35b610196600480360381019061019191906119d5565b61042f565b6040516101a39190611990565b60405180910390f35b6101b461045e565b6040516101c19190611a44565b60405180910390f35b6101e460048036038101906101df9190611935565b610467565b6040516101f19190611990565b60405180910390f35b610214600480360381019061020f9190611935565b610511565b005b610230600480360381019061022b9190611ac4565b610650565b005b61024c60048036038101906102479190611b6b565b6107e4565b60405161025991906119ba565b60405180910390f35b61026a61082d565b005b6102746108b5565b6040516102819190611ba7565b60405180910390f35b6102926108df565b60405161029f9190611875565b60405180910390f35b6102c260048036038101906102bd9190611935565b610971565b005b6102de60048036038101906102d99190611935565b6109fb565b6040516102eb9190611990565b60405180910390f35b61030e60048036038101906103099190611935565b610ae5565b60405161031b9190611990565b60405180910390f35b61033e60048036038101906103399190611bc2565b610b08565b60405161034b91906119ba565b60405180910390f35b61036e60048036038101906103699190611b6b565b610b8f565b005b60606036805461037f90611c31565b80601f01602080910402602001604051908101604052809291908181526020018280546103ab90611c31565b80156103f85780601f106103cd576101008083540402835291602001916103f8565b820191906000526020600020905b8154815290600101906020018083116103db57829003601f168201915b5050505050905090565b60008061040d610ca9565b905061041a818585610cb1565b600191505092915050565b6000603554905090565b60008061043a610ca9565b9050610447858285610e7a565b610452858585610f06565b60019150509392505050565b60006012905090565b600080610472610ca9565b9050610506818585603460008673ffffffffffffffffffffffffffffffffffffffff1673ffffffffffffffffffffffffffffffffffffffff16815260200190815260200160002060008973ffffffffffffffffffffffffffffffffffffffff1673ffffffffffffffffffffffffffffffffffffffff168152602001908152602001600020546105019190611c91565b610cb1565b600191505092915050565b610519610ca9565b73ffffffffffffffffffffffffffffffffffffffff166105376108b5565b73ffffffffffffffffffffffffffffffffffffffff161461058d576040517f08c379a000000000000000000000000000000000000000000000000000000000815260040161058490611d33565b60405180910390fd5b609754813073ffffffffffffffffffffffffffffffffffffffff166318160ddd6040518163ffffffff1660e01b8152600401602060405180830381865afa1580156105dc573d6000803e3d6000fd5b505050506040513d601f19601f820116820180604052508101906106009190611d68565b61060a9190611c91565b1115610642576040517fd05cb60900000000000000000000000000000000000000000000000000000000815260040160405180910390fd5b61064c8282611188565b5050565b600060019054906101000a900460ff166106785760008054906101000a900460ff1615610681565b6106806112e8565b5b6106c0576040517f08c379a00000000000000000000000000000000000000000000000000000000081526004016106b790611e07565b60405180910390fd5b60008060019054906101000a900460ff161590508015610710576001600060016101000a81548160ff02191690831515021790555060016000806101000a81548160ff0219169083151502179055505b6107a287878080601f016020809104026020016040519081016040528093929190818152602001838380828437600081840152601f19601f8201169050808301925050505050505086868080601f016020809104026020016040519081016040528093929190818152602001838380828437600081840152601f19601f820116905080830192505050505050506112f9565b6107aa611356565b826097819055506107ba82610b8f565b80156107db5760008060016101000a81548160ff0219169083151502179055505b50505050505050565b6000603360008373ffffffffffffffffffffffffffffffffffffffff1673ffffffffffffffffffffffffffffffffffffffff168152602001908152602001600020549050919050565b610835610ca9565b73ffffffffffffffffffffffffffffffffffffffff166108536108b5565b73ffffffffffffffffffffffffffffffffffffffff16146108a9576040517f08c379a00000000000000000000000000000000000000000000000000000000081526004016108a090611d33565b60405180910390fd5b6108b360006113af565b565b6000606560009054906101000a900473ffffffffffffffffffffffffffffffffffffffff16905090565b6060603780546108ee90611c31565b80601f016020809104026020016040519081016040528092919081815260200182805461091a90611c31565b80156109675780601f1061093c57610100808354040283529160200191610967565b820191906000526020600020905b81548152906001019060200180831161094a57829003601f168201915b5050505050905090565b610979610ca9565b73ffffffffffffffffffffffffffffffffffffffff166109976108b5565b73ffffffffffffffffffffffffffffffffffffffff16146109ed576040517f08c379a00000000000000000000000000000000000000000000000000000000081526004016109e490611d33565b60405180910390fd5b6109f78282611475565b5050565b600080610a06610ca9565b90506000603460008373ffffffffffffffffffffffffffffffffffffffff1673ffffffffffffffffffffffffffffffffffffffff16815260200190815260200160002060008673ffffffffffffffffffffffffffffffffffffffff1673ffffffffffffffffffffffffffffffffffffffff16815260200190815260200160002054905083811015610acc576040517f08c379a0000000000000000000000000000000000000000000000000000000008152600401610ac390611e99565b60405180910390fd5b610ad98286868403610cb1565b60019250505092915050565b600080610af0610ca9565b9050610afd818585610f06565b600191505092915050565b6000603460008473ffffffffffffffffffffffffffffffffffffffff1673ffffffffffffffffffffffffffffffffffffffff16815260200190815260200160002060008373ffffffffffffffffffffffffffffffffffffffff1673ffffffffffffffffffffffffffffffffffffffff16815260200190815260200160002054905092915050565b610b97610ca9565b73ffffffffffffffffffffffffffffffffffffffff16610bb56108b5565b73ffffffffffffffffffffffffffffffffffffffff1614610c0b576040517f08c379a0000000000000000000000000000000000000000000000000000000008152600401610c0290611d33565b60405180910390fd5b600073ffffffffffffffffffffffffffffffffffffffff168173ffffffffffffffffffffffffffffffffffffffff1603610c7a576040517f08c379a0000000000000000000000000000000000000000000000000000000008152600401610c7190611f2b565b60405180910390fd5b610c83816113af565b50565b6000808273ffffffffffffffffffffffffffffffffffffffff163b119050919050565b600033905090565b600073ffffffffffffffffffffffffffffffffffffffff168373ffffffffffffffffffffffffffffffffffffffff1603610d20576040517f08c379a0000000000000000000000000000000000000000000000000000000008152600401610d1790611fbd565b60405180910390fd5b600073ffffffffffffffffffffffffffffffffffffffff168273ffffffffffffffffffffffffffffffffffffffff1603610d8f576040517f08c379a0000000000000000000000000000000000000000000000000000000008152600401610d869061204f565b60405180910390fd5b80603460008573ffffffffffffffffffffffffffffffffffffffff1673ffffffffffffffffffffffffffffffffffffffff16815260200190815260200160002060008473ffffffffffffffffffffffffffffffffffffffff1673ffffffffffffffffffffffffffffffffffffffff168152602001908152602001600020819055508173ffffffffffffffffffffffffffffffffffffffff168373ffffffffffffffffffffffffffffffffffffffff167f8c5be1e5ebec7d5bd14f71427d1e84f3dd0314c0f7b2291e5b200ac8c7c3b92583604051610e6d91906119ba565b60405180910390a3505050565b6000610e868484610b08565b90507fffffffffffffffffffffffffffffffffffffffffffffffffffffffffffffffff8114610f005781811015610ef2576040517f08c379a0000000000000000000000000000000000000000000000000000000008152600401610ee9906120bb565b60405180910390fd5b610eff8484848403610cb1565b5b50505050565b600073ffffffffffffffffffffffffffffffffffffffff168373ffffffffffffffffffffffffffffffffffffffff1603610f75576040517f08c379a0000000000000000000000000000000000000000000000000000000008152600401610f6c9061214d565b60405180910390fd5b600073ffffffffffffffffffffffffffffffffffffffff168273ffffffffffffffffffffffffffffffffffffffff1603610fe4576040517f08c379a0000000000000000000000000000000000000000000000000000000008152600401610fdb906121df565b60405180910390fd5b610fef83838361164d565b6000603360008573ffffffffffffffffffffffffffffffffffffffff1673ffffffffffffffffffffffffffffffffffffffff16815260200190815260200160002054905081811015611076576040517f08c379a000000000000000000000000000000000000000000000000000000000815260040161106d90612271565b60405180910390fd5b818103603360008673ffffffffffffffffffffffffffffffffffffffff1673ffffffffffffffffffffffffffffffffffffffff1681526020019081526020016000208190555081603360008573ffffffffffffffffffffffffffffffffffffffff1673ffffffffffffffffffffffffffffffffffffffff168152602001908152602001600020600082825461110b9190611c91565b925050819055508273ffffffffffffffffffffffffffffffffffffffff168473ffffffffffffffffffffffffffffffffffffffff167fddf252ad1be2c89b69c2b068fc378daa952ba7f163c4a11628f55a4df523b3ef8460405161116f91906119ba565b60405180910390a3611182848484611652565b50505050565b600073ffffffffffffffffffffffffffffffffffffffff168273ffffffffffffffffffffffffffffffffffffffff16036111f7576040517f08c379a00000000000000000000000000000000000000000000000000000000081526004016111ee906122dd565b60405180910390fd5b6112036000838361164d565b80603560008282546112159190611c91565b9250508190555080603360008473ffffffffffffffffffffffffffffffffffffffff1673ffffffffffffffffffffffffffffffffffffffff168152602001908152602001600020600082825461126b9190611c91565b925050819055508173ffffffffffffffffffffffffffffffffffffffff16600073ffffffffffffffffffffffffffffffffffffffff167fddf252ad1be2c89b69c2b068fc378daa952ba7f163c4a11628f55a4df523b3ef836040516112d091906119ba565b60405180910390a36112e460008383611652565b5050565b60006112f330610c86565b15905090565b600060019054906101000a900460ff16611348576040517f08c379a000000000000000000000000000000000000000000000000000000000815260040161133f9061236f565b60405180910390fd5b6113528282611657565b5050565b600060019054906101000a900460ff166113a5576040517f08c379a000000000000000000000000000000000000000000000000000000000815260040161139c9061236f565b60405180910390fd5b6113ad6116d8565b565b6000606560009054906101000a900473ffffffffffffffffffffffffffffffffffffffff16905081606560006101000a81548173ffffffffffffffffffffffffffffffffffffffff021916908373ffffffffffffffffffffffffffffffffffffffff1602179055508173ffffffffffffffffffffffffffffffffffffffff168173ffffffffffffffffffffffffffffffffffffffff167f8be0079c531659141344cd1fd0a4f28419497f9722a3daafe3b4186f6b6457e060405160405180910390a35050565b600073ffffffffffffffffffffffffffffffffffffffff168273ffffffffffffffffffffffffffffffffffffffff16036114e4576040517f08c379a00000000000000000000000000000000000000000000000000000000081526004016114db90612401565b60405180910390fd5b6114f08260008361164d565b6000603360008473ffffffffffffffffffffffffffffffffffffffff1673ffffffffffffffffffffffffffffffffffffffff16815260200190815260200160002054905081811015611577576040517f08c379a000000000000000000000000000000000000000000000000000000000815260040161156e90612493565b60405180910390fd5b818103603360008573ffffffffffffffffffffffffffffffffffffffff1673ffffffffffffffffffffffffffffffffffffffff1681526020019081526020016000208190555081603560008282546115cf91906124b3565b92505081905550600073ffffffffffffffffffffffffffffffffffffffff168373ffffffffffffffffffffffffffffffffffffffff167fddf252ad1be2c89b69c2b068fc378daa952ba7f163c4a11628f55a4df523b3ef8460405161163491906119ba565b60405180910390a361164883600084611652565b505050565b505050565b505050565b600060019054906101000a900460ff166116a6576040517f08c379a000000000000000000000000000000000000000000000000000000000815260040161169d9061236f565b60405180910390fd5b81603690805190602001906116bc929190611739565b5080603790805190602001906116d3929190611739565b505050565b600060019054906101000a900460ff16611727576040517f08c379a000000000000000000000000000000000000000000000000000000000815260040161171e9061236f565b60405180910390fd5b611737611732610ca9565b6113af565b565b82805461174590611c31565b90600052602060002090601f01602090048101928261176757600085556117ae565b82601f1061178057805160ff19168380011785556117ae565b828001600101855582156117ae579182015b828111156117ad578251825591602001919060010190611792565b5b5090506117bb91906117bf565b5090565b5b808211156117d85760008160009055506001016117c0565b5090565b600081519050919050565b600082825260208201905092915050565b60005b838110156118165780820151818401526020810190506117fb565b83811115611825576000848401525b50505050565b6000601f19601f8301169050919050565b6000611847826117dc565b61185181856117e7565b93506118618185602086016117f8565b61186a8161182b565b840191505092915050565b6000602082019050818103600083015261188f818461183c565b905092915050565b600080fd5b600080fd5b600073ffffffffffffffffffffffffffffffffffffffff82169050919050565b60006118cc826118a1565b9050919050565b6118dc816118c1565b81146118e757600080fd5b50565b6000813590506118f9816118d3565b92915050565b6000819050919050565b611912816118ff565b811461191d57600080fd5b50565b60008135905061192f81611909565b92915050565b6000806040838503121561194c5761194b611897565b5b600061195a858286016118ea565b925050602061196b85828601611920565b9150509250929050565b60008115159050919050565b61198a81611975565b82525050565b60006020820190506119a56000830184611981565b92915050565b6119b4816118ff565b82525050565b60006020820190506119cf60008301846119ab565b92915050565b6000806000606084860312156119ee576119ed611897565b5b60006119fc868287016118ea565b9350506020611a0d868287016118ea565b9250506040611a1e86828701611920565b9150509250925092565b600060ff82169050919050565b611a3e81611a28565b82525050565b6000602082019050611a596000830184611a35565b92915050565b600080fd5b600080fd5b600080fd5b60008083601f840112611a8457611a83611a5f565b5b8235905067ffffffffffffffff811115611aa157611aa0611a64565b5b602083019150836001820283011115611abd57611abc611a69565b5b9250929050565b60008060008060008060808789031215611ae157611ae0611897565b5b600087013567ffffffffffffffff811115611aff57611afe61189c565b5b611b0b89828a01611a6e565b9650965050602087013567ffffffffffffffff811115611b2e57611b2d61189c565b5b611b3a89828a01611a6e565b94509450506040611b4d89828a01611920565b9250506060611b5e89828a016118ea565b9150509295509295509295565b600060208284031215611b8157611b80611897565b5b6000611b8f848285016118ea565b91505092915050565b611ba1816118c1565b82525050565b6000602082019050611bbc6000830184611b98565b92915050565b60008060408385031215611bd957611bd8611897565b5b6000611be7858286016118ea565b9250506020611bf8858286016118ea565b9150509250929050565b7f4e487b7100000000000000000000000000000000000000000000000000000000600052602260045260246000fd5b60006002820490506001821680611c4957607f821691505b602082108103611c5c57611c5b611c02565b5b50919050565b7f4e487b7100000000000000000000000000000000000000000000000000000000600052601160045260246000fd5b6000611c9c826118ff565b9150611ca7836118ff565b9250827fffffffffffffffffffffffffffffffffffffffffffffffffffffffffffffffff03821115611cdc57611cdb611c62565b5b828201905092915050565b7f4f776e61626c653a2063616c6c6572206973206e6f7420746865206f776e6572600082015250565b6000611d1d6020836117e7565b9150611d2882611ce7565b602082019050919050565b60006020820190508181036000830152611d4c81611d10565b9050919050565b600081519050611d6281611909565b92915050565b600060208284031215611d7e57611d7d611897565b5b6000611d8c84828501611d53565b91505092915050565b7f496e697469616c697a61626c653a20636f6e747261637420697320616c72656160008201527f647920696e697469616c697a6564000000000000000000000000000000000000602082015250565b6000611df1602e836117e7565b9150611dfc82611d95565b604082019050919050565b60006020820190508181036000830152611e2081611de4565b9050919050565b7f45524332303a2064656372656173656420616c6c6f77616e63652062656c6f7760008201527f207a65726f000000000000000000000000000000000000000000000000000000602082015250565b6000611e836025836117e7565b9150611e8e82611e27565b604082019050919050565b60006020820190508181036000830152611eb281611e76565b9050919050565b7f4f776e61626c653a206e6577206f776e657220697320746865207a65726f206160008201527f6464726573730000000000000000000000000000000000000000000000000000602082015250565b6000611f156026836117e7565b9150611f2082611eb9565b604082019050919050565b60006020820190508181036000830152611f4481611f08565b9050919050565b7f45524332303a20617070726f76652066726f6d20746865207a65726f2061646460008201527f7265737300000000000000000000000000000000000000000000000000000000602082015250565b6000611fa76024836117e7565b9150611fb282611f4b565b604082019050919050565b60006020820190508181036000830152611fd681611f9a565b9050919050565b7f45524332303a20617070726f766520746f20746865207a65726f20616464726560008201527f7373000000000000000000000000000000000000000000000000000000000000602082015250565b60006120396022836117e7565b915061204482611fdd565b604082019050919050565b600060208201905081810360008301526120688161202c565b9050919050565b7f45524332303a20696e73756666696369656e7420616c6c6f77616e6365000000600082015250565b60006120a5601d836117e7565b91506120b08261206f565b602082019050919050565b600060208201905081810360008301526120d481612098565b9050919050565b7f45524332303a207472616e736665722066726f6d20746865207a65726f20616460008201527f6472657373000000000000000000000000000000000000000000000000000000602082015250565b60006121376025836117e7565b9150612142826120db565b604082019050919050565b600060208201905081810360008301526121668161212a565b9050919050565b7f45524332303a207472616e7366657220746f20746865207a65726f206164647260008201527f6573730000000000000000000000000000000000000000000000000000000000602082015250565b60006121c96023836117e7565b91506121d48261216d565b604082019050919050565b600060208201905081810360008301526121f8816121bc565b9050919050565b7f45524332303a207472616e7366657220616d6f756e742065786365656473206260008201527f616c616e63650000000000000000000000000000000000000000000000000000602082015250565b600061225b6026836117e7565b9150612266826121ff565b604082019050919050565b6000602082019050818103600083015261228a8161224e565b9050919050565b7f45524332303a206d696e7420746f20746865207a65726f206164647265737300600082015250565b60006122c7601f836117e7565b91506122d282612291565b602082019050919050565b600060208201905081810360008301526122f6816122ba565b9050919050565b7f496e697469616c697a61626c653a20636f6e7472616374206973206e6f74206960008201527f6e697469616c697a696e67000000000000000000000000000000000000000000602082015250565b6000612359602b836117e7565b9150612364826122fd565b604082019050919050565b600060208201905081810360008301526123888161234c565b9050919050565b7f45524332303a206275726e2066726f6d20746865207a65726f2061646472657360008201527f7300000000000000000000000000000000000000000000000000000000000000602082015250565b60006123eb6021836117e7565b91506123f68261238f565b604082019050919050565b6000602082019050818103600083015261241a816123de565b9050919050565b7f45524332303a206275726e20616d6f756e7420657863656564732062616c616e60008201527f6365000000000000000000000000000000000000000000000000000000000000602082015250565b600061247d6022836117e7565b915061248882612421565b604082019050919050565b600060208201905081810360008301526124ac81612470565b9050919050565b60006124be826118ff565b91506124c9836118ff565b9250828210156124dc576124db611c62565b5b82820390509291505056fea2646970667358221220318f69c348d034829f0c0b4f89487a5ebfc222fe5b485df8409718fcf5d2ef1964736f6c634300080d0033",
  "devdoc": {
    "kind": "dev",
    "methods": {
      "allowance(address,address)": {
        "details": "See {IERC20-allowance}."
      },
      "approve(address,uint256)": {
        "details": "See {IERC20-approve}. NOTE: If `amount` is the maximum `uint256`, the allowance is not updated on `transferFrom`. This is semantically equivalent to an infinite approval. Requirements: - `spender` cannot be the zero address."
      },
      "balanceOf(address)": {
        "details": "See {IERC20-balanceOf}."
      },
      "decimals()": {
        "details": "Returns the number of decimals used to get its user representation. For example, if `decimals` equals `2`, a balance of `505` tokens should be displayed to a user as `5.05` (`505 / 10 ** 2`). Tokens usually opt for a value of 18, imitating the relationship between Ether and Wei. This is the value {ERC20} uses, unless this function is overridden; NOTE: This information is only used for _display_ purposes: it in no way affects any of the arithmetic of the contract, including {IERC20-balanceOf} and {IERC20-transfer}."
      },
      "decreaseAllowance(address,uint256)": {
        "details": "Atomically decreases the allowance granted to `spender` by the caller. This is an alternative to {approve} that can be used as a mitigation for problems described in {IERC20-approve}. Emits an {Approval} event indicating the updated allowance. Requirements: - `spender` cannot be the zero address. - `spender` must have allowance for the caller of at least `subtractedValue`."
      },
      "increaseAllowance(address,uint256)": {
        "details": "Atomically increases the allowance granted to `spender` by the caller. This is an alternative to {approve} that can be used as a mitigation for problems described in {IERC20-approve}. Emits an {Approval} event indicating the updated allowance. Requirements: - `spender` cannot be the zero address."
      },
      "name()": {
        "details": "Returns the name of the token."
      },
      "owner()": {
        "details": "Returns the address of the current owner."
      },
      "renounceOwnership()": {
        "details": "Leaves the contract without owner. It will not be possible to call `onlyOwner` functions anymore. Can only be called by the current owner. NOTE: Renouncing ownership will leave the contract without an owner, thereby removing any functionality that is only available to the owner."
      },
      "symbol()": {
        "details": "Returns the symbol of the token, usually a shorter version of the name."
      },
      "totalSupply()": {
        "details": "See {IERC20-totalSupply}."
      },
      "transfer(address,uint256)": {
        "details": "See {IERC20-transfer}. Requirements: - `to` cannot be the zero address. - the caller must have a balance of at least `amount`."
      },
      "transferFrom(address,address,uint256)": {
        "details": "See {IERC20-transferFrom}. Emits an {Approval} event indicating the updated allowance. This is not required by the EIP. See the note at the beginning of {ERC20}. NOTE: Does not update the allowance if the current allowance is the maximum `uint256`. Requirements: - `from` and `to` cannot be the zero address. - `from` must have a balance of at least `amount`. - the caller must have allowance for ``from``'s tokens of at least `amount`."
      },
      "transferOwnership(address)": {
        "details": "Transfers ownership of the contract to a new account (`newOwner`). Can only be called by the current owner."
      }
    },
    "version": 1
  },
  "userdoc": {
    "kind": "user",
    "methods": {},
    "version": 1
  },
  "storageLayout": {
    "storage": [
      {
        "astId": 5476,
        "contract": "contracts/implementations/ERC20Singleton.sol:ERC20Singleton",
        "label": "_initialized",
        "offset": 0,
        "slot": "0",
        "type": "t_bool"
      },
      {
        "astId": 5479,
        "contract": "contracts/implementations/ERC20Singleton.sol:ERC20Singleton",
        "label": "_initializing",
        "offset": 1,
        "slot": "0",
        "type": "t_bool"
      },
      {
        "astId": 6543,
        "contract": "contracts/implementations/ERC20Singleton.sol:ERC20Singleton",
        "label": "__gap",
        "offset": 0,
        "slot": "1",
        "type": "t_array(t_uint256)50_storage"
      },
      {
        "astId": 5562,
        "contract": "contracts/implementations/ERC20Singleton.sol:ERC20Singleton",
        "label": "_balances",
        "offset": 0,
        "slot": "51",
        "type": "t_mapping(t_address,t_uint256)"
      },
      {
        "astId": 5568,
        "contract": "contracts/implementations/ERC20Singleton.sol:ERC20Singleton",
        "label": "_allowances",
        "offset": 0,
        "slot": "52",
        "type": "t_mapping(t_address,t_mapping(t_address,t_uint256))"
      },
      {
        "astId": 5570,
        "contract": "contracts/implementations/ERC20Singleton.sol:ERC20Singleton",
        "label": "_totalSupply",
        "offset": 0,
        "slot": "53",
        "type": "t_uint256"
      },
      {
        "astId": 5572,
        "contract": "contracts/implementations/ERC20Singleton.sol:ERC20Singleton",
        "label": "_name",
        "offset": 0,
        "slot": "54",
        "type": "t_string_storage"
      },
      {
        "astId": 5574,
        "contract": "contracts/implementations/ERC20Singleton.sol:ERC20Singleton",
        "label": "_symbol",
        "offset": 0,
        "slot": "55",
        "type": "t_string_storage"
      },
      {
        "astId": 6155,
        "contract": "contracts/implementations/ERC20Singleton.sol:ERC20Singleton",
        "label": "__gap",
        "offset": 0,
        "slot": "56",
        "type": "t_array(t_uint256)45_storage"
      },
      {
        "astId": 5356,
        "contract": "contracts/implementations/ERC20Singleton.sol:ERC20Singleton",
        "label": "_owner",
        "offset": 0,
        "slot": "101",
        "type": "t_address"
      },
      {
        "astId": 5468,
        "contract": "contracts/implementations/ERC20Singleton.sol:ERC20Singleton",
        "label": "__gap",
        "offset": 0,
        "slot": "102",
        "type": "t_array(t_uint256)49_storage"
      },
      {
        "astId": 13304,
        "contract": "contracts/implementations/ERC20Singleton.sol:ERC20Singleton",
        "label": "maxSupply",
        "offset": 0,
        "slot": "151",
        "type": "t_uint256"
      }
    ],
    "types": {
      "t_address": {
        "encoding": "inplace",
        "label": "address",
        "numberOfBytes": "20"
      },
      "t_array(t_uint256)45_storage": {
        "base": "t_uint256",
        "encoding": "inplace",
        "label": "uint256[45]",
        "numberOfBytes": "1440"
      },
      "t_array(t_uint256)49_storage": {
        "base": "t_uint256",
        "encoding": "inplace",
        "label": "uint256[49]",
        "numberOfBytes": "1568"
      },
      "t_array(t_uint256)50_storage": {
        "base": "t_uint256",
        "encoding": "inplace",
        "label": "uint256[50]",
        "numberOfBytes": "1600"
      },
      "t_bool": {
        "encoding": "inplace",
        "label": "bool",
        "numberOfBytes": "1"
      },
      "t_mapping(t_address,t_mapping(t_address,t_uint256))": {
        "encoding": "mapping",
        "key": "t_address",
        "label": "mapping(address => mapping(address => uint256))",
        "numberOfBytes": "32",
        "value": "t_mapping(t_address,t_uint256)"
      },
      "t_mapping(t_address,t_uint256)": {
        "encoding": "mapping",
        "key": "t_address",
        "label": "mapping(address => uint256)",
        "numberOfBytes": "32",
        "value": "t_uint256"
      },
      "t_string_storage": {
        "encoding": "bytes",
        "label": "string",
        "numberOfBytes": "32"
      },
      "t_uint256": {
        "encoding": "inplace",
        "label": "uint256",
        "numberOfBytes": "32"
      }
    }
  }
}