{
  "address": "0xCEC1099F2931715123FC28EF68bD44BB483AB859",
  "abi": [
    {
      "inputs": [],
      "stateMutability": "nonpayable",
      "type": "constructor"
    },
    {
      "anonymous": false,
      "inputs": [
        {
          "indexed": true,
          "internalType": "address",
          "name": "owner",
          "type": "address"
        },
        {
          "indexed": true,
          "internalType": "address",
          "name": "spender",
          "type": "address"
        },
        {
          "indexed": false,
          "internalType": "uint256",
          "name": "value",
          "type": "uint256"
        }
      ],
      "name": "Approval",
      "type": "event"
    },
    {
      "anonymous": false,
      "inputs": [
        {
          "indexed": true,
          "internalType": "address",
          "name": "previousOwner",
          "type": "address"
        },
        {
          "indexed": true,
          "internalType": "address",
          "name": "newOwner",
          "type": "address"
        }
      ],
      "name": "OwnershipTransferred",
      "type": "event"
    },
    {
      "anonymous": false,
      "inputs": [
        {
          "indexed": true,
          "internalType": "address",
          "name": "from",
          "type": "address"
        },
        {
          "indexed": true,
          "internalType": "address",
          "name": "to",
          "type": "address"
        },
        {
          "indexed": false,
          "internalType": "uint256",
          "name": "value",
          "type": "uint256"
        }
      ],
      "name": "Transfer",
      "type": "event"
    },
    {
      "inputs": [
        {
          "internalType": "address",
          "name": "owner",
          "type": "address"
        },
        {
          "internalType": "address",
          "name": "spender",
          "type": "address"
        }
      ],
      "name": "allowance",
      "outputs": [
        {
          "internalType": "uint256",
          "name": "",
          "type": "uint256"
        }
      ],
      "stateMutability": "view",
      "type": "function"
    },
    {
      "inputs": [
        {
          "internalType": "address",
          "name": "spender",
          "type": "address"
        },
        {
          "internalType": "uint256",
          "name": "amount",
          "type": "uint256"
        }
      ],
      "name": "approve",
      "outputs": [
        {
          "internalType": "bool",
          "name": "",
          "type": "bool"
        }
      ],
      "stateMutability": "nonpayable",
      "type": "function"
    },
    {
      "inputs": [
        {
          "internalType": "address",
          "name": "account",
          "type": "address"
        }
      ],
      "name": "balanceOf",
      "outputs": [
        {
          "internalType": "uint256",
          "name": "",
          "type": "uint256"
        }
      ],
      "stateMutability": "view",
      "type": "function"
    },
    {
      "inputs": [],
      "name": "decimals",
      "outputs": [
        {
          "internalType": "uint8",
          "name": "",
          "type": "uint8"
        }
      ],
      "stateMutability": "view",
      "type": "function"
    },
    {
      "inputs": [
        {
          "internalType": "address",
          "name": "spender",
          "type": "address"
        },
        {
          "internalType": "uint256",
          "name": "subtractedValue",
          "type": "uint256"
        }
      ],
      "name": "decreaseAllowance",
      "outputs": [
        {
          "internalType": "bool",
          "name": "",
          "type": "bool"
        }
      ],
      "stateMutability": "nonpayable",
      "type": "function"
    },
    {
      "inputs": [
        {
          "internalType": "address",
          "name": "spender",
          "type": "address"
        },
        {
          "internalType": "uint256",
          "name": "addedValue",
          "type": "uint256"
        }
      ],
      "name": "increaseAllowance",
      "outputs": [
        {
          "internalType": "bool",
          "name": "",
          "type": "bool"
        }
      ],
      "stateMutability": "nonpayable",
      "type": "function"
    },
    {
      "inputs": [
        {
          "internalType": "bytes",
          "name": "_name",
          "type": "bytes"
        },
        {
          "internalType": "bytes",
          "name": "_symbol",
          "type": "bytes"
        },
        {
          "internalType": "address",
          "name": "_owner",
          "type": "address"
        }
      ],
      "name": "initialize",
      "outputs": [],
      "stateMutability": "nonpayable",
      "type": "function"
    },
    {
      "inputs": [
        {
          "internalType": "address",
          "name": "account",
          "type": "address"
        },
        {
          "internalType": "uint256",
          "name": "amount",
          "type": "uint256"
        }
      ],
      "name": "mint",
      "outputs": [],
      "stateMutability": "nonpayable",
      "type": "function"
    },
    {
      "inputs": [],
      "name": "name",
      "outputs": [
        {
          "internalType": "string",
          "name": "",
          "type": "string"
        }
      ],
      "stateMutability": "view",
      "type": "function"
    },
    {
      "inputs": [],
      "name": "owner",
      "outputs": [
        {
          "internalType": "address",
          "name": "",
          "type": "address"
        }
      ],
      "stateMutability": "view",
      "type": "function"
    },
    {
      "inputs": [],
      "name": "renounceOwnership",
      "outputs": [],
      "stateMutability": "nonpayable",
      "type": "function"
    },
    {
      "inputs": [],
      "name": "symbol",
      "outputs": [
        {
          "internalType": "string",
          "name": "",
          "type": "string"
        }
      ],
      "stateMutability": "view",
      "type": "function"
    },
    {
      "inputs": [],
      "name": "totalSupply",
      "outputs": [
        {
          "internalType": "uint256",
          "name": "",
          "type": "uint256"
        }
      ],
      "stateMutability": "view",
      "type": "function"
    },
    {
      "inputs": [
        {
          "internalType": "address",
          "name": "to",
          "type": "address"
        },
        {
          "internalType": "uint256",
          "name": "amount",
          "type": "uint256"
        }
      ],
      "name": "transfer",
      "outputs": [
        {
          "internalType": "bool",
          "name": "",
          "type": "bool"
        }
      ],
      "stateMutability": "nonpayable",
      "type": "function"
    },
    {
      "inputs": [
        {
          "internalType": "address",
          "name": "from",
          "type": "address"
        },
        {
          "internalType": "address",
          "name": "to",
          "type": "address"
        },
        {
          "internalType": "uint256",
          "name": "amount",
          "type": "uint256"
        }
      ],
      "name": "transferFrom",
      "outputs": [
        {
          "internalType": "bool",
          "name": "",
          "type": "bool"
        }
      ],
      "stateMutability": "nonpayable",
      "type": "function"
    },
    {
      "inputs": [
        {
          "internalType": "address",
          "name": "newOwner",
          "type": "address"
        }
      ],
      "name": "transferOwnership",
      "outputs": [],
      "stateMutability": "nonpayable",
      "type": "function"
    }
  ],
  "transactionHash": "0x5cd697a3e2bc608c8522fa1b2b9268302a937e67d528a04553dbeaf16da5b20d",
  "args": [],
  "numDeployments": 1,
  "solcInputHash": "78c00f79af130f73a8a41baeca6c3fa2",
  "bytecode": "0x60806040523480156200001157600080fd5b50600060019054906101000a900460ff166200003c5760008054906101000a900460ff16156200004d565b6200004c620001a760201b60201c565b5b6200008f576040517f08c379a00000000000000000000000000000000000000000000000000000000081526004016200008690620006f4565b60405180910390fd5b60008060019054906101000a900460ff161590508015620000e0576001600060016101000a81548160ff02191690831515021790555060016000806101000a81548160ff0219169083151502179055505b6200015c6040518060400160405280600e81526020017f53696e676c65746f6e20426173650000000000000000000000000000000000008152506040518060400160405280600481526020017f4241534500000000000000000000000000000000000000000000000000000000815250620001c560201b60201c565b6200016c6200022d60201b60201c565b6200017e60016200029160201b60201c565b8015620001a05760008060016101000a81548160ff0219169083151502179055505b506200091c565b6000620001bf30620003a660201b62000b181760201c565b15905090565b600060019054906101000a900460ff1662000217576040517f08c379a00000000000000000000000000000000000000000000000000000000081526004016200020e906200078c565b60405180910390fd5b620002298282620003c960201b60201c565b5050565b600060019054906101000a900460ff166200027f576040517f08c379a000000000000000000000000000000000000000000000000000000000815260040162000276906200078c565b60405180910390fd5b6200028f6200045160201b60201c565b565b620002a1620004c560201b60201c565b73ffffffffffffffffffffffffffffffffffffffff16620002c7620004cd60201b60201c565b73ffffffffffffffffffffffffffffffffffffffff161462000320576040517f08c379a00000000000000000000000000000000000000000000000000000000081526004016200031790620007fe565b60405180910390fd5b600073ffffffffffffffffffffffffffffffffffffffff168173ffffffffffffffffffffffffffffffffffffffff160362000392576040517f08c379a0000000000000000000000000000000000000000000000000000000008152600401620003899062000896565b60405180910390fd5b620003a381620004f760201b60201c565b50565b6000808273ffffffffffffffffffffffffffffffffffffffff163b119050919050565b600060019054906101000a900460ff166200041b576040517f08c379a000000000000000000000000000000000000000000000000000000000815260040162000412906200078c565b60405180910390fd5b816036908051906020019062000433929190620005bd565b5080603790805190602001906200044c929190620005bd565b505050565b600060019054906101000a900460ff16620004a3576040517f08c379a00000000000000000000000000000000000000000000000000000000081526004016200049a906200078c565b60405180910390fd5b620004c3620004b7620004c560201b60201c565b620004f760201b60201c565b565b600033905090565b6000606560009054906101000a900473ffffffffffffffffffffffffffffffffffffffff16905090565b6000606560009054906101000a900473ffffffffffffffffffffffffffffffffffffffff16905081606560006101000a81548173ffffffffffffffffffffffffffffffffffffffff021916908373ffffffffffffffffffffffffffffffffffffffff1602179055508173ffffffffffffffffffffffffffffffffffffffff168173ffffffffffffffffffffffffffffffffffffffff167f8be0079c531659141344cd1fd0a4f28419497f9722a3daafe3b4186f6b6457e060405160405180910390a35050565b828054620005cb90620008e7565b90600052602060002090601f016020900481019282620005ef57600085556200063b565b82601f106200060a57805160ff19168380011785556200063b565b828001600101855582156200063b579182015b828111156200063a5782518255916020019190600101906200061d565b5b5090506200064a91906200064e565b5090565b5b80821115620006695760008160009055506001016200064f565b5090565b600082825260208201905092915050565b7f496e697469616c697a61626c653a20636f6e747261637420697320616c72656160008201527f647920696e697469616c697a6564000000000000000000000000000000000000602082015250565b6000620006dc602e836200066d565b9150620006e9826200067e565b604082019050919050565b600060208201905081810360008301526200070f81620006cd565b9050919050565b7f496e697469616c697a61626c653a20636f6e7472616374206973206e6f74206960008201527f6e697469616c697a696e67000000000000000000000000000000000000000000602082015250565b600062000774602b836200066d565b9150620007818262000716565b604082019050919050565b60006020820190508181036000830152620007a78162000765565b9050919050565b7f4f776e61626c653a2063616c6c6572206973206e6f7420746865206f776e6572600082015250565b6000620007e66020836200066d565b9150620007f382620007ae565b602082019050919050565b600060208201905081810360008301526200081981620007d7565b9050919050565b7f4f776e61626c653a206e6577206f776e657220697320746865207a65726f206160008201527f6464726573730000000000000000000000000000000000000000000000000000602082015250565b60006200087e6026836200066d565b91506200088b8262000820565b604082019050919050565b60006020820190508181036000830152620008b1816200086f565b9050919050565b7f4e487b7100000000000000000000000000000000000000000000000000000000600052602260045260246000fd5b600060028204905060018216806200090057607f821691505b602082108103620009165762000915620008b8565b5b50919050565b61202b806200092c6000396000f3fe608060405234801561001057600080fd5b50600436106101005760003560e01c806370a0823111610097578063a457c2d711610066578063a457c2d71461029d578063a9059cbb146102cd578063dd62ed3e146102fd578063f2fde38b1461032d57610100565b806370a0823114610227578063715018a6146102575780638da5cb5b1461026157806395d89b411461027f57610100565b8063313ce567116100d3578063313ce567146101a157806339509351146101bf57806340c10f19146101ef5780635e0cbb101461020b57610100565b806306fdde0314610105578063095ea7b31461012357806318160ddd1461015357806323b872dd14610171575b600080fd5b61010d610349565b60405161011a919061152f565b60405180910390f35b61013d600480360381019061013891906115ef565b6103db565b60405161014a919061164a565b60405180910390f35b61015b6103fe565b6040516101689190611674565b60405180910390f35b61018b6004803603810190610186919061168f565b610408565b604051610198919061164a565b60405180910390f35b6101a9610437565b6040516101b691906116fe565b60405180910390f35b6101d960048036038101906101d491906115ef565b610440565b6040516101e6919061164a565b60405180910390f35b610209600480360381019061020491906115ef565b6104ea565b005b6102256004803603810190610220919061177e565b610574565b005b610241600480360381019061023c9190611813565b610700565b60405161024e9190611674565b60405180910390f35b61025f610749565b005b6102696107d1565b604051610276919061184f565b60405180910390f35b6102876107fb565b604051610294919061152f565b60405180910390f35b6102b760048036038101906102b291906115ef565b61088d565b6040516102c4919061164a565b60405180910390f35b6102e760048036038101906102e291906115ef565b610977565b6040516102f4919061164a565b60405180910390f35b6103176004803603810190610312919061186a565b61099a565b6040516103249190611674565b60405180910390f35b61034760048036038101906103429190611813565b610a21565b005b606060368054610358906118d9565b80601f0160208091040260200160405190810160405280929190818152602001828054610384906118d9565b80156103d15780601f106103a6576101008083540402835291602001916103d1565b820191906000526020600020905b8154815290600101906020018083116103b457829003601f168201915b5050505050905090565b6000806103e6610b3b565b90506103f3818585610b43565b600191505092915050565b6000603554905090565b600080610413610b3b565b9050610420858285610d0c565b61042b858585610d98565b60019150509392505050565b60006012905090565b60008061044b610b3b565b90506104df818585603460008673ffffffffffffffffffffffffffffffffffffffff1673ffffffffffffffffffffffffffffffffffffffff16815260200190815260200160002060008973ffffffffffffffffffffffffffffffffffffffff1673ffffffffffffffffffffffffffffffffffffffff168152602001908152602001600020546104da9190611939565b610b43565b600191505092915050565b6104f2610b3b565b73ffffffffffffffffffffffffffffffffffffffff166105106107d1565b73ffffffffffffffffffffffffffffffffffffffff1614610566576040517f08c379a000000000000000000000000000000000000000000000000000000000815260040161055d906119db565b60405180910390fd5b610570828261101a565b5050565b600060019054906101000a900460ff1661059c5760008054906101000a900460ff16156105a5565b6105a461117a565b5b6105e4576040517f08c379a00000000000000000000000000000000000000000000000000000000081526004016105db90611a6d565b60405180910390fd5b60008060019054906101000a900460ff161590508015610634576001600060016101000a81548160ff02191690831515021790555060016000806101000a81548160ff0219169083151502179055505b6106c686868080601f016020809104026020016040519081016040528093929190818152602001838380828437600081840152601f19601f8201169050808301925050505050505085858080601f016020809104026020016040519081016040528093929190818152602001838380828437600081840152601f19601f8201169050808301925050505050505061118b565b6106ce6111e8565b6106d782610a21565b80156106f85760008060016101000a81548160ff0219169083151502179055505b505050505050565b6000603360008373ffffffffffffffffffffffffffffffffffffffff1673ffffffffffffffffffffffffffffffffffffffff168152602001908152602001600020549050919050565b610751610b3b565b73ffffffffffffffffffffffffffffffffffffffff1661076f6107d1565b73ffffffffffffffffffffffffffffffffffffffff16146107c5576040517f08c379a00000000000000000000000000000000000000000000000000000000081526004016107bc906119db565b60405180910390fd5b6107cf6000611241565b565b6000606560009054906101000a900473ffffffffffffffffffffffffffffffffffffffff16905090565b60606037805461080a906118d9565b80601f0160208091040260200160405190810160405280929190818152602001828054610836906118d9565b80156108835780601f1061085857610100808354040283529160200191610883565b820191906000526020600020905b81548152906001019060200180831161086657829003601f168201915b5050505050905090565b600080610898610b3b565b90506000603460008373ffffffffffffffffffffffffffffffffffffffff1673ffffffffffffffffffffffffffffffffffffffff16815260200190815260200160002060008673ffffffffffffffffffffffffffffffffffffffff1673ffffffffffffffffffffffffffffffffffffffff1681526020019081526020016000205490508381101561095e576040517f08c379a000000000000000000000000000000000000000000000000000000000815260040161095590611aff565b60405180910390fd5b61096b8286868403610b43565b60019250505092915050565b600080610982610b3b565b905061098f818585610d98565b600191505092915050565b6000603460008473ffffffffffffffffffffffffffffffffffffffff1673ffffffffffffffffffffffffffffffffffffffff16815260200190815260200160002060008373ffffffffffffffffffffffffffffffffffffffff1673ffffffffffffffffffffffffffffffffffffffff16815260200190815260200160002054905092915050565b610a29610b3b565b73ffffffffffffffffffffffffffffffffffffffff16610a476107d1565b73ffffffffffffffffffffffffffffffffffffffff1614610a9d576040517f08c379a0000000000000000000000000000000000000000000000000000000008152600401610a94906119db565b60405180910390fd5b600073ffffffffffffffffffffffffffffffffffffffff168173ffffffffffffffffffffffffffffffffffffffff1603610b0c576040517f08c379a0000000000000000000000000000000000000000000000000000000008152600401610b0390611b91565b60405180910390fd5b610b1581611241565b50565b6000808273ffffffffffffffffffffffffffffffffffffffff163b119050919050565b600033905090565b600073ffffffffffffffffffffffffffffffffffffffff168373ffffffffffffffffffffffffffffffffffffffff1603610bb2576040517f08c379a0000000000000000000000000000000000000000000000000000000008152600401610ba990611c23565b60405180910390fd5b600073ffffffffffffffffffffffffffffffffffffffff168273ffffffffffffffffffffffffffffffffffffffff1603610c21576040517f08c379a0000000000000000000000000000000000000000000000000000000008152600401610c1890611cb5565b60405180910390fd5b80603460008573ffffffffffffffffffffffffffffffffffffffff1673ffffffffffffffffffffffffffffffffffffffff16815260200190815260200160002060008473ffffffffffffffffffffffffffffffffffffffff1673ffffffffffffffffffffffffffffffffffffffff168152602001908152602001600020819055508173ffffffffffffffffffffffffffffffffffffffff168373ffffffffffffffffffffffffffffffffffffffff167f8c5be1e5ebec7d5bd14f71427d1e84f3dd0314c0f7b2291e5b200ac8c7c3b92583604051610cff9190611674565b60405180910390a3505050565b6000610d18848461099a565b90507fffffffffffffffffffffffffffffffffffffffffffffffffffffffffffffffff8114610d925781811015610d84576040517f08c379a0000000000000000000000000000000000000000000000000000000008152600401610d7b90611d21565b60405180910390fd5b610d918484848403610b43565b5b50505050565b600073ffffffffffffffffffffffffffffffffffffffff168373ffffffffffffffffffffffffffffffffffffffff1603610e07576040517f08c379a0000000000000000000000000000000000000000000000000000000008152600401610dfe90611db3565b60405180910390fd5b600073ffffffffffffffffffffffffffffffffffffffff168273ffffffffffffffffffffffffffffffffffffffff1603610e76576040517f08c379a0000000000000000000000000000000000000000000000000000000008152600401610e6d90611e45565b60405180910390fd5b610e81838383611307565b6000603360008573ffffffffffffffffffffffffffffffffffffffff1673ffffffffffffffffffffffffffffffffffffffff16815260200190815260200160002054905081811015610f08576040517f08c379a0000000000000000000000000000000000000000000000000000000008152600401610eff90611ed7565b60405180910390fd5b818103603360008673ffffffffffffffffffffffffffffffffffffffff1673ffffffffffffffffffffffffffffffffffffffff1681526020019081526020016000208190555081603360008573ffffffffffffffffffffffffffffffffffffffff1673ffffffffffffffffffffffffffffffffffffffff1681526020019081526020016000206000828254610f9d9190611939565b925050819055508273ffffffffffffffffffffffffffffffffffffffff168473ffffffffffffffffffffffffffffffffffffffff167fddf252ad1be2c89b69c2b068fc378daa952ba7f163c4a11628f55a4df523b3ef846040516110019190611674565b60405180910390a361101484848461130c565b50505050565b600073ffffffffffffffffffffffffffffffffffffffff168273ffffffffffffffffffffffffffffffffffffffff1603611089576040517f08c379a000000000000000000000000000000000000000000000000000000000815260040161108090611f43565b60405180910390fd5b61109560008383611307565b80603560008282546110a79190611939565b9250508190555080603360008473ffffffffffffffffffffffffffffffffffffffff1673ffffffffffffffffffffffffffffffffffffffff16815260200190815260200160002060008282546110fd9190611939565b925050819055508173ffffffffffffffffffffffffffffffffffffffff16600073ffffffffffffffffffffffffffffffffffffffff167fddf252ad1be2c89b69c2b068fc378daa952ba7f163c4a11628f55a4df523b3ef836040516111629190611674565b60405180910390a36111766000838361130c565b5050565b600061118530610b18565b15905090565b600060019054906101000a900460ff166111da576040517f08c379a00000000000000000000000000000000000000000000000000000000081526004016111d190611fd5565b60405180910390fd5b6111e48282611311565b5050565b600060019054906101000a900460ff16611237576040517f08c379a000000000000000000000000000000000000000000000000000000000815260040161122e90611fd5565b60405180910390fd5b61123f611392565b565b6000606560009054906101000a900473ffffffffffffffffffffffffffffffffffffffff16905081606560006101000a81548173ffffffffffffffffffffffffffffffffffffffff021916908373ffffffffffffffffffffffffffffffffffffffff1602179055508173ffffffffffffffffffffffffffffffffffffffff168173ffffffffffffffffffffffffffffffffffffffff167f8be0079c531659141344cd1fd0a4f28419497f9722a3daafe3b4186f6b6457e060405160405180910390a35050565b505050565b505050565b600060019054906101000a900460ff16611360576040517f08c379a000000000000000000000000000000000000000000000000000000000815260040161135790611fd5565b60405180910390fd5b81603690805190602001906113769291906113f3565b50806037908051906020019061138d9291906113f3565b505050565b600060019054906101000a900460ff166113e1576040517f08c379a00000000000000000000000000000000000000000000000000000000081526004016113d890611fd5565b60405180910390fd5b6113f16113ec610b3b565b611241565b565b8280546113ff906118d9565b90600052602060002090601f0160209004810192826114215760008555611468565b82601f1061143a57805160ff1916838001178555611468565b82800160010185558215611468579182015b8281111561146757825182559160200191906001019061144c565b5b5090506114759190611479565b5090565b5b8082111561149257600081600090555060010161147a565b5090565b600081519050919050565b600082825260208201905092915050565b60005b838110156114d05780820151818401526020810190506114b5565b838111156114df576000848401525b50505050565b6000601f19601f8301169050919050565b600061150182611496565b61150b81856114a1565b935061151b8185602086016114b2565b611524816114e5565b840191505092915050565b6000602082019050818103600083015261154981846114f6565b905092915050565b600080fd5b600080fd5b600073ffffffffffffffffffffffffffffffffffffffff82169050919050565b60006115868261155b565b9050919050565b6115968161157b565b81146115a157600080fd5b50565b6000813590506115b38161158d565b92915050565b6000819050919050565b6115cc816115b9565b81146115d757600080fd5b50565b6000813590506115e9816115c3565b92915050565b6000806040838503121561160657611605611551565b5b6000611614858286016115a4565b9250506020611625858286016115da565b9150509250929050565b60008115159050919050565b6116448161162f565b82525050565b600060208201905061165f600083018461163b565b92915050565b61166e816115b9565b82525050565b60006020820190506116896000830184611665565b92915050565b6000806000606084860312156116a8576116a7611551565b5b60006116b6868287016115a4565b93505060206116c7868287016115a4565b92505060406116d8868287016115da565b9150509250925092565b600060ff82169050919050565b6116f8816116e2565b82525050565b600060208201905061171360008301846116ef565b92915050565b600080fd5b600080fd5b600080fd5b60008083601f84011261173e5761173d611719565b5b8235905067ffffffffffffffff81111561175b5761175a61171e565b5b60208301915083600182028301111561177757611776611723565b5b9250929050565b60008060008060006060868803121561179a57611799611551565b5b600086013567ffffffffffffffff8111156117b8576117b7611556565b5b6117c488828901611728565b9550955050602086013567ffffffffffffffff8111156117e7576117e6611556565b5b6117f388828901611728565b93509350506040611806888289016115a4565b9150509295509295909350565b60006020828403121561182957611828611551565b5b6000611837848285016115a4565b91505092915050565b6118498161157b565b82525050565b60006020820190506118646000830184611840565b92915050565b6000806040838503121561188157611880611551565b5b600061188f858286016115a4565b92505060206118a0858286016115a4565b9150509250929050565b7f4e487b7100000000000000000000000000000000000000000000000000000000600052602260045260246000fd5b600060028204905060018216806118f157607f821691505b602082108103611904576119036118aa565b5b50919050565b7f4e487b7100000000000000000000000000000000000000000000000000000000600052601160045260246000fd5b6000611944826115b9565b915061194f836115b9565b9250827fffffffffffffffffffffffffffffffffffffffffffffffffffffffffffffffff038211156119845761198361190a565b5b828201905092915050565b7f4f776e61626c653a2063616c6c6572206973206e6f7420746865206f776e6572600082015250565b60006119c56020836114a1565b91506119d08261198f565b602082019050919050565b600060208201905081810360008301526119f4816119b8565b9050919050565b7f496e697469616c697a61626c653a20636f6e747261637420697320616c72656160008201527f647920696e697469616c697a6564000000000000000000000000000000000000602082015250565b6000611a57602e836114a1565b9150611a62826119fb565b604082019050919050565b60006020820190508181036000830152611a8681611a4a565b9050919050565b7f45524332303a2064656372656173656420616c6c6f77616e63652062656c6f7760008201527f207a65726f000000000000000000000000000000000000000000000000000000602082015250565b6000611ae96025836114a1565b9150611af482611a8d565b604082019050919050565b60006020820190508181036000830152611b1881611adc565b9050919050565b7f4f776e61626c653a206e6577206f776e657220697320746865207a65726f206160008201527f6464726573730000000000000000000000000000000000000000000000000000602082015250565b6000611b7b6026836114a1565b9150611b8682611b1f565b604082019050919050565b60006020820190508181036000830152611baa81611b6e565b9050919050565b7f45524332303a20617070726f76652066726f6d20746865207a65726f2061646460008201527f7265737300000000000000000000000000000000000000000000000000000000602082015250565b6000611c0d6024836114a1565b9150611c1882611bb1565b604082019050919050565b60006020820190508181036000830152611c3c81611c00565b9050919050565b7f45524332303a20617070726f766520746f20746865207a65726f20616464726560008201527f7373000000000000000000000000000000000000000000000000000000000000602082015250565b6000611c9f6022836114a1565b9150611caa82611c43565b604082019050919050565b60006020820190508181036000830152611cce81611c92565b9050919050565b7f45524332303a20696e73756666696369656e7420616c6c6f77616e6365000000600082015250565b6000611d0b601d836114a1565b9150611d1682611cd5565b602082019050919050565b60006020820190508181036000830152611d3a81611cfe565b9050919050565b7f45524332303a207472616e736665722066726f6d20746865207a65726f20616460008201527f6472657373000000000000000000000000000000000000000000000000000000602082015250565b6000611d9d6025836114a1565b9150611da882611d41565b604082019050919050565b60006020820190508181036000830152611dcc81611d90565b9050919050565b7f45524332303a207472616e7366657220746f20746865207a65726f206164647260008201527f6573730000000000000000000000000000000000000000000000000000000000602082015250565b6000611e2f6023836114a1565b9150611e3a82611dd3565b604082019050919050565b60006020820190508181036000830152611e5e81611e22565b9050919050565b7f45524332303a207472616e7366657220616d6f756e742065786365656473206260008201527f616c616e63650000000000000000000000000000000000000000000000000000602082015250565b6000611ec16026836114a1565b9150611ecc82611e65565b604082019050919050565b60006020820190508181036000830152611ef081611eb4565b9050919050565b7f45524332303a206d696e7420746f20746865207a65726f206164647265737300600082015250565b6000611f2d601f836114a1565b9150611f3882611ef7565b602082019050919050565b60006020820190508181036000830152611f5c81611f20565b9050919050565b7f496e697469616c697a61626c653a20636f6e7472616374206973206e6f74206960008201527f6e697469616c697a696e67000000000000000000000000000000000000000000602082015250565b6000611fbf602b836114a1565b9150611fca82611f63565b604082019050919050565b60006020820190508181036000830152611fee81611fb2565b905091905056fea26469706673582212202ac28ea591620a4485f9d7bad15ed8ef181b1e5f6025fc67a67075f71d06fb5864736f6c634300080d0033",
  "devdoc": {
    "kind": "dev",
    "methods": {
      "allowance(address,address)": {
        "details": "See {IERC20-allowance}."
      },
      "approve(address,uint256)": {
        "details": "See {IERC20-approve}. NOTE: If `amount` is the maximum `uint256`, the allowance is not updated on `transferFrom`. This is semantically equivalent to an infinite approval. Requirements: - `spender` cannot be the zero address."
      },
      "balanceOf(address)": {
        "details": "See {IERC20-balanceOf}."
      },
      "decimals()": {
        "details": "Returns the number of decimals used to get its user representation. For example, if `decimals` equals `2`, a balance of `505` tokens should be displayed to a user as `5.05` (`505 / 10 ** 2`). Tokens usually opt for a value of 18, imitating the relationship between Ether and Wei. This is the value {ERC20} uses, unless this function is overridden; NOTE: This information is only used for _display_ purposes: it in no way affects any of the arithmetic of the contract, including {IERC20-balanceOf} and {IERC20-transfer}."
      },
      "decreaseAllowance(address,uint256)": {
        "details": "Atomically decreases the allowance granted to `spender` by the caller. This is an alternative to {approve} that can be used as a mitigation for problems described in {IERC20-approve}. Emits an {Approval} event indicating the updated allowance. Requirements: - `spender` cannot be the zero address. - `spender` must have allowance for the caller of at least `subtractedValue`."
      },
      "increaseAllowance(address,uint256)": {
        "details": "Atomically increases the allowance granted to `spender` by the caller. This is an alternative to {approve} that can be used as a mitigation for problems described in {IERC20-approve}. Emits an {Approval} event indicating the updated allowance. Requirements: - `spender` cannot be the zero address."
      },
      "name()": {
        "details": "Returns the name of the token."
      },
      "owner()": {
        "details": "Returns the address of the current owner."
      },
      "renounceOwnership()": {
        "details": "Leaves the contract without owner. It will not be possible to call `onlyOwner` functions anymore. Can only be called by the current owner. NOTE: Renouncing ownership will leave the contract without an owner, thereby removing any functionality that is only available to the owner."
      },
      "symbol()": {
        "details": "Returns the symbol of the token, usually a shorter version of the name."
      },
      "totalSupply()": {
        "details": "See {IERC20-totalSupply}."
      },
      "transfer(address,uint256)": {
        "details": "See {IERC20-transfer}. Requirements: - `to` cannot be the zero address. - the caller must have a balance of at least `amount`."
      },
      "transferFrom(address,address,uint256)": {
        "details": "See {IERC20-transferFrom}. Emits an {Approval} event indicating the updated allowance. This is not required by the EIP. See the note at the beginning of {ERC20}. NOTE: Does not update the allowance if the current allowance is the maximum `uint256`. Requirements: - `from` and `to` cannot be the zero address. - `from` must have a balance of at least `amount`. - the caller must have allowance for ``from``'s tokens of at least `amount`."
      },
      "transferOwnership(address)": {
        "details": "Transfers ownership of the contract to a new account (`newOwner`). Can only be called by the current owner."
      }
    },
    "version": 1
  },
  "userdoc": {
    "kind": "user",
    "methods": {},
    "version": 1
  },
  "storageLayout": {
    "storage": [
      {
        "astId": 5476,
        "contract": "contracts/implementations/ERC20Singleton.sol:ERC20Singleton",
        "label": "_initialized",
        "offset": 0,
        "slot": "0",
        "type": "t_bool"
      },
      {
        "astId": 5479,
        "contract": "contracts/implementations/ERC20Singleton.sol:ERC20Singleton",
        "label": "_initializing",
        "offset": 1,
        "slot": "0",
        "type": "t_bool"
      },
      {
        "astId": 6543,
        "contract": "contracts/implementations/ERC20Singleton.sol:ERC20Singleton",
        "label": "__gap",
        "offset": 0,
        "slot": "1",
        "type": "t_array(t_uint256)50_storage"
      },
      {
        "astId": 5562,
        "contract": "contracts/implementations/ERC20Singleton.sol:ERC20Singleton",
        "label": "_balances",
        "offset": 0,
        "slot": "51",
        "type": "t_mapping(t_address,t_uint256)"
      },
      {
        "astId": 5568,
        "contract": "contracts/implementations/ERC20Singleton.sol:ERC20Singleton",
        "label": "_allowances",
        "offset": 0,
        "slot": "52",
        "type": "t_mapping(t_address,t_mapping(t_address,t_uint256))"
      },
      {
        "astId": 5570,
        "contract": "contracts/implementations/ERC20Singleton.sol:ERC20Singleton",
        "label": "_totalSupply",
        "offset": 0,
        "slot": "53",
        "type": "t_uint256"
      },
      {
        "astId": 5572,
        "contract": "contracts/implementations/ERC20Singleton.sol:ERC20Singleton",
        "label": "_name",
        "offset": 0,
        "slot": "54",
        "type": "t_string_storage"
      },
      {
        "astId": 5574,
        "contract": "contracts/implementations/ERC20Singleton.sol:ERC20Singleton",
        "label": "_symbol",
        "offset": 0,
        "slot": "55",
        "type": "t_string_storage"
      },
      {
        "astId": 6155,
        "contract": "contracts/implementations/ERC20Singleton.sol:ERC20Singleton",
        "label": "__gap",
        "offset": 0,
        "slot": "56",
        "type": "t_array(t_uint256)45_storage"
      },
      {
        "astId": 5356,
        "contract": "contracts/implementations/ERC20Singleton.sol:ERC20Singleton",
        "label": "_owner",
        "offset": 0,
        "slot": "101",
        "type": "t_address"
      },
      {
        "astId": 5468,
        "contract": "contracts/implementations/ERC20Singleton.sol:ERC20Singleton",
        "label": "__gap",
        "offset": 0,
        "slot": "102",
        "type": "t_array(t_uint256)49_storage"
      }
    ],
    "types": {
      "t_address": {
        "encoding": "inplace",
        "label": "address",
        "numberOfBytes": "20"
      },
      "t_array(t_uint256)45_storage": {
        "base": "t_uint256",
        "encoding": "inplace",
        "label": "uint256[45]",
        "numberOfBytes": "1440"
      },
      "t_array(t_uint256)49_storage": {
        "base": "t_uint256",
        "encoding": "inplace",
        "label": "uint256[49]",
        "numberOfBytes": "1568"
      },
      "t_array(t_uint256)50_storage": {
        "base": "t_uint256",
        "encoding": "inplace",
        "label": "uint256[50]",
        "numberOfBytes": "1600"
      },
      "t_bool": {
        "encoding": "inplace",
        "label": "bool",
        "numberOfBytes": "1"
      },
      "t_mapping(t_address,t_mapping(t_address,t_uint256))": {
        "encoding": "mapping",
        "key": "t_address",
        "label": "mapping(address => mapping(address => uint256))",
        "numberOfBytes": "32",
        "value": "t_mapping(t_address,t_uint256)"
      },
      "t_mapping(t_address,t_uint256)": {
        "encoding": "mapping",
        "key": "t_address",
        "label": "mapping(address => uint256)",
        "numberOfBytes": "32",
        "value": "t_uint256"
      },
      "t_string_storage": {
        "encoding": "bytes",
        "label": "string",
        "numberOfBytes": "32"
      },
      "t_uint256": {
        "encoding": "inplace",
        "label": "uint256",
        "numberOfBytes": "32"
      }
    }
  }
}