{
  "address": "0xD93dC0AE6Cf1D8c99bf01F5EeeC119736A16C12A",
  "abi": [
    {
      "inputs": [
        {
          "components": [
            {
              "internalType": "contract PublicResolver",
              "name": "ensResolver",
              "type": "address"
            },
            {
              "internalType": "contract ENSRegistry",
              "name": "ensRegistry",
              "type": "address"
            },
            {
              "internalType": "contract IENSRegistrar",
              "name": "ensRegistrar",
              "type": "address"
            },
            {
              "internalType": "contract GnosisSafeProxyFactory",
              "name": "gnosisFactory",
              "type": "address"
            },
            {
              "internalType": "address",
              "name": "gnosisSafeSingleton",
              "type": "address"
            },
            {
              "internalType": "address",
              "name": "erc20Singleton",
              "type": "address"
            },
            {
              "internalType": "address",
              "name": "parentDao",
              "type": "address"
            }
          ],
          "internalType": "struct IGovernor.ConstructorParams",
          "name": "_params",
          "type": "tuple"
        }
      ],
      "stateMutability": "nonpayable",
      "type": "constructor"
    },
    {
      "anonymous": false,
      "inputs": [
        {
          "indexed": true,
          "internalType": "address",
          "name": "safe",
          "type": "address"
        },
        {
          "indexed": true,
          "internalType": "address",
          "name": "token",
          "type": "address"
        },
        {
          "indexed": false,
          "internalType": "bytes32",
          "name": "node",
          "type": "bytes32"
        }
      ],
      "name": "ChildDaoCreated",
      "type": "event"
    },
    {
      "anonymous": false,
      "inputs": [
        {
          "indexed": true,
          "internalType": "address",
          "name": "previousOwner",
          "type": "address"
        },
        {
          "indexed": true,
          "internalType": "address",
          "name": "newOwner",
          "type": "address"
        }
      ],
      "name": "OwnershipTransferred",
      "type": "event"
    },
    {
      "inputs": [
        {
          "internalType": "uint256",
          "name": "_domainNFTId",
          "type": "uint256"
        }
      ],
      "name": "addENSDomain",
      "outputs": [],
      "stateMutability": "nonpayable",
      "type": "function"
    },
    {
      "inputs": [
        {
          "components": [
            {
              "internalType": "bytes",
              "name": "tokenName",
              "type": "bytes"
            },
            {
              "internalType": "bytes",
              "name": "tokenSymbol",
              "type": "bytes"
            }
          ],
          "internalType": "struct IGovernor.Token",
          "name": "_tokenData",
          "type": "tuple"
        },
        {
          "components": [
            {
              "internalType": "bytes",
              "name": "initializer",
              "type": "bytes"
            }
          ],
          "internalType": "struct IGovernor.Safe",
          "name": "_safeData",
          "type": "tuple"
        },
        {
          "components": [
            {
              "internalType": "bytes",
              "name": "subdomain",
              "type": "bytes"
            },
            {
              "internalType": "bytes",
              "name": "snapshotKey",
              "type": "bytes"
            },
            {
              "internalType": "bytes",
              "name": "snapshotValue",
              "type": "bytes"
            }
          ],
          "internalType": "struct IGovernor.Subdomain",
          "name": "_subdomain",
          "type": "tuple"
        }
      ],
      "name": "createChildDAO",
      "outputs": [],
      "stateMutability": "nonpayable",
      "type": "function"
    },
    {
      "inputs": [],
      "name": "ensDomainNFTId",
      "outputs": [
        {
          "internalType": "uint256",
          "name": "",
          "type": "uint256"
        }
      ],
      "stateMutability": "view",
      "type": "function"
    },
    {
      "inputs": [],
      "name": "ensRegistrar",
      "outputs": [
        {
          "internalType": "contract IENSRegistrar",
          "name": "",
          "type": "address"
        }
      ],
      "stateMutability": "view",
      "type": "function"
    },
    {
      "inputs": [],
      "name": "ensRegistry",
      "outputs": [
        {
          "internalType": "contract ENSRegistry",
          "name": "",
          "type": "address"
        }
      ],
      "stateMutability": "view",
      "type": "function"
    },
    {
      "inputs": [],
      "name": "ensResolver",
      "outputs": [
        {
          "internalType": "contract PublicResolver",
          "name": "",
          "type": "address"
        }
      ],
      "stateMutability": "view",
      "type": "function"
    },
    {
      "inputs": [],
      "name": "erc20Singleton",
      "outputs": [
        {
          "internalType": "address",
          "name": "",
          "type": "address"
        }
      ],
      "stateMutability": "view",
      "type": "function"
    },
    {
      "inputs": [],
      "name": "gnosisFactory",
      "outputs": [
        {
          "internalType": "contract GnosisSafeProxyFactory",
          "name": "",
          "type": "address"
        }
      ],
      "stateMutability": "view",
      "type": "function"
    },
    {
      "inputs": [],
      "name": "gnosisSafeSingleton",
      "outputs": [
        {
          "internalType": "address",
          "name": "",
          "type": "address"
        }
      ],
      "stateMutability": "view",
      "type": "function"
    },
    {
      "inputs": [
        {
          "internalType": "address",
          "name": "",
          "type": "address"
        },
        {
          "internalType": "address",
          "name": "",
          "type": "address"
        },
        {
          "internalType": "uint256",
          "name": "",
          "type": "uint256"
        },
        {
          "internalType": "bytes",
          "name": "",
          "type": "bytes"
        }
      ],
      "name": "onERC721Received",
      "outputs": [
        {
          "internalType": "bytes4",
          "name": "",
          "type": "bytes4"
        }
      ],
      "stateMutability": "nonpayable",
      "type": "function"
    },
    {
      "inputs": [],
      "name": "owner",
      "outputs": [
        {
          "internalType": "address",
          "name": "",
          "type": "address"
        }
      ],
      "stateMutability": "view",
      "type": "function"
    },
    {
      "inputs": [],
      "name": "renounceOwnership",
      "outputs": [],
      "stateMutability": "nonpayable",
      "type": "function"
    },
    {
      "inputs": [
        {
          "internalType": "address",
          "name": "newOwner",
          "type": "address"
        }
      ],
      "name": "transferOwnership",
      "outputs": [],
      "stateMutability": "nonpayable",
      "type": "function"
    }
  ],
  "transactionHash": "0x2b08a1371d838a30db4fefa90c8c07cb2fa9fe1b71d8d4d7be56951122887cde",
  "args": [
    {
      "ensRegistry": "0x00000000000c2e074ec69a0dfb2997ba6c7d2e1e",
      "ensResolver": "0x4B1488B7a6B320d2D721406204aBc3eeAa9AD329",
      "ensRegistrar": "0x57f1887a8BF19b14fC0dF6Fd9B2acc9Af147eA85",
      "gnosisFactory": "0xa6B71E26C5e0845f74c812102Ca7114b6a896AB2",
      "gnosisSafeSingleton": "0xd9Db270c1B5E3Bd161E8c8503c55cEABeE709552",
      "erc20Singleton": "0xCEC1099F2931715123FC28EF68bD44BB483AB859",
      "parentDao": "0x97c020DA6498Bd82Da8A513b93500a73C3dD91E9"
    }
  ],
  "numDeployments": 2,
  "solcInputHash": "52f8505f195113ce40b412b7e1ac1ca0",
  "bytecode": "0x60806040523480156200001157600080fd5b5060405162002ce838038062002ce8833981810160405281019062000037919062000a3e565b620000576200004b6200054b60201b60201c565b6200055360201b60201c565b600073ffffffffffffffffffffffffffffffffffffffff16816000015173ffffffffffffffffffffffffffffffffffffffff1603620000cd576040517f08c379a0000000000000000000000000000000000000000000000000000000008152600401620000c49062000ad1565b60405180910390fd5b600073ffffffffffffffffffffffffffffffffffffffff16816020015173ffffffffffffffffffffffffffffffffffffffff160362000143576040517f08c379a00000000000000000000000000000000000000000000000000000000081526004016200013a9062000b43565b60405180910390fd5b600073ffffffffffffffffffffffffffffffffffffffff16816040015173ffffffffffffffffffffffffffffffffffffffff1603620001b9576040517f08c379a0000000000000000000000000000000000000000000000000000000008152600401620001b09062000bb5565b60405180910390fd5b600073ffffffffffffffffffffffffffffffffffffffff16816060015173ffffffffffffffffffffffffffffffffffffffff16036200022f576040517f08c379a0000000000000000000000000000000000000000000000000000000008152600401620002269062000c27565b60405180910390fd5b600073ffffffffffffffffffffffffffffffffffffffff16816080015173ffffffffffffffffffffffffffffffffffffffff1603620002a5576040517f08c379a00000000000000000000000000000000000000000000000000000000081526004016200029c9062000c99565b60405180910390fd5b600073ffffffffffffffffffffffffffffffffffffffff168160a0015173ffffffffffffffffffffffffffffffffffffffff16036200031b576040517f08c379a0000000000000000000000000000000000000000000000000000000008152600401620003129062000d0b565b60405180910390fd5b600073ffffffffffffffffffffffffffffffffffffffff168160c0015173ffffffffffffffffffffffffffffffffffffffff160362000391576040517f08c379a0000000000000000000000000000000000000000000000000000000008152600401620003889062000d7d565b60405180910390fd5b8060000151600160006101000a81548173ffffffffffffffffffffffffffffffffffffffff021916908373ffffffffffffffffffffffffffffffffffffffff1602179055508060200151600260006101000a81548173ffffffffffffffffffffffffffffffffffffffff021916908373ffffffffffffffffffffffffffffffffffffffff1602179055508060400151600360006101000a81548173ffffffffffffffffffffffffffffffffffffffff021916908373ffffffffffffffffffffffffffffffffffffffff1602179055508060600151600460006101000a81548173ffffffffffffffffffffffffffffffffffffffff021916908373ffffffffffffffffffffffffffffffffffffffff1602179055508060800151600560006101000a81548173ffffffffffffffffffffffffffffffffffffffff021916908373ffffffffffffffffffffffffffffffffffffffff1602179055508060a00151600660006101000a81548173ffffffffffffffffffffffffffffffffffffffff021916908373ffffffffffffffffffffffffffffffffffffffff160217905550620005448160c001516200061760201b60201c565b5062000ea9565b600033905090565b60008060009054906101000a900473ffffffffffffffffffffffffffffffffffffffff169050816000806101000a81548173ffffffffffffffffffffffffffffffffffffffff021916908373ffffffffffffffffffffffffffffffffffffffff1602179055508173ffffffffffffffffffffffffffffffffffffffff168173ffffffffffffffffffffffffffffffffffffffff167f8be0079c531659141344cd1fd0a4f28419497f9722a3daafe3b4186f6b6457e060405160405180910390a35050565b620006276200054b60201b60201c565b73ffffffffffffffffffffffffffffffffffffffff166200064d6200072c60201b60201c565b73ffffffffffffffffffffffffffffffffffffffff1614620006a6576040517f08c379a00000000000000000000000000000000000000000000000000000000081526004016200069d9062000def565b60405180910390fd5b600073ffffffffffffffffffffffffffffffffffffffff168173ffffffffffffffffffffffffffffffffffffffff160362000718576040517f08c379a00000000000000000000000000000000000000000000000000000000081526004016200070f9062000e87565b60405180910390fd5b62000729816200055360201b60201c565b50565b60008060009054906101000a900473ffffffffffffffffffffffffffffffffffffffff16905090565b6000604051905090565b600080fd5b600080fd5b6000601f19601f8301169050919050565b7f4e487b7100000000000000000000000000000000000000000000000000000000600052604160045260246000fd5b620007b48262000769565b810181811067ffffffffffffffff82111715620007d657620007d56200077a565b5b80604052505050565b6000620007eb62000755565b9050620007f98282620007a9565b919050565b600073ffffffffffffffffffffffffffffffffffffffff82169050919050565b60006200082b82620007fe565b9050919050565b60006200083f826200081e565b9050919050565b620008518162000832565b81146200085d57600080fd5b50565b600081519050620008718162000846565b92915050565b600062000884826200081e565b9050919050565b620008968162000877565b8114620008a257600080fd5b50565b600081519050620008b6816200088b565b92915050565b6000620008c9826200081e565b9050919050565b620008db81620008bc565b8114620008e757600080fd5b50565b600081519050620008fb81620008d0565b92915050565b60006200090e826200081e565b9050919050565b620009208162000901565b81146200092c57600080fd5b50565b600081519050620009408162000915565b92915050565b62000951816200081e565b81146200095d57600080fd5b50565b600081519050620009718162000946565b92915050565b600060e0828403121562000990576200098f62000764565b5b6200099c60e0620007df565b90506000620009ae8482850162000860565b6000830152506020620009c484828501620008a5565b6020830152506040620009da84828501620008ea565b6040830152506060620009f0848285016200092f565b606083015250608062000a068482850162000960565b60808301525060a062000a1c8482850162000960565b60a08301525060c062000a328482850162000960565b60c08301525092915050565b600060e0828403121562000a575762000a566200075f565b5b600062000a678482850162000977565b91505092915050565b600082825260208201905092915050565b7f696e76616c6964207265736f6c76657220616464726573730000000000000000600082015250565b600062000ab960188362000a70565b915062000ac68262000a81565b602082019050919050565b6000602082019050818103600083015262000aec8162000aaa565b9050919050565b7f696e76616c696420726567697374727920616464726573730000000000000000600082015250565b600062000b2b60188362000a70565b915062000b388262000af3565b602082019050919050565b6000602082019050818103600083015262000b5e8162000b1c565b9050919050565b7f696e76616c696420726567697374726172206164647265737300000000000000600082015250565b600062000b9d60198362000a70565b915062000baa8262000b65565b602082019050919050565b6000602082019050818103600083015262000bd08162000b8e565b9050919050565b7f696e76616c696420666163746f72792061646472657373000000000000000000600082015250565b600062000c0f60178362000a70565b915062000c1c8262000bd7565b602082019050919050565b6000602082019050818103600083015262000c428162000c00565b9050919050565b7f696e76616c696420736166652073696e676c65746f6e20616464726573730000600082015250565b600062000c81601e8362000a70565b915062000c8e8262000c49565b602082019050919050565b6000602082019050818103600083015262000cb48162000c72565b9050919050565b7f696e76616c696420746f6b656e2073696e676c65746f6e206164647265737300600082015250565b600062000cf3601f8362000a70565b915062000d008262000cbb565b602082019050919050565b6000602082019050818103600083015262000d268162000ce4565b9050919050565b7f696e76616c6964206f776e657200000000000000000000000000000000000000600082015250565b600062000d65600d8362000a70565b915062000d728262000d2d565b602082019050919050565b6000602082019050818103600083015262000d988162000d56565b9050919050565b7f4f776e61626c653a2063616c6c6572206973206e6f7420746865206f776e6572600082015250565b600062000dd760208362000a70565b915062000de48262000d9f565b602082019050919050565b6000602082019050818103600083015262000e0a8162000dc8565b9050919050565b7f4f776e61626c653a206e6577206f776e657220697320746865207a65726f206160008201527f6464726573730000000000000000000000000000000000000000000000000000602082015250565b600062000e6f60268362000a70565b915062000e7c8262000e11565b604082019050919050565b6000602082019050818103600083015262000ea28162000e60565b9050919050565b611e2f8062000eb96000396000f3fe608060405234801561001057600080fd5b50600436106100cf5760003560e01c8063987166aa1161008c578063adce1c5f11610066578063adce1c5f146101dc578063b1486fd5146101fa578063c2c589f014610218578063f2fde38b14610236576100cf565b8063987166aa14610184578063a46e434c146101a2578063acfb0ee8146101c0576100cf565b8063150b7a02146100d4578063714c077614610104578063715018a6146101225780637d73b2311461012c5780638c3285631461014a5780638da5cb5b14610166575b600080fd5b6100ee60048036038101906100e99190611269565b610252565b6040516100fb9190611327565b60405180910390f35b61010c610266565b6040516101199190611351565b60405180910390f35b61012a61028c565b005b610134610314565b60405161014191906113cb565b60405180910390f35b610164600480360381019061015f9190611448565b61033a565b005b61016e6106bc565b60405161017b9190611351565b60405180910390f35b61018c6106e5565b6040516101999190611351565b60405180910390f35b6101aa61070b565b6040516101b791906114fe565b60405180910390f35b6101da60048036038101906101d59190611519565b610711565b005b6101e46108fc565b6040516101f19190611567565b60405180910390f35b610202610922565b60405161020f91906115a3565b60405180910390f35b610220610948565b60405161022d91906115df565b60405180910390f35b610250600480360381019061024b91906115fa565b61096e565b005b600063150b7a0260e01b9050949350505050565b600560009054906101000a900473ffffffffffffffffffffffffffffffffffffffff1681565b610294610a65565b73ffffffffffffffffffffffffffffffffffffffff166102b26106bc565b73ffffffffffffffffffffffffffffffffffffffff1614610308576040517f08c379a00000000000000000000000000000000000000000000000000000000081526004016102ff90611684565b60405180910390fd5b6103126000610a6d565b565b600260009054906101000a900473ffffffffffffffffffffffffffffffffffffffff1681565b610342610a65565b73ffffffffffffffffffffffffffffffffffffffff166103606106bc565b73ffffffffffffffffffffffffffffffffffffffff16146103b6576040517f08c379a00000000000000000000000000000000000000000000000000000000081526004016103ad90611684565b60405180910390fd5b6000600754116103fb576040517f08c379a00000000000000000000000000000000000000000000000000000000081526004016103f2906116f0565b60405180910390fd5b6000610494838060000190610410919061171f565b8080601f016020809104026020016040519081016040528093929190818152602001838380828437600081840152601f19601f82011690508083019250505050505050858060000190610463919061171f565b30604051602001610476939291906117fa565b6040516020818303038152906040528051906020012060001c610b31565b905060006105478580600001906104ab919061171f565b8080601f016020809104026020016040519081016040528093929190818152602001838380828437600081840152601f19601f820116905080830192505050505050508680602001906104fe919061171f565b8080601f016020809104026020016040519081016040528093929190818152602001838380828437600081840152601f19601f8201169050808301925050505050505084610bff565b9050600061064d8385806000019061055f919061171f565b8080601f016020809104026020016040519081016040528093929190818152602001838380828437600081840152601f19601f820116905080830192505050505050508680602001906105b2919061171f565b8080601f016020809104026020016040519081016040528093929190818152602001838380828437600081840152601f19601f82011690508083019250505050505050878060400190610605919061171f565b8080601f016020809104026020016040519081016040528093929190818152602001838380828437600081840152601f19601f82011690508083019250505050505050610ccd565b90508173ffffffffffffffffffffffffffffffffffffffff168373ffffffffffffffffffffffffffffffffffffffff167f54afb3c6fa343adbababaff54538ba5b13f39308648c53aa53da99bafe9a0fc3836040516106ac919061183d565b60405180910390a3505050505050565b60008060009054906101000a900473ffffffffffffffffffffffffffffffffffffffff16905090565b600660009054906101000a900473ffffffffffffffffffffffffffffffffffffffff1681565b60075481565b610719610a65565b73ffffffffffffffffffffffffffffffffffffffff166107376106bc565b73ffffffffffffffffffffffffffffffffffffffff161461078d576040517f08c379a000000000000000000000000000000000000000000000000000000000815260040161078490611684565b60405180910390fd5b6000600754146107d2576040517f08c379a00000000000000000000000000000000000000000000000000000000081526004016107c9906118a4565b60405180910390fd5b80600781905550600360009054906101000a900473ffffffffffffffffffffffffffffffffffffffff1673ffffffffffffffffffffffffffffffffffffffff166342842e0e3330846040518463ffffffff1660e01b8152600401610838939291906118c4565b600060405180830381600087803b15801561085257600080fd5b505af1158015610866573d6000803e3d6000fd5b50505050600360009054906101000a900473ffffffffffffffffffffffffffffffffffffffff1673ffffffffffffffffffffffffffffffffffffffff166328ed4f6c82306040518363ffffffff1660e01b81526004016108c79291906118fb565b600060405180830381600087803b1580156108e157600080fd5b505af11580156108f5573d6000803e3d6000fd5b5050505050565b600160009054906101000a900473ffffffffffffffffffffffffffffffffffffffff1681565b600460009054906101000a900473ffffffffffffffffffffffffffffffffffffffff1681565b600360009054906101000a900473ffffffffffffffffffffffffffffffffffffffff1681565b610976610a65565b73ffffffffffffffffffffffffffffffffffffffff166109946106bc565b73ffffffffffffffffffffffffffffffffffffffff16146109ea576040517f08c379a00000000000000000000000000000000000000000000000000000000081526004016109e190611684565b60405180910390fd5b600073ffffffffffffffffffffffffffffffffffffffff168173ffffffffffffffffffffffffffffffffffffffff1603610a59576040517f08c379a0000000000000000000000000000000000000000000000000000000008152600401610a5090611996565b60405180910390fd5b610a6281610a6d565b50565b600033905090565b60008060009054906101000a900473ffffffffffffffffffffffffffffffffffffffff169050816000806101000a81548173ffffffffffffffffffffffffffffffffffffffff021916908373ffffffffffffffffffffffffffffffffffffffff1602179055508173ffffffffffffffffffffffffffffffffffffffff168173ffffffffffffffffffffffffffffffffffffffff167f8be0079c531659141344cd1fd0a4f28419497f9722a3daafe3b4186f6b6457e060405160405180910390a35050565b6000600460009054906101000a900473ffffffffffffffffffffffffffffffffffffffff1673ffffffffffffffffffffffffffffffffffffffff16631688f0b9600560009054906101000a900473ffffffffffffffffffffffffffffffffffffffff1685856040518463ffffffff1660e01b8152600401610bb493929190611a3e565b6020604051808303816000875af1158015610bd3573d6000803e3d6000fd5b505050506040513d601f19601f82011682018060405250810190610bf79190611acc565b905092915050565b6000610c55600660009054906101000a900473ffffffffffffffffffffffffffffffffffffffff168585604051602001610c3a929190611b2a565b60405160208183030381529060405280519060200120610f72565b90508073ffffffffffffffffffffffffffffffffffffffff16635e0cbb108585856040518463ffffffff1660e01b8152600401610c9493929190611b4e565b600060405180830381600087803b158015610cae57600080fd5b505af1158015610cc2573d6000803e3d6000fd5b505050509392505050565b600080848051906020012090506000600360009054906101000a900473ffffffffffffffffffffffffffffffffffffffff1673ffffffffffffffffffffffffffffffffffffffff1663ddf7fcb06040518163ffffffff1660e01b8152600401602060405180830381865afa158015610d49573d6000803e3d6000fd5b505050506040513d601f19601f82011682018060405250810190610d6d9190611bbf565b90506000610d808260075460001b611048565b9050610d8c8184611048565b9350600260009054906101000a900473ffffffffffffffffffffffffffffffffffffffff1673ffffffffffffffffffffffffffffffffffffffff16635ef2c7f0828530600160009054906101000a900473ffffffffffffffffffffffffffffffffffffffff16610e106040518663ffffffff1660e01b8152600401610e15959493929190611c3b565b600060405180830381600087803b158015610e2f57600080fd5b505af1158015610e43573d6000803e3d6000fd5b50505050600160009054906101000a900473ffffffffffffffffffffffffffffffffffffffff1673ffffffffffffffffffffffffffffffffffffffff1663d5fa2b00858a6040518363ffffffff1660e01b8152600401610ea4929190611c8e565b600060405180830381600087803b158015610ebe57600080fd5b505af1158015610ed2573d6000803e3d6000fd5b50505050600160009054906101000a900473ffffffffffffffffffffffffffffffffffffffff1673ffffffffffffffffffffffffffffffffffffffff166310f13a8c8588886040518463ffffffff1660e01b8152600401610f3593929190611cfb565b600060405180830381600087803b158015610f4f57600080fd5b505af1158015610f63573d6000803e3d6000fd5b50505050505050949350505050565b60006040517f3d602d80600a3d3981f3363d3d373d3d3d363d7300000000000000000000000081528360601b60148201527f5af43d82803e903d91602b57fd5bf300000000000000000000000000000000006028820152826037826000f5915050600073ffffffffffffffffffffffffffffffffffffffff168173ffffffffffffffffffffffffffffffffffffffff1603611042576040517f08c379a000000000000000000000000000000000000000000000000000000000815260040161103990611d8c565b60405180910390fd5b92915050565b6000828260405160200161105d929190611dcd565b60405160208183030381529060405280519060200120905092915050565b6000604051905090565b600080fd5b600080fd5b600073ffffffffffffffffffffffffffffffffffffffff82169050919050565b60006110ba8261108f565b9050919050565b6110ca816110af565b81146110d557600080fd5b50565b6000813590506110e7816110c1565b92915050565b6000819050919050565b611100816110ed565b811461110b57600080fd5b50565b60008135905061111d816110f7565b92915050565b600080fd5b600080fd5b6000601f19601f8301169050919050565b7f4e487b7100000000000000000000000000000000000000000000000000000000600052604160045260246000fd5b6111768261112d565b810181811067ffffffffffffffff821117156111955761119461113e565b5b80604052505050565b60006111a861107b565b90506111b4828261116d565b919050565b600067ffffffffffffffff8211156111d4576111d361113e565b5b6111dd8261112d565b9050602081019050919050565b82818337600083830152505050565b600061120c611207846111b9565b61119e565b90508281526020810184848401111561122857611227611128565b5b6112338482856111ea565b509392505050565b600082601f8301126112505761124f611123565b5b81356112608482602086016111f9565b91505092915050565b6000806000806080858703121561128357611282611085565b5b6000611291878288016110d8565b94505060206112a2878288016110d8565b93505060406112b38782880161110e565b925050606085013567ffffffffffffffff8111156112d4576112d361108a565b5b6112e08782880161123b565b91505092959194509250565b60007fffffffff0000000000000000000000000000000000000000000000000000000082169050919050565b611321816112ec565b82525050565b600060208201905061133c6000830184611318565b92915050565b61134b816110af565b82525050565b60006020820190506113666000830184611342565b92915050565b6000819050919050565b600061139161138c6113878461108f565b61136c565b61108f565b9050919050565b60006113a382611376565b9050919050565b60006113b582611398565b9050919050565b6113c5816113aa565b82525050565b60006020820190506113e060008301846113bc565b92915050565b600080fd5b600060408284031215611401576114006113e6565b5b81905092915050565b6000602082840312156114205761141f6113e6565b5b81905092915050565b60006060828403121561143f5761143e6113e6565b5b81905092915050565b60008060006060848603121561146157611460611085565b5b600084013567ffffffffffffffff81111561147f5761147e61108a565b5b61148b868287016113eb565b935050602084013567ffffffffffffffff8111156114ac576114ab61108a565b5b6114b88682870161140a565b925050604084013567ffffffffffffffff8111156114d9576114d861108a565b5b6114e586828701611429565b9150509250925092565b6114f8816110ed565b82525050565b600060208201905061151360008301846114ef565b92915050565b60006020828403121561152f5761152e611085565b5b600061153d8482850161110e565b91505092915050565b600061155182611398565b9050919050565b61156181611546565b82525050565b600060208201905061157c6000830184611558565b92915050565b600061158d82611398565b9050919050565b61159d81611582565b82525050565b60006020820190506115b86000830184611594565b92915050565b60006115c982611398565b9050919050565b6115d9816115be565b82525050565b60006020820190506115f460008301846115d0565b92915050565b6000602082840312156116105761160f611085565b5b600061161e848285016110d8565b91505092915050565b600082825260208201905092915050565b7f4f776e61626c653a2063616c6c6572206973206e6f7420746865206f776e6572600082015250565b600061166e602083611627565b915061167982611638565b602082019050919050565b6000602082019050818103600083015261169d81611661565b9050919050565b7f454e5320646f6d61696e20756e617661696c61626c6500000000000000000000600082015250565b60006116da601683611627565b91506116e5826116a4565b602082019050919050565b60006020820190508181036000830152611709816116cd565b9050919050565b600080fd5b600080fd5b600080fd5b6000808335600160200384360303811261173c5761173b611710565b5b80840192508235915067ffffffffffffffff82111561175e5761175d611715565b5b60208301925060018202360383131561177a5761177961171a565b5b509250929050565b600081905092915050565b60006117998385611782565b93506117a68385846111ea565b82840190509392505050565b60008160601b9050919050565b60006117ca826117b2565b9050919050565b60006117dc826117bf565b9050919050565b6117f46117ef826110af565b6117d1565b82525050565b600061180782858761178d565b915061181382846117e3565b601482019150819050949350505050565b6000819050919050565b61183781611824565b82525050565b6000602082019050611852600083018461182e565b92915050565b7f656e7320646f6d61696e20616c72656164792073657400000000000000000000600082015250565b600061188e601683611627565b915061189982611858565b602082019050919050565b600060208201905081810360008301526118bd81611881565b9050919050565b60006060820190506118d96000830186611342565b6118e66020830185611342565b6118f360408301846114ef565b949350505050565b600060408201905061191060008301856114ef565b61191d6020830184611342565b9392505050565b7f4f776e61626c653a206e6577206f776e657220697320746865207a65726f206160008201527f6464726573730000000000000000000000000000000000000000000000000000602082015250565b6000611980602683611627565b915061198b82611924565b604082019050919050565b600060208201905081810360008301526119af81611973565b9050919050565b600081519050919050565b600082825260208201905092915050565b60005b838110156119f05780820151818401526020810190506119d5565b838111156119ff576000848401525b50505050565b6000611a10826119b6565b611a1a81856119c1565b9350611a2a8185602086016119d2565b611a338161112d565b840191505092915050565b6000606082019050611a536000830186611342565b8181036020830152611a658185611a05565b9050611a7460408301846114ef565b949350505050565b6000611a878261108f565b9050919050565b6000611a9982611a7c565b9050919050565b611aa981611a8e565b8114611ab457600080fd5b50565b600081519050611ac681611aa0565b92915050565b600060208284031215611ae257611ae1611085565b5b6000611af084828501611ab7565b91505092915050565b6000611b04826119b6565b611b0e8185611782565b9350611b1e8185602086016119d2565b80840191505092915050565b6000611b368285611af9565b9150611b428284611af9565b91508190509392505050565b60006060820190508181036000830152611b688186611a05565b90508181036020830152611b7c8185611a05565b9050611b8b6040830184611342565b949350505050565b611b9c81611824565b8114611ba757600080fd5b50565b600081519050611bb981611b93565b92915050565b600060208284031215611bd557611bd4611085565b5b6000611be384828501611baa565b91505092915050565b6000819050919050565b600067ffffffffffffffff82169050919050565b6000611c25611c20611c1b84611bec565b61136c565b611bf6565b9050919050565b611c3581611c0a565b82525050565b600060a082019050611c50600083018861182e565b611c5d602083018761182e565b611c6a6040830186611342565b611c776060830185611342565b611c846080830184611c2c565b9695505050505050565b6000604082019050611ca3600083018561182e565b611cb06020830184611342565b9392505050565b600081519050919050565b6000611ccd82611cb7565b611cd78185611627565b9350611ce78185602086016119d2565b611cf08161112d565b840191505092915050565b6000606082019050611d10600083018661182e565b8181036020830152611d228185611cc2565b90508181036040830152611d368184611cc2565b9050949350505050565b7f455243313136373a2063726561746532206661696c6564000000000000000000600082015250565b6000611d76601783611627565b9150611d8182611d40565b602082019050919050565b60006020820190508181036000830152611da581611d69565b9050919050565b6000819050919050565b611dc7611dc282611824565b611dac565b82525050565b6000611dd98285611db6565b602082019150611de98284611db6565b602082019150819050939250505056fea2646970667358221220f9fc561ea610d5063039175dec930f8d2a15758c0f0bf0a98a481d6d8ff8338764736f6c634300080d0033",
  "devdoc": {
    "kind": "dev",
    "methods": {
      "addENSDomain(uint256)": {
        "params": {
          "_domainNFTId": "The ENS NFT to transfer in"
        }
      },
      "createChildDAO((bytes,bytes),(bytes),(bytes,bytes,bytes))": {
        "params": {
          "_safeData": "The details of the Gnosis safe to create",
          "_subdomain": "The details of the ens subdomain to create",
          "_tokenData": "The details of the ERC20 token to create"
        }
      },
      "onERC721Received(address,address,uint256,bytes)": {
        "details": "See {IERC721Receiver-onERC721Received}. Always returns `IERC721Receiver.onERC721Received.selector`."
      },
      "owner()": {
        "details": "Returns the address of the current owner."
      },
      "renounceOwnership()": {
        "details": "Leaves the contract without owner. It will not be possible to call `onlyOwner` functions anymore. Can only be called by the current owner. NOTE: Renouncing ownership will leave the contract without an owner, thereby removing any functionality that is only available to the owner."
      },
      "transferOwnership(address)": {
        "details": "Transfers ownership of the contract to a new account (`newOwner`). Can only be called by the current owner."
      }
    },
    "version": 1
  },
  "userdoc": {
    "events": {
      "ChildDaoCreated(address,address,bytes32)": {
        "notice": "Events"
      }
    },
    "kind": "user",
    "methods": {
      "addENSDomain(uint256)": {
        "notice": "Transfers an ENS NFT into the contract for use with subdomains"
      },
      "createChildDAO((bytes,bytes),(bytes),(bytes,bytes,bytes))": {
        "notice": "Creates the constituent components of a child dao"
      },
      "ensResolver()": {
        "notice": "Autogenerated getters"
      }
    },
    "version": 1
  },
  "storageLayout": {
    "storage": [
      {
        "astId": 5431,
        "contract": "contracts/implementations/Governor.sol:Governor",
        "label": "_owner",
        "offset": 0,
        "slot": "0",
        "type": "t_address"
      },
      {
        "astId": 5824,
        "contract": "contracts/implementations/Governor.sol:Governor",
        "label": "ensResolver",
        "offset": 0,
        "slot": "1",
        "type": "t_contract(PublicResolver)3473"
      },
      {
        "astId": 5828,
        "contract": "contracts/implementations/Governor.sol:Governor",
        "label": "ensRegistry",
        "offset": 0,
        "slot": "2",
        "type": "t_contract(ENSRegistry)3158"
      },
      {
        "astId": 5832,
        "contract": "contracts/implementations/Governor.sol:Governor",
        "label": "ensRegistrar",
        "offset": 0,
        "slot": "3",
        "type": "t_contract(IENSRegistrar)6405"
      },
      {
        "astId": 5836,
        "contract": "contracts/implementations/Governor.sol:Governor",
        "label": "gnosisFactory",
        "offset": 0,
        "slot": "4",
        "type": "t_contract(GnosisSafeProxyFactory)5329"
      },
      {
        "astId": 5839,
        "contract": "contracts/implementations/Governor.sol:Governor",
        "label": "gnosisSafeSingleton",
        "offset": 0,
        "slot": "5",
        "type": "t_address"
      },
      {
        "astId": 5842,
        "contract": "contracts/implementations/Governor.sol:Governor",
        "label": "erc20Singleton",
        "offset": 0,
        "slot": "6",
        "type": "t_address"
      },
      {
        "astId": 5845,
        "contract": "contracts/implementations/Governor.sol:Governor",
        "label": "ensDomainNFTId",
        "offset": 0,
        "slot": "7",
        "type": "t_uint256"
      }
    ],
    "types": {
      "t_address": {
        "encoding": "inplace",
        "label": "address",
        "numberOfBytes": "20"
      },
      "t_contract(ENSRegistry)3158": {
        "encoding": "inplace",
        "label": "contract ENSRegistry",
        "numberOfBytes": "20"
      },
      "t_contract(GnosisSafeProxyFactory)5329": {
        "encoding": "inplace",
        "label": "contract GnosisSafeProxyFactory",
        "numberOfBytes": "20"
      },
      "t_contract(IENSRegistrar)6405": {
        "encoding": "inplace",
        "label": "contract IENSRegistrar",
        "numberOfBytes": "20"
      },
      "t_contract(PublicResolver)3473": {
        "encoding": "inplace",
        "label": "contract PublicResolver",
        "numberOfBytes": "20"
      },
      "t_uint256": {
        "encoding": "inplace",
        "label": "uint256",
        "numberOfBytes": "32"
      }
    }
  }
}