{
  "address": "0x7eBa2C515238c7B21Ce69526E260Ff460BFb381c",
  "abi": [
    {
      "inputs": [
        {
          "internalType": "address",
          "name": "_rewardToken",
          "type": "address"
        },
        {
          "internalType": "address",
          "name": "_owner",
          "type": "address"
        },
        {
          "internalType": "uint256",
          "name": "_lockupPeriod",
          "type": "uint256"
        }
      ],
      "stateMutability": "nonpayable",
      "type": "constructor"
    },
    {
      "inputs": [
        {
          "internalType": "uint256",
          "name": "x",
          "type": "uint256"
        }
      ],
      "name": "PRBMathUD60x18__FromUintOverflow",
      "type": "error"
    },
    {
      "inputs": [
        {
          "internalType": "uint256",
          "name": "prod1",
          "type": "uint256"
        }
      ],
      "name": "PRBMath__MulDivFixedPointOverflow",
      "type": "error"
    },
    {
      "inputs": [
        {
          "internalType": "uint256",
          "name": "prod1",
          "type": "uint256"
        },
        {
          "internalType": "uint256",
          "name": "denominator",
          "type": "uint256"
        }
      ],
      "name": "PRBMath__MulDivOverflow",
      "type": "error"
    },
    {
      "anonymous": false,
      "inputs": [
        {
          "indexed": true,
          "internalType": "address",
          "name": "user",
          "type": "address"
        },
        {
          "indexed": true,
          "internalType": "address",
          "name": "daoToken",
          "type": "address"
        },
        {
          "indexed": false,
          "internalType": "uint256",
          "name": "amount",
          "type": "uint256"
        }
      ],
      "name": "ClaimRewards",
      "type": "event"
    },
    {
      "anonymous": false,
      "inputs": [
        {
          "indexed": true,
          "internalType": "address",
          "name": "daoToken",
          "type": "address"
        },
        {
          "indexed": false,
          "internalType": "uint256",
          "name": "amount",
          "type": "uint256"
        }
      ],
      "name": "Distribution",
      "type": "event"
    },
    {
      "anonymous": false,
      "inputs": [
        {
          "indexed": true,
          "internalType": "address",
          "name": "sender",
          "type": "address"
        },
        {
          "indexed": true,
          "internalType": "address",
          "name": "daoToken",
          "type": "address"
        },
        {
          "indexed": false,
          "internalType": "uint256",
          "name": "amount",
          "type": "uint256"
        }
      ],
      "name": "Eject",
      "type": "event"
    },
    {
      "anonymous": false,
      "inputs": [
        {
          "indexed": true,
          "internalType": "address",
          "name": "previousOwner",
          "type": "address"
        },
        {
          "indexed": true,
          "internalType": "address",
          "name": "newOwner",
          "type": "address"
        }
      ],
      "name": "OwnershipTransferred",
      "type": "event"
    },
    {
      "anonymous": false,
      "inputs": [
        {
          "indexed": true,
          "internalType": "address",
          "name": "user",
          "type": "address"
        },
        {
          "indexed": true,
          "internalType": "address",
          "name": "daoToken",
          "type": "address"
        },
        {
          "indexed": false,
          "internalType": "uint256",
          "name": "amount",
          "type": "uint256"
        }
      ],
      "name": "Stake",
      "type": "event"
    },
    {
      "anonymous": false,
      "inputs": [
        {
          "indexed": true,
          "internalType": "address",
          "name": "user",
          "type": "address"
        },
        {
          "indexed": true,
          "internalType": "address",
          "name": "daoToken",
          "type": "address"
        },
        {
          "indexed": false,
          "internalType": "uint256",
          "name": "amount",
          "type": "uint256"
        }
      ],
      "name": "Unstake",
      "type": "event"
    },
    {
      "inputs": [
        {
          "internalType": "address",
          "name": "_daoToken",
          "type": "address"
        },
        {
          "internalType": "address",
          "name": "_to",
          "type": "address"
        }
      ],
      "name": "claimRewards",
      "outputs": [],
      "stateMutability": "nonpayable",
      "type": "function"
    },
    {
      "inputs": [
        {
          "internalType": "address",
          "name": "",
          "type": "address"
        }
      ],
      "name": "daoRewards",
      "outputs": [
        {
          "internalType": "uint256",
          "name": "totalStake",
          "type": "uint256"
        },
        {
          "internalType": "uint256",
          "name": "rewardPerToken",
          "type": "uint256"
        }
      ],
      "stateMutability": "view",
      "type": "function"
    },
    {
      "inputs": [
        {
          "internalType": "address",
          "name": "_daoToken",
          "type": "address"
        },
        {
          "internalType": "uint256",
          "name": "_amount",
          "type": "uint256"
        }
      ],
      "name": "distributeRewards",
      "outputs": [],
      "stateMutability": "nonpayable",
      "type": "function"
    },
    {
      "inputs": [
        {
          "internalType": "address",
          "name": "_daoToken",
          "type": "address"
        },
        {
          "internalType": "address",
          "name": "_to",
          "type": "address"
        }
      ],
      "name": "emergencyEject",
      "outputs": [],
      "stateMutability": "nonpayable",
      "type": "function"
    },
    {
      "inputs": [],
      "name": "lockupPeriod",
      "outputs": [
        {
          "internalType": "uint256",
          "name": "",
          "type": "uint256"
        }
      ],
      "stateMutability": "view",
      "type": "function"
    },
    {
      "inputs": [],
      "name": "owner",
      "outputs": [
        {
          "internalType": "address",
          "name": "",
          "type": "address"
        }
      ],
      "stateMutability": "view",
      "type": "function"
    },
    {
      "inputs": [
        {
          "internalType": "address",
          "name": "_user",
          "type": "address"
        },
        {
          "internalType": "address",
          "name": "_daoToken",
          "type": "address"
        }
      ],
      "name": "pendingRewards",
      "outputs": [
        {
          "internalType": "uint256",
          "name": "rewardAmount",
          "type": "uint256"
        }
      ],
      "stateMutability": "view",
      "type": "function"
    },
    {
      "inputs": [],
      "name": "renounceOwnership",
      "outputs": [],
      "stateMutability": "nonpayable",
      "type": "function"
    },
    {
      "inputs": [],
      "name": "rewardToken",
      "outputs": [
        {
          "internalType": "contract ERC20",
          "name": "",
          "type": "address"
        }
      ],
      "stateMutability": "view",
      "type": "function"
    },
    {
      "inputs": [
        {
          "internalType": "uint256",
          "name": "_lockupPeriod",
          "type": "uint256"
        }
      ],
      "name": "setLockupPeriod",
      "outputs": [],
      "stateMutability": "nonpayable",
      "type": "function"
    },
    {
      "inputs": [
        {
          "internalType": "address",
          "name": "_daoToken",
          "type": "address"
        },
        {
          "internalType": "uint256",
          "name": "_amount",
          "type": "uint256"
        }
      ],
      "name": "stake",
      "outputs": [],
      "stateMutability": "nonpayable",
      "type": "function"
    },
    {
      "inputs": [
        {
          "internalType": "address",
          "name": "_user",
          "type": "address"
        },
        {
          "internalType": "address",
          "name": "_daoToken",
          "type": "address"
        },
        {
          "internalType": "uint256",
          "name": "_amount",
          "type": "uint256"
        }
      ],
      "name": "stakeOnBehalf",
      "outputs": [],
      "stateMutability": "nonpayable",
      "type": "function"
    },
    {
      "inputs": [
        {
          "internalType": "address",
          "name": "newOwner",
          "type": "address"
        }
      ],
      "name": "transferOwnership",
      "outputs": [],
      "stateMutability": "nonpayable",
      "type": "function"
    },
    {
      "inputs": [
        {
          "internalType": "address",
          "name": "_daoToken",
          "type": "address"
        },
        {
          "internalType": "uint256",
          "name": "_amount",
          "type": "uint256"
        },
        {
          "internalType": "address",
          "name": "_to",
          "type": "address"
        }
      ],
      "name": "unstake",
      "outputs": [],
      "stateMutability": "nonpayable",
      "type": "function"
    },
    {
      "inputs": [
        {
          "internalType": "address",
          "name": "",
          "type": "address"
        },
        {
          "internalType": "address",
          "name": "",
          "type": "address"
        }
      ],
      "name": "userStakes",
      "outputs": [
        {
          "internalType": "uint256",
          "name": "stakedAmount",
          "type": "uint256"
        },
        {
          "internalType": "uint256",
          "name": "rewardEntry",
          "type": "uint256"
        },
        {
          "internalType": "uint256",
          "name": "pendingRewards",
          "type": "uint256"
        },
        {
          "internalType": "uint256",
          "name": "timeStaked",
          "type": "uint256"
        }
      ],
      "stateMutability": "view",
      "type": "function"
    }
  ],
  "transactionHash": "0x3c2384f8868a19e5a3d7bd666d349fd5b88da8dab54016cd4d0ca335c2945c35",
  "args": [
    "0x9F3AB70b2E682A95F70371b76aC9416BE58F4999",
    "0x0C56c62ecf7Cd3965A57B5D9A7974EeE578714C3",
    "2592000"
  ],
  "numDeployments": 1,
  "solcInputHash": "fd0195eb1b5ab6b8bdcc6d00ee2302e8",
  "bytecode": "0x60a06040523480156200001157600080fd5b5060405162003641380380620036418339818101604052810190620000379190620003cd565b620000576200004b6200011e60201b60201c565b6200012660201b60201c565b600073ffffffffffffffffffffffffffffffffffffffff168373ffffffffffffffffffffffffffffffffffffffff1603620000c9576040517f08c379a0000000000000000000000000000000000000000000000000000000008152600401620000c0906200048a565b60405180910390fd5b8273ffffffffffffffffffffffffffffffffffffffff1660808173ffffffffffffffffffffffffffffffffffffffff1681525050806003819055506200011582620001ea60201b60201c565b505050620005b6565b600033905090565b60008060009054906101000a900473ffffffffffffffffffffffffffffffffffffffff169050816000806101000a81548173ffffffffffffffffffffffffffffffffffffffff021916908373ffffffffffffffffffffffffffffffffffffffff1602179055508173ffffffffffffffffffffffffffffffffffffffff168173ffffffffffffffffffffffffffffffffffffffff167f8be0079c531659141344cd1fd0a4f28419497f9722a3daafe3b4186f6b6457e060405160405180910390a35050565b620001fa6200011e60201b60201c565b73ffffffffffffffffffffffffffffffffffffffff1662000220620002ff60201b60201c565b73ffffffffffffffffffffffffffffffffffffffff161462000279576040517f08c379a00000000000000000000000000000000000000000000000000000000081526004016200027090620004fc565b60405180910390fd5b600073ffffffffffffffffffffffffffffffffffffffff168173ffffffffffffffffffffffffffffffffffffffff1603620002eb576040517f08c379a0000000000000000000000000000000000000000000000000000000008152600401620002e29062000594565b60405180910390fd5b620002fc816200012660201b60201c565b50565b60008060009054906101000a900473ffffffffffffffffffffffffffffffffffffffff16905090565b600080fd5b600073ffffffffffffffffffffffffffffffffffffffff82169050919050565b60006200035a826200032d565b9050919050565b6200036c816200034d565b81146200037857600080fd5b50565b6000815190506200038c8162000361565b92915050565b6000819050919050565b620003a78162000392565b8114620003b357600080fd5b50565b600081519050620003c7816200039c565b92915050565b600080600060608486031215620003e957620003e862000328565b5b6000620003f9868287016200037b565b93505060206200040c868287016200037b565b92505060406200041f86828701620003b6565b9150509250925092565b600082825260208201905092915050565b7f696e76616c69642072657761726420746f6b656e000000000000000000000000600082015250565b60006200047260148362000429565b91506200047f826200043a565b602082019050919050565b60006020820190508181036000830152620004a58162000463565b9050919050565b7f4f776e61626c653a2063616c6c6572206973206e6f7420746865206f776e6572600082015250565b6000620004e460208362000429565b9150620004f182620004ac565b602082019050919050565b600060208201905081810360008301526200051781620004d5565b9050919050565b7f4f776e61626c653a206e6577206f776e657220697320746865207a65726f206160008201527f6464726573730000000000000000000000000000000000000000000000000000602082015250565b60006200057c60268362000429565b915062000589826200051e565b604082019050919050565b60006020820190508181036000830152620005af816200056d565b9050919050565b608051613061620005e060003960008181610cb20152818161118401526112c801526130616000f3fe608060405234801561001057600080fd5b50600436106100f55760003560e01c8063c74759ba11610097578063f1e42ccd11610066578063f1e42ccd14610260578063f2fde38b1461027c578063f7c618c114610298578063fadb5d8c146102b6576100f5565b8063c74759ba146101d9578063c771c3901461020a578063ca92a56114610226578063ee947a7c14610242576100f5565b80638da5cb5b116100d35780638da5cb5b14610167578063926e31d614610185578063a8031a1d146101a1578063adc9772e146101bd576100f5565b8063715018a6146100fa57806380ac822814610104578063862d2d7c14610134575b600080fd5b6101026102d2565b005b61011e60048036038101906101199190612485565b61035a565b60405161012b91906124de565b60405180910390f35b61014e60048036038101906101499190612485565b6104a0565b60405161015e94939291906124f9565b60405180910390f35b61016f6104dd565b60405161017c919061254d565b60405180910390f35b61019f600480360381019061019a9190612594565b610506565b005b6101bb60048036038101906101b691906125e7565b610aaa565b005b6101d760048036038101906101d291906125e7565b610cfc565b005b6101f360048036038101906101ee9190612627565b610d0b565b604051610201929190612654565b60405180910390f35b610224600480360381019061021f919061267d565b610d2f565b005b610240600480360381019061023b91906126aa565b610db5565b005b61024a610e34565b60405161025791906124de565b60405180910390f35b61027a60048036038101906102759190612485565b610e3a565b005b61029660048036038101906102919190612627565b6111cf565b005b6102a06112c6565b6040516102ad919061275c565b60405180910390f35b6102d060048036038101906102cb9190612485565b6112ea565b005b6102da611825565b73ffffffffffffffffffffffffffffffffffffffff166102f86104dd565b73ffffffffffffffffffffffffffffffffffffffff161461034e576040517f08c379a0000000000000000000000000000000000000000000000000000000008152600401610345906127d4565b60405180910390fd5b610358600061182d565b565b600080600160008473ffffffffffffffffffffffffffffffffffffffff1673ffffffffffffffffffffffffffffffffffffffff1681526020019081526020016000206040518060400160405290816000820154815260200160018201548152505090506000600260008573ffffffffffffffffffffffffffffffffffffffff1673ffffffffffffffffffffffffffffffffffffffff16815260200190815260200160002060008673ffffffffffffffffffffffffffffffffffffffff1673ffffffffffffffffffffffffffffffffffffffff1681526020019081526020016000206040518060800160405290816000820154815260200160018201548152602001600282015481526020016003820154815250509050806040015161048c8260000151846020015184602001516118f1565b6104969190612823565b9250505092915050565b6002602052816000526040600020602052806000526040600020600091509150508060000154908060010154908060020154908060030154905084565b60008060009054906101000a900473ffffffffffffffffffffffffffffffffffffffff16905090565b826000600260008373ffffffffffffffffffffffffffffffffffffffff1673ffffffffffffffffffffffffffffffffffffffff16815260200190815260200160002060003373ffffffffffffffffffffffffffffffffffffffff1673ffffffffffffffffffffffffffffffffffffffff168152602001908152602001600020604051806080016040529081600082015481526020016001820154815260200160028201548152602001600382015481525050905060035481606001516105cc9190612823565b42101561060e576040517f08c379a0000000000000000000000000000000000000000000000000000000008152600401610605906128c5565b60405180910390fd5b600073ffffffffffffffffffffffffffffffffffffffff168573ffffffffffffffffffffffffffffffffffffffff160361067d576040517f08c379a000000000000000000000000000000000000000000000000000000000815260040161067490612931565b60405180910390fd5b600084116106c0576040517f08c379a00000000000000000000000000000000000000000000000000000000081526004016106b79061299d565b60405180910390fd5b600073ffffffffffffffffffffffffffffffffffffffff168373ffffffffffffffffffffffffffffffffffffffff160361072f576040517f08c379a000000000000000000000000000000000000000000000000000000000815260040161072690612a09565b60405180910390fd5b6000600160008773ffffffffffffffffffffffffffffffffffffffff1673ffffffffffffffffffffffffffffffffffffffff1681526020019081526020016000206040518060400160405290816000820154815260200160018201548152505090506000600260008873ffffffffffffffffffffffffffffffffffffffff1673ffffffffffffffffffffffffffffffffffffffff16815260200190815260200160002060003373ffffffffffffffffffffffffffffffffffffffff1673ffffffffffffffffffffffffffffffffffffffff1681526020019081526020016000206040518060800160405290816000820154815260200160018201548152602001600282015481526020016003820154815250509050806000015186111561088b576040517f08c379a000000000000000000000000000000000000000000000000000000000815260040161088290612a75565b60405180910390fd5b6108a28160000151836020015183602001516118f1565b816040018181516108b39190612823565b9150818152505085816000018181516108cc9190612a95565b91508181525050816020015181602001818152505085826000018181516108f39190612a95565b9150818152505060008260000151036109125760008260200181815250505b81600160008973ffffffffffffffffffffffffffffffffffffffff1673ffffffffffffffffffffffffffffffffffffffff168152602001908152602001600020600082015181600001556020820151816001015590505080600260008973ffffffffffffffffffffffffffffffffffffffff1673ffffffffffffffffffffffffffffffffffffffff16815260200190815260200160002060003373ffffffffffffffffffffffffffffffffffffffff1673ffffffffffffffffffffffffffffffffffffffff168152602001908152602001600020600082015181600001556020820151816001015560408201518160020155606082015181600301559050508673ffffffffffffffffffffffffffffffffffffffff163373ffffffffffffffffffffffffffffffffffffffff167f390b1276974b9463e5d66ab10df69b6f3d7b930eb066a0e66df327edd2cc811c88604051610a6e91906124de565b60405180910390a3610aa185878973ffffffffffffffffffffffffffffffffffffffff166119509092919063ffffffff16565b50505050505050565b600073ffffffffffffffffffffffffffffffffffffffff168273ffffffffffffffffffffffffffffffffffffffff1603610b19576040517f08c379a0000000000000000000000000000000000000000000000000000000008152600401610b1090612b15565b60405180910390fd5b60008111610b5c576040517f08c379a0000000000000000000000000000000000000000000000000000000008152600401610b539061299d565b60405180910390fd5b6000600160008473ffffffffffffffffffffffffffffffffffffffff1673ffffffffffffffffffffffffffffffffffffffff1681526020019081526020016000206040518060400160405290816000820154815260200160018201548152505090506000816000015103610be8578181602001818151610bdc9190612823565b91508181525050610c05565b610bfb81602001518383600001516119d6565b8160200181815250505b80600160008573ffffffffffffffffffffffffffffffffffffffff1673ffffffffffffffffffffffffffffffffffffffff16815260200190815260200160002060008201518160000155602082015181600101559050508273ffffffffffffffffffffffffffffffffffffffff167f33ad5d6b2a46b5457e0d36286a2686a0390b0821dedbbdf8dcdcda64f4782c6883604051610ca291906124de565b60405180910390a2610cf73330847f000000000000000000000000000000000000000000000000000000000000000073ffffffffffffffffffffffffffffffffffffffff16611a07909392919063ffffffff16565b505050565b610d07338383611a90565b5050565b60016020528060005260406000206000915090508060000154908060010154905082565b610d37611825565b73ffffffffffffffffffffffffffffffffffffffff16610d556104dd565b73ffffffffffffffffffffffffffffffffffffffff1614610dab576040517f08c379a0000000000000000000000000000000000000000000000000000000008152600401610da2906127d4565b60405180910390fd5b8060038190555050565b600073ffffffffffffffffffffffffffffffffffffffff168373ffffffffffffffffffffffffffffffffffffffff1603610e24576040517f08c379a0000000000000000000000000000000000000000000000000000000008152600401610e1b90612b81565b60405180910390fd5b610e2f838383611a90565b505050565b60035481565b600073ffffffffffffffffffffffffffffffffffffffff168273ffffffffffffffffffffffffffffffffffffffff1603610ea9576040517f08c379a0000000000000000000000000000000000000000000000000000000008152600401610ea090612bed565b60405180910390fd5b600073ffffffffffffffffffffffffffffffffffffffff168173ffffffffffffffffffffffffffffffffffffffff1603610f18576040517f08c379a0000000000000000000000000000000000000000000000000000000008152600401610f0f90612a09565b60405180910390fd5b6000600160008473ffffffffffffffffffffffffffffffffffffffff1673ffffffffffffffffffffffffffffffffffffffff1681526020019081526020016000206040518060400160405290816000820154815260200160018201548152505090506000600260008573ffffffffffffffffffffffffffffffffffffffff1673ffffffffffffffffffffffffffffffffffffffff16815260200190815260200160002060003373ffffffffffffffffffffffffffffffffffffffff1673ffffffffffffffffffffffffffffffffffffffff16815260200190815260200160002060405180608001604052908160008201548152602001600182015481526020016002820154815260200160038201548152505090506000816040015161104b8360000151856020015185602001516118f1565b6110559190612823565b90506000826040018181525050826020015182602001818152505081600260008773ffffffffffffffffffffffffffffffffffffffff1673ffffffffffffffffffffffffffffffffffffffff16815260200190815260200160002060003373ffffffffffffffffffffffffffffffffffffffff1673ffffffffffffffffffffffffffffffffffffffff168152602001908152602001600020600082015181600001556020820151816001015560408201518160020155606082015181600301559050508473ffffffffffffffffffffffffffffffffffffffff163373ffffffffffffffffffffffffffffffffffffffff167f9aa05b3d70a9e3e2f004f039648839560576334fb45c81f91b6db03ad9e2efc98360405161117591906124de565b60405180910390a36111c884827f000000000000000000000000000000000000000000000000000000000000000073ffffffffffffffffffffffffffffffffffffffff166119509092919063ffffffff16565b5050505050565b6111d7611825565b73ffffffffffffffffffffffffffffffffffffffff166111f56104dd565b73ffffffffffffffffffffffffffffffffffffffff161461124b576040517f08c379a0000000000000000000000000000000000000000000000000000000008152600401611242906127d4565b60405180910390fd5b600073ffffffffffffffffffffffffffffffffffffffff168173ffffffffffffffffffffffffffffffffffffffff16036112ba576040517f08c379a00000000000000000000000000000000000000000000000000000000081526004016112b190612c7f565b60405180910390fd5b6112c38161182d565b50565b7f000000000000000000000000000000000000000000000000000000000000000081565b816000600260008373ffffffffffffffffffffffffffffffffffffffff1673ffffffffffffffffffffffffffffffffffffffff16815260200190815260200160002060003373ffffffffffffffffffffffffffffffffffffffff1673ffffffffffffffffffffffffffffffffffffffff168152602001908152602001600020604051806080016040529081600082015481526020016001820154815260200160028201548152602001600382015481525050905060035481606001516113b09190612823565b4210156113f2576040517f08c379a00000000000000000000000000000000000000000000000000000000081526004016113e9906128c5565b60405180910390fd5b600073ffffffffffffffffffffffffffffffffffffffff168473ffffffffffffffffffffffffffffffffffffffff1603611461576040517f08c379a000000000000000000000000000000000000000000000000000000000815260040161145890612bed565b60405180910390fd5b600073ffffffffffffffffffffffffffffffffffffffff168373ffffffffffffffffffffffffffffffffffffffff16036114d0576040517f08c379a00000000000000000000000000000000000000000000000000000000081526004016114c790612a09565b60405180910390fd5b6000600160008673ffffffffffffffffffffffffffffffffffffffff1673ffffffffffffffffffffffffffffffffffffffff1681526020019081526020016000206040518060400160405290816000820154815260200160018201548152505090506000600260008773ffffffffffffffffffffffffffffffffffffffff1673ffffffffffffffffffffffffffffffffffffffff16815260200190815260200160002060003373ffffffffffffffffffffffffffffffffffffffff1673ffffffffffffffffffffffffffffffffffffffff1681526020019081526020016000206040518060800160405290816000820154815260200160018201548152602001600282015481526020016003820154815250509050600081604001516116038360000151856020015185602001516118f1565b61160d9190612823565b9050600082600001519050600083600001818152505060008360200181815250506000836040018181525050808460000181815161164b9190612a95565b915081815250506000846000015111156116805761167284602001518386600001516119d6565b84602001818152505061168c565b60008460200181815250505b83600160008a73ffffffffffffffffffffffffffffffffffffffff1673ffffffffffffffffffffffffffffffffffffffff168152602001908152602001600020600082015181600001556020820151816001015590505082600260008a73ffffffffffffffffffffffffffffffffffffffff1673ffffffffffffffffffffffffffffffffffffffff16815260200190815260200160002060003373ffffffffffffffffffffffffffffffffffffffff1673ffffffffffffffffffffffffffffffffffffffff168152602001908152602001600020600082015181600001556020820151816001015560408201518160020155606082015181600301559050508773ffffffffffffffffffffffffffffffffffffffff163373ffffffffffffffffffffffffffffffffffffffff167fe36a8ad1ad27c4456e1d6a932b4ba7af4e84ca314eaca083903da3bfc6842f44836040516117e891906124de565b60405180910390a361181b87828a73ffffffffffffffffffffffffffffffffffffffff166119509092919063ffffffff16565b5050505050505050565b600033905090565b60008060009054906101000a900473ffffffffffffffffffffffffffffffffffffffff169050816000806101000a81548173ffffffffffffffffffffffffffffffffffffffff021916908373ffffffffffffffffffffffffffffffffffffffff1602179055508173ffffffffffffffffffffffffffffffffffffffff168173ffffffffffffffffffffffffffffffffffffffff167f8be0079c531659141344cd1fd0a4f28419497f9722a3daafe3b4186f6b6457e060405160405180910390a35050565b60008084148061190057508183145b1561190e5760009050611949565b6119466119248386611eaf90919063ffffffff16565b6119378587611eaf90919063ffffffff16565b6119419190612a95565b611ec3565b90505b9392505050565b6119d18363a9059cbb60e01b848460405160240161196f929190612c9f565b604051602081830303815290604052907bffffffffffffffffffffffffffffffffffffffffffffffffffffffff19166020820180517bffffffffffffffffffffffffffffffffffffffffffffffffffffffff8381831617835250505050611ee5565b505050565b60006119f3826119e585611fac565b61203d90919063ffffffff16565b846119fe9190612823565b90509392505050565b611a8a846323b872dd60e01b858585604051602401611a2893929190612cc8565b604051602081830303815290604052907bffffffffffffffffffffffffffffffffffffffffffffffffffffffff19166020820180517bffffffffffffffffffffffffffffffffffffffffffffffffffffffff8381831617835250505050611ee5565b50505050565b600073ffffffffffffffffffffffffffffffffffffffff168273ffffffffffffffffffffffffffffffffffffffff1603611aff576040517f08c379a0000000000000000000000000000000000000000000000000000000008152600401611af690612931565b60405180910390fd5b60008111611b42576040517f08c379a0000000000000000000000000000000000000000000000000000000008152600401611b399061299d565b60405180910390fd5b6000600160008473ffffffffffffffffffffffffffffffffffffffff1673ffffffffffffffffffffffffffffffffffffffff1681526020019081526020016000206040518060400160405290816000820154815260200160018201548152505090506000600260008573ffffffffffffffffffffffffffffffffffffffff1673ffffffffffffffffffffffffffffffffffffffff16815260200190815260200160002060008673ffffffffffffffffffffffffffffffffffffffff1673ffffffffffffffffffffffffffffffffffffffff16815260200190815260200160002060405180608001604052908160008201548152602001600182015481526020016002820154815260200160038201548152505090506000826000015103611c9d57600082602001511115611c98578160200151816040018181525050611c8e60008360200151856119d6565b8260200181815250505b611ccd565b611cb48160000151836020015183602001516118f1565b81604001818151611cc59190612823565b915081815250505b81602001518160200181815250508281600001818151611ced9190612823565b91508181525050428160600181815250508282600001818151611d109190612823565b9150818152505081600160008673ffffffffffffffffffffffffffffffffffffffff1673ffffffffffffffffffffffffffffffffffffffff168152602001908152602001600020600082015181600001556020820151816001015590505080600260008673ffffffffffffffffffffffffffffffffffffffff1673ffffffffffffffffffffffffffffffffffffffff16815260200190815260200160002060008773ffffffffffffffffffffffffffffffffffffffff1673ffffffffffffffffffffffffffffffffffffffff168152602001908152602001600020600082015181600001556020820151816001015560408201518160020155606082015181600301559050508373ffffffffffffffffffffffffffffffffffffffff168573ffffffffffffffffffffffffffffffffffffffff167f99039fcf0a98f484616c5196ee8b2ecfa971babf0b519848289ea4db381f85f785604051611e7391906124de565b60405180910390a3611ea83330858773ffffffffffffffffffffffffffffffffffffffff16611a07909392919063ffffffff16565b5050505050565b6000611ebb838361205a565b905092915050565b6000670de0b6b3a76400008281611edd57611edc612cff565b5b049050919050565b6000611f47826040518060400160405280602081526020017f5361666545524332303a206c6f772d6c6576656c2063616c6c206661696c65648152508573ffffffffffffffffffffffffffffffffffffffff166121579092919063ffffffff16565b9050600081511115611fa75780806020019051810190611f679190612d66565b611fa6576040517f08c379a0000000000000000000000000000000000000000000000000000000008152600401611f9d90612e05565b60405180910390fd5b5b505050565b6000670de0b6b3a76400007fffffffffffffffffffffffffffffffffffffffffffffffffffffffffffffffff81611fe657611fe5612cff565b5b0482111561202b57816040517f3492ffd900000000000000000000000000000000000000000000000000000000815260040161202291906124de565b60405180910390fd5b670de0b6b3a764000082029050919050565b600061205283670de0b6b3a76400008461216f565b905092915050565b60008060008019848609848602925082811083820303915050670de0b6b3a764000081106120bf57806040517fd31b34020000000000000000000000000000000000000000000000000000000081526004016120b691906124de565b60405180910390fd5b600080670de0b6b3a764000086880991506706f05b59d3b1ffff821190506000830361210b5780670de0b6b3a764000085816120fe576120fd612cff565b5b0401945050505050612151565b807faccb18165bd6fe31ae1cf318dc5b51eee0e1ba569b88cd74c1773b91fac1066960016204000080600003040186851186030262040000858803041702019450505050505b92915050565b60606121668484600085612284565b90509392505050565b60008060008019858709858702925082811083820303915050600081036121aa578382816121a05761219f612cff565b5b049250505061227d565b8381106121f05780846040517f773cc18c0000000000000000000000000000000000000000000000000000000081526004016121e7929190612654565b60405180910390fd5b60008486880990508281118203915080830392506000600186190186169050808604955080840493506001818260000304019050808302841793506000600287600302189050808702600203810290508087026002038102905080870260020381029050808702600203810290508087026002038102905080870260020381029050808502955050505050505b9392505050565b6060824710156122c9576040517f08c379a00000000000000000000000000000000000000000000000000000000081526004016122c090612e97565b60405180910390fd5b6122d285612398565b612311576040517f08c379a000000000000000000000000000000000000000000000000000000000815260040161230890612f03565b60405180910390fd5b6000808673ffffffffffffffffffffffffffffffffffffffff16858760405161233a9190612f9d565b60006040518083038185875af1925050503d8060008114612377576040519150601f19603f3d011682016040523d82523d6000602084013e61237c565b606091505b509150915061238c8282866123bb565b92505050949350505050565b6000808273ffffffffffffffffffffffffffffffffffffffff163b119050919050565b606083156123cb5782905061241b565b6000835111156123de5782518084602001fd5b816040517f08c379a00000000000000000000000000000000000000000000000000000000081526004016124129190613009565b60405180910390fd5b9392505050565b600080fd5b600073ffffffffffffffffffffffffffffffffffffffff82169050919050565b600061245282612427565b9050919050565b61246281612447565b811461246d57600080fd5b50565b60008135905061247f81612459565b92915050565b6000806040838503121561249c5761249b612422565b5b60006124aa85828601612470565b92505060206124bb85828601612470565b9150509250929050565b6000819050919050565b6124d8816124c5565b82525050565b60006020820190506124f360008301846124cf565b92915050565b600060808201905061250e60008301876124cf565b61251b60208301866124cf565b61252860408301856124cf565b61253560608301846124cf565b95945050505050565b61254781612447565b82525050565b6000602082019050612562600083018461253e565b92915050565b612571816124c5565b811461257c57600080fd5b50565b60008135905061258e81612568565b92915050565b6000806000606084860312156125ad576125ac612422565b5b60006125bb86828701612470565b93505060206125cc8682870161257f565b92505060406125dd86828701612470565b9150509250925092565b600080604083850312156125fe576125fd612422565b5b600061260c85828601612470565b925050602061261d8582860161257f565b9150509250929050565b60006020828403121561263d5761263c612422565b5b600061264b84828501612470565b91505092915050565b600060408201905061266960008301856124cf565b61267660208301846124cf565b9392505050565b60006020828403121561269357612692612422565b5b60006126a18482850161257f565b91505092915050565b6000806000606084860312156126c3576126c2612422565b5b60006126d186828701612470565b93505060206126e286828701612470565b92505060406126f38682870161257f565b9150509250925092565b6000819050919050565b600061272261271d61271884612427565b6126fd565b612427565b9050919050565b600061273482612707565b9050919050565b600061274682612729565b9050919050565b6127568161273b565b82525050565b6000602082019050612771600083018461274d565b92915050565b600082825260208201905092915050565b7f4f776e61626c653a2063616c6c6572206973206e6f7420746865206f776e6572600082015250565b60006127be602083612777565b91506127c982612788565b602082019050919050565b600060208201905081810360008301526127ed816127b1565b9050919050565b7f4e487b7100000000000000000000000000000000000000000000000000000000600052601160045260246000fd5b600061282e826124c5565b9150612839836124c5565b9250827fffffffffffffffffffffffffffffffffffffffffffffffffffffffffffffffff0382111561286e5761286d6127f4565b5b828201905092915050565b7f7374616b65207374696c6c206c6f636b65640000000000000000000000000000600082015250565b60006128af601283612777565b91506128ba82612879565b602082019050919050565b600060208201905081810360008301526128de816128a2565b9050919050565b7f696e76616c696420746f6b656e00000000000000000000000000000000000000600082015250565b600061291b600d83612777565b9150612926826128e5565b602082019050919050565b6000602082019050818103600083015261294a8161290e565b9050919050565b7f696e76616c696420616d6f756e74000000000000000000000000000000000000600082015250565b6000612987600e83612777565b915061299282612951565b602082019050919050565b600060208201905081810360008301526129b68161297a565b9050919050565b7f696e76616c69642064657374696e6174696f6e00000000000000000000000000600082015250565b60006129f3601383612777565b91506129fe826129bd565b602082019050919050565b60006020820190508181036000830152612a22816129e6565b9050919050565b7f696e76616c696420756e7374616b6520616d6f756e7400000000000000000000600082015250565b6000612a5f601683612777565b9150612a6a82612a29565b602082019050919050565b60006020820190508181036000830152612a8e81612a52565b9050919050565b6000612aa0826124c5565b9150612aab836124c5565b925082821015612abe57612abd6127f4565b5b828203905092915050565b7f696e76616c69642064616f000000000000000000000000000000000000000000600082015250565b6000612aff600b83612777565b9150612b0a82612ac9565b602082019050919050565b60006020820190508181036000830152612b2e81612af2565b9050919050565b7f696e76616c696420757365720000000000000000000000000000000000000000600082015250565b6000612b6b600c83612777565b9150612b7682612b35565b602082019050919050565b60006020820190508181036000830152612b9a81612b5e565b9050919050565b7f696e76616c69642064616f20746f6b656e000000000000000000000000000000600082015250565b6000612bd7601183612777565b9150612be282612ba1565b602082019050919050565b60006020820190508181036000830152612c0681612bca565b9050919050565b7f4f776e61626c653a206e6577206f776e657220697320746865207a65726f206160008201527f6464726573730000000000000000000000000000000000000000000000000000602082015250565b6000612c69602683612777565b9150612c7482612c0d565b604082019050919050565b60006020820190508181036000830152612c9881612c5c565b9050919050565b6000604082019050612cb4600083018561253e565b612cc160208301846124cf565b9392505050565b6000606082019050612cdd600083018661253e565b612cea602083018561253e565b612cf760408301846124cf565b949350505050565b7f4e487b7100000000000000000000000000000000000000000000000000000000600052601260045260246000fd5b60008115159050919050565b612d4381612d2e565b8114612d4e57600080fd5b50565b600081519050612d6081612d3a565b92915050565b600060208284031215612d7c57612d7b612422565b5b6000612d8a84828501612d51565b91505092915050565b7f5361666545524332303a204552433230206f7065726174696f6e20646964206e60008201527f6f74207375636365656400000000000000000000000000000000000000000000602082015250565b6000612def602a83612777565b9150612dfa82612d93565b604082019050919050565b60006020820190508181036000830152612e1e81612de2565b9050919050565b7f416464726573733a20696e73756666696369656e742062616c616e636520666f60008201527f722063616c6c0000000000000000000000000000000000000000000000000000602082015250565b6000612e81602683612777565b9150612e8c82612e25565b604082019050919050565b60006020820190508181036000830152612eb081612e74565b9050919050565b7f416464726573733a2063616c6c20746f206e6f6e2d636f6e7472616374000000600082015250565b6000612eed601d83612777565b9150612ef882612eb7565b602082019050919050565b60006020820190508181036000830152612f1c81612ee0565b9050919050565b600081519050919050565b600081905092915050565b60005b83811015612f57578082015181840152602081019050612f3c565b83811115612f66576000848401525b50505050565b6000612f7782612f23565b612f818185612f2e565b9350612f91818560208601612f39565b80840191505092915050565b6000612fa98284612f6c565b915081905092915050565b600081519050919050565b6000601f19601f8301169050919050565b6000612fdb82612fb4565b612fe58185612777565b9350612ff5818560208601612f39565b612ffe81612fbf565b840191505092915050565b600060208201905081810360008301526130238184612fd0565b90509291505056fea2646970667358221220f39a85129e9979c7c2438427d0a3f31a7487e8c96b4ef0cd8b827d28a75c378664736f6c634300080d0033",
  "devdoc": {
    "kind": "dev",
    "methods": {
      "claimRewards(address,address)": {
        "params": {
          "_daoToken": "The dao to claim rewards for.",
          "_to": "The destination for the rewards"
        }
      },
      "distributeRewards(address,uint256)": {
        "details": "This should pull tokens from the caller's accountThis should be coded in such a way as to not require any kind of authorization other than providing an amount of reward tokens.This should handle cases where there aren't any tokens staked: first staker gets everything.",
        "params": {
          "_amount": "The amount of reward token to distribute",
          "_daoToken": "The dao to distribute rewards to"
        }
      },
      "emergencyEject(address,address)": {
        "details": "To be used as an emergency exit hatch for users. This will permanently lock any outstanding rewards for the user in the contract.",
        "params": {
          "_daoToken": "The dao governance token to eject.",
          "_to": "The destination wallet for the ejected tokens"
        }
      },
      "owner()": {
        "details": "Returns the address of the current owner."
      },
      "pendingRewards(address,address)": {
        "params": {
          "_daoToken": "The governance token of the dao the user has staked",
          "_user": "The user who staked the tokens"
        },
        "returns": {
          "rewardAmount": "The amount of the reward token that the user is entitled to"
        }
      },
      "renounceOwnership()": {
        "details": "Leaves the contract without owner. It will not be possible to call `onlyOwner` functions anymore. Can only be called by the current owner. NOTE: Renouncing ownership will leave the contract without an owner, thereby removing any functionality that is only available to the owner."
      },
      "setLockupPeriod(uint256)": {
        "params": {
          "_lockupPeriod": "The new "
        }
      },
      "stake(address,uint256)": {
        "params": {
          "_amount": "The amount of governance token to be staked",
          "_daoToken": "The governance token of the dao to be staked."
        }
      },
      "stakeOnBehalf(address,address,uint256)": {
        "params": {
          "_amount": "The amount of governance token to be staked",
          "_daoToken": "The governance token of the dao to be staked.",
          "_user": "The user the tokens are being staked on behalf for"
        }
      },
      "transferOwnership(address)": {
        "details": "Transfers ownership of the contract to a new account (`newOwner`). Can only be called by the current owner."
      },
      "unstake(address,uint256,address)": {
        "details": "This function will also claim any outstanding rewards for the user",
        "params": {
          "_amount": "The amount to remove",
          "_daoToken": "The dao governance token to unstake",
          "_to": "The destination for the dao tokens and rewards"
        }
      }
    },
    "version": 1
  },
  "userdoc": {
    "errors": {
      "PRBMathUD60x18__FromUintOverflow(uint256)": [
        {
          "notice": "Emitted when converting a basic integer to the fixed-point format format overflows UD60x18."
        }
      ],
      "PRBMath__MulDivFixedPointOverflow(uint256)": [
        {
          "notice": "Emitted when the result overflows uint256."
        }
      ],
      "PRBMath__MulDivOverflow(uint256,uint256)": [
        {
          "notice": "Emitted when the result overflows uint256."
        }
      ]
    },
    "events": {
      "Stake(address,address,uint256)": {
        "notice": "### Events"
      }
    },
    "kind": "user",
    "methods": {
      "claimRewards(address,address)": {
        "notice": "Claims all outstanding rewards for the user for the specified dao"
      },
      "distributeRewards(address,uint256)": {
        "notice": "Updates the dao distribution to include an additional amount"
      },
      "emergencyEject(address,address)": {
        "notice": "Withdraws the user's dao governance tokens without claiming any outstanding rewards"
      },
      "lockupPeriod()": {
        "notice": "### Autogenerated getter functions"
      },
      "pendingRewards(address,address)": {
        "notice": "Returns the amount of claimable reward tokens for a user for a given dao"
      },
      "setLockupPeriod(uint256)": {
        "notice": "### FunctionsUpdates the lock up period in state"
      },
      "stake(address,uint256)": {
        "notice": "Stakes amount of dao token into the contract"
      },
      "stakeOnBehalf(address,address,uint256)": {
        "notice": "Stakes amount of dao token into the contract for a user"
      },
      "unstake(address,uint256,address)": {
        "notice": "Unstakes and transfers out a given amount of dao governance tokens"
      }
    },
    "version": 1
  },
  "storageLayout": {
    "storage": [
      {
        "astId": 6934,
        "contract": "contracts/implementations/StakingRewards.sol:StakingRewards",
        "label": "_owner",
        "offset": 0,
        "slot": "0",
        "type": "t_address"
      },
      {
        "astId": 14820,
        "contract": "contracts/implementations/StakingRewards.sol:StakingRewards",
        "label": "daoRewards",
        "offset": 0,
        "slot": "1",
        "type": "t_mapping(t_address,t_struct(RewardDistribution)16890_storage)"
      },
      {
        "astId": 14828,
        "contract": "contracts/implementations/StakingRewards.sol:StakingRewards",
        "label": "userStakes",
        "offset": 0,
        "slot": "2",
        "type": "t_mapping(t_address,t_mapping(t_address,t_struct(UserStake)16899_storage))"
      },
      {
        "astId": 14830,
        "contract": "contracts/implementations/StakingRewards.sol:StakingRewards",
        "label": "lockupPeriod",
        "offset": 0,
        "slot": "3",
        "type": "t_uint256"
      }
    ],
    "types": {
      "t_address": {
        "encoding": "inplace",
        "label": "address",
        "numberOfBytes": "20"
      },
      "t_mapping(t_address,t_mapping(t_address,t_struct(UserStake)16899_storage))": {
        "encoding": "mapping",
        "key": "t_address",
        "label": "mapping(address => mapping(address => struct IStakingRewards.UserStake))",
        "numberOfBytes": "32",
        "value": "t_mapping(t_address,t_struct(UserStake)16899_storage)"
      },
      "t_mapping(t_address,t_struct(RewardDistribution)16890_storage)": {
        "encoding": "mapping",
        "key": "t_address",
        "label": "mapping(address => struct IStakingRewards.RewardDistribution)",
        "numberOfBytes": "32",
        "value": "t_struct(RewardDistribution)16890_storage"
      },
      "t_mapping(t_address,t_struct(UserStake)16899_storage)": {
        "encoding": "mapping",
        "key": "t_address",
        "label": "mapping(address => struct IStakingRewards.UserStake)",
        "numberOfBytes": "32",
        "value": "t_struct(UserStake)16899_storage"
      },
      "t_struct(RewardDistribution)16890_storage": {
        "encoding": "inplace",
        "label": "struct IStakingRewards.RewardDistribution",
        "members": [
          {
            "astId": 16887,
            "contract": "contracts/implementations/StakingRewards.sol:StakingRewards",
            "label": "totalStake",
            "offset": 0,
            "slot": "0",
            "type": "t_uint256"
          },
          {
            "astId": 16889,
            "contract": "contracts/implementations/StakingRewards.sol:StakingRewards",
            "label": "rewardPerToken",
            "offset": 0,
            "slot": "1",
            "type": "t_uint256"
          }
        ],
        "numberOfBytes": "64"
      },
      "t_struct(UserStake)16899_storage": {
        "encoding": "inplace",
        "label": "struct IStakingRewards.UserStake",
        "members": [
          {
            "astId": 16892,
            "contract": "contracts/implementations/StakingRewards.sol:StakingRewards",
            "label": "stakedAmount",
            "offset": 0,
            "slot": "0",
            "type": "t_uint256"
          },
          {
            "astId": 16894,
            "contract": "contracts/implementations/StakingRewards.sol:StakingRewards",
            "label": "rewardEntry",
            "offset": 0,
            "slot": "1",
            "type": "t_uint256"
          },
          {
            "astId": 16896,
            "contract": "contracts/implementations/StakingRewards.sol:StakingRewards",
            "label": "pendingRewards",
            "offset": 0,
            "slot": "2",
            "type": "t_uint256"
          },
          {
            "astId": 16898,
            "contract": "contracts/implementations/StakingRewards.sol:StakingRewards",
            "label": "timeStaked",
            "offset": 0,
            "slot": "3",
            "type": "t_uint256"
          }
        ],
        "numberOfBytes": "128"
      },
      "t_uint256": {
        "encoding": "inplace",
        "label": "uint256",
        "numberOfBytes": "32"
      }
    }
  }
}