{
  "address": "0x1c584B488664EbdeFa28A2D88edF3dBBD4524068",
  "abi": [
    {
      "inputs": [],
      "name": "InvalidAddress",
      "type": "error"
    },
    {
      "inputs": [
        {
          "internalType": "address",
          "name": "_user",
          "type": "address"
        }
      ],
      "name": "InvalidPermissions",
      "type": "error"
    },
    {
      "anonymous": false,
      "inputs": [
        {
          "indexed": true,
          "internalType": "bytes32",
          "name": "role",
          "type": "bytes32"
        },
        {
          "indexed": true,
          "internalType": "bytes32",
          "name": "previousAdminRole",
          "type": "bytes32"
        },
        {
          "indexed": true,
          "internalType": "bytes32",
          "name": "newAdminRole",
          "type": "bytes32"
        }
      ],
      "name": "RoleAdminChanged",
      "type": "event"
    },
    {
      "anonymous": false,
      "inputs": [
        {
          "indexed": true,
          "internalType": "bytes32",
          "name": "role",
          "type": "bytes32"
        },
        {
          "indexed": true,
          "internalType": "address",
          "name": "account",
          "type": "address"
        },
        {
          "indexed": true,
          "internalType": "address",
          "name": "sender",
          "type": "address"
        }
      ],
      "name": "RoleGranted",
      "type": "event"
    },
    {
      "anonymous": false,
      "inputs": [
        {
          "indexed": true,
          "internalType": "bytes32",
          "name": "role",
          "type": "bytes32"
        },
        {
          "indexed": true,
          "internalType": "address",
          "name": "account",
          "type": "address"
        },
        {
          "indexed": true,
          "internalType": "address",
          "name": "sender",
          "type": "address"
        }
      ],
      "name": "RoleRevoked",
      "type": "event"
    },
    {
      "anonymous": false,
      "inputs": [
        {
          "components": [
            {
              "internalType": "address",
              "name": "token",
              "type": "address"
            },
            {
              "internalType": "address",
              "name": "recipient",
              "type": "address"
            },
            {
              "internalType": "uint256",
              "name": "amount",
              "type": "uint256"
            }
          ],
          "indexed": false,
          "internalType": "struct IThinWallet.TokenMovement[]",
          "name": "transfers",
          "type": "tuple[]"
        }
      ],
      "name": "TransferERC20",
      "type": "event"
    },
    {
      "anonymous": false,
      "inputs": [
        {
          "components": [
            {
              "internalType": "address",
              "name": "recipient",
              "type": "address"
            },
            {
              "internalType": "uint256",
              "name": "amount",
              "type": "uint256"
            }
          ],
          "indexed": false,
          "internalType": "struct IThinWallet.EtherPaymentTransfer[]",
          "name": "transfers",
          "type": "tuple[]"
        }
      ],
      "name": "TransferEther",
      "type": "event"
    },
    {
      "inputs": [],
      "name": "DEFAULT_ADMIN_ROLE",
      "outputs": [
        {
          "internalType": "bytes32",
          "name": "",
          "type": "bytes32"
        }
      ],
      "stateMutability": "view",
      "type": "function"
    },
    {
      "inputs": [],
      "name": "TRANSFER_ADMIN_ROLE",
      "outputs": [
        {
          "internalType": "bytes32",
          "name": "",
          "type": "bytes32"
        }
      ],
      "stateMutability": "view",
      "type": "function"
    },
    {
      "inputs": [],
      "name": "TRANSFER_ROLE",
      "outputs": [
        {
          "internalType": "bytes32",
          "name": "",
          "type": "bytes32"
        }
      ],
      "stateMutability": "view",
      "type": "function"
    },
    {
      "inputs": [],
      "name": "admin",
      "outputs": [
        {
          "internalType": "address",
          "name": "",
          "type": "address"
        }
      ],
      "stateMutability": "view",
      "type": "function"
    },
    {
      "inputs": [
        {
          "internalType": "address",
          "name": "_token",
          "type": "address"
        },
        {
          "internalType": "address",
          "name": "_destination",
          "type": "address"
        }
      ],
      "name": "emergencyEjectERC20",
      "outputs": [],
      "stateMutability": "nonpayable",
      "type": "function"
    },
    {
      "inputs": [
        {
          "internalType": "address",
          "name": "_destination",
          "type": "address"
        }
      ],
      "name": "emergencyEjectEth",
      "outputs": [],
      "stateMutability": "nonpayable",
      "type": "function"
    },
    {
      "inputs": [
        {
          "internalType": "bytes32",
          "name": "role",
          "type": "bytes32"
        }
      ],
      "name": "getRoleAdmin",
      "outputs": [
        {
          "internalType": "bytes32",
          "name": "",
          "type": "bytes32"
        }
      ],
      "stateMutability": "view",
      "type": "function"
    },
    {
      "inputs": [
        {
          "internalType": "bytes32",
          "name": "role",
          "type": "bytes32"
        },
        {
          "internalType": "address",
          "name": "account",
          "type": "address"
        }
      ],
      "name": "grantRole",
      "outputs": [],
      "stateMutability": "nonpayable",
      "type": "function"
    },
    {
      "inputs": [
        {
          "internalType": "bytes32",
          "name": "role",
          "type": "bytes32"
        },
        {
          "internalType": "address",
          "name": "account",
          "type": "address"
        }
      ],
      "name": "hasRole",
      "outputs": [
        {
          "internalType": "bool",
          "name": "",
          "type": "bool"
        }
      ],
      "stateMutability": "view",
      "type": "function"
    },
    {
      "inputs": [
        {
          "internalType": "address",
          "name": "_admin",
          "type": "address"
        },
        {
          "internalType": "address[]",
          "name": "_owners",
          "type": "address[]"
        }
      ],
      "name": "initialize",
      "outputs": [],
      "stateMutability": "nonpayable",
      "type": "function"
    },
    {
      "inputs": [
        {
          "internalType": "bytes32",
          "name": "role",
          "type": "bytes32"
        },
        {
          "internalType": "address",
          "name": "account",
          "type": "address"
        }
      ],
      "name": "renounceRole",
      "outputs": [],
      "stateMutability": "nonpayable",
      "type": "function"
    },
    {
      "inputs": [
        {
          "internalType": "bytes32",
          "name": "role",
          "type": "bytes32"
        },
        {
          "internalType": "address",
          "name": "account",
          "type": "address"
        }
      ],
      "name": "revokeRole",
      "outputs": [],
      "stateMutability": "nonpayable",
      "type": "function"
    },
    {
      "inputs": [
        {
          "internalType": "bytes4",
          "name": "interfaceId",
          "type": "bytes4"
        }
      ],
      "name": "supportsInterface",
      "outputs": [
        {
          "internalType": "bool",
          "name": "",
          "type": "bool"
        }
      ],
      "stateMutability": "view",
      "type": "function"
    },
    {
      "inputs": [
        {
          "components": [
            {
              "internalType": "address",
              "name": "token",
              "type": "address"
            },
            {
              "internalType": "address",
              "name": "recipient",
              "type": "address"
            },
            {
              "internalType": "uint256",
              "name": "amount",
              "type": "uint256"
            }
          ],
          "internalType": "struct IThinWallet.TokenMovement[]",
          "name": "_transfers",
          "type": "tuple[]"
        }
      ],
      "name": "transferERC20",
      "outputs": [],
      "stateMutability": "nonpayable",
      "type": "function"
    },
    {
      "inputs": [
        {
          "components": [
            {
              "internalType": "address",
              "name": "recipient",
              "type": "address"
            },
            {
              "internalType": "uint256",
              "name": "amount",
              "type": "uint256"
            }
          ],
          "internalType": "struct IThinWallet.EtherPaymentTransfer[]",
          "name": "_transfers",
          "type": "tuple[]"
        }
      ],
      "name": "transferEther",
      "outputs": [],
      "stateMutability": "nonpayable",
      "type": "function"
    },
    {
      "stateMutability": "payable",
      "type": "receive"
    }
  ],
  "transactionHash": "0xdaf31c13440abcb01286fb4e548888606b5ad49bc2e16a4c449d5184a928e5e3",
  "args": [],
  "numDeployments": 1,
  "solcInputHash": "fd0195eb1b5ab6b8bdcc6d00ee2302e8",
  "bytecode": "0x608060405234801561001057600080fd5b506128de806100206000396000f3fe6080604052600436106100ec5760003560e01c806368a37ae81161008a578063a217fddf11610059578063a217fddf146102fb578063d547741f14610326578063e7f7668e1461034f578063f851a44014610378576100f3565b806368a37ae81461024157806391d148541461026c578063946d9204146102a957806398a3caf5146102d2576100f3565b8063248a9ca3116100c6578063248a9ca3146101895780632f2ff15d146101c657806332a06d3a146101ef57806336568abe14610218576100f3565b806301ffc9a7146100f857806302b9d21d14610135578063206b60f91461015e576100f3565b366100f357005b600080fd5b34801561010457600080fd5b5061011f600480360381019061011a9190611914565b6103a3565b60405161012c919061195c565b60405180910390f35b34801561014157600080fd5b5061015c600480360381019061015791906119dc565b61041d565b005b34801561016a57600080fd5b50610173610650565b6040516101809190611a42565b60405180910390f35b34801561019557600080fd5b506101b060048036038101906101ab9190611a89565b610674565b6040516101bd9190611a42565b60405180910390f35b3480156101d257600080fd5b506101ed60048036038101906101e89190611b14565b610694565b005b3480156101fb57600080fd5b5061021660048036038101906102119190611baa565b6106bd565b005b34801561022457600080fd5b5061023f600480360381019061023a9190611b14565b6108a8565b005b34801561024d57600080fd5b5061025661092b565b6040516102639190611a42565b60405180910390f35b34801561027857600080fd5b50610293600480360381019061028e9190611b14565b61094f565b6040516102a0919061195c565b60405180910390f35b3480156102b557600080fd5b506102d060048036038101906102cb9190611c4d565b6109ba565b005b3480156102de57600080fd5b506102f960048036038101906102f49190611cad565b610c28565b005b34801561030757600080fd5b50610310610e01565b60405161031d9190611a42565b60405180910390f35b34801561033257600080fd5b5061034d60048036038101906103489190611b14565b610e08565b005b34801561035b57600080fd5b5061037660048036038101906103719190611cda565b610e31565b005b34801561038457600080fd5b5061038d61106e565b60405161039a9190611d29565b60405180910390f35b60007f7965db0b000000000000000000000000000000000000000000000000000000007bffffffffffffffffffffffffffffffffffffffffffffffffffffffff1916827bffffffffffffffffffffffffffffffffffffffffffffffffffffffff19161480610416575061041582611094565b5b9050919050565b6104477f9143236d81225394f3bd65b44e6e29fdf4d7ba0773d9bb3f5cc15eb80ba377773361094f565b8061049f5750600260009054906101000a900473ffffffffffffffffffffffffffffffffffffffff1673ffffffffffffffffffffffffffffffffffffffff163373ffffffffffffffffffffffffffffffffffffffff16145b6104e057336040517ff9ba0a320000000000000000000000000000000000000000000000000000000081526004016104d79190611d29565b60405180910390fd5b7fc1e7ec1a8a17687668d538f95a36ade1bc8652575890097064778362136b9f578282604051610511929190611ead565b60405180910390a160005b828290508167ffffffffffffffff16101561064b57600083838367ffffffffffffffff168181106105505761054f611ed1565b5b90506040020160000160208101906105689190611cad565b73ffffffffffffffffffffffffffffffffffffffff1684848467ffffffffffffffff1681811061059b5761059a611ed1565b5b905060400201602001356040516105b190611f31565b60006040518083038185875af1925050503d80600081146105ee576040519150601f19603f3d011682016040523d82523d6000602084013e6105f3565b606091505b5050905080610637576040517f08c379a000000000000000000000000000000000000000000000000000000000815260040161062e90611fa3565b60405180910390fd5b50808061064390612006565b91505061051c565b505050565b7f9143236d81225394f3bd65b44e6e29fdf4d7ba0773d9bb3f5cc15eb80ba3777781565b600060016000838152602001908152602001600020600101549050919050565b61069d82610674565b6106ae816106a96110fe565b611106565b6106b883836111a3565b505050565b6106e77f9143236d81225394f3bd65b44e6e29fdf4d7ba0773d9bb3f5cc15eb80ba377773361094f565b8061073f5750600260009054906101000a900473ffffffffffffffffffffffffffffffffffffffff1673ffffffffffffffffffffffffffffffffffffffff163373ffffffffffffffffffffffffffffffffffffffff16145b61078057336040517ff9ba0a320000000000000000000000000000000000000000000000000000000081526004016107779190611d29565b60405180910390fd5b7f6aac0c7bc78083f9d8600911f1df6c4627e5dd66fe3e9c6e6958dfe5959d67c982826040516107b1929190612138565b60405180910390a160005b828290508167ffffffffffffffff1610156108a357600083838367ffffffffffffffff168181106107f0576107ef611ed1565b5b90506060020160000160208101906108089190611cad565b905061088f84848467ffffffffffffffff1681811061082a57610829611ed1565b5b90506060020160200160208101906108429190611cad565b85858567ffffffffffffffff1681811061085f5761085e611ed1565b5b905060600201604001358373ffffffffffffffffffffffffffffffffffffffff166112839092919063ffffffff16565b50808061089b90612006565b9150506107bc565b505050565b6108b06110fe565b73ffffffffffffffffffffffffffffffffffffffff168173ffffffffffffffffffffffffffffffffffffffff161461091d576040517f08c379a0000000000000000000000000000000000000000000000000000000008152600401610914906121ce565b60405180910390fd5b6109278282611309565b5050565b7fb371867bc9c0f0d0a9733da0be5b600a167f1a96096318687c91de22c7ddf8da81565b60006001600084815260200190815260200160002060000160008373ffffffffffffffffffffffffffffffffffffffff1673ffffffffffffffffffffffffffffffffffffffff16815260200190815260200160002060009054906101000a900460ff16905092915050565b600073ffffffffffffffffffffffffffffffffffffffff168373ffffffffffffffffffffffffffffffffffffffff1603610a29576040517f08c379a0000000000000000000000000000000000000000000000000000000008152600401610a209061223a565b60405180910390fd5b82600260006101000a81548173ffffffffffffffffffffffffffffffffffffffff021916908373ffffffffffffffffffffffffffffffffffffffff160217905550610a947fb371867bc9c0f0d0a9733da0be5b600a167f1a96096318687c91de22c7ddf8da846113eb565b610aa16000801b846113eb565b60005b828290508167ffffffffffffffff161015610c2257600073ffffffffffffffffffffffffffffffffffffffff1683838367ffffffffffffffff16818110610aee57610aed611ed1565b5b9050602002016020810190610b039190611cad565b73ffffffffffffffffffffffffffffffffffffffff1603610b59576040517f08c379a0000000000000000000000000000000000000000000000000000000008152600401610b50906122a6565b60405180910390fd5b610bb47f9143236d81225394f3bd65b44e6e29fdf4d7ba0773d9bb3f5cc15eb80ba3777784848467ffffffffffffffff16818110610b9a57610b99611ed1565b5b9050602002016020810190610baf9190611cad565b6113eb565b610c0f7fb371867bc9c0f0d0a9733da0be5b600a167f1a96096318687c91de22c7ddf8da84848467ffffffffffffffff16818110610bf557610bf4611ed1565b5b9050602002016020810190610c0a9190611cad565b6113eb565b8080610c1a90612006565b915050610aa4565b50505050565b610c527f9143236d81225394f3bd65b44e6e29fdf4d7ba0773d9bb3f5cc15eb80ba377773361094f565b80610caa5750600260009054906101000a900473ffffffffffffffffffffffffffffffffffffffff1673ffffffffffffffffffffffffffffffffffffffff163373ffffffffffffffffffffffffffffffffffffffff16145b610ceb57336040517ff9ba0a32000000000000000000000000000000000000000000000000000000008152600401610ce29190611d29565b60405180910390fd5b600073ffffffffffffffffffffffffffffffffffffffff168173ffffffffffffffffffffffffffffffffffffffff1603610d51576040517fe6c4247b00000000000000000000000000000000000000000000000000000000815260040160405180910390fd5b60008173ffffffffffffffffffffffffffffffffffffffff1647604051610d7790611f31565b60006040518083038185875af1925050503d8060008114610db4576040519150601f19603f3d011682016040523d82523d6000602084013e610db9565b606091505b5050905080610dfd576040517f08c379a0000000000000000000000000000000000000000000000000000000008152600401610df490611fa3565b60405180910390fd5b5050565b6000801b81565b610e1182610674565b610e2281610e1d6110fe565b611106565b610e2c8383611309565b505050565b610e5b7f9143236d81225394f3bd65b44e6e29fdf4d7ba0773d9bb3f5cc15eb80ba377773361094f565b80610eb35750600260009054906101000a900473ffffffffffffffffffffffffffffffffffffffff1673ffffffffffffffffffffffffffffffffffffffff163373ffffffffffffffffffffffffffffffffffffffff16145b610ef457336040517ff9ba0a32000000000000000000000000000000000000000000000000000000008152600401610eeb9190611d29565b60405180910390fd5b600073ffffffffffffffffffffffffffffffffffffffff168273ffffffffffffffffffffffffffffffffffffffff1603610f5a576040517fe6c4247b00000000000000000000000000000000000000000000000000000000815260040160405180910390fd5b600073ffffffffffffffffffffffffffffffffffffffff168173ffffffffffffffffffffffffffffffffffffffff1603610fc0576040517fe6c4247b00000000000000000000000000000000000000000000000000000000815260040160405180910390fd5b6000829050611069828273ffffffffffffffffffffffffffffffffffffffff166370a08231306040518263ffffffff1660e01b81526004016110029190611d29565b602060405180830381865afa15801561101f573d6000803e3d6000fd5b505050506040513d601f19601f8201168201806040525081019061104391906122db565b8373ffffffffffffffffffffffffffffffffffffffff166112839092919063ffffffff16565b505050565b600260009054906101000a900473ffffffffffffffffffffffffffffffffffffffff1681565b60007f01ffc9a7000000000000000000000000000000000000000000000000000000007bffffffffffffffffffffffffffffffffffffffffffffffffffffffff1916827bffffffffffffffffffffffffffffffffffffffffffffffffffffffff1916149050919050565b600033905090565b611110828261094f565b61119f576111358173ffffffffffffffffffffffffffffffffffffffff1660146113f9565b6111438360001c60206113f9565b60405160200161115492919061241a565b6040516020818303038152906040526040517f08c379a0000000000000000000000000000000000000000000000000000000008152600401611196919061249e565b60405180910390fd5b5050565b6111ad828261094f565b61127f57600180600084815260200190815260200160002060000160008373ffffffffffffffffffffffffffffffffffffffff1673ffffffffffffffffffffffffffffffffffffffff16815260200190815260200160002060006101000a81548160ff0219169083151502179055506112246110fe565b73ffffffffffffffffffffffffffffffffffffffff168173ffffffffffffffffffffffffffffffffffffffff16837f2f8788117e7eff1d82e926ec794901d17c78024a50270940304540a733656f0d60405160405180910390a45b5050565b6113048363a9059cbb60e01b84846040516024016112a29291906124cf565b604051602081830303815290604052907bffffffffffffffffffffffffffffffffffffffffffffffffffffffff19166020820180517bffffffffffffffffffffffffffffffffffffffffffffffffffffffff8381831617835250505050611635565b505050565b611313828261094f565b156113e75760006001600084815260200190815260200160002060000160008373ffffffffffffffffffffffffffffffffffffffff1673ffffffffffffffffffffffffffffffffffffffff16815260200190815260200160002060006101000a81548160ff02191690831515021790555061138c6110fe565b73ffffffffffffffffffffffffffffffffffffffff168173ffffffffffffffffffffffffffffffffffffffff16837ff6391f5c32d9c69d2a47ea670b442974b53935d1edc7fd64eb21e047a839171b60405160405180910390a45b5050565b6113f582826111a3565b5050565b60606000600283600261140c91906124f8565b6114169190612552565b67ffffffffffffffff81111561142f5761142e6125a8565b5b6040519080825280601f01601f1916602001820160405280156114615781602001600182028036833780820191505090505b5090507f30000000000000000000000000000000000000000000000000000000000000008160008151811061149957611498611ed1565b5b60200101907effffffffffffffffffffffffffffffffffffffffffffffffffffffffffffff1916908160001a9053507f7800000000000000000000000000000000000000000000000000000000000000816001815181106114fd576114fc611ed1565b5b60200101907effffffffffffffffffffffffffffffffffffffffffffffffffffffffffffff1916908160001a9053506000600184600261153d91906124f8565b6115479190612552565b90505b60018111156115e7577f3031323334353637383961626364656600000000000000000000000000000000600f86166010811061158957611588611ed1565b5b1a60f81b8282815181106115a05761159f611ed1565b5b60200101907effffffffffffffffffffffffffffffffffffffffffffffffffffffffffffff1916908160001a905350600485901c9450806115e0906125d7565b905061154a565b506000841461162b576040517f08c379a00000000000000000000000000000000000000000000000000000000081526004016116229061264c565b60405180910390fd5b8091505092915050565b6000611697826040518060400160405280602081526020017f5361666545524332303a206c6f772d6c6576656c2063616c6c206661696c65648152508573ffffffffffffffffffffffffffffffffffffffff166116fc9092919063ffffffff16565b90506000815111156116f757808060200190518101906116b79190612698565b6116f6576040517f08c379a00000000000000000000000000000000000000000000000000000000081526004016116ed90612737565b60405180910390fd5b5b505050565b606061170b8484600085611714565b90509392505050565b606082471015611759576040517f08c379a0000000000000000000000000000000000000000000000000000000008152600401611750906127c9565b60405180910390fd5b61176285611828565b6117a1576040517f08c379a000000000000000000000000000000000000000000000000000000000815260040161179890612835565b60405180910390fd5b6000808673ffffffffffffffffffffffffffffffffffffffff1685876040516117ca9190612891565b60006040518083038185875af1925050503d8060008114611807576040519150601f19603f3d011682016040523d82523d6000602084013e61180c565b606091505b509150915061181c82828661184b565b92505050949350505050565b6000808273ffffffffffffffffffffffffffffffffffffffff163b119050919050565b6060831561185b578290506118ab565b60008351111561186e5782518084602001fd5b816040517f08c379a00000000000000000000000000000000000000000000000000000000081526004016118a2919061249e565b60405180910390fd5b9392505050565b600080fd5b600080fd5b60007fffffffff0000000000000000000000000000000000000000000000000000000082169050919050565b6118f1816118bc565b81146118fc57600080fd5b50565b60008135905061190e816118e8565b92915050565b60006020828403121561192a576119296118b2565b5b6000611938848285016118ff565b91505092915050565b60008115159050919050565b61195681611941565b82525050565b6000602082019050611971600083018461194d565b92915050565b600080fd5b600080fd5b600080fd5b60008083601f84011261199c5761199b611977565b5b8235905067ffffffffffffffff8111156119b9576119b861197c565b5b6020830191508360408202830111156119d5576119d4611981565b5b9250929050565b600080602083850312156119f3576119f26118b2565b5b600083013567ffffffffffffffff811115611a1157611a106118b7565b5b611a1d85828601611986565b92509250509250929050565b6000819050919050565b611a3c81611a29565b82525050565b6000602082019050611a576000830184611a33565b92915050565b611a6681611a29565b8114611a7157600080fd5b50565b600081359050611a8381611a5d565b92915050565b600060208284031215611a9f57611a9e6118b2565b5b6000611aad84828501611a74565b91505092915050565b600073ffffffffffffffffffffffffffffffffffffffff82169050919050565b6000611ae182611ab6565b9050919050565b611af181611ad6565b8114611afc57600080fd5b50565b600081359050611b0e81611ae8565b92915050565b60008060408385031215611b2b57611b2a6118b2565b5b6000611b3985828601611a74565b9250506020611b4a85828601611aff565b9150509250929050565b60008083601f840112611b6a57611b69611977565b5b8235905067ffffffffffffffff811115611b8757611b8661197c565b5b602083019150836060820283011115611ba357611ba2611981565b5b9250929050565b60008060208385031215611bc157611bc06118b2565b5b600083013567ffffffffffffffff811115611bdf57611bde6118b7565b5b611beb85828601611b54565b92509250509250929050565b60008083601f840112611c0d57611c0c611977565b5b8235905067ffffffffffffffff811115611c2a57611c2961197c565b5b602083019150836020820283011115611c4657611c45611981565b5b9250929050565b600080600060408486031215611c6657611c656118b2565b5b6000611c7486828701611aff565b935050602084013567ffffffffffffffff811115611c9557611c946118b7565b5b611ca186828701611bf7565b92509250509250925092565b600060208284031215611cc357611cc26118b2565b5b6000611cd184828501611aff565b91505092915050565b60008060408385031215611cf157611cf06118b2565b5b6000611cff85828601611aff565b9250506020611d1085828601611aff565b9150509250929050565b611d2381611ad6565b82525050565b6000602082019050611d3e6000830184611d1a565b92915050565b600082825260208201905092915050565b6000819050919050565b6000611d6e6020840184611aff565b905092915050565b611d7f81611ad6565b82525050565b6000819050919050565b611d9881611d85565b8114611da357600080fd5b50565b600081359050611db581611d8f565b92915050565b6000611dca6020840184611da6565b905092915050565b611ddb81611d85565b82525050565b60408201611df26000830183611d5f565b611dff6000850182611d76565b50611e0d6020830183611dbb565b611e1a6020850182611dd2565b50505050565b6000611e2c8383611de1565b60408301905092915050565b600082905092915050565b6000604082019050919050565b6000611e5c8385611d44565b9350611e6782611d55565b8060005b85811015611ea057611e7d8284611e38565b611e878882611e20565b9750611e9283611e43565b925050600181019050611e6b565b5085925050509392505050565b60006020820190508181036000830152611ec8818486611e50565b90509392505050565b7f4e487b7100000000000000000000000000000000000000000000000000000000600052603260045260246000fd5b600081905092915050565b50565b6000611f1b600083611f00565b9150611f2682611f0b565b600082019050919050565b6000611f3c82611f0e565b9150819050919050565b600082825260208201905092915050565b7f6661696c656420746f2073656e64206574686572000000000000000000000000600082015250565b6000611f8d601483611f46565b9150611f9882611f57565b602082019050919050565b60006020820190508181036000830152611fbc81611f80565b9050919050565b7f4e487b7100000000000000000000000000000000000000000000000000000000600052601160045260246000fd5b600067ffffffffffffffff82169050919050565b600061201182611ff2565b915067ffffffffffffffff820361202b5761202a611fc3565b5b600182019050919050565b600082825260208201905092915050565b6000819050919050565b606082016120626000830183611d5f565b61206f6000850182611d76565b5061207d6020830183611d5f565b61208a6020850182611d76565b506120986040830183611dbb565b6120a56040850182611dd2565b50505050565b60006120b78383612051565b60608301905092915050565b600082905092915050565b6000606082019050919050565b60006120e78385612036565b93506120f282612047565b8060005b8581101561212b5761210882846120c3565b61211288826120ab565b975061211d836120ce565b9250506001810190506120f6565b5085925050509392505050565b600060208201905081810360008301526121538184866120db565b90509392505050565b7f416363657373436f6e74726f6c3a2063616e206f6e6c792072656e6f756e636560008201527f20726f6c657320666f722073656c660000000000000000000000000000000000602082015250565b60006121b8602f83611f46565b91506121c38261215c565b604082019050919050565b600060208201905081810360008301526121e7816121ab565b9050919050565b7f61646d696e20616464726573732063616e6e6f74206265203078300000000000600082015250565b6000612224601b83611f46565b915061222f826121ee565b602082019050919050565b6000602082019050818103600083015261225381612217565b9050919050565b7f6f776e65722063616e6e6f742062652030783000000000000000000000000000600082015250565b6000612290601383611f46565b915061229b8261225a565b602082019050919050565b600060208201905081810360008301526122bf81612283565b9050919050565b6000815190506122d581611d8f565b92915050565b6000602082840312156122f1576122f06118b2565b5b60006122ff848285016122c6565b91505092915050565b600081905092915050565b7f416363657373436f6e74726f6c3a206163636f756e7420000000000000000000600082015250565b6000612349601783612308565b915061235482612313565b601782019050919050565b600081519050919050565b60005b8381101561238857808201518184015260208101905061236d565b83811115612397576000848401525b50505050565b60006123a88261235f565b6123b28185612308565b93506123c281856020860161236a565b80840191505092915050565b7f206973206d697373696e6720726f6c6520000000000000000000000000000000600082015250565b6000612404601183612308565b915061240f826123ce565b601182019050919050565b60006124258261233c565b9150612431828561239d565b915061243c826123f7565b9150612448828461239d565b91508190509392505050565b6000601f19601f8301169050919050565b60006124708261235f565b61247a8185611f46565b935061248a81856020860161236a565b61249381612454565b840191505092915050565b600060208201905081810360008301526124b88184612465565b905092915050565b6124c981611d85565b82525050565b60006040820190506124e46000830185611d1a565b6124f160208301846124c0565b9392505050565b600061250382611d85565b915061250e83611d85565b9250817fffffffffffffffffffffffffffffffffffffffffffffffffffffffffffffffff048311821515161561254757612546611fc3565b5b828202905092915050565b600061255d82611d85565b915061256883611d85565b9250827fffffffffffffffffffffffffffffffffffffffffffffffffffffffffffffffff0382111561259d5761259c611fc3565b5b828201905092915050565b7f4e487b7100000000000000000000000000000000000000000000000000000000600052604160045260246000fd5b60006125e282611d85565b9150600082036125f5576125f4611fc3565b5b600182039050919050565b7f537472696e67733a20686578206c656e67746820696e73756666696369656e74600082015250565b6000612636602083611f46565b915061264182612600565b602082019050919050565b6000602082019050818103600083015261266581612629565b9050919050565b61267581611941565b811461268057600080fd5b50565b6000815190506126928161266c565b92915050565b6000602082840312156126ae576126ad6118b2565b5b60006126bc84828501612683565b91505092915050565b7f5361666545524332303a204552433230206f7065726174696f6e20646964206e60008201527f6f74207375636365656400000000000000000000000000000000000000000000602082015250565b6000612721602a83611f46565b915061272c826126c5565b604082019050919050565b6000602082019050818103600083015261275081612714565b9050919050565b7f416464726573733a20696e73756666696369656e742062616c616e636520666f60008201527f722063616c6c0000000000000000000000000000000000000000000000000000602082015250565b60006127b3602683611f46565b91506127be82612757565b604082019050919050565b600060208201905081810360008301526127e2816127a6565b9050919050565b7f416464726573733a2063616c6c20746f206e6f6e2d636f6e7472616374000000600082015250565b600061281f601d83611f46565b915061282a826127e9565b602082019050919050565b6000602082019050818103600083015261284e81612812565b9050919050565b600081519050919050565b600061286b82612855565b6128758185611f00565b935061288581856020860161236a565b80840191505092915050565b600061289d8284612860565b91508190509291505056fea2646970667358221220c74fb00263b60d77b30c69b9634fea2b9090d7896d5e1cf5560873b54d5637d764736f6c634300080d0033",
  "devdoc": {
    "kind": "dev",
    "methods": {
      "emergencyEjectERC20(address,address)": {
        "params": {
          "_destination": "The acccount to send the tokens to",
          "_token": "The token to transfer"
        }
      },
      "emergencyEjectEth(address)": {
        "params": {
          "_destination": "The account to send the ether to."
        }
      },
      "getRoleAdmin(bytes32)": {
        "details": "Returns the admin role that controls `role`. See {grantRole} and {revokeRole}. To change a role's admin, use {_setRoleAdmin}."
      },
      "grantRole(bytes32,address)": {
        "details": "Grants `role` to `account`. If `account` had not been already granted `role`, emits a {RoleGranted} event. Requirements: - the caller must have ``role``'s admin role."
      },
      "hasRole(bytes32,address)": {
        "details": "Returns `true` if `account` has been granted `role`."
      },
      "renounceRole(bytes32,address)": {
        "details": "Revokes `role` from the calling account. Roles are often managed via {grantRole} and {revokeRole}: this function's purpose is to provide a mechanism for accounts to lose their privileges if they are compromised (such as when a trusted device is misplaced). If the calling account had been revoked `role`, emits a {RoleRevoked} event. Requirements: - the caller must be `account`."
      },
      "revokeRole(bytes32,address)": {
        "details": "Revokes `role` from `account`. If `account` had been granted `role`, emits a {RoleRevoked} event. Requirements: - the caller must have ``role``'s admin role."
      },
      "supportsInterface(bytes4)": {
        "details": "See {IERC165-supportsInterface}."
      },
      "transferERC20((address,address,uint256)[])": {
        "details": "If the `setApprove` field is true, the contract should approve that recipient for type(uint256).max",
        "params": {
          "_transfers": "An array of transfers. Each transfer object specifies the amount and recipient to send tokens to"
        }
      },
      "transferEther((address,uint256)[])": {
        "details": "This should use address(recipient).call to transfer the ether",
        "params": {
          "_transfers": "The ether transfers"
        }
      }
    },
    "version": 1
  },
  "userdoc": {
    "events": {
      "TransferERC20((address,address,uint256)[])": {
        "notice": "### Events"
      }
    },
    "kind": "user",
    "methods": {
      "emergencyEjectERC20(address,address)": {
        "notice": "Transfers the current balance of a token to a destination without processing a split"
      },
      "emergencyEjectEth(address)": {
        "notice": "Transfers the current balance of Ether to the destination without processing a split"
      },
      "initialize(address,address[])": {
        "notice": "### Functions"
      },
      "transferERC20((address,address,uint256)[])": {
        "notice": "Transfers amounts of an ERC20 to one or more recipients"
      },
      "transferEther((address,uint256)[])": {
        "notice": "Transfers amounts of ether to one or more recipeints"
      }
    },
    "version": 1
  },
  "storageLayout": {
    "storage": [
      {
        "astId": 7118,
        "contract": "contracts/implementations/ThinWallet.sol:ThinWallet",
        "label": "_initialized",
        "offset": 0,
        "slot": "0",
        "type": "t_bool"
      },
      {
        "astId": 7121,
        "contract": "contracts/implementations/ThinWallet.sol:ThinWallet",
        "label": "_initializing",
        "offset": 1,
        "slot": "0",
        "type": "t_bool"
      },
      {
        "astId": 6569,
        "contract": "contracts/implementations/ThinWallet.sol:ThinWallet",
        "label": "_roles",
        "offset": 0,
        "slot": "1",
        "type": "t_mapping(t_bytes32,t_struct(RoleData)6564_storage)"
      },
      {
        "astId": 15696,
        "contract": "contracts/implementations/ThinWallet.sol:ThinWallet",
        "label": "admin",
        "offset": 0,
        "slot": "2",
        "type": "t_address"
      }
    ],
    "types": {
      "t_address": {
        "encoding": "inplace",
        "label": "address",
        "numberOfBytes": "20"
      },
      "t_bool": {
        "encoding": "inplace",
        "label": "bool",
        "numberOfBytes": "1"
      },
      "t_bytes32": {
        "encoding": "inplace",
        "label": "bytes32",
        "numberOfBytes": "32"
      },
      "t_mapping(t_address,t_bool)": {
        "encoding": "mapping",
        "key": "t_address",
        "label": "mapping(address => bool)",
        "numberOfBytes": "32",
        "value": "t_bool"
      },
      "t_mapping(t_bytes32,t_struct(RoleData)6564_storage)": {
        "encoding": "mapping",
        "key": "t_bytes32",
        "label": "mapping(bytes32 => struct AccessControl.RoleData)",
        "numberOfBytes": "32",
        "value": "t_struct(RoleData)6564_storage"
      },
      "t_struct(RoleData)6564_storage": {
        "encoding": "inplace",
        "label": "struct AccessControl.RoleData",
        "members": [
          {
            "astId": 6561,
            "contract": "contracts/implementations/ThinWallet.sol:ThinWallet",
            "label": "members",
            "offset": 0,
            "slot": "0",
            "type": "t_mapping(t_address,t_bool)"
          },
          {
            "astId": 6563,
            "contract": "contracts/implementations/ThinWallet.sol:ThinWallet",
            "label": "adminRole",
            "offset": 0,
            "slot": "1",
            "type": "t_bytes32"
          }
        ],
        "numberOfBytes": "64"
      }
    }
  }
}