{
  "address": "0x35C89695080d6095813ed42DCD404A9BdcC8458F",
  "abi": [
    {
      "inputs": [
        {
          "internalType": "address",
          "name": "_baseToken",
          "type": "address"
        },
        {
          "internalType": "address",
          "name": "_stakingContract",
          "type": "address"
        },
        {
          "internalType": "address",
          "name": "_owner",
          "type": "address"
        },
        {
          "internalType": "address",
          "name": "_walletImplementation",
          "type": "address"
        }
      ],
      "stateMutability": "nonpayable",
      "type": "constructor"
    },
    {
      "inputs": [
        {
          "internalType": "uint256",
          "name": "prod1",
          "type": "uint256"
        }
      ],
      "name": "PRBMath__MulDivFixedPointOverflow",
      "type": "error"
    },
    {
      "anonymous": false,
      "inputs": [
        {
          "indexed": true,
          "internalType": "address",
          "name": "previousOwner",
          "type": "address"
        },
        {
          "indexed": true,
          "internalType": "address",
          "name": "newOwner",
          "type": "address"
        }
      ],
      "name": "OwnershipTransferred",
      "type": "event"
    },
    {
      "anonymous": false,
      "inputs": [
        {
          "indexed": true,
          "internalType": "address",
          "name": "owner",
          "type": "address"
        },
        {
          "indexed": true,
          "internalType": "address",
          "name": "daoToken",
          "type": "address"
        },
        {
          "indexed": false,
          "internalType": "uint256",
          "name": "causeId",
          "type": "uint256"
        }
      ],
      "name": "RegisterCause",
      "type": "event"
    },
    {
      "anonymous": false,
      "inputs": [
        {
          "indexed": true,
          "internalType": "address",
          "name": "walletAddress",
          "type": "address"
        },
        {
          "components": [
            {
              "internalType": "uint256",
              "name": "causeId",
              "type": "uint256"
            },
            {
              "internalType": "bytes",
              "name": "thinWalletId",
              "type": "bytes"
            }
          ],
          "indexed": false,
          "internalType": "struct IDonationsRouter.ThinWalletID",
          "name": "walletId",
          "type": "tuple"
        }
      ],
      "name": "RegisterWallet",
      "type": "event"
    },
    {
      "anonymous": false,
      "inputs": [
        {
          "components": [
            {
              "internalType": "address",
              "name": "owner",
              "type": "address"
            },
            {
              "internalType": "address",
              "name": "defaultWallet",
              "type": "address"
            },
            {
              "internalType": "address",
              "name": "daoToken",
              "type": "address"
            },
            {
              "internalType": "uint256",
              "name": "rewardPercentage",
              "type": "uint256"
            }
          ],
          "indexed": false,
          "internalType": "struct IDonationsRouter.CauseRecord",
          "name": "cause",
          "type": "tuple"
        }
      ],
      "name": "UpdateCause",
      "type": "event"
    },
    {
      "anonymous": false,
      "inputs": [
        {
          "indexed": false,
          "internalType": "uint256",
          "name": "oldFee",
          "type": "uint256"
        },
        {
          "indexed": false,
          "internalType": "uint256",
          "name": "newFee",
          "type": "uint256"
        }
      ],
      "name": "UpdateFee",
      "type": "event"
    },
    {
      "anonymous": false,
      "inputs": [
        {
          "indexed": true,
          "internalType": "address",
          "name": "oldRewardAddress",
          "type": "address"
        },
        {
          "indexed": true,
          "internalType": "address",
          "name": "newAddress",
          "type": "address"
        }
      ],
      "name": "UpdateRewardAddress",
      "type": "event"
    },
    {
      "anonymous": false,
      "inputs": [
        {
          "components": [
            {
              "internalType": "uint256",
              "name": "causeId",
              "type": "uint256"
            },
            {
              "internalType": "bytes",
              "name": "thinWalletId",
              "type": "bytes"
            }
          ],
          "indexed": false,
          "internalType": "struct IDonationsRouter.ThinWalletID",
          "name": "wallet",
          "type": "tuple"
        },
        {
          "components": [
            {
              "internalType": "address",
              "name": "token",
              "type": "address"
            },
            {
              "internalType": "address",
              "name": "recipient",
              "type": "address"
            },
            {
              "internalType": "uint256",
              "name": "amount",
              "type": "uint256"
            }
          ],
          "indexed": false,
          "internalType": "struct IDonationsRouter.WithdrawalRequest",
          "name": "request",
          "type": "tuple"
        }
      ],
      "name": "WithdrawFromWallet",
      "type": "event"
    },
    {
      "inputs": [
        {
          "internalType": "uint256",
          "name": "_causeId",
          "type": "uint256"
        },
        {
          "internalType": "bytes32",
          "name": "_proposalId",
          "type": "bytes32"
        }
      ],
      "name": "addToQueue",
      "outputs": [],
      "stateMutability": "nonpayable",
      "type": "function"
    },
    {
      "inputs": [],
      "name": "baseToken",
      "outputs": [
        {
          "internalType": "contract ERC20",
          "name": "",
          "type": "address"
        }
      ],
      "stateMutability": "view",
      "type": "function"
    },
    {
      "inputs": [
        {
          "components": [
            {
              "internalType": "uint256",
              "name": "causeId",
              "type": "uint256"
            },
            {
              "internalType": "bytes",
              "name": "thinWalletId",
              "type": "bytes"
            }
          ],
          "internalType": "struct IDonationsRouter.ThinWalletID",
          "name": "_walletId",
          "type": "tuple"
        }
      ],
      "name": "calculateThinWallet",
      "outputs": [
        {
          "internalType": "address",
          "name": "wallet",
          "type": "address"
        }
      ],
      "stateMutability": "view",
      "type": "function"
    },
    {
      "inputs": [],
      "name": "causeId",
      "outputs": [
        {
          "internalType": "uint256",
          "name": "",
          "type": "uint256"
        }
      ],
      "stateMutability": "view",
      "type": "function"
    },
    {
      "inputs": [
        {
          "internalType": "uint256",
          "name": "",
          "type": "uint256"
        }
      ],
      "name": "causeRecords",
      "outputs": [
        {
          "internalType": "address",
          "name": "owner",
          "type": "address"
        },
        {
          "internalType": "address",
          "name": "defaultWallet",
          "type": "address"
        },
        {
          "internalType": "address",
          "name": "daoToken",
          "type": "address"
        },
        {
          "internalType": "uint256",
          "name": "rewardPercentage",
          "type": "uint256"
        }
      ],
      "stateMutability": "view",
      "type": "function"
    },
    {
      "inputs": [
        {
          "internalType": "bytes32",
          "name": "",
          "type": "bytes32"
        }
      ],
      "name": "deployedWallets",
      "outputs": [
        {
          "internalType": "address",
          "name": "",
          "type": "address"
        }
      ],
      "stateMutability": "view",
      "type": "function"
    },
    {
      "inputs": [
        {
          "internalType": "uint256",
          "name": "_causeId",
          "type": "uint256"
        }
      ],
      "name": "getFirstInQueue",
      "outputs": [
        {
          "internalType": "uint128",
          "name": "queueFront",
          "type": "uint128"
        }
      ],
      "stateMutability": "view",
      "type": "function"
    },
    {
      "inputs": [
        {
          "internalType": "uint256",
          "name": "_causeId",
          "type": "uint256"
        }
      ],
      "name": "getLastInQueue",
      "outputs": [
        {
          "internalType": "uint128",
          "name": "queueBack",
          "type": "uint128"
        }
      ],
      "stateMutability": "view",
      "type": "function"
    },
    {
      "inputs": [
        {
          "internalType": "uint256",
          "name": "_causeId",
          "type": "uint256"
        },
        {
          "internalType": "uint128",
          "name": "_index",
          "type": "uint128"
        }
      ],
      "name": "getQueueAtIndex",
      "outputs": [
        {
          "components": [
            {
              "internalType": "uint128",
              "name": "next",
              "type": "uint128"
            },
            {
              "internalType": "uint128",
              "name": "previous",
              "type": "uint128"
            },
            {
              "internalType": "bytes32",
              "name": "id",
              "type": "bytes32"
            },
            {
              "internalType": "bool",
              "name": "isUnclaimed",
              "type": "bool"
            }
          ],
          "internalType": "struct IDonationsRouter.QueuedItem",
          "name": "item",
          "type": "tuple"
        }
      ],
      "stateMutability": "view",
      "type": "function"
    },
    {
      "inputs": [],
      "name": "owner",
      "outputs": [
        {
          "internalType": "address",
          "name": "",
          "type": "address"
        }
      ],
      "stateMutability": "view",
      "type": "function"
    },
    {
      "inputs": [],
      "name": "platformFee",
      "outputs": [
        {
          "internalType": "uint256",
          "name": "",
          "type": "uint256"
        }
      ],
      "stateMutability": "view",
      "type": "function"
    },
    {
      "inputs": [
        {
          "components": [
            {
              "internalType": "address",
              "name": "owner",
              "type": "address"
            },
            {
              "internalType": "uint256",
              "name": "rewardPercentage",
              "type": "uint256"
            },
            {
              "internalType": "address",
              "name": "daoToken",
              "type": "address"
            }
          ],
          "internalType": "struct IDonationsRouter.CauseRegistrationRequest",
          "name": "_cause",
          "type": "tuple"
        }
      ],
      "name": "registerCause",
      "outputs": [],
      "stateMutability": "nonpayable",
      "type": "function"
    },
    {
      "inputs": [
        {
          "components": [
            {
              "internalType": "uint256",
              "name": "causeId",
              "type": "uint256"
            },
            {
              "internalType": "bytes",
              "name": "thinWalletId",
              "type": "bytes"
            }
          ],
          "internalType": "struct IDonationsRouter.ThinWalletID",
          "name": "_walletId",
          "type": "tuple"
        },
        {
          "internalType": "address[]",
          "name": "_owners",
          "type": "address[]"
        }
      ],
      "name": "registerThinWallet",
      "outputs": [],
      "stateMutability": "nonpayable",
      "type": "function"
    },
    {
      "inputs": [
        {
          "internalType": "uint256",
          "name": "_causeId",
          "type": "uint256"
        },
        {
          "internalType": "bytes32",
          "name": "_proposalId",
          "type": "bytes32"
        },
        {
          "internalType": "uint128",
          "name": "_index",
          "type": "uint128"
        }
      ],
      "name": "removeFromQueue",
      "outputs": [],
      "stateMutability": "nonpayable",
      "type": "function"
    },
    {
      "inputs": [],
      "name": "renounceOwnership",
      "outputs": [],
      "stateMutability": "nonpayable",
      "type": "function"
    },
    {
      "inputs": [
        {
          "internalType": "uint256",
          "name": "_fee",
          "type": "uint256"
        }
      ],
      "name": "setPlatformFee",
      "outputs": [],
      "stateMutability": "nonpayable",
      "type": "function"
    },
    {
      "inputs": [],
      "name": "stakingContract",
      "outputs": [
        {
          "internalType": "contract IStakingRewards",
          "name": "",
          "type": "address"
        }
      ],
      "stateMutability": "view",
      "type": "function"
    },
    {
      "inputs": [
        {
          "internalType": "address",
          "name": "newOwner",
          "type": "address"
        }
      ],
      "name": "transferOwnership",
      "outputs": [],
      "stateMutability": "nonpayable",
      "type": "function"
    },
    {
      "inputs": [
        {
          "internalType": "uint256",
          "name": "_causeId",
          "type": "uint256"
        },
        {
          "components": [
            {
              "internalType": "address",
              "name": "owner",
              "type": "address"
            },
            {
              "internalType": "uint256",
              "name": "rewardPercentage",
              "type": "uint256"
            }
          ],
          "internalType": "struct IDonationsRouter.CauseUpdateRequest",
          "name": "_cause",
          "type": "tuple"
        }
      ],
      "name": "updateCause",
      "outputs": [],
      "stateMutability": "nonpayable",
      "type": "function"
    },
    {
      "inputs": [],
      "name": "walletImplementation",
      "outputs": [
        {
          "internalType": "address",
          "name": "",
          "type": "address"
        }
      ],
      "stateMutability": "view",
      "type": "function"
    },
    {
      "inputs": [
        {
          "components": [
            {
              "internalType": "uint256",
              "name": "causeId",
              "type": "uint256"
            },
            {
              "internalType": "bytes",
              "name": "thinWalletId",
              "type": "bytes"
            }
          ],
          "internalType": "struct IDonationsRouter.ThinWalletID",
          "name": "_walletId",
          "type": "tuple"
        },
        {
          "components": [
            {
              "internalType": "address",
              "name": "token",
              "type": "address"
            },
            {
              "internalType": "address",
              "name": "recipient",
              "type": "address"
            },
            {
              "internalType": "uint256",
              "name": "amount",
              "type": "uint256"
            }
          ],
          "internalType": "struct IDonationsRouter.WithdrawalRequest",
          "name": "_withdrawal",
          "type": "tuple"
        },
        {
          "internalType": "bytes32",
          "name": "_proposalId",
          "type": "bytes32"
        }
      ],
      "name": "withdrawFromThinWallet",
      "outputs": [],
      "stateMutability": "nonpayable",
      "type": "function"
    }
  ],
  "transactionHash": "0x000565c3a7252e7386dfa83072318a91b90f6ac531dcf18ca1337313464db87f",
  "args": [
    "0xd11Dd8a141cdb2FD1d464DAb18C43238e4ccaDc1",
    "0x351e9c4de57a1854397E97Df909Ea0b3D7cbd219",
    "0x0C56c62ecf7Cd3965A57B5D9A7974EeE578714C3",
    "0x7D04988b41a93E52142c7dc863dBf907c51Da2aD"
  ],
  "numDeployments": 3,
  "solcInputHash": "546259be553163ef8f5d5b223646a157",
  "bytecode": "0x60e06040523480156200001157600080fd5b50604051620050783803806200507883398181016040528101906200003791906200040c565b620000576200004b620002d660201b60201c565b620002de60201b60201c565b600073ffffffffffffffffffffffffffffffffffffffff168473ffffffffffffffffffffffffffffffffffffffff1603620000c9576040517f08c379a0000000000000000000000000000000000000000000000000000000008152600401620000c090620004df565b60405180910390fd5b600073ffffffffffffffffffffffffffffffffffffffff168373ffffffffffffffffffffffffffffffffffffffff16036200013b576040517f08c379a0000000000000000000000000000000000000000000000000000000008152600401620001329062000551565b60405180910390fd5b600073ffffffffffffffffffffffffffffffffffffffff168273ffffffffffffffffffffffffffffffffffffffff1603620001ad576040517f08c379a0000000000000000000000000000000000000000000000000000000008152600401620001a490620005c3565b60405180910390fd5b600073ffffffffffffffffffffffffffffffffffffffff168173ffffffffffffffffffffffffffffffffffffffff16036200021f576040517f08c379a0000000000000000000000000000000000000000000000000000000008152600401620002169062000635565b60405180910390fd5b8373ffffffffffffffffffffffffffffffffffffffff1660808173ffffffffffffffffffffffffffffffffffffffff16815250508273ffffffffffffffffffffffffffffffffffffffff1660a08173ffffffffffffffffffffffffffffffffffffffff16815250508073ffffffffffffffffffffffffffffffffffffffff1660c08173ffffffffffffffffffffffffffffffffffffffff1681525050620002cc82620002de60201b60201c565b5050505062000657565b600033905090565b60008060009054906101000a900473ffffffffffffffffffffffffffffffffffffffff169050816000806101000a81548173ffffffffffffffffffffffffffffffffffffffff021916908373ffffffffffffffffffffffffffffffffffffffff1602179055508173ffffffffffffffffffffffffffffffffffffffff168173ffffffffffffffffffffffffffffffffffffffff167f8be0079c531659141344cd1fd0a4f28419497f9722a3daafe3b4186f6b6457e060405160405180910390a35050565b600080fd5b600073ffffffffffffffffffffffffffffffffffffffff82169050919050565b6000620003d482620003a7565b9050919050565b620003e681620003c7565b8114620003f257600080fd5b50565b6000815190506200040681620003db565b92915050565b60008060008060808587031215620004295762000428620003a2565b5b60006200043987828801620003f5565b94505060206200044c87828801620003f5565b93505060406200045f87828801620003f5565b92505060606200047287828801620003f5565b91505092959194509250565b600082825260208201905092915050565b7f696e76616c6964206261736520746f6b656e0000000000000000000000000000600082015250565b6000620004c76012836200047e565b9150620004d4826200048f565b602082019050919050565b60006020820190508181036000830152620004fa81620004b8565b9050919050565b7f696e76616c6964207374616b696e6720636f6e74726163740000000000000000600082015250565b6000620005396018836200047e565b9150620005468262000501565b602082019050919050565b600060208201905081810360008301526200056c816200052a565b9050919050565b7f696e76616c6964206f776e657200000000000000000000000000000000000000600082015250565b6000620005ab600d836200047e565b9150620005b88262000573565b602082019050919050565b60006020820190508181036000830152620005de816200059c565b9050919050565b7f696e76616c696420696d706c656d656e746174696f6e00000000000000000000600082015250565b60006200061d6016836200047e565b91506200062a82620005e5565b602082019050919050565b6000602082019050818103600083015262000650816200060e565b9050919050565b60805160a05160c0516149c0620006b8600039600081816104c50152818161148b01526125220152600081816110de015281816111880152818161120b01528181611f8401526120c7015260008181610e11015261202d01526149c06000f3fe608060405234801561001057600080fd5b50600436106101375760003560e01c80638117abc1116100b8578063c55dae631161007c578063c55dae631461033b578063d198af5214610359578063ee99205c14610389578063f2fde38b146103a7578063f7c15fc8146103c3578063fecedb16146103df57610137565b80638117abc1146102ab5780638da5cb5b146102c957806391be2cdc146102e7578063a2e780c614610303578063b666b5161461031f57610137565b80632b3f8cfa116100ff5780632b3f8cfa146102095780635ae8b1591461023957806367dcb57b14610255578063715018a6146102715780637ea35aff1461027b57610137565b806312e8e2c31461013c578063196a8dca146101585780631ea6c2db146101885780631ff24c0a146101b857806326232a2e146101eb575b600080fd5b610156600480360381019061015191906132e3565b6103fd565b005b610172600480360381019061016d91906134cc565b6104be565b60405161017f9190613556565b60405180910390f35b6101a2600480360381019061019d91906135a7565b6104f9565b6040516101af9190613556565b60405180910390f35b6101d260048036038101906101cd91906132e3565b61052c565b6040516101e294939291906135e3565b60405180910390f35b6101f36105bc565b6040516102009190613628565b60405180910390f35b610223600480360381019061021e91906132e3565b6105c2565b604051610230919061366e565b60405180910390f35b610253600480360381019061024e919061370d565b6105d4565b005b61026f600480360381019061026a91906137a8565b610978565b005b6102796113ef565b005b610295600480360381019061029091906132e3565b611477565b6040516102a2919061366e565b60405180910390f35b6102b3611489565b6040516102c09190613556565b60405180910390f35b6102d16114ad565b6040516102de9190613556565b60405180910390f35b61030160048036038101906102fc9190613843565b6114d6565b005b61031d600480360381019061031891906138b5565b61170b565b005b61033960048036038101906103349190613914565b611afb565b005b61034361202b565b60405161035091906139a0565b60405180910390f35b610373600480360381019061036e91906139bb565b61204f565b6040516103809190613a89565b60405180910390f35b6103916120c5565b60405161039e9190613ac5565b60405180910390f35b6103c160048036038101906103bc9190613b0c565b6120e9565b005b6103dd60048036038101906103d89190613b39565b6121e0565b005b6103e7612404565b6040516103f49190613628565b60405180910390f35b61040561240a565b73ffffffffffffffffffffffffffffffffffffffff166104236114ad565b73ffffffffffffffffffffffffffffffffffffffff1614610479576040517f08c379a000000000000000000000000000000000000000000000000000000000815260040161047090613bd6565b60405180910390fd5b7f8987e6f43a6c6bf408c8c427dceb2f98377f859348939ef4ab7b770b510a395a600454826040516104ac929190613bf6565b60405180910390a18060048190555050565b60006104f27f00000000000000000000000000000000000000000000000000000000000000006104ed84612412565b612442565b9050919050565b60066020528060005260406000206000915054906101000a900473ffffffffffffffffffffffffffffffffffffffff1681565b60056020528060005260406000206000915090508060000160009054906101000a900473ffffffffffffffffffffffffffffffffffffffff16908060010160009054906101000a900473ffffffffffffffffffffffffffffffffffffffff16908060020160009054906101000a900473ffffffffffffffffffffffffffffffffffffffff16908060030154905084565b60045481565b60006105cd82612457565b9050919050565b60006105e8846105e390613c1f565b612412565b9050600073ffffffffffffffffffffffffffffffffffffffff166006600083815260200190815260200160002060009054906101000a900473ffffffffffffffffffffffffffffffffffffffff1673ffffffffffffffffffffffffffffffffffffffff161461068c576040517f08c379a000000000000000000000000000000000000000000000000000000000815260040161068390613c7e565b60405180910390fd5b60018383905010156106d3576040517f08c379a00000000000000000000000000000000000000000000000000000000081526004016106ca90613cea565b60405180910390fd5b600060056000866000013581526020019081526020016000206040518060800160405290816000820160009054906101000a900473ffffffffffffffffffffffffffffffffffffffff1673ffffffffffffffffffffffffffffffffffffffff1673ffffffffffffffffffffffffffffffffffffffff1681526020016001820160009054906101000a900473ffffffffffffffffffffffffffffffffffffffff1673ffffffffffffffffffffffffffffffffffffffff1673ffffffffffffffffffffffffffffffffffffffff1681526020016002820160009054906101000a900473ffffffffffffffffffffffffffffffffffffffff1673ffffffffffffffffffffffffffffffffffffffff1673ffffffffffffffffffffffffffffffffffffffff16815260200160038201548152505090506003548560000135111561084e576040517f08c379a000000000000000000000000000000000000000000000000000000000815260040161084590613d56565b60405180910390fd5b806000015173ffffffffffffffffffffffffffffffffffffffff163373ffffffffffffffffffffffffffffffffffffffff16146108c0576040517f08c379a00000000000000000000000000000000000000000000000000000000081526004016108b790613dc2565b60405180910390fd5b60006108d4866108cf90613c1f565b6104be565b90508073ffffffffffffffffffffffffffffffffffffffff167f5cac467a9f516dfefc872243d16e0a608f33ffa3ef9ecde3f5bcc88f4e4fbec08760405161091c9190613f07565b60405180910390a261096f83868680806020026020016040519081016040528093929190818152602001838360200280828437600081840152601f19601f8201169050808301925050505050505061251b565b50505050505050565b600354836000013511156109c1576040517f08c379a00000000000000000000000000000000000000000000000000000000081526004016109b890613d56565b60405180910390fd5b600060056000856000013581526020019081526020016000206040518060800160405290816000820160009054906101000a900473ffffffffffffffffffffffffffffffffffffffff1673ffffffffffffffffffffffffffffffffffffffff1673ffffffffffffffffffffffffffffffffffffffff1681526020016001820160009054906101000a900473ffffffffffffffffffffffffffffffffffffffff1673ffffffffffffffffffffffffffffffffffffffff1673ffffffffffffffffffffffffffffffffffffffff1681526020016002820160009054906101000a900473ffffffffffffffffffffffffffffffffffffffff1673ffffffffffffffffffffffffffffffffffffffff1673ffffffffffffffffffffffffffffffffffffffff1681526020016003820154815250509050806000015173ffffffffffffffffffffffffffffffffffffffff163373ffffffffffffffffffffffffffffffffffffffff1614610b65576040517f08c379a0000000000000000000000000000000000000000000000000000000008152600401610b5c90613dc2565b60405180910390fd5b60008203610ba8576040517f08c379a0000000000000000000000000000000000000000000000000000000008152600401610b9f90613f75565b60405180910390fd5b6000610bb560035461260e565b90506000610bc5600354836126d2565b905080606001518015610c05575060035484604051602001610be8929190613fa4565b604051602081830303815290604052805190602001208160400151145b15610c1a57610c156003546127e1565b610c55565b6040517f08c379a0000000000000000000000000000000000000000000000000000000008152600401610c4c90614019565b60405180910390fd5b6000610c6987610c6490613c1f565b612412565b905060006006600083815260200190815260200160002060009054906101000a900473ffffffffffffffffffffffffffffffffffffffff169050600073ffffffffffffffffffffffffffffffffffffffff168173ffffffffffffffffffffffffffffffffffffffff1603610dd4576000600167ffffffffffffffff811115610cf457610cf3613326565b5b604051908082528060200260200182016040528015610d225781602001602082028036833780820191505090505b509050856000015181600081518110610d3e57610d3d614039565b5b602002602001019073ffffffffffffffffffffffffffffffffffffffff16908173ffffffffffffffffffffffffffffffffffffffff1681525050610d82838261251b565b91508173ffffffffffffffffffffffffffffffffffffffff167f5cac467a9f516dfefc872243d16e0a608f33ffa3ef9ecde3f5bcc88f4e4fbec08a604051610dca9190613f07565b60405180910390a2505b7f4e9cc86b1370c2f6c435e2051a21470d3a62fa34d77277ed8bcd6855ea9e249d8888604051610e059291906140e8565b60405180910390a160007f000000000000000000000000000000000000000000000000000000000000000090508073ffffffffffffffffffffffffffffffffffffffff16886000016020810190610e5c9190613b0c565b73ffffffffffffffffffffffffffffffffffffffff16036112a2576000610e9487606001518a604001356127f690919063ffffffff16565b90506000610eb16004548b604001356127f690919063ffffffff16565b90506000600367ffffffffffffffff811115610ed057610ecf613326565b5b604051908082528060200260200182016040528015610f0957816020015b610ef66131aa565b815260200190600190039081610eee5790505b50905060405180606001604052808573ffffffffffffffffffffffffffffffffffffffff168152602001610f3b6114ad565b73ffffffffffffffffffffffffffffffffffffffff1681526020018381525081600081518110610f6e57610f6d614039565b5b602002602001018190525060405180606001604052808573ffffffffffffffffffffffffffffffffffffffff1681526020018c6020016020810190610fb39190613b0c565b73ffffffffffffffffffffffffffffffffffffffff1681526020018484610fda9190614147565b8d60400135610fe9919061419d565b8152508160018151811061100057610fff614039565b5b602002602001018190525060405180606001604052808573ffffffffffffffffffffffffffffffffffffffff1681526020013073ffffffffffffffffffffffffffffffffffffffff168152602001848152508160028151811061106657611065614039565b5b60200260200101819052508473ffffffffffffffffffffffffffffffffffffffff166332a06d3a826040518263ffffffff1660e01b81526004016110aa91906142c2565b600060405180830381600087803b1580156110c457600080fd5b505af11580156110d8573d6000803e3d6000fd5b505050507f000000000000000000000000000000000000000000000000000000000000000073ffffffffffffffffffffffffffffffffffffffff1663f7c618c16040518163ffffffff1660e01b8152600401602060405180830381865afa158015611147573d6000803e3d6000fd5b505050506040513d601f19601f8201168201806040525081019061116b9190614322565b73ffffffffffffffffffffffffffffffffffffffff1663395093517f0000000000000000000000000000000000000000000000000000000000000000856040518363ffffffff1660e01b81526004016111c592919061434f565b6020604051808303816000875af11580156111e4573d6000803e3d6000fd5b505050506040513d601f19601f8201168201806040525081019061120891906143a4565b507f000000000000000000000000000000000000000000000000000000000000000073ffffffffffffffffffffffffffffffffffffffff1663a8031a1d8a60400151856040518363ffffffff1660e01b815260040161126892919061434f565b600060405180830381600087803b15801561128257600080fd5b505af1158015611296573d6000803e3d6000fd5b505050505050506113e4565b6000600167ffffffffffffffff8111156112bf576112be613326565b5b6040519080825280602002602001820160405280156112f857816020015b6112e56131aa565b8152602001906001900390816112dd5790505b50905060405180606001604052808373ffffffffffffffffffffffffffffffffffffffff1681526020018a60200160208101906113359190613b0c565b73ffffffffffffffffffffffffffffffffffffffff1681526020018a604001358152508160008151811061136c5761136b614039565b5b60200260200101819052508273ffffffffffffffffffffffffffffffffffffffff166332a06d3a826040518263ffffffff1660e01b81526004016113b091906142c2565b600060405180830381600087803b1580156113ca57600080fd5b505af11580156113de573d6000803e3d6000fd5b50505050505b505050505050505050565b6113f761240a565b73ffffffffffffffffffffffffffffffffffffffff166114156114ad565b73ffffffffffffffffffffffffffffffffffffffff161461146b576040517f08c379a000000000000000000000000000000000000000000000000000000000815260040161146290613bd6565b60405180910390fd5b611475600061280a565b565b60006114828261260e565b9050919050565b7f000000000000000000000000000000000000000000000000000000000000000081565b60008060009054906101000a900473ffffffffffffffffffffffffffffffffffffffff16905090565b6000600560008581526020019081526020016000206040518060800160405290816000820160009054906101000a900473ffffffffffffffffffffffffffffffffffffffff1673ffffffffffffffffffffffffffffffffffffffff1673ffffffffffffffffffffffffffffffffffffffff1681526020016001820160009054906101000a900473ffffffffffffffffffffffffffffffffffffffff1673ffffffffffffffffffffffffffffffffffffffff1673ffffffffffffffffffffffffffffffffffffffff1681526020016002820160009054906101000a900473ffffffffffffffffffffffffffffffffffffffff1673ffffffffffffffffffffffffffffffffffffffff1673ffffffffffffffffffffffffffffffffffffffff1681526020016003820154815250509050806000015173ffffffffffffffffffffffffffffffffffffffff163373ffffffffffffffffffffffffffffffffffffffff1614611676576040517f08c379a000000000000000000000000000000000000000000000000000000000815260040161166d90613dc2565b60405180910390fd5b6000848460405160200161168b929190613fa4565b60405160208183030381529060405280519060200120905060006116b1600354856126d2565b9050818160400151146116f9576040517f08c379a00000000000000000000000000000000000000000000000000000000081526004016116f09061441d565b60405180910390fd5b61170386856128ce565b505050505050565b600354821115611750576040517f08c379a000000000000000000000000000000000000000000000000000000000815260040161174790613d56565b60405180910390fd5b6000600560008481526020019081526020016000206040518060800160405290816000820160009054906101000a900473ffffffffffffffffffffffffffffffffffffffff1673ffffffffffffffffffffffffffffffffffffffff1673ffffffffffffffffffffffffffffffffffffffff1681526020016001820160009054906101000a900473ffffffffffffffffffffffffffffffffffffffff1673ffffffffffffffffffffffffffffffffffffffff1673ffffffffffffffffffffffffffffffffffffffff1681526020016002820160009054906101000a900473ffffffffffffffffffffffffffffffffffffffff1673ffffffffffffffffffffffffffffffffffffffff1673ffffffffffffffffffffffffffffffffffffffff1681526020016003820154815250509050806000015173ffffffffffffffffffffffffffffffffffffffff163373ffffffffffffffffffffffffffffffffffffffff16146118f0576040517f08c379a00000000000000000000000000000000000000000000000000000000081526004016118e790614489565b60405180910390fd5b600073ffffffffffffffffffffffffffffffffffffffff1682600001602081019061191b9190613b0c565b73ffffffffffffffffffffffffffffffffffffffff1603611971576040517f08c379a0000000000000000000000000000000000000000000000000000000008152600401611968906144f5565b60405180910390fd5b8160000160208101906119849190613b0c565b816000019073ffffffffffffffffffffffffffffffffffffffff16908173ffffffffffffffffffffffffffffffffffffffff16815250508160200135816060018181525050806005600085815260200190815260200160002060008201518160000160006101000a81548173ffffffffffffffffffffffffffffffffffffffff021916908373ffffffffffffffffffffffffffffffffffffffff16021790555060208201518160010160006101000a81548173ffffffffffffffffffffffffffffffffffffffff021916908373ffffffffffffffffffffffffffffffffffffffff16021790555060408201518160020160006101000a81548173ffffffffffffffffffffffffffffffffffffffff021916908373ffffffffffffffffffffffffffffffffffffffff160217905550606082015181600301559050507fa2f7e907e712d4a209c1edcf720be2ba2b6b369166e415d492994b46c70c094781604051611aee919061456a565b60405180910390a1505050565b600073ffffffffffffffffffffffffffffffffffffffff16816000016020810190611b269190613b0c565b73ffffffffffffffffffffffffffffffffffffffff1603611b7c576040517f08c379a0000000000000000000000000000000000000000000000000000000008152600401611b73906144f5565b60405180910390fd5b600073ffffffffffffffffffffffffffffffffffffffff16816040016020810190611ba79190613b0c565b73ffffffffffffffffffffffffffffffffffffffff1603611bfd576040517f08c379a0000000000000000000000000000000000000000000000000000000008152600401611bf4906145d1565b60405180910390fd5b6000600360008154611c0e906145f1565b919050819055905060006040518060800160405280846000016020810190611c369190613b0c565b73ffffffffffffffffffffffffffffffffffffffff168152602001611c8d604051806040016040528086815260200186604051602001611c769190613628565b6040516020818303038152906040528152506104be565b73ffffffffffffffffffffffffffffffffffffffff168152602001846040016020810190611cbb9190613b0c565b73ffffffffffffffffffffffffffffffffffffffff16815260200184602001358152509050806005600084815260200190815260200160002060008201518160000160006101000a81548173ffffffffffffffffffffffffffffffffffffffff021916908373ffffffffffffffffffffffffffffffffffffffff16021790555060208201518160010160006101000a81548173ffffffffffffffffffffffffffffffffffffffff021916908373ffffffffffffffffffffffffffffffffffffffff16021790555060408201518160020160006101000a81548173ffffffffffffffffffffffffffffffffffffffff021916908373ffffffffffffffffffffffffffffffffffffffff16021790555060608201518160030155905050826040016020810190611de99190613b0c565b73ffffffffffffffffffffffffffffffffffffffff16836000016020810190611e129190613b0c565b73ffffffffffffffffffffffffffffffffffffffff167f77cb97353736f63b852cd0f3c363ae2ea0fc3ac1b67dcbad7f9366cf13eeb75784604051611e579190613628565b60405180910390a36000600167ffffffffffffffff811115611e7c57611e7b613326565b5b604051908082528060200260200182016040528015611eaa5781602001602082028036833780820191505090505b509050836000016020810190611ec09190613b0c565b81600081518110611ed457611ed3614039565b5b602002602001019073ffffffffffffffffffffffffffffffffffffffff16908173ffffffffffffffffffffffffffffffffffffffff1681525050611f53611f4d604051806040016040528086815260200186604051602001611f369190613628565b604051602081830303815290604052815250612412565b8261251b565b50836040016020810190611f679190613b0c565b73ffffffffffffffffffffffffffffffffffffffff1663095ea7b37f00000000000000000000000000000000000000000000000000000000000000007fffffffffffffffffffffffffffffffffffffffffffffffffffffffffffffffff6040518363ffffffff1660e01b8152600401611fe192919061434f565b6020604051808303816000875af1158015612000573d6000803e3d6000fd5b505050506040513d601f19601f8201168201806040525081019061202491906143a4565b5050505050565b7f000000000000000000000000000000000000000000000000000000000000000081565b6120576131f7565b600061206384846126d2565b9050604051806080016040528082600001516fffffffffffffffffffffffffffffffff16815260200182602001516fffffffffffffffffffffffffffffffff168152602001826040015181526020018260600151151581525091505092915050565b7f000000000000000000000000000000000000000000000000000000000000000081565b6120f161240a565b73ffffffffffffffffffffffffffffffffffffffff1661210f6114ad565b73ffffffffffffffffffffffffffffffffffffffff1614612165576040517f08c379a000000000000000000000000000000000000000000000000000000000815260040161215c90613bd6565b60405180910390fd5b600073ffffffffffffffffffffffffffffffffffffffff168173ffffffffffffffffffffffffffffffffffffffff16036121d4576040517f08c379a00000000000000000000000000000000000000000000000000000000081526004016121cb906146ab565b60405180910390fd5b6121dd8161280a565b50565b6000801b8103612225576040517f08c379a000000000000000000000000000000000000000000000000000000000815260040161221c90613f75565b60405180910390fd5b6000600560008481526020019081526020016000206040518060800160405290816000820160009054906101000a900473ffffffffffffffffffffffffffffffffffffffff1673ffffffffffffffffffffffffffffffffffffffff1673ffffffffffffffffffffffffffffffffffffffff1681526020016001820160009054906101000a900473ffffffffffffffffffffffffffffffffffffffff1673ffffffffffffffffffffffffffffffffffffffff1673ffffffffffffffffffffffffffffffffffffffff1681526020016002820160009054906101000a900473ffffffffffffffffffffffffffffffffffffffff1673ffffffffffffffffffffffffffffffffffffffff1673ffffffffffffffffffffffffffffffffffffffff1681526020016003820154815250509050806000015173ffffffffffffffffffffffffffffffffffffffff163373ffffffffffffffffffffffffffffffffffffffff16146123c5576040517f08c379a00000000000000000000000000000000000000000000000000000000081526004016123bc90613dc2565b60405180910390fd5b600083836040516020016123da929190613fa4565b6040516020818303038152906040528051906020012090506123fe600354826128dc565b50505050565b60035481565b600033905090565b600081604051602001612425919061477f565b604051602081830303815290604052805190602001209050919050565b600061244f838330612c8a565b905092915050565b600080600160008481526020019081526020016000206040518060400160405290816000820160009054906101000a90046fffffffffffffffffffffffffffffffff166fffffffffffffffffffffffffffffffff166fffffffffffffffffffffffffffffffff1681526020016000820160109054906101000a90046fffffffffffffffffffffffffffffffff166fffffffffffffffffffffffffffffffff166fffffffffffffffffffffffffffffffff168152505090508060200151915050919050565b60006125477f000000000000000000000000000000000000000000000000000000000000000084612d0a565b9050806006600085815260200190815260200160002060006101000a81548173ffffffffffffffffffffffffffffffffffffffff021916908373ffffffffffffffffffffffffffffffffffffffff1602179055508073ffffffffffffffffffffffffffffffffffffffff1663946d920430846040518363ffffffff1660e01b81526004016125d6929190614850565b600060405180830381600087803b1580156125f057600080fd5b505af1158015612604573d6000803e3d6000fd5b5050505092915050565b600080600160008481526020019081526020016000206040518060400160405290816000820160009054906101000a90046fffffffffffffffffffffffffffffffff166fffffffffffffffffffffffffffffffff166fffffffffffffffffffffffffffffffff1681526020016000820160109054906101000a90046fffffffffffffffffffffffffffffffff166fffffffffffffffffffffffffffffffff166fffffffffffffffffffffffffffffffff168152505090508060000151915050919050565b6126da613248565b6002600084846040516020016126f1929190614880565b6040516020818303038152906040528051906020012081526020019081526020016000206040518060800160405290816000820160009054906101000a90046fffffffffffffffffffffffffffffffff166fffffffffffffffffffffffffffffffff166fffffffffffffffffffffffffffffffff1681526020016000820160109054906101000a90046fffffffffffffffffffffffffffffffff166fffffffffffffffffffffffffffffffff166fffffffffffffffffffffffffffffffff168152602001600182015481526020016002820160009054906101000a900460ff161515151581525050905092915050565b6127f3816127ee8361260e565b612de0565b50565b600061280283836130ad565b905092915050565b60008060009054906101000a900473ffffffffffffffffffffffffffffffffffffffff169050816000806101000a81548173ffffffffffffffffffffffffffffffffffffffff021916908373ffffffffffffffffffffffffffffffffffffffff1602179055508173ffffffffffffffffffffffffffffffffffffffff168173ffffffffffffffffffffffffffffffffffffffff167f8be0079c531659141344cd1fd0a4f28419497f9722a3daafe3b4186f6b6457e060405160405180910390a35050565b6128d88282612de0565b5050565b60006128e78361260e565b905060006128f484612457565b9050600060018261290591906148a9565b90506000836fffffffffffffffffffffffffffffffff1603612925578092505b604051806080016040528060006fffffffffffffffffffffffffffffffff168152602001836fffffffffffffffffffffffffffffffff16815260200185815260200160011515815250600260008784604051602001612985929190614880565b60405160208183030381529060405280519060200120815260200190815260200160002060008201518160000160006101000a8154816fffffffffffffffffffffffffffffffff02191690836fffffffffffffffffffffffffffffffff16021790555060208201518160000160106101000a8154816fffffffffffffffffffffffffffffffff02191690836fffffffffffffffffffffffffffffffff1602179055506040820151816001015560608201518160020160006101000a81548160ff0219169083151502179055509050506000826fffffffffffffffffffffffffffffffff1614612bb6576000612a7a86846126d2565b90506000816020015190506040518060800160405280846fffffffffffffffffffffffffffffffff168152602001826fffffffffffffffffffffffffffffffff16815260200187815260200160011515815250600260008987604051602001612ae4929190614880565b60405160208183030381529060405280519060200120815260200190815260200160002060008201518160000160006101000a8154816fffffffffffffffffffffffffffffffff02191690836fffffffffffffffffffffffffffffffff16021790555060208201518160000160106101000a8154816fffffffffffffffffffffffffffffffff02191690836fffffffffffffffffffffffffffffffff1602179055506040820151816001015560608201518160020160006101000a81548160ff02191690831515021790555090505050505b6040518060400160405280846fffffffffffffffffffffffffffffffff168152602001826fffffffffffffffffffffffffffffffff168152506001600087815260200190815260200160002060008201518160000160006101000a8154816fffffffffffffffffffffffffffffffff02191690836fffffffffffffffffffffffffffffffff16021790555060208201518160000160106101000a8154816fffffffffffffffffffffffffffffffff02191690836fffffffffffffffffffffffffffffffff1602179055509050505050505050565b60006040517f3d602d80600a3d3981f3363d3d373d3d3d363d7300000000000000000000000081528460601b60148201527f5af43d82803e903d91602b57fd5bf3ff0000000000000000000000000000000060288201528260601b603882015283604c82015260378120606c820152605560378201209150509392505050565b60006040517f3d602d80600a3d3981f3363d3d373d3d3d363d7300000000000000000000000081528360601b60148201527f5af43d82803e903d91602b57fd5bf300000000000000000000000000000000006028820152826037826000f5915050600073ffffffffffffffffffffffffffffffffffffffff168173ffffffffffffffffffffffffffffffffffffffff1603612dda576040517f08c379a0000000000000000000000000000000000000000000000000000000008152600401612dd19061493b565b60405180910390fd5b92915050565b6000612deb8361260e565b90506000612df884612457565b905060008484604051602001612e0f929190614880565b6040516020818303038152906040528051906020012090506000612e3386866126d2565b90506000816000015190506000826020015190506000600160008a8152602001908152602001600020905060008390506000839050886fffffffffffffffffffffffffffffffff168a6fffffffffffffffffffffffffffffffff1603612ed35760009150848360000160006101000a8154816fffffffffffffffffffffffffffffffff02191690836fffffffffffffffffffffffffffffffff1602179055505b876fffffffffffffffffffffffffffffffff168a6fffffffffffffffffffffffffffffffff1603612f3e5760009050838360000160106101000a8154816fffffffffffffffffffffffffffffffff02191690836fffffffffffffffffffffffffffffffff1602179055505b81600260008d88604051602001612f56929190614880565b60405160208183030381529060405280519060200120815260200190815260200160002060000160106101000a8154816fffffffffffffffffffffffffffffffff02191690836fffffffffffffffffffffffffffffffff16021790555080600260008d87604051602001612fcb929190614880565b60405160208183030381529060405280519060200120815260200190815260200160002060000160006101000a8154816fffffffffffffffffffffffffffffffff02191690836fffffffffffffffffffffffffffffffff16021790555060026000888152602001908152602001600020600080820160006101000a8154906fffffffffffffffffffffffffffffffff02191690556000820160106101000a8154906fffffffffffffffffffffffffffffffff021916905560018201600090556002820160006101000a81549060ff021916905550505050505050505050505050565b60008060008019848609848602925082811083820303915050670de0b6b3a7640000811061311257806040517fd31b34020000000000000000000000000000000000000000000000000000000081526004016131099190613628565b60405180910390fd5b600080670de0b6b3a764000086880991506706f05b59d3b1ffff821190506000830361315e5780670de0b6b3a764000085816131515761315061495b565b5b04019450505050506131a4565b807faccb18165bd6fe31ae1cf318dc5b51eee0e1ba569b88cd74c1773b91fac1066960016204000080600003040186851186030262040000858803041702019450505050505b92915050565b6040518060600160405280600073ffffffffffffffffffffffffffffffffffffffff168152602001600073ffffffffffffffffffffffffffffffffffffffff168152602001600081525090565b604051806080016040528060006fffffffffffffffffffffffffffffffff16815260200160006fffffffffffffffffffffffffffffffff168152602001600080191681526020016000151581525090565b604051806080016040528060006fffffffffffffffffffffffffffffffff16815260200160006fffffffffffffffffffffffffffffffff168152602001600080191681526020016000151581525090565b6000604051905090565b600080fd5b600080fd5b6000819050919050565b6132c0816132ad565b81146132cb57600080fd5b50565b6000813590506132dd816132b7565b92915050565b6000602082840312156132f9576132f86132a3565b5b6000613307848285016132ce565b91505092915050565b600080fd5b6000601f19601f8301169050919050565b7f4e487b7100000000000000000000000000000000000000000000000000000000600052604160045260246000fd5b61335e82613315565b810181811067ffffffffffffffff8211171561337d5761337c613326565b5b80604052505050565b6000613390613299565b905061339c8282613355565b919050565b600080fd5b600080fd5b600080fd5b600067ffffffffffffffff8211156133cb576133ca613326565b5b6133d482613315565b9050602081019050919050565b82818337600083830152505050565b60006134036133fe846133b0565b613386565b90508281526020810184848401111561341f5761341e6133ab565b5b61342a8482856133e1565b509392505050565b600082601f830112613447576134466133a6565b5b81356134578482602086016133f0565b91505092915050565b60006040828403121561347657613475613310565b5b6134806040613386565b90506000613490848285016132ce565b600083015250602082013567ffffffffffffffff8111156134b4576134b36133a1565b5b6134c084828501613432565b60208301525092915050565b6000602082840312156134e2576134e16132a3565b5b600082013567ffffffffffffffff811115613500576134ff6132a8565b5b61350c84828501613460565b91505092915050565b600073ffffffffffffffffffffffffffffffffffffffff82169050919050565b600061354082613515565b9050919050565b61355081613535565b82525050565b600060208201905061356b6000830184613547565b92915050565b6000819050919050565b61358481613571565b811461358f57600080fd5b50565b6000813590506135a18161357b565b92915050565b6000602082840312156135bd576135bc6132a3565b5b60006135cb84828501613592565b91505092915050565b6135dd816132ad565b82525050565b60006080820190506135f86000830187613547565b6136056020830186613547565b6136126040830185613547565b61361f60608301846135d4565b95945050505050565b600060208201905061363d60008301846135d4565b92915050565b60006fffffffffffffffffffffffffffffffff82169050919050565b61366881613643565b82525050565b6000602082019050613683600083018461365f565b92915050565b600080fd5b6000604082840312156136a4576136a3613689565b5b81905092915050565b600080fd5b600080fd5b60008083601f8401126136cd576136cc6133a6565b5b8235905067ffffffffffffffff8111156136ea576136e96136ad565b5b602083019150836020820283011115613706576137056136b2565b5b9250929050565b600080600060408486031215613726576137256132a3565b5b600084013567ffffffffffffffff811115613744576137436132a8565b5b6137508682870161368e565b935050602084013567ffffffffffffffff811115613771576137706132a8565b5b61377d868287016136b7565b92509250509250925092565b60006060828403121561379f5761379e613689565b5b81905092915050565b600080600060a084860312156137c1576137c06132a3565b5b600084013567ffffffffffffffff8111156137df576137de6132a8565b5b6137eb8682870161368e565b93505060206137fc86828701613789565b925050608061380d86828701613592565b9150509250925092565b61382081613643565b811461382b57600080fd5b50565b60008135905061383d81613817565b92915050565b60008060006060848603121561385c5761385b6132a3565b5b600061386a868287016132ce565b935050602061387b86828701613592565b925050604061388c8682870161382e565b9150509250925092565b6000604082840312156138ac576138ab613689565b5b81905092915050565b600080606083850312156138cc576138cb6132a3565b5b60006138da858286016132ce565b92505060206138eb85828601613896565b9150509250929050565b60006060828403121561390b5761390a613689565b5b81905092915050565b60006060828403121561392a576139296132a3565b5b6000613938848285016138f5565b91505092915050565b6000819050919050565b600061396661396161395c84613515565b613941565b613515565b9050919050565b60006139788261394b565b9050919050565b600061398a8261396d565b9050919050565b61399a8161397f565b82525050565b60006020820190506139b56000830184613991565b92915050565b600080604083850312156139d2576139d16132a3565b5b60006139e0858286016132ce565b92505060206139f18582860161382e565b9150509250929050565b613a0481613643565b82525050565b613a1381613571565b82525050565b60008115159050919050565b613a2e81613a19565b82525050565b608082016000820151613a4a60008501826139fb565b506020820151613a5d60208501826139fb565b506040820151613a706040850182613a0a565b506060820151613a836060850182613a25565b50505050565b6000608082019050613a9e6000830184613a34565b92915050565b6000613aaf8261396d565b9050919050565b613abf81613aa4565b82525050565b6000602082019050613ada6000830184613ab6565b92915050565b613ae981613535565b8114613af457600080fd5b50565b600081359050613b0681613ae0565b92915050565b600060208284031215613b2257613b216132a3565b5b6000613b3084828501613af7565b91505092915050565b60008060408385031215613b5057613b4f6132a3565b5b6000613b5e858286016132ce565b9250506020613b6f85828601613592565b9150509250929050565b600082825260208201905092915050565b7f4f776e61626c653a2063616c6c6572206973206e6f7420746865206f776e6572600082015250565b6000613bc0602083613b79565b9150613bcb82613b8a565b602082019050919050565b60006020820190508181036000830152613bef81613bb3565b9050919050565b6000604082019050613c0b60008301856135d4565b613c1860208301846135d4565b9392505050565b6000613c2b3683613460565b9050919050565b7f616c7265616479206465706c6f79656400000000000000000000000000000000600082015250565b6000613c68601083613b79565b9150613c7382613c32565b602082019050919050565b60006020820190508181036000830152613c9781613c5b565b9050919050565b7f696e76616c6964206f776e657273000000000000000000000000000000000000600082015250565b6000613cd4600e83613b79565b9150613cdf82613c9e565b602082019050919050565b60006020820190508181036000830152613d0381613cc7565b9050919050565b7f696e76616c696420636175736500000000000000000000000000000000000000600082015250565b6000613d40600d83613b79565b9150613d4b82613d0a565b602082019050919050565b60006020820190508181036000830152613d6f81613d33565b9050919050565b7f756e617574686f72697a65640000000000000000000000000000000000000000600082015250565b6000613dac600c83613b79565b9150613db782613d76565b602082019050919050565b60006020820190508181036000830152613ddb81613d9f565b9050919050565b6000613df160208401846132ce565b905092915050565b613e02816132ad565b82525050565b600080fd5b600080fd5b600080fd5b60008083356001602003843603038112613e3457613e33613e12565b5b83810192508235915060208301925067ffffffffffffffff821115613e5c57613e5b613e08565b5b600182023603841315613e7257613e71613e0d565b5b509250929050565b600082825260208201905092915050565b6000613e978385613e7a565b9350613ea48385846133e1565b613ead83613315565b840190509392505050565b600060408301613ecb6000840184613de2565b613ed86000860182613df9565b50613ee66020840184613e17565b8583036020870152613ef9838284613e8b565b925050508091505092915050565b60006020820190508181036000830152613f218184613eb8565b905092915050565b7f696e76616c69642070726f706f73616c20696400000000000000000000000000600082015250565b6000613f5f601383613b79565b9150613f6a82613f29565b602082019050919050565b60006020820190508181036000830152613f8e81613f52565b9050919050565b613f9e81613571565b82525050565b6000604082019050613fb960008301856135d4565b613fc66020830184613f95565b9392505050565b7f6e6f742068656164206f66207175657565000000000000000000000000000000600082015250565b6000614003601183613b79565b915061400e82613fcd565b602082019050919050565b6000602082019050818103600083015261403281613ff6565b9050919050565b7f4e487b7100000000000000000000000000000000000000000000000000000000600052603260045260246000fd5b60006140776020840184613af7565b905092915050565b61408881613535565b82525050565b6060820161409f6000830183614068565b6140ac600085018261407f565b506140ba6020830183614068565b6140c7602085018261407f565b506140d56040830183613de2565b6140e26040850182613df9565b50505050565b600060808201905081810360008301526141028185613eb8565b9050614111602083018461408e565b9392505050565b7f4e487b7100000000000000000000000000000000000000000000000000000000600052601160045260246000fd5b6000614152826132ad565b915061415d836132ad565b9250827fffffffffffffffffffffffffffffffffffffffffffffffffffffffffffffffff0382111561419257614191614118565b5b828201905092915050565b60006141a8826132ad565b91506141b3836132ad565b9250828210156141c6576141c5614118565b5b828203905092915050565b600081519050919050565b600082825260208201905092915050565b6000819050602082019050919050565b606082016000820151614213600085018261407f565b506020820151614226602085018261407f565b5060408201516142396040850182613df9565b50505050565b600061424b83836141fd565b60608301905092915050565b6000602082019050919050565b600061426f826141d1565b61427981856141dc565b9350614284836141ed565b8060005b838110156142b557815161429c888261423f565b97506142a783614257565b925050600181019050614288565b5085935050505092915050565b600060208201905081810360008301526142dc8184614264565b905092915050565b60006142ef82613535565b9050919050565b6142ff816142e4565b811461430a57600080fd5b50565b60008151905061431c816142f6565b92915050565b600060208284031215614338576143376132a3565b5b60006143468482850161430d565b91505092915050565b60006040820190506143646000830185613547565b61437160208301846135d4565b9392505050565b61438181613a19565b811461438c57600080fd5b50565b60008151905061439e81614378565b92915050565b6000602082840312156143ba576143b96132a3565b5b60006143c88482850161438f565b91505092915050565b7f696420646f6573206e6f74206d6174636820696e646578206974656d00000000600082015250565b6000614407601c83613b79565b9150614412826143d1565b602082019050919050565b60006020820190508181036000830152614436816143fa565b9050919050565b7f6e6f7420617574686f72697a6564000000000000000000000000000000000000600082015250565b6000614473600e83613b79565b915061447e8261443d565b602082019050919050565b600060208201905081810360008301526144a281614466565b9050919050565b7f696e76616c6964206f776e657200000000000000000000000000000000000000600082015250565b60006144df600d83613b79565b91506144ea826144a9565b602082019050919050565b6000602082019050818103600083015261450e816144d2565b9050919050565b60808201600082015161452b600085018261407f565b50602082015161453e602085018261407f565b506040820151614551604085018261407f565b5060608201516145646060850182613df9565b50505050565b600060808201905061457f6000830184614515565b92915050565b7f696e76616c696420746f6b656e00000000000000000000000000000000000000600082015250565b60006145bb600d83613b79565b91506145c682614585565b602082019050919050565b600060208201905081810360008301526145ea816145ae565b9050919050565b60006145fc826132ad565b91507fffffffffffffffffffffffffffffffffffffffffffffffffffffffffffffffff820361462e5761462d614118565b5b600182019050919050565b7f4f776e61626c653a206e6577206f776e657220697320746865207a65726f206160008201527f6464726573730000000000000000000000000000000000000000000000000000602082015250565b6000614695602683613b79565b91506146a082614639565b604082019050919050565b600060208201905081810360008301526146c481614688565b9050919050565b600081519050919050565b60005b838110156146f45780820151818401526020810190506146d9565b83811115614703576000848401525b50505050565b6000614714826146cb565b61471e8185613e7a565b935061472e8185602086016146d6565b61473781613315565b840191505092915050565b600060408301600083015161475a6000860182613df9565b50602083015184820360208601526147728282614709565b9150508091505092915050565b600060208201905081810360008301526147998184614742565b905092915050565b600081519050919050565b600082825260208201905092915050565b6000819050602082019050919050565b60006147d9838361407f565b60208301905092915050565b6000602082019050919050565b60006147fd826147a1565b61480781856147ac565b9350614812836147bd565b8060005b8381101561484357815161482a88826147cd565b9750614835836147e5565b925050600181019050614816565b5085935050505092915050565b60006040820190506148656000830185613547565b818103602083015261487781846147f2565b90509392505050565b600060408201905061489560008301856135d4565b6148a2602083018461365f565b9392505050565b60006148b482613643565b91506148bf83613643565b9250826fffffffffffffffffffffffffffffffff038211156148e4576148e3614118565b5b828201905092915050565b7f455243313136373a2063726561746532206661696c6564000000000000000000600082015250565b6000614925601783613b79565b9150614930826148ef565b602082019050919050565b6000602082019050818103600083015261495481614918565b9050919050565b7f4e487b7100000000000000000000000000000000000000000000000000000000600052601260045260246000fdfea264697066735822122057cd0329fc5e69dbf577655a0c4df2b691bd45523360b49386ec9ac91886821264736f6c634300080d0033",
  "devdoc": {
    "kind": "dev",
    "methods": {
      "addToQueue(uint256,bytes32)": {
        "params": {
          "_causeId": "The cause id",
          "_proposalId": "The proposal id"
        }
      },
      "calculateThinWallet((uint256,bytes))": {
        "params": {
          "_walletId": "The wallet parameters to calculate the address from"
        }
      },
      "getFirstInQueue(uint256)": {
        "params": {
          "_causeId": "The cause id"
        }
      },
      "getLastInQueue(uint256)": {
        "params": {
          "_causeId": "The cause id"
        }
      },
      "getQueueAtIndex(uint256,uint128)": {
        "params": {
          "_causeId": "The cause id",
          "_index": "The queue index"
        }
      },
      "owner()": {
        "details": "Returns the address of the current owner."
      },
      "registerCause((address,uint256,address))": {
        "details": "This should be an open function",
        "params": {
          "_cause": "The cause to be registered"
        }
      },
      "registerThinWallet((uint256,bytes),address[])": {
        "params": {
          "_owners": "The wallet owners to set. These accounts can transfer funds, so they should be limited",
          "_walletId": "The wallet parameters"
        }
      },
      "removeFromQueue(uint256,bytes32,uint128)": {
        "params": {
          "_causeId": "The cause id",
          "_index": "The queue index",
          "_proposalId": "The proposal id"
        }
      },
      "renounceOwnership()": {
        "details": "Leaves the contract without owner. It will not be possible to call `onlyOwner` functions anymore. Can only be called by the current owner. NOTE: Renouncing ownership will leave the contract without an owner, thereby removing any functionality that is only available to the owner."
      },
      "setPlatformFee(uint256)": {
        "details": "Only the platform owner should be able to call this",
        "params": {
          "_fee": "The new platform fee"
        }
      },
      "transferOwnership(address)": {
        "details": "Transfers ownership of the contract to a new account (`newOwner`). Can only be called by the current owner."
      },
      "updateCause(uint256,(address,uint256))": {
        "details": "Can only be called by the current owner of the cause",
        "params": {
          "_cause": "The new details of the cause",
          "_causeId": "The cause to update"
        }
      },
      "withdrawFromThinWallet((uint256,bytes),(address,address,uint256),bytes32)": {
        "params": {
          "_walletId": "The wallet address parameters",
          "_withdrawal": "An array of withdrawal requests for the wallet to process"
        }
      }
    },
    "version": 1
  },
  "userdoc": {
    "errors": {
      "PRBMath__MulDivFixedPointOverflow(uint256)": [
        {
          "notice": "Emitted when the result overflows uint256."
        }
      ]
    },
    "events": {
      "RegisterCause(address,address,uint256)": {
        "notice": "### Events"
      }
    },
    "kind": "user",
    "methods": {
      "addToQueue(uint256,bytes32)": {
        "notice": "Adds a queue which is linked to a unique identifier using the hash of combined causeID and proposalID"
      },
      "baseToken()": {
        "notice": "### Autogenerated getters"
      },
      "calculateThinWallet((uint256,bytes))": {
        "notice": "Calculates the address that a given thin wallet is or will be deployed to"
      },
      "causeRecords(uint256)": {
        "notice": "Cause ID => Cause record"
      },
      "deployedWallets(bytes32)": {
        "notice": "Thin wallet salt => thin wallet address"
      },
      "getFirstInQueue(uint256)": {
        "notice": "Gets first item in queue"
      },
      "getLastInQueue(uint256)": {
        "notice": "Gets last item in queue"
      },
      "getQueueAtIndex(uint256,uint128)": {
        "notice": "Gets queue item at specific index"
      },
      "registerCause((address,uint256,address))": {
        "notice": "Creates a cause so that it can start using thin wallets that it controls"
      },
      "registerThinWallet((uint256,bytes),address[])": {
        "notice": "Deploys a thin wallet to the address derived from the parameters given"
      },
      "removeFromQueue(uint256,bytes32,uint128)": {
        "notice": "Removes a queue arbitrarily at specified index"
      },
      "setPlatformFee(uint256)": {
        "notice": "Allows the platform owner to set the platform fee"
      },
      "updateCause(uint256,(address,uint256))": {
        "notice": "Updates a cause"
      },
      "withdrawFromThinWallet((uint256,bytes),(address,address,uint256),bytes32)": {
        "notice": "Withdraws funds from the specified thin wallet"
      }
    },
    "version": 1
  },
  "storageLayout": {
    "storage": [
      {
        "astId": 6934,
        "contract": "contracts/implementations/DonationsRouter.sol:DonationsRouter",
        "label": "_owner",
        "offset": 0,
        "slot": "0",
        "type": "t_address"
      },
      {
        "astId": 13508,
        "contract": "contracts/implementations/DonationsRouter.sol:DonationsRouter",
        "label": "queueManagers",
        "offset": 0,
        "slot": "1",
        "type": "t_mapping(t_uint256,t_struct(QueueManager)13494_storage)"
      },
      {
        "astId": 13513,
        "contract": "contracts/implementations/DonationsRouter.sol:DonationsRouter",
        "label": "queueItems",
        "offset": 0,
        "slot": "2",
        "type": "t_mapping(t_bytes32,t_struct(QueueItem)13503_storage)"
      },
      {
        "astId": 11967,
        "contract": "contracts/implementations/DonationsRouter.sol:DonationsRouter",
        "label": "causeId",
        "offset": 0,
        "slot": "3",
        "type": "t_uint256"
      },
      {
        "astId": 11970,
        "contract": "contracts/implementations/DonationsRouter.sol:DonationsRouter",
        "label": "platformFee",
        "offset": 0,
        "slot": "4",
        "type": "t_uint256"
      },
      {
        "astId": 11977,
        "contract": "contracts/implementations/DonationsRouter.sol:DonationsRouter",
        "label": "causeRecords",
        "offset": 0,
        "slot": "5",
        "type": "t_mapping(t_uint256,t_struct(CauseRecord)15399_storage)"
      },
      {
        "astId": 11983,
        "contract": "contracts/implementations/DonationsRouter.sol:DonationsRouter",
        "label": "deployedWallets",
        "offset": 0,
        "slot": "6",
        "type": "t_mapping(t_bytes32,t_address)"
      }
    ],
    "types": {
      "t_address": {
        "encoding": "inplace",
        "label": "address",
        "numberOfBytes": "20"
      },
      "t_bool": {
        "encoding": "inplace",
        "label": "bool",
        "numberOfBytes": "1"
      },
      "t_bytes32": {
        "encoding": "inplace",
        "label": "bytes32",
        "numberOfBytes": "32"
      },
      "t_mapping(t_bytes32,t_address)": {
        "encoding": "mapping",
        "key": "t_bytes32",
        "label": "mapping(bytes32 => address)",
        "numberOfBytes": "32",
        "value": "t_address"
      },
      "t_mapping(t_bytes32,t_struct(QueueItem)13503_storage)": {
        "encoding": "mapping",
        "key": "t_bytes32",
        "label": "mapping(bytes32 => struct Queue.QueueItem)",
        "numberOfBytes": "32",
        "value": "t_struct(QueueItem)13503_storage"
      },
      "t_mapping(t_uint256,t_struct(CauseRecord)15399_storage)": {
        "encoding": "mapping",
        "key": "t_uint256",
        "label": "mapping(uint256 => struct IDonationsRouter.CauseRecord)",
        "numberOfBytes": "32",
        "value": "t_struct(CauseRecord)15399_storage"
      },
      "t_mapping(t_uint256,t_struct(QueueManager)13494_storage)": {
        "encoding": "mapping",
        "key": "t_uint256",
        "label": "mapping(uint256 => struct Queue.QueueManager)",
        "numberOfBytes": "32",
        "value": "t_struct(QueueManager)13494_storage"
      },
      "t_struct(CauseRecord)15399_storage": {
        "encoding": "inplace",
        "label": "struct IDonationsRouter.CauseRecord",
        "members": [
          {
            "astId": 15391,
            "contract": "contracts/implementations/DonationsRouter.sol:DonationsRouter",
            "label": "owner",
            "offset": 0,
            "slot": "0",
            "type": "t_address"
          },
          {
            "astId": 15393,
            "contract": "contracts/implementations/DonationsRouter.sol:DonationsRouter",
            "label": "defaultWallet",
            "offset": 0,
            "slot": "1",
            "type": "t_address"
          },
          {
            "astId": 15396,
            "contract": "contracts/implementations/DonationsRouter.sol:DonationsRouter",
            "label": "daoToken",
            "offset": 0,
            "slot": "2",
            "type": "t_address"
          },
          {
            "astId": 15398,
            "contract": "contracts/implementations/DonationsRouter.sol:DonationsRouter",
            "label": "rewardPercentage",
            "offset": 0,
            "slot": "3",
            "type": "t_uint256"
          }
        ],
        "numberOfBytes": "128"
      },
      "t_struct(QueueItem)13503_storage": {
        "encoding": "inplace",
        "label": "struct Queue.QueueItem",
        "members": [
          {
            "astId": 13496,
            "contract": "contracts/implementations/DonationsRouter.sol:DonationsRouter",
            "label": "next",
            "offset": 0,
            "slot": "0",
            "type": "t_uint128"
          },
          {
            "astId": 13498,
            "contract": "contracts/implementations/DonationsRouter.sol:DonationsRouter",
            "label": "previous",
            "offset": 16,
            "slot": "0",
            "type": "t_uint128"
          },
          {
            "astId": 13500,
            "contract": "contracts/implementations/DonationsRouter.sol:DonationsRouter",
            "label": "id",
            "offset": 0,
            "slot": "1",
            "type": "t_bytes32"
          },
          {
            "astId": 13502,
            "contract": "contracts/implementations/DonationsRouter.sol:DonationsRouter",
            "label": "isUnclaimed",
            "offset": 0,
            "slot": "2",
            "type": "t_bool"
          }
        ],
        "numberOfBytes": "96"
      },
      "t_struct(QueueManager)13494_storage": {
        "encoding": "inplace",
        "label": "struct Queue.QueueManager",
        "members": [
          {
            "astId": 13491,
            "contract": "contracts/implementations/DonationsRouter.sol:DonationsRouter",
            "label": "front",
            "offset": 0,
            "slot": "0",
            "type": "t_uint128"
          },
          {
            "astId": 13493,
            "contract": "contracts/implementations/DonationsRouter.sol:DonationsRouter",
            "label": "back",
            "offset": 16,
            "slot": "0",
            "type": "t_uint128"
          }
        ],
        "numberOfBytes": "32"
      },
      "t_uint128": {
        "encoding": "inplace",
        "label": "uint128",
        "numberOfBytes": "16"
      },
      "t_uint256": {
        "encoding": "inplace",
        "label": "uint256",
        "numberOfBytes": "32"
      }
    }
  }
}