{
  "address": "0xeA890c94c884Cfb91506C4920D6156a4BF6420b1",
  "abi": [
    {
      "inputs": [
        {
          "internalType": "address",
          "name": "_baseToken",
          "type": "address"
        },
        {
          "internalType": "address",
          "name": "_stakingContract",
          "type": "address"
        },
        {
          "internalType": "address",
          "name": "_owner",
          "type": "address"
        },
        {
          "internalType": "address",
          "name": "_walletImplementation",
          "type": "address"
        }
      ],
      "stateMutability": "nonpayable",
      "type": "constructor"
    },
    {
      "inputs": [
        {
          "internalType": "uint256",
          "name": "prod1",
          "type": "uint256"
        }
      ],
      "name": "PRBMath__MulDivFixedPointOverflow",
      "type": "error"
    },
    {
      "anonymous": false,
      "inputs": [
        {
          "indexed": true,
          "internalType": "address",
          "name": "previousOwner",
          "type": "address"
        },
        {
          "indexed": true,
          "internalType": "address",
          "name": "newOwner",
          "type": "address"
        }
      ],
      "name": "OwnershipTransferred",
      "type": "event"
    },
    {
      "anonymous": false,
      "inputs": [
        {
          "components": [
            {
              "internalType": "address",
              "name": "owner",
              "type": "address"
            },
            {
              "internalType": "address",
              "name": "defaultWallet",
              "type": "address"
            },
            {
              "internalType": "address",
              "name": "daoToken",
              "type": "address"
            },
            {
              "internalType": "uint256",
              "name": "rewardPercentage",
              "type": "uint256"
            }
          ],
          "indexed": false,
          "internalType": "struct IDonationsRouter.CauseRecord",
          "name": "cause",
          "type": "tuple"
        }
      ],
      "name": "RegisterCause",
      "type": "event"
    },
    {
      "anonymous": false,
      "inputs": [
        {
          "indexed": true,
          "internalType": "address",
          "name": "walletAddress",
          "type": "address"
        },
        {
          "components": [
            {
              "internalType": "uint256",
              "name": "causeId",
              "type": "uint256"
            },
            {
              "internalType": "bytes",
              "name": "thinWalletId",
              "type": "bytes"
            }
          ],
          "indexed": false,
          "internalType": "struct IDonationsRouter.ThinWalletID",
          "name": "walletId",
          "type": "tuple"
        }
      ],
      "name": "RegisterWallet",
      "type": "event"
    },
    {
      "anonymous": false,
      "inputs": [
        {
          "components": [
            {
              "internalType": "address",
              "name": "owner",
              "type": "address"
            },
            {
              "internalType": "address",
              "name": "defaultWallet",
              "type": "address"
            },
            {
              "internalType": "address",
              "name": "daoToken",
              "type": "address"
            },
            {
              "internalType": "uint256",
              "name": "rewardPercentage",
              "type": "uint256"
            }
          ],
          "indexed": false,
          "internalType": "struct IDonationsRouter.CauseRecord",
          "name": "cause",
          "type": "tuple"
        }
      ],
      "name": "UpdateCause",
      "type": "event"
    },
    {
      "anonymous": false,
      "inputs": [
        {
          "indexed": false,
          "internalType": "uint256",
          "name": "oldFee",
          "type": "uint256"
        },
        {
          "indexed": false,
          "internalType": "uint256",
          "name": "newFee",
          "type": "uint256"
        }
      ],
      "name": "UpdateFee",
      "type": "event"
    },
    {
      "anonymous": false,
      "inputs": [
        {
          "indexed": true,
          "internalType": "address",
          "name": "oldRewardAddress",
          "type": "address"
        },
        {
          "indexed": true,
          "internalType": "address",
          "name": "newAddress",
          "type": "address"
        }
      ],
      "name": "UpdateRewardAddress",
      "type": "event"
    },
    {
      "anonymous": false,
      "inputs": [
        {
          "components": [
            {
              "internalType": "uint256",
              "name": "causeId",
              "type": "uint256"
            },
            {
              "internalType": "bytes",
              "name": "thinWalletId",
              "type": "bytes"
            }
          ],
          "indexed": false,
          "internalType": "struct IDonationsRouter.ThinWalletID",
          "name": "wallet",
          "type": "tuple"
        },
        {
          "components": [
            {
              "internalType": "address",
              "name": "token",
              "type": "address"
            },
            {
              "internalType": "address",
              "name": "recipient",
              "type": "address"
            },
            {
              "internalType": "uint256",
              "name": "amount",
              "type": "uint256"
            }
          ],
          "indexed": false,
          "internalType": "struct IDonationsRouter.WithdrawalRequest",
          "name": "request",
          "type": "tuple"
        }
      ],
      "name": "WithdrawFromWallet",
      "type": "event"
    },
    {
      "inputs": [],
      "name": "baseToken",
      "outputs": [
        {
          "internalType": "contract ERC20",
          "name": "",
          "type": "address"
        }
      ],
      "stateMutability": "view",
      "type": "function"
    },
    {
      "inputs": [
        {
          "components": [
            {
              "internalType": "uint256",
              "name": "causeId",
              "type": "uint256"
            },
            {
              "internalType": "bytes",
              "name": "thinWalletId",
              "type": "bytes"
            }
          ],
          "internalType": "struct IDonationsRouter.ThinWalletID",
          "name": "_walletId",
          "type": "tuple"
        }
      ],
      "name": "calculateThinWallet",
      "outputs": [
        {
          "internalType": "address",
          "name": "wallet",
          "type": "address"
        }
      ],
      "stateMutability": "view",
      "type": "function"
    },
    {
      "inputs": [],
      "name": "causeId",
      "outputs": [
        {
          "internalType": "uint256",
          "name": "",
          "type": "uint256"
        }
      ],
      "stateMutability": "view",
      "type": "function"
    },
    {
      "inputs": [
        {
          "internalType": "uint256",
          "name": "",
          "type": "uint256"
        }
      ],
      "name": "causeRecords",
      "outputs": [
        {
          "internalType": "address",
          "name": "owner",
          "type": "address"
        },
        {
          "internalType": "address",
          "name": "defaultWallet",
          "type": "address"
        },
        {
          "internalType": "address",
          "name": "daoToken",
          "type": "address"
        },
        {
          "internalType": "uint256",
          "name": "rewardPercentage",
          "type": "uint256"
        }
      ],
      "stateMutability": "view",
      "type": "function"
    },
    {
      "inputs": [
        {
          "internalType": "bytes32",
          "name": "",
          "type": "bytes32"
        }
      ],
      "name": "deployedWallets",
      "outputs": [
        {
          "internalType": "address",
          "name": "",
          "type": "address"
        }
      ],
      "stateMutability": "view",
      "type": "function"
    },
    {
      "inputs": [],
      "name": "owner",
      "outputs": [
        {
          "internalType": "address",
          "name": "",
          "type": "address"
        }
      ],
      "stateMutability": "view",
      "type": "function"
    },
    {
      "inputs": [],
      "name": "platformFee",
      "outputs": [
        {
          "internalType": "uint256",
          "name": "",
          "type": "uint256"
        }
      ],
      "stateMutability": "view",
      "type": "function"
    },
    {
      "inputs": [
        {
          "components": [
            {
              "internalType": "address",
              "name": "owner",
              "type": "address"
            },
            {
              "internalType": "uint256",
              "name": "rewardPercentage",
              "type": "uint256"
            },
            {
              "internalType": "address",
              "name": "daoToken",
              "type": "address"
            }
          ],
          "internalType": "struct IDonationsRouter.CauseRegistrationRequest",
          "name": "_cause",
          "type": "tuple"
        }
      ],
      "name": "registerCause",
      "outputs": [],
      "stateMutability": "nonpayable",
      "type": "function"
    },
    {
      "inputs": [
        {
          "components": [
            {
              "internalType": "uint256",
              "name": "causeId",
              "type": "uint256"
            },
            {
              "internalType": "bytes",
              "name": "thinWalletId",
              "type": "bytes"
            }
          ],
          "internalType": "struct IDonationsRouter.ThinWalletID",
          "name": "_walletId",
          "type": "tuple"
        },
        {
          "internalType": "address[]",
          "name": "_owners",
          "type": "address[]"
        }
      ],
      "name": "registerThinWallet",
      "outputs": [],
      "stateMutability": "nonpayable",
      "type": "function"
    },
    {
      "inputs": [],
      "name": "renounceOwnership",
      "outputs": [],
      "stateMutability": "nonpayable",
      "type": "function"
    },
    {
      "inputs": [
        {
          "internalType": "uint256",
          "name": "_fee",
          "type": "uint256"
        }
      ],
      "name": "setPlatformFee",
      "outputs": [],
      "stateMutability": "nonpayable",
      "type": "function"
    },
    {
      "inputs": [],
      "name": "stakingContract",
      "outputs": [
        {
          "internalType": "contract IStakingRewards",
          "name": "",
          "type": "address"
        }
      ],
      "stateMutability": "view",
      "type": "function"
    },
    {
      "inputs": [
        {
          "internalType": "address",
          "name": "newOwner",
          "type": "address"
        }
      ],
      "name": "transferOwnership",
      "outputs": [],
      "stateMutability": "nonpayable",
      "type": "function"
    },
    {
      "inputs": [
        {
          "internalType": "uint256",
          "name": "_causeId",
          "type": "uint256"
        },
        {
          "components": [
            {
              "internalType": "address",
              "name": "owner",
              "type": "address"
            },
            {
              "internalType": "uint256",
              "name": "rewardPercentage",
              "type": "uint256"
            },
            {
              "internalType": "address",
              "name": "daoToken",
              "type": "address"
            }
          ],
          "internalType": "struct IDonationsRouter.CauseRegistrationRequest",
          "name": "_cause",
          "type": "tuple"
        }
      ],
      "name": "updateCause",
      "outputs": [],
      "stateMutability": "nonpayable",
      "type": "function"
    },
    {
      "inputs": [],
      "name": "walletImplementation",
      "outputs": [
        {
          "internalType": "address",
          "name": "",
          "type": "address"
        }
      ],
      "stateMutability": "view",
      "type": "function"
    },
    {
      "inputs": [
        {
          "components": [
            {
              "internalType": "uint256",
              "name": "causeId",
              "type": "uint256"
            },
            {
              "internalType": "bytes",
              "name": "thinWalletId",
              "type": "bytes"
            }
          ],
          "internalType": "struct IDonationsRouter.ThinWalletID",
          "name": "_walletId",
          "type": "tuple"
        },
        {
          "components": [
            {
              "internalType": "address",
              "name": "token",
              "type": "address"
            },
            {
              "internalType": "address",
              "name": "recipient",
              "type": "address"
            },
            {
              "internalType": "uint256",
              "name": "amount",
              "type": "uint256"
            }
          ],
          "internalType": "struct IDonationsRouter.WithdrawalRequest",
          "name": "_withdrawal",
          "type": "tuple"
        }
      ],
      "name": "withdrawFromThinWallet",
      "outputs": [],
      "stateMutability": "nonpayable",
      "type": "function"
    }
  ],
  "transactionHash": "0x029b7d93491c3d5dc00a734886fdb601aa38032456da73ea7cc34bd9b888a12a",
  "args": [
    "0xd11Dd8a141cdb2FD1d464DAb18C43238e4ccaDc1",
    "0x351e9c4de57a1854397E97Df909Ea0b3D7cbd219",
    "0x5f8DAE75066f48554A8Ed9304E0351D72e3dc1Ba",
    "0x906d76E49F218638FE30e791e50A5E6F1E8fefaA"
  ],
  "numDeployments": 1,
  "solcInputHash": "826add05236a51c6d2cdd01b52ebf0a6",
  "bytecode": "0x60e06040523480156200001157600080fd5b5060405162003d5e38038062003d5e83398181016040528101906200003791906200040c565b620000576200004b620002d660201b60201c565b620002de60201b60201c565b600073ffffffffffffffffffffffffffffffffffffffff168473ffffffffffffffffffffffffffffffffffffffff1603620000c9576040517f08c379a0000000000000000000000000000000000000000000000000000000008152600401620000c090620004df565b60405180910390fd5b600073ffffffffffffffffffffffffffffffffffffffff168373ffffffffffffffffffffffffffffffffffffffff16036200013b576040517f08c379a0000000000000000000000000000000000000000000000000000000008152600401620001329062000551565b60405180910390fd5b600073ffffffffffffffffffffffffffffffffffffffff168273ffffffffffffffffffffffffffffffffffffffff1603620001ad576040517f08c379a0000000000000000000000000000000000000000000000000000000008152600401620001a490620005c3565b60405180910390fd5b600073ffffffffffffffffffffffffffffffffffffffff168173ffffffffffffffffffffffffffffffffffffffff16036200021f576040517f08c379a0000000000000000000000000000000000000000000000000000000008152600401620002169062000635565b60405180910390fd5b8373ffffffffffffffffffffffffffffffffffffffff1660808173ffffffffffffffffffffffffffffffffffffffff16815250508273ffffffffffffffffffffffffffffffffffffffff1660a08173ffffffffffffffffffffffffffffffffffffffff16815250508073ffffffffffffffffffffffffffffffffffffffff1660c08173ffffffffffffffffffffffffffffffffffffffff1681525050620002cc82620002de60201b60201c565b5050505062000657565b600033905090565b60008060009054906101000a900473ffffffffffffffffffffffffffffffffffffffff169050816000806101000a81548173ffffffffffffffffffffffffffffffffffffffff021916908373ffffffffffffffffffffffffffffffffffffffff1602179055508173ffffffffffffffffffffffffffffffffffffffff168173ffffffffffffffffffffffffffffffffffffffff167f8be0079c531659141344cd1fd0a4f28419497f9722a3daafe3b4186f6b6457e060405160405180910390a35050565b600080fd5b600073ffffffffffffffffffffffffffffffffffffffff82169050919050565b6000620003d482620003a7565b9050919050565b620003e681620003c7565b8114620003f257600080fd5b50565b6000815190506200040681620003db565b92915050565b60008060008060808587031215620004295762000428620003a2565b5b60006200043987828801620003f5565b94505060206200044c87828801620003f5565b93505060406200045f87828801620003f5565b92505060606200047287828801620003f5565b91505092959194509250565b600082825260208201905092915050565b7f696e76616c6964206261736520746f6b656e0000000000000000000000000000600082015250565b6000620004c76012836200047e565b9150620004d4826200048f565b602082019050919050565b60006020820190508181036000830152620004fa81620004b8565b9050919050565b7f696e76616c6964207374616b696e6720636f6e74726163740000000000000000600082015250565b6000620005396018836200047e565b9150620005468262000501565b602082019050919050565b600060208201905081810360008301526200056c816200052a565b9050919050565b7f696e76616c6964206f776e657200000000000000000000000000000000000000600082015250565b6000620005ab600d836200047e565b9150620005b88262000573565b602082019050919050565b60006020820190508181036000830152620005de816200059c565b9050919050565b7f696e76616c696420696d706c656d656e746174696f6e00000000000000000000600082015250565b60006200061d6016836200047e565b91506200062a82620005e5565b602082019050919050565b6000602082019050818103600083015262000650816200060e565b9050919050565b60805160a05160c05161369f620006bf600039600081816103c6015281816118510152611f130152600081816109f7015281816114b901528181611563015281816115e601528181611cd30152611da00152600081816111ec0152611d7c015261369f6000f3fe608060405234801561001057600080fd5b50600436106101005760003560e01c8063715018a611610097578063c55dae6311610066578063c55dae6314610288578063ee99205c146102a6578063f2fde38b146102c4578063fecedb16146102e057610100565b8063715018a6146102265780638117abc1146102305780638da5cb5b1461024e578063b666b5161461026c57610100565b806326232a2e116100d357806326232a2e146101b45780632b523d44146101d25780635ae8b159146101ee5780636c3c2a6f1461020a57610100565b806312e8e2c314610105578063196a8dca146101215780631ea6c2db146101515780631ff24c0a14610181575b600080fd5b61011f600480360381019061011a91906123c1565b6102fe565b005b61013b600480360381019061013691906125aa565b6103bf565b6040516101489190612634565b60405180910390f35b61016b60048036038101906101669190612685565b6103fa565b6040516101789190612634565b60405180910390f35b61019b600480360381019061019691906123c1565b61042d565b6040516101ab94939291906126c1565b60405180910390f35b6101bc6104bd565b6040516101c99190612706565b60405180910390f35b6101ec60048036038101906101e79190612745565b6104c3565b005b61020860048036038101906102039190612804565b610a9f565b005b610224600480360381019061021f919061289f565b610e43565b005b61022e6117c7565b005b61023861184f565b6040516102459190612634565b60405180910390f35b610256611873565b6040516102639190612634565b60405180910390f35b610286600480360381019061028191906128fb565b61189c565b005b610290611d7a565b60405161029d9190612987565b60405180910390f35b6102ae611d9e565b6040516102bb91906129c3565b60405180910390f35b6102de60048036038101906102d99190612a0a565b611dc2565b005b6102e8611eb9565b6040516102f59190612706565b60405180910390f35b610306611ebf565b73ffffffffffffffffffffffffffffffffffffffff16610324611873565b73ffffffffffffffffffffffffffffffffffffffff161461037a576040517f08c379a000000000000000000000000000000000000000000000000000000000815260040161037190612a94565b60405180910390fd5b7f8987e6f43a6c6bf408c8c427dceb2f98377f859348939ef4ab7b770b510a395a600254826040516103ad929190612ab4565b60405180910390a18060028190555050565b60006103f37f00000000000000000000000000000000000000000000000000000000000000006103ee84611ec7565b611ef7565b9050919050565b60046020528060005260406000206000915054906101000a900473ffffffffffffffffffffffffffffffffffffffff1681565b60036020528060005260406000206000915090508060000160009054906101000a900473ffffffffffffffffffffffffffffffffffffffff16908060010160009054906101000a900473ffffffffffffffffffffffffffffffffffffffff16908060020160009054906101000a900473ffffffffffffffffffffffffffffffffffffffff16908060030154905084565b60025481565b600154821115610508576040517f08c379a00000000000000000000000000000000000000000000000000000000081526004016104ff90612b29565b60405180910390fd5b6000600360008481526020019081526020016000206040518060800160405290816000820160009054906101000a900473ffffffffffffffffffffffffffffffffffffffff1673ffffffffffffffffffffffffffffffffffffffff1673ffffffffffffffffffffffffffffffffffffffff1681526020016001820160009054906101000a900473ffffffffffffffffffffffffffffffffffffffff1673ffffffffffffffffffffffffffffffffffffffff1673ffffffffffffffffffffffffffffffffffffffff1681526020016002820160009054906101000a900473ffffffffffffffffffffffffffffffffffffffff1673ffffffffffffffffffffffffffffffffffffffff1673ffffffffffffffffffffffffffffffffffffffff1681526020016003820154815250509050806000015173ffffffffffffffffffffffffffffffffffffffff163373ffffffffffffffffffffffffffffffffffffffff16146106a8576040517f08c379a000000000000000000000000000000000000000000000000000000000815260040161069f90612b95565b60405180910390fd5b600073ffffffffffffffffffffffffffffffffffffffff168260400160208101906106d39190612a0a565b73ffffffffffffffffffffffffffffffffffffffff1603610729576040517f08c379a000000000000000000000000000000000000000000000000000000000815260040161072090612c01565b60405180910390fd5b600073ffffffffffffffffffffffffffffffffffffffff168260000160208101906107549190612a0a565b73ffffffffffffffffffffffffffffffffffffffff16036107aa576040517f08c379a00000000000000000000000000000000000000000000000000000000081526004016107a190612c6d565b60405180910390fd5b6000816040015190508260000160208101906107c69190612a0a565b826000019073ffffffffffffffffffffffffffffffffffffffff16908173ffffffffffffffffffffffffffffffffffffffff1681525050826020013582606001818152505082604001602081019061081e9190612a0a565b826040019073ffffffffffffffffffffffffffffffffffffffff16908173ffffffffffffffffffffffffffffffffffffffff1681525050816003600086815260200190815260200160002060008201518160000160006101000a81548173ffffffffffffffffffffffffffffffffffffffff021916908373ffffffffffffffffffffffffffffffffffffffff16021790555060208201518160010160006101000a81548173ffffffffffffffffffffffffffffffffffffffff021916908373ffffffffffffffffffffffffffffffffffffffff16021790555060408201518160020160006101000a81548173ffffffffffffffffffffffffffffffffffffffff021916908373ffffffffffffffffffffffffffffffffffffffff160217905550606082015181600301559050507fa2f7e907e712d4a209c1edcf720be2ba2b6b369166e415d492994b46c70c09478260405161097a9190612d00565b60405180910390a18073ffffffffffffffffffffffffffffffffffffffff168360400160208101906109ac9190612a0a565b73ffffffffffffffffffffffffffffffffffffffff1614610a99578260400160208101906109da9190612a0a565b73ffffffffffffffffffffffffffffffffffffffff1663095ea7b37f00000000000000000000000000000000000000000000000000000000000000007fffffffffffffffffffffffffffffffffffffffffffffffffffffffffffffffff6040518363ffffffff1660e01b8152600401610a54929190612d1b565b6020604051808303816000875af1158015610a73573d6000803e3d6000fd5b505050506040513d601f19601f82011682018060405250810190610a979190612d7c565b505b50505050565b6000610ab384610aae90612da9565b611ec7565b9050600073ffffffffffffffffffffffffffffffffffffffff166004600083815260200190815260200160002060009054906101000a900473ffffffffffffffffffffffffffffffffffffffff1673ffffffffffffffffffffffffffffffffffffffff1614610b57576040517f08c379a0000000000000000000000000000000000000000000000000000000008152600401610b4e90612e08565b60405180910390fd5b6001838390501015610b9e576040517f08c379a0000000000000000000000000000000000000000000000000000000008152600401610b9590612e74565b60405180910390fd5b600060036000866000013581526020019081526020016000206040518060800160405290816000820160009054906101000a900473ffffffffffffffffffffffffffffffffffffffff1673ffffffffffffffffffffffffffffffffffffffff1673ffffffffffffffffffffffffffffffffffffffff1681526020016001820160009054906101000a900473ffffffffffffffffffffffffffffffffffffffff1673ffffffffffffffffffffffffffffffffffffffff1673ffffffffffffffffffffffffffffffffffffffff1681526020016002820160009054906101000a900473ffffffffffffffffffffffffffffffffffffffff1673ffffffffffffffffffffffffffffffffffffffff1673ffffffffffffffffffffffffffffffffffffffff168152602001600382015481525050905060015485600001351115610d19576040517f08c379a0000000000000000000000000000000000000000000000000000000008152600401610d1090612b29565b60405180910390fd5b806000015173ffffffffffffffffffffffffffffffffffffffff163373ffffffffffffffffffffffffffffffffffffffff1614610d8b576040517f08c379a0000000000000000000000000000000000000000000000000000000008152600401610d8290612ee0565b60405180910390fd5b6000610d9f86610d9a90612da9565b6103bf565b90508073ffffffffffffffffffffffffffffffffffffffff167f5cac467a9f516dfefc872243d16e0a608f33ffa3ef9ecde3f5bcc88f4e4fbec087604051610de79190613016565b60405180910390a2610e3a83868680806020026020016040519081016040528093929190818152602001838360200280828437600081840152601f19601f82011690508083019250505050505050611f0c565b50505050505050565b60015482600001351115610e8c576040517f08c379a0000000000000000000000000000000000000000000000000000000008152600401610e8390612b29565b60405180910390fd5b600060036000846000013581526020019081526020016000206040518060800160405290816000820160009054906101000a900473ffffffffffffffffffffffffffffffffffffffff1673ffffffffffffffffffffffffffffffffffffffff1673ffffffffffffffffffffffffffffffffffffffff1681526020016001820160009054906101000a900473ffffffffffffffffffffffffffffffffffffffff1673ffffffffffffffffffffffffffffffffffffffff1673ffffffffffffffffffffffffffffffffffffffff1681526020016002820160009054906101000a900473ffffffffffffffffffffffffffffffffffffffff1673ffffffffffffffffffffffffffffffffffffffff1673ffffffffffffffffffffffffffffffffffffffff1681526020016003820154815250509050806000015173ffffffffffffffffffffffffffffffffffffffff163373ffffffffffffffffffffffffffffffffffffffff1614611030576040517f08c379a000000000000000000000000000000000000000000000000000000000815260040161102790612ee0565b60405180910390fd5b60006110448461103f90612da9565b611ec7565b905060006004600083815260200190815260200160002060009054906101000a900473ffffffffffffffffffffffffffffffffffffffff169050600073ffffffffffffffffffffffffffffffffffffffff168173ffffffffffffffffffffffffffffffffffffffff16036111af576000600167ffffffffffffffff8111156110cf576110ce612404565b5b6040519080825280602002602001820160405280156110fd5781602001602082028036833780820191505090505b50905083600001518160008151811061111957611118613038565b5b602002602001019073ffffffffffffffffffffffffffffffffffffffff16908173ffffffffffffffffffffffffffffffffffffffff168152505061115d8382611f0c565b91508173ffffffffffffffffffffffffffffffffffffffff167f5cac467a9f516dfefc872243d16e0a608f33ffa3ef9ecde3f5bcc88f4e4fbec0876040516111a59190613016565b60405180910390a2505b7f4e9cc86b1370c2f6c435e2051a21470d3a62fa34d77277ed8bcd6855ea9e249d85856040516111e09291906130d8565b60405180910390a160007f000000000000000000000000000000000000000000000000000000000000000090508073ffffffffffffffffffffffffffffffffffffffff168560000160208101906112379190612a0a565b73ffffffffffffffffffffffffffffffffffffffff160361167d57600061126f85606001518760400135611fff90919063ffffffff16565b9050600061128c6002548860400135611fff90919063ffffffff16565b90506000600367ffffffffffffffff8111156112ab576112aa612404565b5b6040519080825280602002602001820160405280156112e457816020015b6112d161232a565b8152602001906001900390816112c95790505b50905060405180606001604052808573ffffffffffffffffffffffffffffffffffffffff168152602001611316611873565b73ffffffffffffffffffffffffffffffffffffffff168152602001838152508160008151811061134957611348613038565b5b602002602001018190525060405180606001604052808573ffffffffffffffffffffffffffffffffffffffff16815260200189602001602081019061138e9190612a0a565b73ffffffffffffffffffffffffffffffffffffffff16815260200184846113b59190613137565b8a604001356113c4919061318d565b815250816001815181106113db576113da613038565b5b602002602001018190525060405180606001604052808573ffffffffffffffffffffffffffffffffffffffff1681526020013073ffffffffffffffffffffffffffffffffffffffff168152602001848152508160028151811061144157611440613038565b5b60200260200101819052508473ffffffffffffffffffffffffffffffffffffffff166332a06d3a826040518263ffffffff1660e01b815260040161148591906132b2565b600060405180830381600087803b15801561149f57600080fd5b505af11580156114b3573d6000803e3d6000fd5b505050507f000000000000000000000000000000000000000000000000000000000000000073ffffffffffffffffffffffffffffffffffffffff1663f7c618c16040518163ffffffff1660e01b8152600401602060405180830381865afa158015611522573d6000803e3d6000fd5b505050506040513d601f19601f820116820180604052508101906115469190613312565b73ffffffffffffffffffffffffffffffffffffffff1663395093517f0000000000000000000000000000000000000000000000000000000000000000856040518363ffffffff1660e01b81526004016115a0929190612d1b565b6020604051808303816000875af11580156115bf573d6000803e3d6000fd5b505050506040513d601f19601f820116820180604052508101906115e39190612d7c565b507f000000000000000000000000000000000000000000000000000000000000000073ffffffffffffffffffffffffffffffffffffffff1663a8031a1d8860400151856040518363ffffffff1660e01b8152600401611643929190612d1b565b600060405180830381600087803b15801561165d57600080fd5b505af1158015611671573d6000803e3d6000fd5b505050505050506117bf565b6000600167ffffffffffffffff81111561169a57611699612404565b5b6040519080825280602002602001820160405280156116d357816020015b6116c061232a565b8152602001906001900390816116b85790505b50905060405180606001604052808373ffffffffffffffffffffffffffffffffffffffff1681526020018760200160208101906117109190612a0a565b73ffffffffffffffffffffffffffffffffffffffff16815260200187604001358152508160008151811061174757611746613038565b5b60200260200101819052508273ffffffffffffffffffffffffffffffffffffffff166332a06d3a826040518263ffffffff1660e01b815260040161178b91906132b2565b600060405180830381600087803b1580156117a557600080fd5b505af11580156117b9573d6000803e3d6000fd5b50505050505b505050505050565b6117cf611ebf565b73ffffffffffffffffffffffffffffffffffffffff166117ed611873565b73ffffffffffffffffffffffffffffffffffffffff1614611843576040517f08c379a000000000000000000000000000000000000000000000000000000000815260040161183a90612a94565b60405180910390fd5b61184d6000612013565b565b7f000000000000000000000000000000000000000000000000000000000000000081565b60008060009054906101000a900473ffffffffffffffffffffffffffffffffffffffff16905090565b600073ffffffffffffffffffffffffffffffffffffffff168160000160208101906118c79190612a0a565b73ffffffffffffffffffffffffffffffffffffffff160361191d576040517f08c379a000000000000000000000000000000000000000000000000000000000815260040161191490612c6d565b60405180910390fd5b600073ffffffffffffffffffffffffffffffffffffffff168160400160208101906119489190612a0a565b73ffffffffffffffffffffffffffffffffffffffff160361199e576040517f08c379a000000000000000000000000000000000000000000000000000000000815260040161199590612c01565b60405180910390fd5b60006001600081546119af9061333f565b9190508190559050600060405180608001604052808460000160208101906119d79190612a0a565b73ffffffffffffffffffffffffffffffffffffffff168152602001611a2e604051806040016040528086815260200186604051602001611a179190612706565b6040516020818303038152906040528152506103bf565b73ffffffffffffffffffffffffffffffffffffffff168152602001846040016020810190611a5c9190612a0a565b73ffffffffffffffffffffffffffffffffffffffff16815260200184602001358152509050806003600084815260200190815260200160002060008201518160000160006101000a81548173ffffffffffffffffffffffffffffffffffffffff021916908373ffffffffffffffffffffffffffffffffffffffff16021790555060208201518160010160006101000a81548173ffffffffffffffffffffffffffffffffffffffff021916908373ffffffffffffffffffffffffffffffffffffffff16021790555060408201518160020160006101000a81548173ffffffffffffffffffffffffffffffffffffffff021916908373ffffffffffffffffffffffffffffffffffffffff160217905550606082015181600301559050507fe8398fc8998c286ad0bf21e1bc3aa5a928141b91733e693bc0662bd3a5285c9681604051611ba69190612d00565b60405180910390a16000600167ffffffffffffffff811115611bcb57611bca612404565b5b604051908082528060200260200182016040528015611bf95781602001602082028036833780820191505090505b509050836000016020810190611c0f9190612a0a565b81600081518110611c2357611c22613038565b5b602002602001019073ffffffffffffffffffffffffffffffffffffffff16908173ffffffffffffffffffffffffffffffffffffffff1681525050611ca2611c9c604051806040016040528086815260200186604051602001611c859190612706565b604051602081830303815290604052815250611ec7565b82611f0c565b50836040016020810190611cb69190612a0a565b73ffffffffffffffffffffffffffffffffffffffff1663095ea7b37f00000000000000000000000000000000000000000000000000000000000000007fffffffffffffffffffffffffffffffffffffffffffffffffffffffffffffffff6040518363ffffffff1660e01b8152600401611d30929190612d1b565b6020604051808303816000875af1158015611d4f573d6000803e3d6000fd5b505050506040513d601f19601f82011682018060405250810190611d739190612d7c565b5050505050565b7f000000000000000000000000000000000000000000000000000000000000000081565b7f000000000000000000000000000000000000000000000000000000000000000081565b611dca611ebf565b73ffffffffffffffffffffffffffffffffffffffff16611de8611873565b73ffffffffffffffffffffffffffffffffffffffff1614611e3e576040517f08c379a0000000000000000000000000000000000000000000000000000000008152600401611e3590612a94565b60405180910390fd5b600073ffffffffffffffffffffffffffffffffffffffff168173ffffffffffffffffffffffffffffffffffffffff1603611ead576040517f08c379a0000000000000000000000000000000000000000000000000000000008152600401611ea4906133f9565b60405180910390fd5b611eb681612013565b50565b60015481565b600033905090565b600081604051602001611eda91906134cd565b604051602081830303815290604052805190602001209050919050565b6000611f048383306120d7565b905092915050565b6000611f387f000000000000000000000000000000000000000000000000000000000000000084612157565b9050806004600085815260200190815260200160002060006101000a81548173ffffffffffffffffffffffffffffffffffffffff021916908373ffffffffffffffffffffffffffffffffffffffff1602179055508073ffffffffffffffffffffffffffffffffffffffff1663946d920430846040518363ffffffff1660e01b8152600401611fc792919061359e565b600060405180830381600087803b158015611fe157600080fd5b505af1158015611ff5573d6000803e3d6000fd5b5050505092915050565b600061200b838361222d565b905092915050565b60008060009054906101000a900473ffffffffffffffffffffffffffffffffffffffff169050816000806101000a81548173ffffffffffffffffffffffffffffffffffffffff021916908373ffffffffffffffffffffffffffffffffffffffff1602179055508173ffffffffffffffffffffffffffffffffffffffff168173ffffffffffffffffffffffffffffffffffffffff167f8be0079c531659141344cd1fd0a4f28419497f9722a3daafe3b4186f6b6457e060405160405180910390a35050565b60006040517f3d602d80600a3d3981f3363d3d373d3d3d363d7300000000000000000000000081528460601b60148201527f5af43d82803e903d91602b57fd5bf3ff0000000000000000000000000000000060288201528260601b603882015283604c82015260378120606c820152605560378201209150509392505050565b60006040517f3d602d80600a3d3981f3363d3d373d3d3d363d7300000000000000000000000081528360601b60148201527f5af43d82803e903d91602b57fd5bf300000000000000000000000000000000006028820152826037826000f5915050600073ffffffffffffffffffffffffffffffffffffffff168173ffffffffffffffffffffffffffffffffffffffff1603612227576040517f08c379a000000000000000000000000000000000000000000000000000000000815260040161221e9061361a565b60405180910390fd5b92915050565b60008060008019848609848602925082811083820303915050670de0b6b3a7640000811061229257806040517fd31b34020000000000000000000000000000000000000000000000000000000081526004016122899190612706565b60405180910390fd5b600080670de0b6b3a764000086880991506706f05b59d3b1ffff82119050600083036122de5780670de0b6b3a764000085816122d1576122d061363a565b5b0401945050505050612324565b807faccb18165bd6fe31ae1cf318dc5b51eee0e1ba569b88cd74c1773b91fac1066960016204000080600003040186851186030262040000858803041702019450505050505b92915050565b6040518060600160405280600073ffffffffffffffffffffffffffffffffffffffff168152602001600073ffffffffffffffffffffffffffffffffffffffff168152602001600081525090565b6000604051905090565b600080fd5b600080fd5b6000819050919050565b61239e8161238b565b81146123a957600080fd5b50565b6000813590506123bb81612395565b92915050565b6000602082840312156123d7576123d6612381565b5b60006123e5848285016123ac565b91505092915050565b600080fd5b6000601f19601f8301169050919050565b7f4e487b7100000000000000000000000000000000000000000000000000000000600052604160045260246000fd5b61243c826123f3565b810181811067ffffffffffffffff8211171561245b5761245a612404565b5b80604052505050565b600061246e612377565b905061247a8282612433565b919050565b600080fd5b600080fd5b600080fd5b600067ffffffffffffffff8211156124a9576124a8612404565b5b6124b2826123f3565b9050602081019050919050565b82818337600083830152505050565b60006124e16124dc8461248e565b612464565b9050828152602081018484840111156124fd576124fc612489565b5b6125088482856124bf565b509392505050565b600082601f83011261252557612524612484565b5b81356125358482602086016124ce565b91505092915050565b600060408284031215612554576125536123ee565b5b61255e6040612464565b9050600061256e848285016123ac565b600083015250602082013567ffffffffffffffff8111156125925761259161247f565b5b61259e84828501612510565b60208301525092915050565b6000602082840312156125c0576125bf612381565b5b600082013567ffffffffffffffff8111156125de576125dd612386565b5b6125ea8482850161253e565b91505092915050565b600073ffffffffffffffffffffffffffffffffffffffff82169050919050565b600061261e826125f3565b9050919050565b61262e81612613565b82525050565b60006020820190506126496000830184612625565b92915050565b6000819050919050565b6126628161264f565b811461266d57600080fd5b50565b60008135905061267f81612659565b92915050565b60006020828403121561269b5761269a612381565b5b60006126a984828501612670565b91505092915050565b6126bb8161238b565b82525050565b60006080820190506126d66000830187612625565b6126e36020830186612625565b6126f06040830185612625565b6126fd60608301846126b2565b95945050505050565b600060208201905061271b60008301846126b2565b92915050565b600080fd5b60006060828403121561273c5761273b612721565b5b81905092915050565b6000806080838503121561275c5761275b612381565b5b600061276a858286016123ac565b925050602061277b85828601612726565b9150509250929050565b60006040828403121561279b5761279a612721565b5b81905092915050565b600080fd5b600080fd5b60008083601f8401126127c4576127c3612484565b5b8235905067ffffffffffffffff8111156127e1576127e06127a4565b5b6020830191508360208202830111156127fd576127fc6127a9565b5b9250929050565b60008060006040848603121561281d5761281c612381565b5b600084013567ffffffffffffffff81111561283b5761283a612386565b5b61284786828701612785565b935050602084013567ffffffffffffffff81111561286857612867612386565b5b612874868287016127ae565b92509250509250925092565b60006060828403121561289657612895612721565b5b81905092915050565b600080608083850312156128b6576128b5612381565b5b600083013567ffffffffffffffff8111156128d4576128d3612386565b5b6128e085828601612785565b92505060206128f185828601612880565b9150509250929050565b60006060828403121561291157612910612381565b5b600061291f84828501612726565b91505092915050565b6000819050919050565b600061294d612948612943846125f3565b612928565b6125f3565b9050919050565b600061295f82612932565b9050919050565b600061297182612954565b9050919050565b61298181612966565b82525050565b600060208201905061299c6000830184612978565b92915050565b60006129ad82612954565b9050919050565b6129bd816129a2565b82525050565b60006020820190506129d860008301846129b4565b92915050565b6129e781612613565b81146129f257600080fd5b50565b600081359050612a04816129de565b92915050565b600060208284031215612a2057612a1f612381565b5b6000612a2e848285016129f5565b91505092915050565b600082825260208201905092915050565b7f4f776e61626c653a2063616c6c6572206973206e6f7420746865206f776e6572600082015250565b6000612a7e602083612a37565b9150612a8982612a48565b602082019050919050565b60006020820190508181036000830152612aad81612a71565b9050919050565b6000604082019050612ac960008301856126b2565b612ad660208301846126b2565b9392505050565b7f696e76616c696420636175736500000000000000000000000000000000000000600082015250565b6000612b13600d83612a37565b9150612b1e82612add565b602082019050919050565b60006020820190508181036000830152612b4281612b06565b9050919050565b7f6e6f7420617574686f72697a6564000000000000000000000000000000000000600082015250565b6000612b7f600e83612a37565b9150612b8a82612b49565b602082019050919050565b60006020820190508181036000830152612bae81612b72565b9050919050565b7f696e76616c696420746f6b656e00000000000000000000000000000000000000600082015250565b6000612beb600d83612a37565b9150612bf682612bb5565b602082019050919050565b60006020820190508181036000830152612c1a81612bde565b9050919050565b7f696e76616c6964206f776e657200000000000000000000000000000000000000600082015250565b6000612c57600d83612a37565b9150612c6282612c21565b602082019050919050565b60006020820190508181036000830152612c8681612c4a565b9050919050565b612c9681612613565b82525050565b612ca58161238b565b82525050565b608082016000820151612cc16000850182612c8d565b506020820151612cd46020850182612c8d565b506040820151612ce76040850182612c8d565b506060820151612cfa6060850182612c9c565b50505050565b6000608082019050612d156000830184612cab565b92915050565b6000604082019050612d306000830185612625565b612d3d60208301846126b2565b9392505050565b60008115159050919050565b612d5981612d44565b8114612d6457600080fd5b50565b600081519050612d7681612d50565b92915050565b600060208284031215612d9257612d91612381565b5b6000612da084828501612d67565b91505092915050565b6000612db5368361253e565b9050919050565b7f616c7265616479206465706c6f79656400000000000000000000000000000000600082015250565b6000612df2601083612a37565b9150612dfd82612dbc565b602082019050919050565b60006020820190508181036000830152612e2181612de5565b9050919050565b7f696e76616c6964206f776e657273000000000000000000000000000000000000600082015250565b6000612e5e600e83612a37565b9150612e6982612e28565b602082019050919050565b60006020820190508181036000830152612e8d81612e51565b9050919050565b7f756e617574686f72697a65640000000000000000000000000000000000000000600082015250565b6000612eca600c83612a37565b9150612ed582612e94565b602082019050919050565b60006020820190508181036000830152612ef981612ebd565b9050919050565b6000612f0f60208401846123ac565b905092915050565b600080fd5b600080fd5b600080fd5b60008083356001602003843603038112612f4357612f42612f21565b5b83810192508235915060208301925067ffffffffffffffff821115612f6b57612f6a612f17565b5b600182023603841315612f8157612f80612f1c565b5b509250929050565b600082825260208201905092915050565b6000612fa68385612f89565b9350612fb38385846124bf565b612fbc836123f3565b840190509392505050565b600060408301612fda6000840184612f00565b612fe76000860182612c9c565b50612ff56020840184612f26565b8583036020870152613008838284612f9a565b925050508091505092915050565b600060208201905081810360008301526130308184612fc7565b905092915050565b7f4e487b7100000000000000000000000000000000000000000000000000000000600052603260045260246000fd5b600061307660208401846129f5565b905092915050565b6060820161308f6000830183613067565b61309c6000850182612c8d565b506130aa6020830183613067565b6130b76020850182612c8d565b506130c56040830183612f00565b6130d26040850182612c9c565b50505050565b600060808201905081810360008301526130f28185612fc7565b9050613101602083018461307e565b9392505050565b7f4e487b7100000000000000000000000000000000000000000000000000000000600052601160045260246000fd5b60006131428261238b565b915061314d8361238b565b9250827fffffffffffffffffffffffffffffffffffffffffffffffffffffffffffffffff0382111561318257613181613108565b5b828201905092915050565b60006131988261238b565b91506131a38361238b565b9250828210156131b6576131b5613108565b5b828203905092915050565b600081519050919050565b600082825260208201905092915050565b6000819050602082019050919050565b6060820160008201516132036000850182612c8d565b5060208201516132166020850182612c8d565b5060408201516132296040850182612c9c565b50505050565b600061323b83836131ed565b60608301905092915050565b6000602082019050919050565b600061325f826131c1565b61326981856131cc565b9350613274836131dd565b8060005b838110156132a557815161328c888261322f565b975061329783613247565b925050600181019050613278565b5085935050505092915050565b600060208201905081810360008301526132cc8184613254565b905092915050565b60006132df82612613565b9050919050565b6132ef816132d4565b81146132fa57600080fd5b50565b60008151905061330c816132e6565b92915050565b60006020828403121561332857613327612381565b5b6000613336848285016132fd565b91505092915050565b600061334a8261238b565b91507fffffffffffffffffffffffffffffffffffffffffffffffffffffffffffffffff820361337c5761337b613108565b5b600182019050919050565b7f4f776e61626c653a206e6577206f776e657220697320746865207a65726f206160008201527f6464726573730000000000000000000000000000000000000000000000000000602082015250565b60006133e3602683612a37565b91506133ee82613387565b604082019050919050565b60006020820190508181036000830152613412816133d6565b9050919050565b600081519050919050565b60005b83811015613442578082015181840152602081019050613427565b83811115613451576000848401525b50505050565b600061346282613419565b61346c8185612f89565b935061347c818560208601613424565b613485816123f3565b840191505092915050565b60006040830160008301516134a86000860182612c9c565b50602083015184820360208601526134c08282613457565b9150508091505092915050565b600060208201905081810360008301526134e78184613490565b905092915050565b600081519050919050565b600082825260208201905092915050565b6000819050602082019050919050565b60006135278383612c8d565b60208301905092915050565b6000602082019050919050565b600061354b826134ef565b61355581856134fa565b93506135608361350b565b8060005b83811015613591578151613578888261351b565b975061358383613533565b925050600181019050613564565b5085935050505092915050565b60006040820190506135b36000830185612625565b81810360208301526135c58184613540565b90509392505050565b7f455243313136373a2063726561746532206661696c6564000000000000000000600082015250565b6000613604601783612a37565b915061360f826135ce565b602082019050919050565b60006020820190508181036000830152613633816135f7565b9050919050565b7f4e487b7100000000000000000000000000000000000000000000000000000000600052601260045260246000fdfea2646970667358221220ef5e696f5936116d1da0fbad186ef7e961883f541d1c3ab2870a49e82d94187f64736f6c634300080d0033",
  "devdoc": {
    "kind": "dev",
    "methods": {
      "calculateThinWallet((uint256,bytes))": {
        "params": {
          "_walletId": "The wallet parameters to calculate the address from"
        }
      },
      "owner()": {
        "details": "Returns the address of the current owner."
      },
      "registerCause((address,uint256,address))": {
        "details": "This should be an open function",
        "params": {
          "_cause": "The cause to be registered"
        }
      },
      "registerThinWallet((uint256,bytes),address[])": {
        "params": {
          "_owners": "The wallet owners to set. These accounts can transfer funds, so they should be limited",
          "_walletId": "The wallet parameters"
        }
      },
      "renounceOwnership()": {
        "details": "Leaves the contract without owner. It will not be possible to call `onlyOwner` functions anymore. Can only be called by the current owner. NOTE: Renouncing ownership will leave the contract without an owner, thereby removing any functionality that is only available to the owner."
      },
      "setPlatformFee(uint256)": {
        "details": "Only the platform owner should be able to call this",
        "params": {
          "_fee": "The new platform fee"
        }
      },
      "transferOwnership(address)": {
        "details": "Transfers ownership of the contract to a new account (`newOwner`). Can only be called by the current owner."
      },
      "updateCause(uint256,(address,uint256,address))": {
        "details": "Can only be called by the current owner of the cause",
        "params": {
          "_cause": "The new details of the cause",
          "_causeId": "The cause to update"
        }
      },
      "withdrawFromThinWallet((uint256,bytes),(address,address,uint256))": {
        "params": {
          "_walletId": "The wallet address parameters",
          "_withdrawal": "An array of withdrawal requests for the wallet to process"
        }
      }
    },
    "version": 1
  },
  "userdoc": {
    "errors": {
      "PRBMath__MulDivFixedPointOverflow(uint256)": [
        {
          "notice": "Emitted when the result overflows uint256."
        }
      ]
    },
    "events": {
      "RegisterCause((address,address,address,uint256))": {
        "notice": "### Events"
      }
    },
    "kind": "user",
    "methods": {
      "baseToken()": {
        "notice": "### Autogenerated getters"
      },
      "calculateThinWallet((uint256,bytes))": {
        "notice": "Calculates the address that a given thin wallet is or will be deployed to"
      },
      "causeRecords(uint256)": {
        "notice": "Cause ID => Cause record"
      },
      "deployedWallets(bytes32)": {
        "notice": "Thin wallet salt => thin wallet address"
      },
      "registerCause((address,uint256,address))": {
        "notice": "Creates a cause so that it can start using thin wallets that it controls"
      },
      "registerThinWallet((uint256,bytes),address[])": {
        "notice": "Deploys a thin wallet to the address derived from the parameters given"
      },
      "setPlatformFee(uint256)": {
        "notice": "Allows the platform owner to set the platform fee"
      },
      "updateCause(uint256,(address,uint256,address))": {
        "notice": "Updates a cause"
      },
      "withdrawFromThinWallet((uint256,bytes),(address,address,uint256))": {
        "notice": "Withdraws funds from the specified thin wallet"
      }
    },
    "version": 1
  },
  "storageLayout": {
    "storage": [
      {
        "astId": 6934,
        "contract": "contracts/implementations/DonationsRouter.sol:DonationsRouter",
        "label": "_owner",
        "offset": 0,
        "slot": "0",
        "type": "t_address"
      },
      {
        "astId": 11964,
        "contract": "contracts/implementations/DonationsRouter.sol:DonationsRouter",
        "label": "causeId",
        "offset": 0,
        "slot": "1",
        "type": "t_uint256"
      },
      {
        "astId": 11967,
        "contract": "contracts/implementations/DonationsRouter.sol:DonationsRouter",
        "label": "platformFee",
        "offset": 0,
        "slot": "2",
        "type": "t_uint256"
      },
      {
        "astId": 11974,
        "contract": "contracts/implementations/DonationsRouter.sol:DonationsRouter",
        "label": "causeRecords",
        "offset": 0,
        "slot": "3",
        "type": "t_mapping(t_uint256,t_struct(CauseRecord)14751_storage)"
      },
      {
        "astId": 11980,
        "contract": "contracts/implementations/DonationsRouter.sol:DonationsRouter",
        "label": "deployedWallets",
        "offset": 0,
        "slot": "4",
        "type": "t_mapping(t_bytes32,t_address)"
      }
    ],
    "types": {
      "t_address": {
        "encoding": "inplace",
        "label": "address",
        "numberOfBytes": "20"
      },
      "t_bytes32": {
        "encoding": "inplace",
        "label": "bytes32",
        "numberOfBytes": "32"
      },
      "t_mapping(t_bytes32,t_address)": {
        "encoding": "mapping",
        "key": "t_bytes32",
        "label": "mapping(bytes32 => address)",
        "numberOfBytes": "32",
        "value": "t_address"
      },
      "t_mapping(t_uint256,t_struct(CauseRecord)14751_storage)": {
        "encoding": "mapping",
        "key": "t_uint256",
        "label": "mapping(uint256 => struct IDonationsRouter.CauseRecord)",
        "numberOfBytes": "32",
        "value": "t_struct(CauseRecord)14751_storage"
      },
      "t_struct(CauseRecord)14751_storage": {
        "encoding": "inplace",
        "label": "struct IDonationsRouter.CauseRecord",
        "members": [
          {
            "astId": 14743,
            "contract": "contracts/implementations/DonationsRouter.sol:DonationsRouter",
            "label": "owner",
            "offset": 0,
            "slot": "0",
            "type": "t_address"
          },
          {
            "astId": 14745,
            "contract": "contracts/implementations/DonationsRouter.sol:DonationsRouter",
            "label": "defaultWallet",
            "offset": 0,
            "slot": "1",
            "type": "t_address"
          },
          {
            "astId": 14748,
            "contract": "contracts/implementations/DonationsRouter.sol:DonationsRouter",
            "label": "daoToken",
            "offset": 0,
            "slot": "2",
            "type": "t_address"
          },
          {
            "astId": 14750,
            "contract": "contracts/implementations/DonationsRouter.sol:DonationsRouter",
            "label": "rewardPercentage",
            "offset": 0,
            "slot": "3",
            "type": "t_uint256"
          }
        ],
        "numberOfBytes": "128"
      },
      "t_uint256": {
        "encoding": "inplace",
        "label": "uint256",
        "numberOfBytes": "32"
      }
    }
  }
}