{
  "address": "0xe7B02cbb7752B5A7aF36E9611AB10fD7ED967589",
  "abi": [
    {
      "inputs": [
        {
          "components": [
            {
              "internalType": "contract PublicResolver",
              "name": "ensResolver",
              "type": "address"
            },
            {
              "internalType": "contract ENSRegistry",
              "name": "ensRegistry",
              "type": "address"
            },
            {
              "internalType": "contract IENSRegistrar",
              "name": "ensRegistrar",
              "type": "address"
            },
            {
              "internalType": "contract GnosisSafeProxyFactory",
              "name": "gnosisFactory",
              "type": "address"
            },
            {
              "internalType": "address",
              "name": "gnosisSafeSingleton",
              "type": "address"
            },
            {
              "internalType": "address",
              "name": "erc20Singleton",
              "type": "address"
            },
            {
              "internalType": "address",
              "name": "parentDao",
              "type": "address"
            },
            {
              "internalType": "contract IClearingHouse",
              "name": "clearingHouse",
              "type": "address"
            }
          ],
          "internalType": "struct IGovernor.ConstructorParams",
          "name": "_params",
          "type": "tuple"
        }
      ],
      "stateMutability": "nonpayable",
      "type": "constructor"
    },
    {
      "anonymous": false,
      "inputs": [
        {
          "indexed": true,
          "internalType": "address",
          "name": "safe",
          "type": "address"
        },
        {
          "indexed": true,
          "internalType": "address",
          "name": "token",
          "type": "address"
        },
        {
          "indexed": false,
          "internalType": "bytes32",
          "name": "node",
          "type": "bytes32"
        }
      ],
      "name": "ChildDaoCreated",
      "type": "event"
    },
    {
      "anonymous": false,
      "inputs": [
        {
          "indexed": true,
          "internalType": "address",
          "name": "previousOwner",
          "type": "address"
        },
        {
          "indexed": true,
          "internalType": "address",
          "name": "newOwner",
          "type": "address"
        }
      ],
      "name": "OwnershipTransferred",
      "type": "event"
    },
    {
      "inputs": [
        {
          "internalType": "uint256",
          "name": "_domainNFTId",
          "type": "uint256"
        }
      ],
      "name": "addENSDomain",
      "outputs": [],
      "stateMutability": "nonpayable",
      "type": "function"
    },
    {
      "inputs": [],
      "name": "clearingHouse",
      "outputs": [
        {
          "internalType": "contract IClearingHouse",
          "name": "",
          "type": "address"
        }
      ],
      "stateMutability": "view",
      "type": "function"
    },
    {
      "inputs": [
        {
          "components": [
            {
              "internalType": "bytes",
              "name": "tokenName",
              "type": "bytes"
            },
            {
              "internalType": "bytes",
              "name": "tokenSymbol",
              "type": "bytes"
            }
          ],
          "internalType": "struct IGovernor.Token",
          "name": "_tokenData",
          "type": "tuple"
        },
        {
          "components": [
            {
              "internalType": "bytes",
              "name": "initializer",
              "type": "bytes"
            }
          ],
          "internalType": "struct IGovernor.Safe",
          "name": "_safeData",
          "type": "tuple"
        },
        {
          "components": [
            {
              "internalType": "bytes",
              "name": "subdomain",
              "type": "bytes"
            },
            {
              "internalType": "bytes",
              "name": "snapshotKey",
              "type": "bytes"
            },
            {
              "internalType": "bytes",
              "name": "snapshotValue",
              "type": "bytes"
            }
          ],
          "internalType": "struct IGovernor.Subdomain",
          "name": "_subdomain",
          "type": "tuple"
        }
      ],
      "name": "createChildDAO",
      "outputs": [],
      "stateMutability": "nonpayable",
      "type": "function"
    },
    {
      "inputs": [],
      "name": "ensDomainNFTId",
      "outputs": [
        {
          "internalType": "uint256",
          "name": "",
          "type": "uint256"
        }
      ],
      "stateMutability": "view",
      "type": "function"
    },
    {
      "inputs": [],
      "name": "ensRegistrar",
      "outputs": [
        {
          "internalType": "contract IENSRegistrar",
          "name": "",
          "type": "address"
        }
      ],
      "stateMutability": "view",
      "type": "function"
    },
    {
      "inputs": [],
      "name": "ensRegistry",
      "outputs": [
        {
          "internalType": "contract ENSRegistry",
          "name": "",
          "type": "address"
        }
      ],
      "stateMutability": "view",
      "type": "function"
    },
    {
      "inputs": [],
      "name": "ensResolver",
      "outputs": [
        {
          "internalType": "contract PublicResolver",
          "name": "",
          "type": "address"
        }
      ],
      "stateMutability": "view",
      "type": "function"
    },
    {
      "inputs": [],
      "name": "erc20Singleton",
      "outputs": [
        {
          "internalType": "address",
          "name": "",
          "type": "address"
        }
      ],
      "stateMutability": "view",
      "type": "function"
    },
    {
      "inputs": [],
      "name": "gnosisFactory",
      "outputs": [
        {
          "internalType": "contract GnosisSafeProxyFactory",
          "name": "",
          "type": "address"
        }
      ],
      "stateMutability": "view",
      "type": "function"
    },
    {
      "inputs": [],
      "name": "gnosisSafeSingleton",
      "outputs": [
        {
          "internalType": "address",
          "name": "",
          "type": "address"
        }
      ],
      "stateMutability": "view",
      "type": "function"
    },
    {
      "inputs": [
        {
          "internalType": "address",
          "name": "",
          "type": "address"
        },
        {
          "internalType": "address",
          "name": "",
          "type": "address"
        },
        {
          "internalType": "uint256",
          "name": "",
          "type": "uint256"
        },
        {
          "internalType": "bytes",
          "name": "",
          "type": "bytes"
        }
      ],
      "name": "onERC721Received",
      "outputs": [
        {
          "internalType": "bytes4",
          "name": "",
          "type": "bytes4"
        }
      ],
      "stateMutability": "nonpayable",
      "type": "function"
    },
    {
      "inputs": [],
      "name": "owner",
      "outputs": [
        {
          "internalType": "address",
          "name": "",
          "type": "address"
        }
      ],
      "stateMutability": "view",
      "type": "function"
    },
    {
      "inputs": [],
      "name": "renounceOwnership",
      "outputs": [],
      "stateMutability": "nonpayable",
      "type": "function"
    },
    {
      "inputs": [
        {
          "internalType": "address",
          "name": "newOwner",
          "type": "address"
        }
      ],
      "name": "transferOwnership",
      "outputs": [],
      "stateMutability": "nonpayable",
      "type": "function"
    },
    {
      "inputs": [
        {
          "internalType": "address",
          "name": "_destination",
          "type": "address"
        }
      ],
      "name": "withdrawENSDomain",
      "outputs": [],
      "stateMutability": "nonpayable",
      "type": "function"
    }
  ],
  "transactionHash": "0xfb39ee42dfe2d135a11568fd4b7ff29784f0920ac9bb02b3e9c276916472509f",
  "args": [
    {
      "ensRegistry": "0x00000000000c2e074ec69a0dfb2997ba6c7d2e1e",
      "ensResolver": "0xf6305c19e814d2a75429Fd637d01F7ee0E77d615",
      "ensRegistrar": "0x57f1887a8BF19b14fC0dF6Fd9B2acc9Af147eA85",
      "gnosisFactory": "0xa6B71E26C5e0845f74c812102Ca7114b6a896AB2",
      "gnosisSafeSingleton": "0xd9Db270c1B5E3Bd161E8c8503c55cEABeE709552",
      "erc20Singleton": "0x636b8427896Eb2CdEA1e145C32043E43EaE6441d",
      "parentDao": "0x5f8DAE75066f48554A8Ed9304E0351D72e3dc1Ba",
      "clearingHouse": "0x945E4964A79fACd5974Ff3F19F67E5C6bD32949E"
    }
  ],
  "numDeployments": 1,
  "solcInputHash": "774844eabd44960a7eaa98036a7681b8",
  "bytecode": "0x60806040523480156200001157600080fd5b50604051620031ed380380620031ed833981810160405281019062000037919062000b56565b620000576200004b6200060660201b60201c565b6200060e60201b60201c565b600073ffffffffffffffffffffffffffffffffffffffff16816000015173ffffffffffffffffffffffffffffffffffffffff1603620000cd576040517f08c379a0000000000000000000000000000000000000000000000000000000008152600401620000c49062000bea565b60405180910390fd5b600073ffffffffffffffffffffffffffffffffffffffff16816020015173ffffffffffffffffffffffffffffffffffffffff160362000143576040517f08c379a00000000000000000000000000000000000000000000000000000000081526004016200013a9062000c5c565b60405180910390fd5b600073ffffffffffffffffffffffffffffffffffffffff16816040015173ffffffffffffffffffffffffffffffffffffffff1603620001b9576040517f08c379a0000000000000000000000000000000000000000000000000000000008152600401620001b09062000cce565b60405180910390fd5b600073ffffffffffffffffffffffffffffffffffffffff16816060015173ffffffffffffffffffffffffffffffffffffffff16036200022f576040517f08c379a0000000000000000000000000000000000000000000000000000000008152600401620002269062000d40565b60405180910390fd5b600073ffffffffffffffffffffffffffffffffffffffff16816080015173ffffffffffffffffffffffffffffffffffffffff1603620002a5576040517f08c379a00000000000000000000000000000000000000000000000000000000081526004016200029c9062000db2565b60405180910390fd5b600073ffffffffffffffffffffffffffffffffffffffff168160a0015173ffffffffffffffffffffffffffffffffffffffff16036200031b576040517f08c379a0000000000000000000000000000000000000000000000000000000008152600401620003129062000e24565b60405180910390fd5b600073ffffffffffffffffffffffffffffffffffffffff168160c0015173ffffffffffffffffffffffffffffffffffffffff160362000391576040517f08c379a0000000000000000000000000000000000000000000000000000000008152600401620003889062000e96565b60405180910390fd5b600073ffffffffffffffffffffffffffffffffffffffff168160e0015173ffffffffffffffffffffffffffffffffffffffff160362000407576040517f08c379a0000000000000000000000000000000000000000000000000000000008152600401620003fe9062000f08565b60405180910390fd5b8060000151600160006101000a81548173ffffffffffffffffffffffffffffffffffffffff021916908373ffffffffffffffffffffffffffffffffffffffff1602179055508060200151600260006101000a81548173ffffffffffffffffffffffffffffffffffffffff021916908373ffffffffffffffffffffffffffffffffffffffff1602179055508060400151600360006101000a81548173ffffffffffffffffffffffffffffffffffffffff021916908373ffffffffffffffffffffffffffffffffffffffff1602179055508060600151600460006101000a81548173ffffffffffffffffffffffffffffffffffffffff021916908373ffffffffffffffffffffffffffffffffffffffff1602179055508060800151600560006101000a81548173ffffffffffffffffffffffffffffffffffffffff021916908373ffffffffffffffffffffffffffffffffffffffff1602179055508060a00151600660006101000a81548173ffffffffffffffffffffffffffffffffffffffff021916908373ffffffffffffffffffffffffffffffffffffffff1602179055508060e00151600860006101000a81548173ffffffffffffffffffffffffffffffffffffffff021916908373ffffffffffffffffffffffffffffffffffffffff160217905550620005ff8160c00151620006d260201b60201c565b5062001034565b600033905090565b60008060009054906101000a900473ffffffffffffffffffffffffffffffffffffffff169050816000806101000a81548173ffffffffffffffffffffffffffffffffffffffff021916908373ffffffffffffffffffffffffffffffffffffffff1602179055508173ffffffffffffffffffffffffffffffffffffffff168173ffffffffffffffffffffffffffffffffffffffff167f8be0079c531659141344cd1fd0a4f28419497f9722a3daafe3b4186f6b6457e060405160405180910390a35050565b620006e26200060660201b60201c565b73ffffffffffffffffffffffffffffffffffffffff1662000708620007e760201b60201c565b73ffffffffffffffffffffffffffffffffffffffff161462000761576040517f08c379a0000000000000000000000000000000000000000000000000000000008152600401620007589062000f7a565b60405180910390fd5b600073ffffffffffffffffffffffffffffffffffffffff168173ffffffffffffffffffffffffffffffffffffffff1603620007d3576040517f08c379a0000000000000000000000000000000000000000000000000000000008152600401620007ca9062001012565b60405180910390fd5b620007e4816200060e60201b60201c565b50565b60008060009054906101000a900473ffffffffffffffffffffffffffffffffffffffff16905090565b6000604051905090565b600080fd5b600080fd5b6000601f19601f8301169050919050565b7f4e487b7100000000000000000000000000000000000000000000000000000000600052604160045260246000fd5b6200086f8262000824565b810181811067ffffffffffffffff8211171562000891576200089062000835565b5b80604052505050565b6000620008a662000810565b9050620008b4828262000864565b919050565b600073ffffffffffffffffffffffffffffffffffffffff82169050919050565b6000620008e682620008b9565b9050919050565b6000620008fa82620008d9565b9050919050565b6200090c81620008ed565b81146200091857600080fd5b50565b6000815190506200092c8162000901565b92915050565b60006200093f82620008d9565b9050919050565b620009518162000932565b81146200095d57600080fd5b50565b600081519050620009718162000946565b92915050565b60006200098482620008d9565b9050919050565b620009968162000977565b8114620009a257600080fd5b50565b600081519050620009b6816200098b565b92915050565b6000620009c982620008d9565b9050919050565b620009db81620009bc565b8114620009e757600080fd5b50565b600081519050620009fb81620009d0565b92915050565b62000a0c81620008d9565b811462000a1857600080fd5b50565b60008151905062000a2c8162000a01565b92915050565b600062000a3f82620008d9565b9050919050565b62000a518162000a32565b811462000a5d57600080fd5b50565b60008151905062000a718162000a46565b92915050565b6000610100828403121562000a915762000a906200081f565b5b62000a9e6101006200089a565b9050600062000ab0848285016200091b565b600083015250602062000ac68482850162000960565b602083015250604062000adc84828501620009a5565b604083015250606062000af284828501620009ea565b606083015250608062000b088482850162000a1b565b60808301525060a062000b1e8482850162000a1b565b60a08301525060c062000b348482850162000a1b565b60c08301525060e062000b4a8482850162000a60565b60e08301525092915050565b6000610100828403121562000b705762000b6f6200081a565b5b600062000b808482850162000a77565b91505092915050565b600082825260208201905092915050565b7f696e76616c6964207265736f6c76657220616464726573730000000000000000600082015250565b600062000bd260188362000b89565b915062000bdf8262000b9a565b602082019050919050565b6000602082019050818103600083015262000c058162000bc3565b9050919050565b7f696e76616c696420726567697374727920616464726573730000000000000000600082015250565b600062000c4460188362000b89565b915062000c518262000c0c565b602082019050919050565b6000602082019050818103600083015262000c778162000c35565b9050919050565b7f696e76616c696420726567697374726172206164647265737300000000000000600082015250565b600062000cb660198362000b89565b915062000cc38262000c7e565b602082019050919050565b6000602082019050818103600083015262000ce98162000ca7565b9050919050565b7f696e76616c696420666163746f72792061646472657373000000000000000000600082015250565b600062000d2860178362000b89565b915062000d358262000cf0565b602082019050919050565b6000602082019050818103600083015262000d5b8162000d19565b9050919050565b7f696e76616c696420736166652073696e676c65746f6e20616464726573730000600082015250565b600062000d9a601e8362000b89565b915062000da78262000d62565b602082019050919050565b6000602082019050818103600083015262000dcd8162000d8b565b9050919050565b7f696e76616c696420746f6b656e2073696e676c65746f6e206164647265737300600082015250565b600062000e0c601f8362000b89565b915062000e198262000dd4565b602082019050919050565b6000602082019050818103600083015262000e3f8162000dfd565b9050919050565b7f696e76616c6964206f776e657200000000000000000000000000000000000000600082015250565b600062000e7e600d8362000b89565b915062000e8b8262000e46565b602082019050919050565b6000602082019050818103600083015262000eb18162000e6f565b9050919050565b7f696e76616c696420636c656172696e6720686f75736520616464726573730000600082015250565b600062000ef0601e8362000b89565b915062000efd8262000eb8565b602082019050919050565b6000602082019050818103600083015262000f238162000ee1565b9050919050565b7f4f776e61626c653a2063616c6c6572206973206e6f7420746865206f776e6572600082015250565b600062000f6260208362000b89565b915062000f6f8262000f2a565b602082019050919050565b6000602082019050818103600083015262000f958162000f53565b9050919050565b7f4f776e61626c653a206e6577206f776e657220697320746865207a65726f206160008201527f6464726573730000000000000000000000000000000000000000000000000000602082015250565b600062000ffa60268362000b89565b9150620010078262000f9c565b604082019050919050565b600060208201905081810360008301526200102d8162000feb565b9050919050565b6121a980620010446000396000f3fe608060405234801561001057600080fd5b50600436106100f55760003560e01c8063987166aa11610097578063b1486fd511610066578063b1486fd51461023e578063bd10590d1461025c578063c2c589f014610278578063f2fde38b14610296576100f5565b8063987166aa146101c8578063a46e434c146101e6578063acfb0ee814610204578063adce1c5f14610220576100f5565b8063715018a6116100d3578063715018a6146101665780637d73b231146101705780638c3285631461018e5780638da5cb5b146101aa576100f5565b80630af96800146100fa578063150b7a0214610118578063714c077614610148575b600080fd5b6101026102b2565b60405161010f9190611390565b60405180910390f35b610132600480360381019061012d9190611579565b6102d8565b60405161013f9190611637565b60405180910390f35b6101506102ec565b60405161015d9190611661565b60405180910390f35b61016e610312565b005b61017861039a565b604051610185919061169d565b60405180910390f35b6101a860048036038101906101a3919061171a565b6103c0565b005b6101b26107ce565b6040516101bf9190611661565b60405180910390f35b6101d06107f7565b6040516101dd9190611661565b60405180910390f35b6101ee61081d565b6040516101fb91906117d0565b60405180910390f35b61021e600480360381019061021991906117eb565b610823565b005b610228610a0e565b6040516102359190611839565b60405180910390f35b610246610a34565b6040516102539190611875565b60405180910390f35b61027660048036038101906102719190611890565b610a5a565b005b610280610bbd565b60405161028d91906118de565b60405180910390f35b6102b060048036038101906102ab9190611890565b610be3565b005b600860009054906101000a900473ffffffffffffffffffffffffffffffffffffffff1681565b600063150b7a0260e01b9050949350505050565b600560009054906101000a900473ffffffffffffffffffffffffffffffffffffffff1681565b61031a610cda565b73ffffffffffffffffffffffffffffffffffffffff166103386107ce565b73ffffffffffffffffffffffffffffffffffffffff161461038e576040517f08c379a000000000000000000000000000000000000000000000000000000000815260040161038590611956565b60405180910390fd5b6103986000610ce2565b565b600260009054906101000a900473ffffffffffffffffffffffffffffffffffffffff1681565b6103c8610cda565b73ffffffffffffffffffffffffffffffffffffffff166103e66107ce565b73ffffffffffffffffffffffffffffffffffffffff161461043c576040517f08c379a000000000000000000000000000000000000000000000000000000000815260040161043390611956565b60405180910390fd5b600060075411610481576040517f08c379a0000000000000000000000000000000000000000000000000000000008152600401610478906119c2565b60405180910390fd5b600061051a83806000019061049691906119f1565b8080601f016020809104026020016040519081016040528093929190818152602001838380828437600081840152601f19601f820116905080830192505050505050508380600001906104e991906119f1565b306040516020016104fc93929190611acc565b6040516020818303038152906040528051906020012060001c610da6565b905060006105cc85806000019061053191906119f1565b8080601f016020809104026020016040519081016040528093929190818152602001838380828437600081840152601f19601f8201169050808301925050505050505086806020019061058491906119f1565b8080601f016020809104026020016040519081016040528093929190818152602001838380828437600081840152601f19601f82011690508083019250505050505050610e74565b9050600860009054906101000a900473ffffffffffffffffffffffffffffffffffffffff1673ffffffffffffffffffffffffffffffffffffffff16638e03a546826040518263ffffffff1660e01b81526004016106299190611b17565b600060405180830381600087803b15801561064357600080fd5b505af1158015610657573d6000803e3d6000fd5b50505050600061075f8385806000019061067191906119f1565b8080601f016020809104026020016040519081016040528093929190818152602001838380828437600081840152601f19601f820116905080830192505050505050508680602001906106c491906119f1565b8080601f016020809104026020016040519081016040528093929190818152602001838380828437600081840152601f19601f8201169050808301925050505050505087806040019061071791906119f1565b8080601f016020809104026020016040519081016040528093929190818152602001838380828437600081840152601f19601f82011690508083019250505050505050610f63565b90508173ffffffffffffffffffffffffffffffffffffffff168373ffffffffffffffffffffffffffffffffffffffff167f54afb3c6fa343adbababaff54538ba5b13f39308648c53aa53da99bafe9a0fc3836040516107be9190611b4b565b60405180910390a3505050505050565b60008060009054906101000a900473ffffffffffffffffffffffffffffffffffffffff16905090565b600660009054906101000a900473ffffffffffffffffffffffffffffffffffffffff1681565b60075481565b61082b610cda565b73ffffffffffffffffffffffffffffffffffffffff166108496107ce565b73ffffffffffffffffffffffffffffffffffffffff161461089f576040517f08c379a000000000000000000000000000000000000000000000000000000000815260040161089690611956565b60405180910390fd5b6000600754146108e4576040517f08c379a00000000000000000000000000000000000000000000000000000000081526004016108db90611bb2565b60405180910390fd5b80600781905550600360009054906101000a900473ffffffffffffffffffffffffffffffffffffffff1673ffffffffffffffffffffffffffffffffffffffff166342842e0e3330846040518463ffffffff1660e01b815260040161094a93929190611bd2565b600060405180830381600087803b15801561096457600080fd5b505af1158015610978573d6000803e3d6000fd5b50505050600360009054906101000a900473ffffffffffffffffffffffffffffffffffffffff1673ffffffffffffffffffffffffffffffffffffffff166328ed4f6c82306040518363ffffffff1660e01b81526004016109d9929190611c09565b600060405180830381600087803b1580156109f357600080fd5b505af1158015610a07573d6000803e3d6000fd5b5050505050565b600160009054906101000a900473ffffffffffffffffffffffffffffffffffffffff1681565b600460009054906101000a900473ffffffffffffffffffffffffffffffffffffffff1681565b610a62610cda565b73ffffffffffffffffffffffffffffffffffffffff16610a806107ce565b73ffffffffffffffffffffffffffffffffffffffff1614610ad6576040517f08c379a0000000000000000000000000000000000000000000000000000000008152600401610acd90611956565b60405180910390fd5b600060075411610b1b576040517f08c379a0000000000000000000000000000000000000000000000000000000008152600401610b1290611c7e565b60405180910390fd5b60006007549050600760009055600360009054906101000a900473ffffffffffffffffffffffffffffffffffffffff1673ffffffffffffffffffffffffffffffffffffffff166342842e0e3084846040518463ffffffff1660e01b8152600401610b8793929190611bd2565b600060405180830381600087803b158015610ba157600080fd5b505af1158015610bb5573d6000803e3d6000fd5b505050505050565b600360009054906101000a900473ffffffffffffffffffffffffffffffffffffffff1681565b610beb610cda565b73ffffffffffffffffffffffffffffffffffffffff16610c096107ce565b73ffffffffffffffffffffffffffffffffffffffff1614610c5f576040517f08c379a0000000000000000000000000000000000000000000000000000000008152600401610c5690611956565b60405180910390fd5b600073ffffffffffffffffffffffffffffffffffffffff168173ffffffffffffffffffffffffffffffffffffffff1603610cce576040517f08c379a0000000000000000000000000000000000000000000000000000000008152600401610cc590611d10565b60405180910390fd5b610cd781610ce2565b50565b600033905090565b60008060009054906101000a900473ffffffffffffffffffffffffffffffffffffffff169050816000806101000a81548173ffffffffffffffffffffffffffffffffffffffff021916908373ffffffffffffffffffffffffffffffffffffffff1602179055508173ffffffffffffffffffffffffffffffffffffffff168173ffffffffffffffffffffffffffffffffffffffff167f8be0079c531659141344cd1fd0a4f28419497f9722a3daafe3b4186f6b6457e060405160405180910390a35050565b6000600460009054906101000a900473ffffffffffffffffffffffffffffffffffffffff1673ffffffffffffffffffffffffffffffffffffffff16631688f0b9600560009054906101000a900473ffffffffffffffffffffffffffffffffffffffff1685856040518463ffffffff1660e01b8152600401610e2993929190611db8565b6020604051808303816000875af1158015610e48573d6000803e3d6000fd5b505050506040513d601f19601f82011682018060405250810190610e6c9190611e46565b905092915050565b6000610eca600660009054906101000a900473ffffffffffffffffffffffffffffffffffffffff168484604051602001610eaf929190611ea4565b60405160208183030381529060405280519060200120611208565b90508073ffffffffffffffffffffffffffffffffffffffff16635e0cbb108484600860009054906101000a900473ffffffffffffffffffffffffffffffffffffffff166040518463ffffffff1660e01b8152600401610f2b93929190611ec8565b600060405180830381600087803b158015610f4557600080fd5b505af1158015610f59573d6000803e3d6000fd5b5050505092915050565b600080848051906020012090506000600360009054906101000a900473ffffffffffffffffffffffffffffffffffffffff1673ffffffffffffffffffffffffffffffffffffffff1663ddf7fcb06040518163ffffffff1660e01b8152600401602060405180830381865afa158015610fdf573d6000803e3d6000fd5b505050506040513d601f19601f820116820180604052508101906110039190611f39565b905060006110168260075460001b6112de565b905061102281846112de565b9350600260009054906101000a900473ffffffffffffffffffffffffffffffffffffffff1673ffffffffffffffffffffffffffffffffffffffff16635ef2c7f0828530600160009054906101000a900473ffffffffffffffffffffffffffffffffffffffff16610e106040518663ffffffff1660e01b81526004016110ab959493929190611fb5565b600060405180830381600087803b1580156110c557600080fd5b505af11580156110d9573d6000803e3d6000fd5b50505050600160009054906101000a900473ffffffffffffffffffffffffffffffffffffffff1673ffffffffffffffffffffffffffffffffffffffff1663d5fa2b00858a6040518363ffffffff1660e01b815260040161113a929190612008565b600060405180830381600087803b15801561115457600080fd5b505af1158015611168573d6000803e3d6000fd5b50505050600160009054906101000a900473ffffffffffffffffffffffffffffffffffffffff1673ffffffffffffffffffffffffffffffffffffffff166310f13a8c8588886040518463ffffffff1660e01b81526004016111cb93929190612075565b600060405180830381600087803b1580156111e557600080fd5b505af11580156111f9573d6000803e3d6000fd5b50505050505050949350505050565b60006040517f3d602d80600a3d3981f3363d3d373d3d3d363d7300000000000000000000000081528360601b60148201527f5af43d82803e903d91602b57fd5bf300000000000000000000000000000000006028820152826037826000f5915050600073ffffffffffffffffffffffffffffffffffffffff168173ffffffffffffffffffffffffffffffffffffffff16036112d8576040517f08c379a00000000000000000000000000000000000000000000000000000000081526004016112cf90612106565b60405180910390fd5b92915050565b600082826040516020016112f3929190612147565b60405160208183030381529060405280519060200120905092915050565b600073ffffffffffffffffffffffffffffffffffffffff82169050919050565b6000819050919050565b600061135661135161134c84611311565b611331565b611311565b9050919050565b60006113688261133b565b9050919050565b600061137a8261135d565b9050919050565b61138a8161136f565b82525050565b60006020820190506113a56000830184611381565b92915050565b6000604051905090565b600080fd5b600080fd5b60006113ca82611311565b9050919050565b6113da816113bf565b81146113e557600080fd5b50565b6000813590506113f7816113d1565b92915050565b6000819050919050565b611410816113fd565b811461141b57600080fd5b50565b60008135905061142d81611407565b92915050565b600080fd5b600080fd5b6000601f19601f8301169050919050565b7f4e487b7100000000000000000000000000000000000000000000000000000000600052604160045260246000fd5b6114868261143d565b810181811067ffffffffffffffff821117156114a5576114a461144e565b5b80604052505050565b60006114b86113ab565b90506114c4828261147d565b919050565b600067ffffffffffffffff8211156114e4576114e361144e565b5b6114ed8261143d565b9050602081019050919050565b82818337600083830152505050565b600061151c611517846114c9565b6114ae565b90508281526020810184848401111561153857611537611438565b5b6115438482856114fa565b509392505050565b600082601f8301126115605761155f611433565b5b8135611570848260208601611509565b91505092915050565b60008060008060808587031215611593576115926113b5565b5b60006115a1878288016113e8565b94505060206115b2878288016113e8565b93505060406115c38782880161141e565b925050606085013567ffffffffffffffff8111156115e4576115e36113ba565b5b6115f08782880161154b565b91505092959194509250565b60007fffffffff0000000000000000000000000000000000000000000000000000000082169050919050565b611631816115fc565b82525050565b600060208201905061164c6000830184611628565b92915050565b61165b816113bf565b82525050565b60006020820190506116766000830184611652565b92915050565b60006116878261135d565b9050919050565b6116978161167c565b82525050565b60006020820190506116b2600083018461168e565b92915050565b600080fd5b6000604082840312156116d3576116d26116b8565b5b81905092915050565b6000602082840312156116f2576116f16116b8565b5b81905092915050565b600060608284031215611711576117106116b8565b5b81905092915050565b600080600060608486031215611733576117326113b5565b5b600084013567ffffffffffffffff811115611751576117506113ba565b5b61175d868287016116bd565b935050602084013567ffffffffffffffff81111561177e5761177d6113ba565b5b61178a868287016116dc565b925050604084013567ffffffffffffffff8111156117ab576117aa6113ba565b5b6117b7868287016116fb565b9150509250925092565b6117ca816113fd565b82525050565b60006020820190506117e560008301846117c1565b92915050565b600060208284031215611801576118006113b5565b5b600061180f8482850161141e565b91505092915050565b60006118238261135d565b9050919050565b61183381611818565b82525050565b600060208201905061184e600083018461182a565b92915050565b600061185f8261135d565b9050919050565b61186f81611854565b82525050565b600060208201905061188a6000830184611866565b92915050565b6000602082840312156118a6576118a56113b5565b5b60006118b4848285016113e8565b91505092915050565b60006118c88261135d565b9050919050565b6118d8816118bd565b82525050565b60006020820190506118f360008301846118cf565b92915050565b600082825260208201905092915050565b7f4f776e61626c653a2063616c6c6572206973206e6f7420746865206f776e6572600082015250565b60006119406020836118f9565b915061194b8261190a565b602082019050919050565b6000602082019050818103600083015261196f81611933565b9050919050565b7f454e5320646f6d61696e20756e617661696c61626c6500000000000000000000600082015250565b60006119ac6016836118f9565b91506119b782611976565b602082019050919050565b600060208201905081810360008301526119db8161199f565b9050919050565b600080fd5b600080fd5b600080fd5b60008083356001602003843603038112611a0e57611a0d6119e2565b5b80840192508235915067ffffffffffffffff821115611a3057611a2f6119e7565b5b602083019250600182023603831315611a4c57611a4b6119ec565b5b509250929050565b600081905092915050565b6000611a6b8385611a54565b9350611a788385846114fa565b82840190509392505050565b60008160601b9050919050565b6000611a9c82611a84565b9050919050565b6000611aae82611a91565b9050919050565b611ac6611ac1826113bf565b611aa3565b82525050565b6000611ad9828587611a5f565b9150611ae58284611ab5565b601482019150819050949350505050565b6000611b018261135d565b9050919050565b611b1181611af6565b82525050565b6000602082019050611b2c6000830184611b08565b92915050565b6000819050919050565b611b4581611b32565b82525050565b6000602082019050611b606000830184611b3c565b92915050565b7f656e7320646f6d61696e20616c72656164792073657400000000000000000000600082015250565b6000611b9c6016836118f9565b9150611ba782611b66565b602082019050919050565b60006020820190508181036000830152611bcb81611b8f565b9050919050565b6000606082019050611be76000830186611652565b611bf46020830185611652565b611c0160408301846117c1565b949350505050565b6000604082019050611c1e60008301856117c1565b611c2b6020830184611652565b9392505050565b7f656e7320646f6d61696e206e6f74207365740000000000000000000000000000600082015250565b6000611c686012836118f9565b9150611c7382611c32565b602082019050919050565b60006020820190508181036000830152611c9781611c5b565b9050919050565b7f4f776e61626c653a206e6577206f776e657220697320746865207a65726f206160008201527f6464726573730000000000000000000000000000000000000000000000000000602082015250565b6000611cfa6026836118f9565b9150611d0582611c9e565b604082019050919050565b60006020820190508181036000830152611d2981611ced565b9050919050565b600081519050919050565b600082825260208201905092915050565b60005b83811015611d6a578082015181840152602081019050611d4f565b83811115611d79576000848401525b50505050565b6000611d8a82611d30565b611d948185611d3b565b9350611da4818560208601611d4c565b611dad8161143d565b840191505092915050565b6000606082019050611dcd6000830186611652565b8181036020830152611ddf8185611d7f565b9050611dee60408301846117c1565b949350505050565b6000611e0182611311565b9050919050565b6000611e1382611df6565b9050919050565b611e2381611e08565b8114611e2e57600080fd5b50565b600081519050611e4081611e1a565b92915050565b600060208284031215611e5c57611e5b6113b5565b5b6000611e6a84828501611e31565b91505092915050565b6000611e7e82611d30565b611e888185611a54565b9350611e98818560208601611d4c565b80840191505092915050565b6000611eb08285611e73565b9150611ebc8284611e73565b91508190509392505050565b60006060820190508181036000830152611ee28186611d7f565b90508181036020830152611ef68185611d7f565b9050611f056040830184611652565b949350505050565b611f1681611b32565b8114611f2157600080fd5b50565b600081519050611f3381611f0d565b92915050565b600060208284031215611f4f57611f4e6113b5565b5b6000611f5d84828501611f24565b91505092915050565b6000819050919050565b600067ffffffffffffffff82169050919050565b6000611f9f611f9a611f9584611f66565b611331565b611f70565b9050919050565b611faf81611f84565b82525050565b600060a082019050611fca6000830188611b3c565b611fd76020830187611b3c565b611fe46040830186611652565b611ff16060830185611652565b611ffe6080830184611fa6565b9695505050505050565b600060408201905061201d6000830185611b3c565b61202a6020830184611652565b9392505050565b600081519050919050565b600061204782612031565b61205181856118f9565b9350612061818560208601611d4c565b61206a8161143d565b840191505092915050565b600060608201905061208a6000830186611b3c565b818103602083015261209c818561203c565b905081810360408301526120b0818461203c565b9050949350505050565b7f455243313136373a2063726561746532206661696c6564000000000000000000600082015250565b60006120f06017836118f9565b91506120fb826120ba565b602082019050919050565b6000602082019050818103600083015261211f816120e3565b9050919050565b6000819050919050565b61214161213c82611b32565b612126565b82525050565b60006121538285612130565b6020820191506121638284612130565b602082019150819050939250505056fea2646970667358221220dd13d8c6ea0b4b9d37f087b8d6cde7062bfa78aed0d00242194a3a62823651ac64736f6c634300080d0033",
  "devdoc": {
    "kind": "dev",
    "methods": {
      "addENSDomain(uint256)": {
        "params": {
          "_domainNFTId": "The ENS NFT to transfer in"
        }
      },
      "createChildDAO((bytes,bytes),(bytes),(bytes,bytes,bytes))": {
        "params": {
          "_safeData": "The details of the Gnosis safe to create",
          "_subdomain": "The details of the ens subdomain to create",
          "_tokenData": "The details of the ERC20 token to create"
        }
      },
      "onERC721Received(address,address,uint256,bytes)": {
        "details": "See {IERC721Receiver-onERC721Received}. Always returns `IERC721Receiver.onERC721Received.selector`."
      },
      "owner()": {
        "details": "Returns the address of the current owner."
      },
      "renounceOwnership()": {
        "details": "Leaves the contract without owner. It will not be possible to call `onlyOwner` functions anymore. Can only be called by the current owner. NOTE: Renouncing ownership will leave the contract without an owner, thereby removing any functionality that is only available to the owner."
      },
      "transferOwnership(address)": {
        "details": "Transfers ownership of the contract to a new account (`newOwner`). Can only be called by the current owner."
      },
      "withdrawENSDomain(address)": {
        "params": {
          "_destination": "The account to transfer the domain to"
        }
      }
    },
    "version": 1
  },
  "userdoc": {
    "events": {
      "ChildDaoCreated(address,address,bytes32)": {
        "notice": "Events"
      }
    },
    "kind": "user",
    "methods": {
      "addENSDomain(uint256)": {
        "notice": "Transfers an ENS NFT into the contract for use with subdomains"
      },
      "createChildDAO((bytes,bytes),(bytes),(bytes,bytes,bytes))": {
        "notice": "Creates the constituent components of a child dao"
      },
      "ensResolver()": {
        "notice": "Autogenerated getters"
      },
      "withdrawENSDomain(address)": {
        "notice": "Removes the ENS domain from the contract"
      }
    },
    "version": 1
  },
  "storageLayout": {
    "storage": [
      {
        "astId": 6934,
        "contract": "contracts/implementations/Governor.sol:Governor",
        "label": "_owner",
        "offset": 0,
        "slot": "0",
        "type": "t_address"
      },
      {
        "astId": 12054,
        "contract": "contracts/implementations/Governor.sol:Governor",
        "label": "ensResolver",
        "offset": 0,
        "slot": "1",
        "type": "t_contract(PublicResolver)3473"
      },
      {
        "astId": 12058,
        "contract": "contracts/implementations/Governor.sol:Governor",
        "label": "ensRegistry",
        "offset": 0,
        "slot": "2",
        "type": "t_contract(ENSRegistry)3158"
      },
      {
        "astId": 12062,
        "contract": "contracts/implementations/Governor.sol:Governor",
        "label": "ensRegistrar",
        "offset": 0,
        "slot": "3",
        "type": "t_contract(IENSRegistrar)14454"
      },
      {
        "astId": 12066,
        "contract": "contracts/implementations/Governor.sol:Governor",
        "label": "gnosisFactory",
        "offset": 0,
        "slot": "4",
        "type": "t_contract(GnosisSafeProxyFactory)5329"
      },
      {
        "astId": 12069,
        "contract": "contracts/implementations/Governor.sol:Governor",
        "label": "gnosisSafeSingleton",
        "offset": 0,
        "slot": "5",
        "type": "t_address"
      },
      {
        "astId": 12072,
        "contract": "contracts/implementations/Governor.sol:Governor",
        "label": "erc20Singleton",
        "offset": 0,
        "slot": "6",
        "type": "t_address"
      },
      {
        "astId": 12075,
        "contract": "contracts/implementations/Governor.sol:Governor",
        "label": "ensDomainNFTId",
        "offset": 0,
        "slot": "7",
        "type": "t_uint256"
      },
      {
        "astId": 12078,
        "contract": "contracts/implementations/Governor.sol:Governor",
        "label": "clearingHouse",
        "offset": 0,
        "slot": "8",
        "type": "t_contract(IClearingHouse)13965"
      }
    ],
    "types": {
      "t_address": {
        "encoding": "inplace",
        "label": "address",
        "numberOfBytes": "20"
      },
      "t_contract(ENSRegistry)3158": {
        "encoding": "inplace",
        "label": "contract ENSRegistry",
        "numberOfBytes": "20"
      },
      "t_contract(GnosisSafeProxyFactory)5329": {
        "encoding": "inplace",
        "label": "contract GnosisSafeProxyFactory",
        "numberOfBytes": "20"
      },
      "t_contract(IClearingHouse)13965": {
        "encoding": "inplace",
        "label": "contract IClearingHouse",
        "numberOfBytes": "20"
      },
      "t_contract(IENSRegistrar)14454": {
        "encoding": "inplace",
        "label": "contract IENSRegistrar",
        "numberOfBytes": "20"
      },
      "t_contract(PublicResolver)3473": {
        "encoding": "inplace",
        "label": "contract PublicResolver",
        "numberOfBytes": "20"
      },
      "t_uint256": {
        "encoding": "inplace",
        "label": "uint256",
        "numberOfBytes": "32"
      }
    }
  }
}