{
  "address": "0x351e9c4de57a1854397E97Df909Ea0b3D7cbd219",
  "abi": [
    {
      "inputs": [
        {
          "internalType": "address",
          "name": "_rewardToken",
          "type": "address"
        },
        {
          "internalType": "address",
          "name": "_owner",
          "type": "address"
        },
        {
          "internalType": "uint256",
          "name": "_lockupPeriod",
          "type": "uint256"
        }
      ],
      "stateMutability": "nonpayable",
      "type": "constructor"
    },
    {
      "inputs": [
        {
          "internalType": "uint256",
          "name": "x",
          "type": "uint256"
        }
      ],
      "name": "PRBMathUD60x18__FromUintOverflow",
      "type": "error"
    },
    {
      "inputs": [
        {
          "internalType": "uint256",
          "name": "prod1",
          "type": "uint256"
        }
      ],
      "name": "PRBMath__MulDivFixedPointOverflow",
      "type": "error"
    },
    {
      "inputs": [
        {
          "internalType": "uint256",
          "name": "prod1",
          "type": "uint256"
        },
        {
          "internalType": "uint256",
          "name": "denominator",
          "type": "uint256"
        }
      ],
      "name": "PRBMath__MulDivOverflow",
      "type": "error"
    },
    {
      "anonymous": false,
      "inputs": [
        {
          "indexed": true,
          "internalType": "address",
          "name": "user",
          "type": "address"
        },
        {
          "indexed": true,
          "internalType": "address",
          "name": "daoToken",
          "type": "address"
        },
        {
          "indexed": false,
          "internalType": "uint256",
          "name": "amount",
          "type": "uint256"
        }
      ],
      "name": "ClaimRewards",
      "type": "event"
    },
    {
      "anonymous": false,
      "inputs": [
        {
          "indexed": true,
          "internalType": "address",
          "name": "daoToken",
          "type": "address"
        },
        {
          "indexed": false,
          "internalType": "uint256",
          "name": "amount",
          "type": "uint256"
        }
      ],
      "name": "Distribution",
      "type": "event"
    },
    {
      "anonymous": false,
      "inputs": [
        {
          "indexed": true,
          "internalType": "address",
          "name": "sender",
          "type": "address"
        },
        {
          "indexed": true,
          "internalType": "address",
          "name": "daoToken",
          "type": "address"
        },
        {
          "indexed": false,
          "internalType": "uint256",
          "name": "amount",
          "type": "uint256"
        }
      ],
      "name": "Eject",
      "type": "event"
    },
    {
      "anonymous": false,
      "inputs": [
        {
          "indexed": true,
          "internalType": "address",
          "name": "previousOwner",
          "type": "address"
        },
        {
          "indexed": true,
          "internalType": "address",
          "name": "newOwner",
          "type": "address"
        }
      ],
      "name": "OwnershipTransferred",
      "type": "event"
    },
    {
      "anonymous": false,
      "inputs": [
        {
          "indexed": true,
          "internalType": "address",
          "name": "user",
          "type": "address"
        },
        {
          "indexed": true,
          "internalType": "address",
          "name": "daoToken",
          "type": "address"
        },
        {
          "indexed": false,
          "internalType": "uint256",
          "name": "amount",
          "type": "uint256"
        }
      ],
      "name": "Stake",
      "type": "event"
    },
    {
      "anonymous": false,
      "inputs": [
        {
          "indexed": true,
          "internalType": "address",
          "name": "user",
          "type": "address"
        },
        {
          "indexed": true,
          "internalType": "address",
          "name": "daoToken",
          "type": "address"
        },
        {
          "indexed": false,
          "internalType": "uint256",
          "name": "amount",
          "type": "uint256"
        }
      ],
      "name": "Unstake",
      "type": "event"
    },
    {
      "inputs": [
        {
          "internalType": "address",
          "name": "_daoToken",
          "type": "address"
        },
        {
          "internalType": "address",
          "name": "_to",
          "type": "address"
        }
      ],
      "name": "claimRewards",
      "outputs": [],
      "stateMutability": "nonpayable",
      "type": "function"
    },
    {
      "inputs": [
        {
          "internalType": "address",
          "name": "",
          "type": "address"
        }
      ],
      "name": "daoRewards",
      "outputs": [
        {
          "internalType": "uint256",
          "name": "totalStake",
          "type": "uint256"
        },
        {
          "internalType": "uint256",
          "name": "rewardPerToken",
          "type": "uint256"
        }
      ],
      "stateMutability": "view",
      "type": "function"
    },
    {
      "inputs": [
        {
          "internalType": "address",
          "name": "_daoToken",
          "type": "address"
        },
        {
          "internalType": "uint256",
          "name": "_amount",
          "type": "uint256"
        }
      ],
      "name": "distributeRewards",
      "outputs": [],
      "stateMutability": "nonpayable",
      "type": "function"
    },
    {
      "inputs": [
        {
          "internalType": "address",
          "name": "_daoToken",
          "type": "address"
        },
        {
          "internalType": "address",
          "name": "_to",
          "type": "address"
        }
      ],
      "name": "emergencyEject",
      "outputs": [],
      "stateMutability": "nonpayable",
      "type": "function"
    },
    {
      "inputs": [],
      "name": "lockupPeriod",
      "outputs": [
        {
          "internalType": "uint256",
          "name": "",
          "type": "uint256"
        }
      ],
      "stateMutability": "view",
      "type": "function"
    },
    {
      "inputs": [],
      "name": "owner",
      "outputs": [
        {
          "internalType": "address",
          "name": "",
          "type": "address"
        }
      ],
      "stateMutability": "view",
      "type": "function"
    },
    {
      "inputs": [
        {
          "internalType": "address",
          "name": "_user",
          "type": "address"
        },
        {
          "internalType": "address",
          "name": "_daoToken",
          "type": "address"
        }
      ],
      "name": "pendingRewards",
      "outputs": [
        {
          "internalType": "uint256",
          "name": "rewardAmount",
          "type": "uint256"
        }
      ],
      "stateMutability": "view",
      "type": "function"
    },
    {
      "inputs": [],
      "name": "renounceOwnership",
      "outputs": [],
      "stateMutability": "nonpayable",
      "type": "function"
    },
    {
      "inputs": [],
      "name": "rewardToken",
      "outputs": [
        {
          "internalType": "contract ERC20",
          "name": "",
          "type": "address"
        }
      ],
      "stateMutability": "view",
      "type": "function"
    },
    {
      "inputs": [
        {
          "internalType": "uint256",
          "name": "_lockupPeriod",
          "type": "uint256"
        }
      ],
      "name": "setLockupPeriod",
      "outputs": [],
      "stateMutability": "nonpayable",
      "type": "function"
    },
    {
      "inputs": [
        {
          "internalType": "address",
          "name": "_daoToken",
          "type": "address"
        },
        {
          "internalType": "uint256",
          "name": "_amount",
          "type": "uint256"
        }
      ],
      "name": "stake",
      "outputs": [],
      "stateMutability": "nonpayable",
      "type": "function"
    },
    {
      "inputs": [
        {
          "internalType": "address",
          "name": "_user",
          "type": "address"
        },
        {
          "internalType": "address",
          "name": "_daoToken",
          "type": "address"
        },
        {
          "internalType": "uint256",
          "name": "_amount",
          "type": "uint256"
        }
      ],
      "name": "stakeOnBehalf",
      "outputs": [],
      "stateMutability": "nonpayable",
      "type": "function"
    },
    {
      "inputs": [
        {
          "internalType": "address",
          "name": "newOwner",
          "type": "address"
        }
      ],
      "name": "transferOwnership",
      "outputs": [],
      "stateMutability": "nonpayable",
      "type": "function"
    },
    {
      "inputs": [
        {
          "internalType": "address",
          "name": "_daoToken",
          "type": "address"
        },
        {
          "internalType": "uint256",
          "name": "_amount",
          "type": "uint256"
        },
        {
          "internalType": "address",
          "name": "_to",
          "type": "address"
        }
      ],
      "name": "unstake",
      "outputs": [],
      "stateMutability": "nonpayable",
      "type": "function"
    },
    {
      "inputs": [
        {
          "internalType": "address",
          "name": "",
          "type": "address"
        },
        {
          "internalType": "address",
          "name": "",
          "type": "address"
        }
      ],
      "name": "userStakes",
      "outputs": [
        {
          "internalType": "uint256",
          "name": "stakedAmount",
          "type": "uint256"
        },
        {
          "internalType": "uint256",
          "name": "rewardEntry",
          "type": "uint256"
        },
        {
          "internalType": "uint256",
          "name": "pendingRewards",
          "type": "uint256"
        },
        {
          "internalType": "uint256",
          "name": "timeStaked",
          "type": "uint256"
        }
      ],
      "stateMutability": "view",
      "type": "function"
    }
  ],
  "transactionHash": "0xf3f017e670e50378aba7dc48ebf647f632b55f4c353de6476f7a404dbe782890",
  "args": [
    "0xd11Dd8a141cdb2FD1d464DAb18C43238e4ccaDc1",
    "0x5f8DAE75066f48554A8Ed9304E0351D72e3dc1Ba",
    "2592000"
  ],
  "numDeployments": 1,
  "solcInputHash": "774844eabd44960a7eaa98036a7681b8",
  "bytecode": "0x60a06040523480156200001157600080fd5b50604051620031c1380380620031c18339818101604052810190620000379190620003cd565b620000576200004b6200011e60201b60201c565b6200012660201b60201c565b600073ffffffffffffffffffffffffffffffffffffffff168373ffffffffffffffffffffffffffffffffffffffff1603620000c9576040517f08c379a0000000000000000000000000000000000000000000000000000000008152600401620000c0906200048a565b60405180910390fd5b8273ffffffffffffffffffffffffffffffffffffffff1660808173ffffffffffffffffffffffffffffffffffffffff1681525050806003819055506200011582620001ea60201b60201c565b505050620005b6565b600033905090565b60008060009054906101000a900473ffffffffffffffffffffffffffffffffffffffff169050816000806101000a81548173ffffffffffffffffffffffffffffffffffffffff021916908373ffffffffffffffffffffffffffffffffffffffff1602179055508173ffffffffffffffffffffffffffffffffffffffff168173ffffffffffffffffffffffffffffffffffffffff167f8be0079c531659141344cd1fd0a4f28419497f9722a3daafe3b4186f6b6457e060405160405180910390a35050565b620001fa6200011e60201b60201c565b73ffffffffffffffffffffffffffffffffffffffff1662000220620002ff60201b60201c565b73ffffffffffffffffffffffffffffffffffffffff161462000279576040517f08c379a00000000000000000000000000000000000000000000000000000000081526004016200027090620004fc565b60405180910390fd5b600073ffffffffffffffffffffffffffffffffffffffff168173ffffffffffffffffffffffffffffffffffffffff1603620002eb576040517f08c379a0000000000000000000000000000000000000000000000000000000008152600401620002e29062000594565b60405180910390fd5b620002fc816200012660201b60201c565b50565b60008060009054906101000a900473ffffffffffffffffffffffffffffffffffffffff16905090565b600080fd5b600073ffffffffffffffffffffffffffffffffffffffff82169050919050565b60006200035a826200032d565b9050919050565b6200036c816200034d565b81146200037857600080fd5b50565b6000815190506200038c8162000361565b92915050565b6000819050919050565b620003a78162000392565b8114620003b357600080fd5b50565b600081519050620003c7816200039c565b92915050565b600080600060608486031215620003e957620003e862000328565b5b6000620003f9868287016200037b565b93505060206200040c868287016200037b565b92505060406200041f86828701620003b6565b9150509250925092565b600082825260208201905092915050565b7f696e76616c69642072657761726420746f6b656e000000000000000000000000600082015250565b60006200047260148362000429565b91506200047f826200043a565b602082019050919050565b60006020820190508181036000830152620004a58162000463565b9050919050565b7f4f776e61626c653a2063616c6c6572206973206e6f7420746865206f776e6572600082015250565b6000620004e460208362000429565b9150620004f182620004ac565b602082019050919050565b600060208201905081810360008301526200051781620004d5565b9050919050565b7f4f776e61626c653a206e6577206f776e657220697320746865207a65726f206160008201527f6464726573730000000000000000000000000000000000000000000000000000602082015250565b60006200057c60268362000429565b915062000589826200051e565b604082019050919050565b60006020820190508181036000830152620005af816200056d565b9050919050565b608051612be1620005e060003960008181610d000152818161122701526113c40152612be16000f3fe608060405234801561001057600080fd5b50600436106100f55760003560e01c8063c74759ba11610097578063f1e42ccd11610066578063f1e42ccd14610260578063f2fde38b1461027c578063f7c618c114610298578063fadb5d8c146102b6576100f5565b8063c74759ba146101d9578063c771c3901461020a578063ca92a56114610226578063ee947a7c14610242576100f5565b80638da5cb5b116100d35780638da5cb5b14610167578063926e31d614610185578063a8031a1d146101a1578063adc9772e146101bd576100f5565b8063715018a6146100fa57806380ac822814610104578063862d2d7c14610134575b600080fd5b6101026102d2565b005b61011e6004803603810190610119919061229d565b61035a565b60405161012b91906122f6565b60405180910390f35b61014e6004803603810190610149919061229d565b6104a0565b60405161015e9493929190612311565b60405180910390f35b61016f6104dd565b60405161017c9190612365565b60405180910390f35b61019f600480360381019061019a91906123ac565b610506565b005b6101bb60048036038101906101b691906123ff565b610afe565b005b6101d760048036038101906101d291906123ff565b610da4565b005b6101f360048036038101906101ee919061243f565b610db3565b60405161020192919061246c565b60405180910390f35b610224600480360381019061021f9190612495565b610dd7565b005b610240600480360381019061023b91906124c2565b610e5d565b005b61024a610edc565b60405161025791906122f6565b60405180910390f35b61027a6004803603810190610275919061229d565b610ee2565b005b6102966004803603810190610291919061243f565b6112cb565b005b6102a06113c2565b6040516102ad9190612574565b60405180910390f35b6102d060048036038101906102cb919061229d565b6113e6565b005b6102da611975565b73ffffffffffffffffffffffffffffffffffffffff166102f86104dd565b73ffffffffffffffffffffffffffffffffffffffff161461034e576040517f08c379a0000000000000000000000000000000000000000000000000000000008152600401610345906125ec565b60405180910390fd5b610358600061197d565b565b600080600160008473ffffffffffffffffffffffffffffffffffffffff1673ffffffffffffffffffffffffffffffffffffffff1681526020019081526020016000206040518060400160405290816000820154815260200160018201548152505090506000600260008573ffffffffffffffffffffffffffffffffffffffff1673ffffffffffffffffffffffffffffffffffffffff16815260200190815260200160002060008673ffffffffffffffffffffffffffffffffffffffff1673ffffffffffffffffffffffffffffffffffffffff1681526020019081526020016000206040518060800160405290816000820154815260200160018201548152602001600282015481526020016003820154815250509050806040015161048c826000015184602001518460200151611a41565b610496919061263b565b9250505092915050565b6002602052816000526040600020602052806000526040600020600091509150508060000154908060010154908060020154908060030154905084565b60008060009054906101000a900473ffffffffffffffffffffffffffffffffffffffff16905090565b826000600260008373ffffffffffffffffffffffffffffffffffffffff1673ffffffffffffffffffffffffffffffffffffffff16815260200190815260200160002060003373ffffffffffffffffffffffffffffffffffffffff1673ffffffffffffffffffffffffffffffffffffffff168152602001908152602001600020604051806080016040529081600082015481526020016001820154815260200160028201548152602001600382015481525050905060035481606001516105cc919061263b565b42101561060e576040517f08c379a0000000000000000000000000000000000000000000000000000000008152600401610605906126dd565b60405180910390fd5b600073ffffffffffffffffffffffffffffffffffffffff168573ffffffffffffffffffffffffffffffffffffffff160361067d576040517f08c379a000000000000000000000000000000000000000000000000000000000815260040161067490612749565b60405180910390fd5b600084116106c0576040517f08c379a00000000000000000000000000000000000000000000000000000000081526004016106b7906127b5565b60405180910390fd5b600073ffffffffffffffffffffffffffffffffffffffff168373ffffffffffffffffffffffffffffffffffffffff160361072f576040517f08c379a000000000000000000000000000000000000000000000000000000000815260040161072690612821565b60405180910390fd5b6000600160008773ffffffffffffffffffffffffffffffffffffffff1673ffffffffffffffffffffffffffffffffffffffff1681526020019081526020016000206040518060400160405290816000820154815260200160018201548152505090506000600260008873ffffffffffffffffffffffffffffffffffffffff1673ffffffffffffffffffffffffffffffffffffffff16815260200190815260200160002060003373ffffffffffffffffffffffffffffffffffffffff1673ffffffffffffffffffffffffffffffffffffffff1681526020019081526020016000206040518060800160405290816000820154815260200160018201548152602001600282015481526020016003820154815250509050806000015186111561088b576040517f08c379a00000000000000000000000000000000000000000000000000000000081526004016108829061288d565b60405180910390fd5b6108a2816000015183602001518360200151611a41565b816040018181516108b3919061263b565b9150818152505085816000018181516108cc91906128ad565b91508181525050816020015181602001818152505085826000018181516108f391906128ad565b9150818152505060008260000151036109125760008260200181815250505b81600160008973ffffffffffffffffffffffffffffffffffffffff1673ffffffffffffffffffffffffffffffffffffffff168152602001908152602001600020600082015181600001556020820151816001015590505080600260008973ffffffffffffffffffffffffffffffffffffffff1673ffffffffffffffffffffffffffffffffffffffff16815260200190815260200160002060003373ffffffffffffffffffffffffffffffffffffffff1673ffffffffffffffffffffffffffffffffffffffff168152602001908152602001600020600082015181600001556020820151816001015560408201518160020155606082015181600301559050508673ffffffffffffffffffffffffffffffffffffffff163373ffffffffffffffffffffffffffffffffffffffff167f390b1276974b9463e5d66ab10df69b6f3d7b930eb066a0e66df327edd2cc811c88604051610a6e91906122f6565b60405180910390a38673ffffffffffffffffffffffffffffffffffffffff1663a9059cbb86886040518363ffffffff1660e01b8152600401610ab19291906128e1565b6020604051808303816000875af1158015610ad0573d6000803e3d6000fd5b505050506040513d601f19601f82011682018060405250810190610af49190612942565b5050505050505050565b600073ffffffffffffffffffffffffffffffffffffffff168273ffffffffffffffffffffffffffffffffffffffff1603610b6d576040517f08c379a0000000000000000000000000000000000000000000000000000000008152600401610b64906129bb565b60405180910390fd5b60008111610bb0576040517f08c379a0000000000000000000000000000000000000000000000000000000008152600401610ba7906127b5565b60405180910390fd5b6000600160008473ffffffffffffffffffffffffffffffffffffffff1673ffffffffffffffffffffffffffffffffffffffff1681526020019081526020016000206040518060400160405290816000820154815260200160018201548152505090506000816000015103610c3c578181602001818151610c30919061263b565b91508181525050610c59565b610c4f8160200151838360000151611aa0565b8160200181815250505b80600160008573ffffffffffffffffffffffffffffffffffffffff1673ffffffffffffffffffffffffffffffffffffffff16815260200190815260200160002060008201518160000155602082015181600101559050508273ffffffffffffffffffffffffffffffffffffffff167f33ad5d6b2a46b5457e0d36286a2686a0390b0821dedbbdf8dcdcda64f4782c6883604051610cf691906122f6565b60405180910390a27f000000000000000000000000000000000000000000000000000000000000000073ffffffffffffffffffffffffffffffffffffffff166323b872dd3330856040518463ffffffff1660e01b8152600401610d5b939291906129db565b6020604051808303816000875af1158015610d7a573d6000803e3d6000fd5b505050506040513d601f19601f82011682018060405250810190610d9e9190612942565b50505050565b610daf338383611ad1565b5050565b60016020528060005260406000206000915090508060000154908060010154905082565b610ddf611975565b73ffffffffffffffffffffffffffffffffffffffff16610dfd6104dd565b73ffffffffffffffffffffffffffffffffffffffff1614610e53576040517f08c379a0000000000000000000000000000000000000000000000000000000008152600401610e4a906125ec565b60405180910390fd5b8060038190555050565b600073ffffffffffffffffffffffffffffffffffffffff168373ffffffffffffffffffffffffffffffffffffffff1603610ecc576040517f08c379a0000000000000000000000000000000000000000000000000000000008152600401610ec390612a5e565b60405180910390fd5b610ed7838383611ad1565b505050565b60035481565b600073ffffffffffffffffffffffffffffffffffffffff168273ffffffffffffffffffffffffffffffffffffffff1603610f51576040517f08c379a0000000000000000000000000000000000000000000000000000000008152600401610f4890612aca565b60405180910390fd5b600073ffffffffffffffffffffffffffffffffffffffff168173ffffffffffffffffffffffffffffffffffffffff1603610fc0576040517f08c379a0000000000000000000000000000000000000000000000000000000008152600401610fb790612821565b60405180910390fd5b6000600160008473ffffffffffffffffffffffffffffffffffffffff1673ffffffffffffffffffffffffffffffffffffffff1681526020019081526020016000206040518060400160405290816000820154815260200160018201548152505090506000600260008573ffffffffffffffffffffffffffffffffffffffff1673ffffffffffffffffffffffffffffffffffffffff16815260200190815260200160002060003373ffffffffffffffffffffffffffffffffffffffff1673ffffffffffffffffffffffffffffffffffffffff1681526020019081526020016000206040518060800160405290816000820154815260200160018201548152602001600282015481526020016003820154815250509050600081604001516110f3836000015185602001518560200151611a41565b6110fd919061263b565b90506000826040018181525050826020015182602001818152505081600260008773ffffffffffffffffffffffffffffffffffffffff1673ffffffffffffffffffffffffffffffffffffffff16815260200190815260200160002060003373ffffffffffffffffffffffffffffffffffffffff1673ffffffffffffffffffffffffffffffffffffffff168152602001908152602001600020600082015181600001556020820151816001015560408201518160020155606082015181600301559050508473ffffffffffffffffffffffffffffffffffffffff163373ffffffffffffffffffffffffffffffffffffffff167f9aa05b3d70a9e3e2f004f039648839560576334fb45c81f91b6db03ad9e2efc98360405161121d91906122f6565b60405180910390a37f000000000000000000000000000000000000000000000000000000000000000073ffffffffffffffffffffffffffffffffffffffff1663a9059cbb85836040518363ffffffff1660e01b81526004016112809291906128e1565b6020604051808303816000875af115801561129f573d6000803e3d6000fd5b505050506040513d601f19601f820116820180604052508101906112c39190612942565b505050505050565b6112d3611975565b73ffffffffffffffffffffffffffffffffffffffff166112f16104dd565b73ffffffffffffffffffffffffffffffffffffffff1614611347576040517f08c379a000000000000000000000000000000000000000000000000000000000815260040161133e906125ec565b60405180910390fd5b600073ffffffffffffffffffffffffffffffffffffffff168173ffffffffffffffffffffffffffffffffffffffff16036113b6576040517f08c379a00000000000000000000000000000000000000000000000000000000081526004016113ad90612b5c565b60405180910390fd5b6113bf8161197d565b50565b7f000000000000000000000000000000000000000000000000000000000000000081565b816000600260008373ffffffffffffffffffffffffffffffffffffffff1673ffffffffffffffffffffffffffffffffffffffff16815260200190815260200160002060003373ffffffffffffffffffffffffffffffffffffffff1673ffffffffffffffffffffffffffffffffffffffff168152602001908152602001600020604051806080016040529081600082015481526020016001820154815260200160028201548152602001600382015481525050905060035481606001516114ac919061263b565b4210156114ee576040517f08c379a00000000000000000000000000000000000000000000000000000000081526004016114e5906126dd565b60405180910390fd5b600073ffffffffffffffffffffffffffffffffffffffff168473ffffffffffffffffffffffffffffffffffffffff160361155d576040517f08c379a000000000000000000000000000000000000000000000000000000000815260040161155490612aca565b60405180910390fd5b600073ffffffffffffffffffffffffffffffffffffffff168373ffffffffffffffffffffffffffffffffffffffff16036115cc576040517f08c379a00000000000000000000000000000000000000000000000000000000081526004016115c390612821565b60405180910390fd5b6000600160008673ffffffffffffffffffffffffffffffffffffffff1673ffffffffffffffffffffffffffffffffffffffff1681526020019081526020016000206040518060400160405290816000820154815260200160018201548152505090506000600260008773ffffffffffffffffffffffffffffffffffffffff1673ffffffffffffffffffffffffffffffffffffffff16815260200190815260200160002060003373ffffffffffffffffffffffffffffffffffffffff1673ffffffffffffffffffffffffffffffffffffffff1681526020019081526020016000206040518060800160405290816000820154815260200160018201548152602001600282015481526020016003820154815250509050600081604001516116ff836000015185602001518560200151611a41565b611709919061263b565b9050600082600001519050600083600001818152505060008360200181815250506000836040018181525050808460000181815161174791906128ad565b9150818152505060008460000151111561177c5761176e8460200151838660000151611aa0565b846020018181525050611788565b60008460200181815250505b83600160008a73ffffffffffffffffffffffffffffffffffffffff1673ffffffffffffffffffffffffffffffffffffffff168152602001908152602001600020600082015181600001556020820151816001015590505082600260008a73ffffffffffffffffffffffffffffffffffffffff1673ffffffffffffffffffffffffffffffffffffffff16815260200190815260200160002060003373ffffffffffffffffffffffffffffffffffffffff1673ffffffffffffffffffffffffffffffffffffffff168152602001908152602001600020600082015181600001556020820151816001015560408201518160020155606082015181600301559050508773ffffffffffffffffffffffffffffffffffffffff163373ffffffffffffffffffffffffffffffffffffffff167fe36a8ad1ad27c4456e1d6a932b4ba7af4e84ca314eaca083903da3bfc6842f44836040516118e491906122f6565b60405180910390a38773ffffffffffffffffffffffffffffffffffffffff1663a9059cbb88836040518363ffffffff1660e01b81526004016119279291906128e1565b6020604051808303816000875af1158015611946573d6000803e3d6000fd5b505050506040513d601f19601f8201168201806040525081019061196a9190612942565b505050505050505050565b600033905090565b60008060009054906101000a900473ffffffffffffffffffffffffffffffffffffffff169050816000806101000a81548173ffffffffffffffffffffffffffffffffffffffff021916908373ffffffffffffffffffffffffffffffffffffffff1602179055508173ffffffffffffffffffffffffffffffffffffffff168173ffffffffffffffffffffffffffffffffffffffff167f8be0079c531659141344cd1fd0a4f28419497f9722a3daafe3b4186f6b6457e060405160405180910390a35050565b600080841480611a5057508183145b15611a5e5760009050611a99565b611a96611a748386611f4490919063ffffffff16565b611a878587611f4490919063ffffffff16565b611a9191906128ad565b611f58565b90505b9392505050565b6000611abd82611aaf85611f7a565b61200b90919063ffffffff16565b84611ac8919061263b565b90509392505050565b600073ffffffffffffffffffffffffffffffffffffffff168273ffffffffffffffffffffffffffffffffffffffff1603611b40576040517f08c379a0000000000000000000000000000000000000000000000000000000008152600401611b3790612749565b60405180910390fd5b60008111611b83576040517f08c379a0000000000000000000000000000000000000000000000000000000008152600401611b7a906127b5565b60405180910390fd5b6000600160008473ffffffffffffffffffffffffffffffffffffffff1673ffffffffffffffffffffffffffffffffffffffff1681526020019081526020016000206040518060400160405290816000820154815260200160018201548152505090506000600260008573ffffffffffffffffffffffffffffffffffffffff1673ffffffffffffffffffffffffffffffffffffffff16815260200190815260200160002060008673ffffffffffffffffffffffffffffffffffffffff1673ffffffffffffffffffffffffffffffffffffffff16815260200190815260200160002060405180608001604052908160008201548152602001600182015481526020016002820154815260200160038201548152505090506000826000015103611cde57600082602001511115611cd9578160200151816040018181525050611ccf6000836020015185611aa0565b8260200181815250505b611d0e565b611cf5816000015183602001518360200151611a41565b81604001818151611d06919061263b565b915081815250505b81602001518160200181815250508281600001818151611d2e919061263b565b91508181525050428160600181815250508282600001818151611d51919061263b565b9150818152505081600160008673ffffffffffffffffffffffffffffffffffffffff1673ffffffffffffffffffffffffffffffffffffffff168152602001908152602001600020600082015181600001556020820151816001015590505080600260008673ffffffffffffffffffffffffffffffffffffffff1673ffffffffffffffffffffffffffffffffffffffff16815260200190815260200160002060008773ffffffffffffffffffffffffffffffffffffffff1673ffffffffffffffffffffffffffffffffffffffff168152602001908152602001600020600082015181600001556020820151816001015560408201518160020155606082015181600301559050508373ffffffffffffffffffffffffffffffffffffffff168573ffffffffffffffffffffffffffffffffffffffff167f99039fcf0a98f484616c5196ee8b2ecfa971babf0b519848289ea4db381f85f785604051611eb491906122f6565b60405180910390a38373ffffffffffffffffffffffffffffffffffffffff166323b872dd3330866040518463ffffffff1660e01b8152600401611ef9939291906129db565b6020604051808303816000875af1158015611f18573d6000803e3d6000fd5b505050506040513d601f19601f82011682018060405250810190611f3c9190612942565b505050505050565b6000611f508383612028565b905092915050565b6000670de0b6b3a76400008281611f7257611f71612b7c565b5b049050919050565b6000670de0b6b3a76400007fffffffffffffffffffffffffffffffffffffffffffffffffffffffffffffffff81611fb457611fb3612b7c565b5b04821115611ff957816040517f3492ffd9000000000000000000000000000000000000000000000000000000008152600401611ff091906122f6565b60405180910390fd5b670de0b6b3a764000082029050919050565b600061202083670de0b6b3a764000084612125565b905092915050565b60008060008019848609848602925082811083820303915050670de0b6b3a7640000811061208d57806040517fd31b340200000000000000000000000000000000000000000000000000000000815260040161208491906122f6565b60405180910390fd5b600080670de0b6b3a764000086880991506706f05b59d3b1ffff82119050600083036120d95780670de0b6b3a764000085816120cc576120cb612b7c565b5b040194505050505061211f565b807faccb18165bd6fe31ae1cf318dc5b51eee0e1ba569b88cd74c1773b91fac1066960016204000080600003040186851186030262040000858803041702019450505050505b92915050565b60008060008019858709858702925082811083820303915050600081036121605783828161215657612155612b7c565b5b0492505050612233565b8381106121a65780846040517f773cc18c00000000000000000000000000000000000000000000000000000000815260040161219d92919061246c565b60405180910390fd5b60008486880990508281118203915080830392506000600186190186169050808604955080840493506001818260000304019050808302841793506000600287600302189050808702600203810290508087026002038102905080870260020381029050808702600203810290508087026002038102905080870260020381029050808502955050505050505b9392505050565b600080fd5b600073ffffffffffffffffffffffffffffffffffffffff82169050919050565b600061226a8261223f565b9050919050565b61227a8161225f565b811461228557600080fd5b50565b60008135905061229781612271565b92915050565b600080604083850312156122b4576122b361223a565b5b60006122c285828601612288565b92505060206122d385828601612288565b9150509250929050565b6000819050919050565b6122f0816122dd565b82525050565b600060208201905061230b60008301846122e7565b92915050565b600060808201905061232660008301876122e7565b61233360208301866122e7565b61234060408301856122e7565b61234d60608301846122e7565b95945050505050565b61235f8161225f565b82525050565b600060208201905061237a6000830184612356565b92915050565b612389816122dd565b811461239457600080fd5b50565b6000813590506123a681612380565b92915050565b6000806000606084860312156123c5576123c461223a565b5b60006123d386828701612288565b93505060206123e486828701612397565b92505060406123f586828701612288565b9150509250925092565b600080604083850312156124165761241561223a565b5b600061242485828601612288565b925050602061243585828601612397565b9150509250929050565b6000602082840312156124555761245461223a565b5b600061246384828501612288565b91505092915050565b600060408201905061248160008301856122e7565b61248e60208301846122e7565b9392505050565b6000602082840312156124ab576124aa61223a565b5b60006124b984828501612397565b91505092915050565b6000806000606084860312156124db576124da61223a565b5b60006124e986828701612288565b93505060206124fa86828701612288565b925050604061250b86828701612397565b9150509250925092565b6000819050919050565b600061253a6125356125308461223f565b612515565b61223f565b9050919050565b600061254c8261251f565b9050919050565b600061255e82612541565b9050919050565b61256e81612553565b82525050565b60006020820190506125896000830184612565565b92915050565b600082825260208201905092915050565b7f4f776e61626c653a2063616c6c6572206973206e6f7420746865206f776e6572600082015250565b60006125d660208361258f565b91506125e1826125a0565b602082019050919050565b60006020820190508181036000830152612605816125c9565b9050919050565b7f4e487b7100000000000000000000000000000000000000000000000000000000600052601160045260246000fd5b6000612646826122dd565b9150612651836122dd565b9250827fffffffffffffffffffffffffffffffffffffffffffffffffffffffffffffffff038211156126865761268561260c565b5b828201905092915050565b7f7374616b65207374696c6c206c6f636b65640000000000000000000000000000600082015250565b60006126c760128361258f565b91506126d282612691565b602082019050919050565b600060208201905081810360008301526126f6816126ba565b9050919050565b7f696e76616c696420746f6b656e00000000000000000000000000000000000000600082015250565b6000612733600d8361258f565b915061273e826126fd565b602082019050919050565b6000602082019050818103600083015261276281612726565b9050919050565b7f696e76616c696420616d6f756e74000000000000000000000000000000000000600082015250565b600061279f600e8361258f565b91506127aa82612769565b602082019050919050565b600060208201905081810360008301526127ce81612792565b9050919050565b7f696e76616c69642064657374696e6174696f6e00000000000000000000000000600082015250565b600061280b60138361258f565b9150612816826127d5565b602082019050919050565b6000602082019050818103600083015261283a816127fe565b9050919050565b7f696e76616c696420756e7374616b6520616d6f756e7400000000000000000000600082015250565b600061287760168361258f565b915061288282612841565b602082019050919050565b600060208201905081810360008301526128a68161286a565b9050919050565b60006128b8826122dd565b91506128c3836122dd565b9250828210156128d6576128d561260c565b5b828203905092915050565b60006040820190506128f66000830185612356565b61290360208301846122e7565b9392505050565b60008115159050919050565b61291f8161290a565b811461292a57600080fd5b50565b60008151905061293c81612916565b92915050565b6000602082840312156129585761295761223a565b5b60006129668482850161292d565b91505092915050565b7f696e76616c69642064616f000000000000000000000000000000000000000000600082015250565b60006129a5600b8361258f565b91506129b08261296f565b602082019050919050565b600060208201905081810360008301526129d481612998565b9050919050565b60006060820190506129f06000830186612356565b6129fd6020830185612356565b612a0a60408301846122e7565b949350505050565b7f696e76616c696420757365720000000000000000000000000000000000000000600082015250565b6000612a48600c8361258f565b9150612a5382612a12565b602082019050919050565b60006020820190508181036000830152612a7781612a3b565b9050919050565b7f696e76616c69642064616f20746f6b656e000000000000000000000000000000600082015250565b6000612ab460118361258f565b9150612abf82612a7e565b602082019050919050565b60006020820190508181036000830152612ae381612aa7565b9050919050565b7f4f776e61626c653a206e6577206f776e657220697320746865207a65726f206160008201527f6464726573730000000000000000000000000000000000000000000000000000602082015250565b6000612b4660268361258f565b9150612b5182612aea565b604082019050919050565b60006020820190508181036000830152612b7581612b39565b9050919050565b7f4e487b7100000000000000000000000000000000000000000000000000000000600052601260045260246000fdfea2646970667358221220ac8a93fbf0708e07e448584021ba7bbf4c02419851d3049b784ec4c7b6fc5ee264736f6c634300080d0033",
  "devdoc": {
    "kind": "dev",
    "methods": {
      "claimRewards(address,address)": {
        "params": {
          "_daoToken": "The dao to claim rewards for.",
          "_to": "The destination for the rewards"
        }
      },
      "distributeRewards(address,uint256)": {
        "details": "This should pull tokens from the caller's accountThis should be coded in such a way as to not require any kind of authorization other than providing an amount of reward tokens.This should handle cases where there aren't any tokens staked: first staker gets everything.",
        "params": {
          "_amount": "The amount of reward token to distribute",
          "_daoToken": "The dao to distribute rewards to"
        }
      },
      "emergencyEject(address,address)": {
        "details": "To be used as an emergency exit hatch for users. This will permanently lock any outstanding rewards for the user in the contract.",
        "params": {
          "_daoToken": "The dao governance token to eject.",
          "_to": "The destination wallet for the ejected tokens"
        }
      },
      "owner()": {
        "details": "Returns the address of the current owner."
      },
      "pendingRewards(address,address)": {
        "params": {
          "_daoToken": "The governance token of the dao the user has staked",
          "_user": "The user who staked the tokens"
        },
        "returns": {
          "rewardAmount": "The amount of the reward token that the user is entitled to"
        }
      },
      "renounceOwnership()": {
        "details": "Leaves the contract without owner. It will not be possible to call `onlyOwner` functions anymore. Can only be called by the current owner. NOTE: Renouncing ownership will leave the contract without an owner, thereby removing any functionality that is only available to the owner."
      },
      "setLockupPeriod(uint256)": {
        "params": {
          "_lockupPeriod": "The new "
        }
      },
      "stake(address,uint256)": {
        "params": {
          "_amount": "The amount of governance token to be staked",
          "_daoToken": "The governance token of the dao to be staked."
        }
      },
      "stakeOnBehalf(address,address,uint256)": {
        "params": {
          "_amount": "The amount of governance token to be staked",
          "_daoToken": "The governance token of the dao to be staked.",
          "_user": "The user the tokens are being staked on behalf for"
        }
      },
      "transferOwnership(address)": {
        "details": "Transfers ownership of the contract to a new account (`newOwner`). Can only be called by the current owner."
      },
      "unstake(address,uint256,address)": {
        "details": "This function will also claim any outstanding rewards for the user",
        "params": {
          "_amount": "The amount to remove",
          "_daoToken": "The dao governance token to unstake",
          "_to": "The destination for the dao tokens and rewards"
        }
      }
    },
    "version": 1
  },
  "userdoc": {
    "errors": {
      "PRBMathUD60x18__FromUintOverflow(uint256)": [
        {
          "notice": "Emitted when converting a basic integer to the fixed-point format format overflows UD60x18."
        }
      ],
      "PRBMath__MulDivFixedPointOverflow(uint256)": [
        {
          "notice": "Emitted when the result overflows uint256."
        }
      ],
      "PRBMath__MulDivOverflow(uint256,uint256)": [
        {
          "notice": "Emitted when the result overflows uint256."
        }
      ]
    },
    "events": {
      "Stake(address,address,uint256)": {
        "notice": "### Events"
      }
    },
    "kind": "user",
    "methods": {
      "claimRewards(address,address)": {
        "notice": "Claims all outstanding rewards for the user for the specified dao"
      },
      "distributeRewards(address,uint256)": {
        "notice": "Updates the dao distribution to include an additional amount"
      },
      "emergencyEject(address,address)": {
        "notice": "Withdraws the user's dao governance tokens without claiming any outstanding rewards"
      },
      "lockupPeriod()": {
        "notice": "### Autogenerated getter functions"
      },
      "pendingRewards(address,address)": {
        "notice": "Returns the amount of claimable reward tokens for a user for a given dao"
      },
      "setLockupPeriod(uint256)": {
        "notice": "### FunctionsUpdates the lock up period in state"
      },
      "stake(address,uint256)": {
        "notice": "Stakes amount of dao token into the contract"
      },
      "stakeOnBehalf(address,address,uint256)": {
        "notice": "Stakes amount of dao token into the contract for a user"
      },
      "unstake(address,uint256,address)": {
        "notice": "Unstakes and transfers out a given amount of dao governance tokens"
      }
    },
    "version": 1
  },
  "storageLayout": {
    "storage": [
      {
        "astId": 6934,
        "contract": "contracts/implementations/StakingRewards.sol:StakingRewards",
        "label": "_owner",
        "offset": 0,
        "slot": "0",
        "type": "t_address"
      },
      {
        "astId": 12570,
        "contract": "contracts/implementations/StakingRewards.sol:StakingRewards",
        "label": "daoRewards",
        "offset": 0,
        "slot": "1",
        "type": "t_mapping(t_address,t_struct(RewardDistribution)14120_storage)"
      },
      {
        "astId": 12578,
        "contract": "contracts/implementations/StakingRewards.sol:StakingRewards",
        "label": "userStakes",
        "offset": 0,
        "slot": "2",
        "type": "t_mapping(t_address,t_mapping(t_address,t_struct(UserStake)14129_storage))"
      },
      {
        "astId": 12580,
        "contract": "contracts/implementations/StakingRewards.sol:StakingRewards",
        "label": "lockupPeriod",
        "offset": 0,
        "slot": "3",
        "type": "t_uint256"
      }
    ],
    "types": {
      "t_address": {
        "encoding": "inplace",
        "label": "address",
        "numberOfBytes": "20"
      },
      "t_mapping(t_address,t_mapping(t_address,t_struct(UserStake)14129_storage))": {
        "encoding": "mapping",
        "key": "t_address",
        "label": "mapping(address => mapping(address => struct IStakingRewards.UserStake))",
        "numberOfBytes": "32",
        "value": "t_mapping(t_address,t_struct(UserStake)14129_storage)"
      },
      "t_mapping(t_address,t_struct(RewardDistribution)14120_storage)": {
        "encoding": "mapping",
        "key": "t_address",
        "label": "mapping(address => struct IStakingRewards.RewardDistribution)",
        "numberOfBytes": "32",
        "value": "t_struct(RewardDistribution)14120_storage"
      },
      "t_mapping(t_address,t_struct(UserStake)14129_storage)": {
        "encoding": "mapping",
        "key": "t_address",
        "label": "mapping(address => struct IStakingRewards.UserStake)",
        "numberOfBytes": "32",
        "value": "t_struct(UserStake)14129_storage"
      },
      "t_struct(RewardDistribution)14120_storage": {
        "encoding": "inplace",
        "label": "struct IStakingRewards.RewardDistribution",
        "members": [
          {
            "astId": 14117,
            "contract": "contracts/implementations/StakingRewards.sol:StakingRewards",
            "label": "totalStake",
            "offset": 0,
            "slot": "0",
            "type": "t_uint256"
          },
          {
            "astId": 14119,
            "contract": "contracts/implementations/StakingRewards.sol:StakingRewards",
            "label": "rewardPerToken",
            "offset": 0,
            "slot": "1",
            "type": "t_uint256"
          }
        ],
        "numberOfBytes": "64"
      },
      "t_struct(UserStake)14129_storage": {
        "encoding": "inplace",
        "label": "struct IStakingRewards.UserStake",
        "members": [
          {
            "astId": 14122,
            "contract": "contracts/implementations/StakingRewards.sol:StakingRewards",
            "label": "stakedAmount",
            "offset": 0,
            "slot": "0",
            "type": "t_uint256"
          },
          {
            "astId": 14124,
            "contract": "contracts/implementations/StakingRewards.sol:StakingRewards",
            "label": "rewardEntry",
            "offset": 0,
            "slot": "1",
            "type": "t_uint256"
          },
          {
            "astId": 14126,
            "contract": "contracts/implementations/StakingRewards.sol:StakingRewards",
            "label": "pendingRewards",
            "offset": 0,
            "slot": "2",
            "type": "t_uint256"
          },
          {
            "astId": 14128,
            "contract": "contracts/implementations/StakingRewards.sol:StakingRewards",
            "label": "timeStaked",
            "offset": 0,
            "slot": "3",
            "type": "t_uint256"
          }
        ],
        "numberOfBytes": "128"
      },
      "t_uint256": {
        "encoding": "inplace",
        "label": "uint256",
        "numberOfBytes": "32"
      }
    }
  }
}