{
  "address": "0x906d76E49F218638FE30e791e50A5E6F1E8fefaA",
  "abi": [
    {
      "inputs": [
        {
          "internalType": "address",
          "name": "_user",
          "type": "address"
        }
      ],
      "name": "InvalidPermissions",
      "type": "error"
    },
    {
      "anonymous": false,
      "inputs": [
        {
          "indexed": true,
          "internalType": "bytes32",
          "name": "role",
          "type": "bytes32"
        },
        {
          "indexed": true,
          "internalType": "bytes32",
          "name": "previousAdminRole",
          "type": "bytes32"
        },
        {
          "indexed": true,
          "internalType": "bytes32",
          "name": "newAdminRole",
          "type": "bytes32"
        }
      ],
      "name": "RoleAdminChanged",
      "type": "event"
    },
    {
      "anonymous": false,
      "inputs": [
        {
          "indexed": true,
          "internalType": "bytes32",
          "name": "role",
          "type": "bytes32"
        },
        {
          "indexed": true,
          "internalType": "address",
          "name": "account",
          "type": "address"
        },
        {
          "indexed": true,
          "internalType": "address",
          "name": "sender",
          "type": "address"
        }
      ],
      "name": "RoleGranted",
      "type": "event"
    },
    {
      "anonymous": false,
      "inputs": [
        {
          "indexed": true,
          "internalType": "bytes32",
          "name": "role",
          "type": "bytes32"
        },
        {
          "indexed": true,
          "internalType": "address",
          "name": "account",
          "type": "address"
        },
        {
          "indexed": true,
          "internalType": "address",
          "name": "sender",
          "type": "address"
        }
      ],
      "name": "RoleRevoked",
      "type": "event"
    },
    {
      "anonymous": false,
      "inputs": [
        {
          "components": [
            {
              "internalType": "address",
              "name": "token",
              "type": "address"
            },
            {
              "internalType": "address",
              "name": "recipient",
              "type": "address"
            },
            {
              "internalType": "uint256",
              "name": "amount",
              "type": "uint256"
            }
          ],
          "indexed": false,
          "internalType": "struct IThinWallet.TokenMovement[]",
          "name": "transfers",
          "type": "tuple[]"
        }
      ],
      "name": "TransferERC20",
      "type": "event"
    },
    {
      "anonymous": false,
      "inputs": [
        {
          "components": [
            {
              "internalType": "address",
              "name": "recipient",
              "type": "address"
            },
            {
              "internalType": "uint256",
              "name": "amount",
              "type": "uint256"
            }
          ],
          "indexed": false,
          "internalType": "struct IThinWallet.EtherPaymentTransfer[]",
          "name": "transfers",
          "type": "tuple[]"
        }
      ],
      "name": "TransferEther",
      "type": "event"
    },
    {
      "inputs": [],
      "name": "DEFAULT_ADMIN_ROLE",
      "outputs": [
        {
          "internalType": "bytes32",
          "name": "",
          "type": "bytes32"
        }
      ],
      "stateMutability": "view",
      "type": "function"
    },
    {
      "inputs": [],
      "name": "TRANSFER_ADMIN_ROLE",
      "outputs": [
        {
          "internalType": "bytes32",
          "name": "",
          "type": "bytes32"
        }
      ],
      "stateMutability": "view",
      "type": "function"
    },
    {
      "inputs": [],
      "name": "TRANSFER_ROLE",
      "outputs": [
        {
          "internalType": "bytes32",
          "name": "",
          "type": "bytes32"
        }
      ],
      "stateMutability": "view",
      "type": "function"
    },
    {
      "inputs": [],
      "name": "admin",
      "outputs": [
        {
          "internalType": "address",
          "name": "",
          "type": "address"
        }
      ],
      "stateMutability": "view",
      "type": "function"
    },
    {
      "inputs": [
        {
          "internalType": "bytes32",
          "name": "role",
          "type": "bytes32"
        }
      ],
      "name": "getRoleAdmin",
      "outputs": [
        {
          "internalType": "bytes32",
          "name": "",
          "type": "bytes32"
        }
      ],
      "stateMutability": "view",
      "type": "function"
    },
    {
      "inputs": [
        {
          "internalType": "bytes32",
          "name": "role",
          "type": "bytes32"
        },
        {
          "internalType": "address",
          "name": "account",
          "type": "address"
        }
      ],
      "name": "grantRole",
      "outputs": [],
      "stateMutability": "nonpayable",
      "type": "function"
    },
    {
      "inputs": [
        {
          "internalType": "bytes32",
          "name": "role",
          "type": "bytes32"
        },
        {
          "internalType": "address",
          "name": "account",
          "type": "address"
        }
      ],
      "name": "hasRole",
      "outputs": [
        {
          "internalType": "bool",
          "name": "",
          "type": "bool"
        }
      ],
      "stateMutability": "view",
      "type": "function"
    },
    {
      "inputs": [
        {
          "internalType": "address",
          "name": "_admin",
          "type": "address"
        },
        {
          "internalType": "address[]",
          "name": "_owners",
          "type": "address[]"
        }
      ],
      "name": "initialize",
      "outputs": [],
      "stateMutability": "nonpayable",
      "type": "function"
    },
    {
      "inputs": [
        {
          "internalType": "bytes32",
          "name": "role",
          "type": "bytes32"
        },
        {
          "internalType": "address",
          "name": "account",
          "type": "address"
        }
      ],
      "name": "renounceRole",
      "outputs": [],
      "stateMutability": "nonpayable",
      "type": "function"
    },
    {
      "inputs": [
        {
          "internalType": "bytes32",
          "name": "role",
          "type": "bytes32"
        },
        {
          "internalType": "address",
          "name": "account",
          "type": "address"
        }
      ],
      "name": "revokeRole",
      "outputs": [],
      "stateMutability": "nonpayable",
      "type": "function"
    },
    {
      "inputs": [
        {
          "internalType": "bytes4",
          "name": "interfaceId",
          "type": "bytes4"
        }
      ],
      "name": "supportsInterface",
      "outputs": [
        {
          "internalType": "bool",
          "name": "",
          "type": "bool"
        }
      ],
      "stateMutability": "view",
      "type": "function"
    },
    {
      "inputs": [
        {
          "components": [
            {
              "internalType": "address",
              "name": "token",
              "type": "address"
            },
            {
              "internalType": "address",
              "name": "recipient",
              "type": "address"
            },
            {
              "internalType": "uint256",
              "name": "amount",
              "type": "uint256"
            }
          ],
          "internalType": "struct IThinWallet.TokenMovement[]",
          "name": "_transfers",
          "type": "tuple[]"
        }
      ],
      "name": "transferERC20",
      "outputs": [],
      "stateMutability": "nonpayable",
      "type": "function"
    },
    {
      "inputs": [
        {
          "components": [
            {
              "internalType": "address",
              "name": "recipient",
              "type": "address"
            },
            {
              "internalType": "uint256",
              "name": "amount",
              "type": "uint256"
            }
          ],
          "internalType": "struct IThinWallet.EtherPaymentTransfer[]",
          "name": "_transfers",
          "type": "tuple[]"
        }
      ],
      "name": "transferEther",
      "outputs": [],
      "stateMutability": "nonpayable",
      "type": "function"
    },
    {
      "stateMutability": "payable",
      "type": "receive"
    }
  ],
  "transactionHash": "0xb4652e76c656272269149cc7f0a95319f5e120e46aaf7ee8d63fe52c47eba1f2",
  "args": [],
  "numDeployments": 1,
  "solcInputHash": "826add05236a51c6d2cdd01b52ebf0a6",
  "bytecode": "0x608060405234801561001057600080fd5b50611f3c806100206000396000f3fe6080604052600436106100c65760003560e01c806336568abe1161007f578063946d920411610059578063946d920414610283578063a217fddf146102ac578063d547741f146102d7578063f851a44014610300576100cd565b806336568abe146101f257806368a37ae81461021b57806391d1485414610246576100cd565b806301ffc9a7146100d257806302b9d21d1461010f578063206b60f914610138578063248a9ca3146101635780632f2ff15d146101a057806332a06d3a146101c9576100cd565b366100cd57005b600080fd5b3480156100de57600080fd5b506100f960048036038101906100f491906111d7565b61032b565b604051610106919061121f565b60405180910390f35b34801561011b57600080fd5b506101366004803603810190610131919061129f565b6103a5565b005b34801561014457600080fd5b5061014d6105d8565b60405161015a9190611305565b60405180910390f35b34801561016f57600080fd5b5061018a6004803603810190610185919061134c565b6105fc565b6040516101979190611305565b60405180910390f35b3480156101ac57600080fd5b506101c760048036038101906101c291906113d7565b61061c565b005b3480156101d557600080fd5b506101f060048036038101906101eb919061146d565b610645565b005b3480156101fe57600080fd5b50610219600480360381019061021491906113d7565b610884565b005b34801561022757600080fd5b50610230610907565b60405161023d9190611305565b60405180910390f35b34801561025257600080fd5b5061026d600480360381019061026891906113d7565b61092b565b60405161027a919061121f565b60405180910390f35b34801561028f57600080fd5b506102aa60048036038101906102a59190611510565b610996565b005b3480156102b857600080fd5b506102c1610c04565b6040516102ce9190611305565b60405180910390f35b3480156102e357600080fd5b506102fe60048036038101906102f991906113d7565b610c0b565b005b34801561030c57600080fd5b50610315610c34565b604051610322919061157f565b60405180910390f35b60007f7965db0b000000000000000000000000000000000000000000000000000000007bffffffffffffffffffffffffffffffffffffffffffffffffffffffff1916827bffffffffffffffffffffffffffffffffffffffffffffffffffffffff1916148061039e575061039d82610c5a565b5b9050919050565b6103cf7f9143236d81225394f3bd65b44e6e29fdf4d7ba0773d9bb3f5cc15eb80ba377773361092b565b806104275750600260009054906101000a900473ffffffffffffffffffffffffffffffffffffffff1673ffffffffffffffffffffffffffffffffffffffff163373ffffffffffffffffffffffffffffffffffffffff16145b61046857336040517ff9ba0a3200000000000000000000000000000000000000000000000000000000815260040161045f919061157f565b60405180910390fd5b7fc1e7ec1a8a17687668d538f95a36ade1bc8652575890097064778362136b9f578282604051610499929190611703565b60405180910390a160005b828290508167ffffffffffffffff1610156105d357600083838367ffffffffffffffff168181106104d8576104d7611727565b5b90506040020160000160208101906104f09190611756565b73ffffffffffffffffffffffffffffffffffffffff1684848467ffffffffffffffff1681811061052357610522611727565b5b90506040020160200135604051610539906117b4565b60006040518083038185875af1925050503d8060008114610576576040519150601f19603f3d011682016040523d82523d6000602084013e61057b565b606091505b50509050806105bf576040517f08c379a00000000000000000000000000000000000000000000000000000000081526004016105b690611826565b60405180910390fd5b5080806105cb90611889565b9150506104a4565b505050565b7f9143236d81225394f3bd65b44e6e29fdf4d7ba0773d9bb3f5cc15eb80ba3777781565b600060016000838152602001908152602001600020600101549050919050565b610625826105fc565b61063681610631610cc4565b610ccc565b6106408383610d69565b505050565b61066f7f9143236d81225394f3bd65b44e6e29fdf4d7ba0773d9bb3f5cc15eb80ba377773361092b565b806106c75750600260009054906101000a900473ffffffffffffffffffffffffffffffffffffffff1673ffffffffffffffffffffffffffffffffffffffff163373ffffffffffffffffffffffffffffffffffffffff16145b61070857336040517ff9ba0a320000000000000000000000000000000000000000000000000000000081526004016106ff919061157f565b60405180910390fd5b7f6aac0c7bc78083f9d8600911f1df6c4627e5dd66fe3e9c6e6958dfe5959d67c982826040516107399291906119bb565b60405180910390a160005b828290508167ffffffffffffffff16101561087f57600083838367ffffffffffffffff1681811061077857610777611727565b5b90506060020160000160208101906107909190611756565b90508073ffffffffffffffffffffffffffffffffffffffff1663a9059cbb85858567ffffffffffffffff168181106107cb576107ca611727565b5b90506060020160200160208101906107e39190611756565b86868667ffffffffffffffff16818110610800576107ff611727565b5b905060600201604001356040518363ffffffff1660e01b81526004016108279291906119ee565b6020604051808303816000875af1158015610846573d6000803e3d6000fd5b505050506040513d601f19601f8201168201806040525081019061086a9190611a43565b5050808061087790611889565b915050610744565b505050565b61088c610cc4565b73ffffffffffffffffffffffffffffffffffffffff168173ffffffffffffffffffffffffffffffffffffffff16146108f9576040517f08c379a00000000000000000000000000000000000000000000000000000000081526004016108f090611ae2565b60405180910390fd5b6109038282610e49565b5050565b7fb371867bc9c0f0d0a9733da0be5b600a167f1a96096318687c91de22c7ddf8da81565b60006001600084815260200190815260200160002060000160008373ffffffffffffffffffffffffffffffffffffffff1673ffffffffffffffffffffffffffffffffffffffff16815260200190815260200160002060009054906101000a900460ff16905092915050565b600073ffffffffffffffffffffffffffffffffffffffff168373ffffffffffffffffffffffffffffffffffffffff1603610a05576040517f08c379a00000000000000000000000000000000000000000000000000000000081526004016109fc90611b4e565b60405180910390fd5b82600260006101000a81548173ffffffffffffffffffffffffffffffffffffffff021916908373ffffffffffffffffffffffffffffffffffffffff160217905550610a707fb371867bc9c0f0d0a9733da0be5b600a167f1a96096318687c91de22c7ddf8da84610f2b565b610a7d6000801b84610f2b565b60005b828290508167ffffffffffffffff161015610bfe57600073ffffffffffffffffffffffffffffffffffffffff1683838367ffffffffffffffff16818110610aca57610ac9611727565b5b9050602002016020810190610adf9190611756565b73ffffffffffffffffffffffffffffffffffffffff1603610b35576040517f08c379a0000000000000000000000000000000000000000000000000000000008152600401610b2c90611bba565b60405180910390fd5b610b907f9143236d81225394f3bd65b44e6e29fdf4d7ba0773d9bb3f5cc15eb80ba3777784848467ffffffffffffffff16818110610b7657610b75611727565b5b9050602002016020810190610b8b9190611756565b610f2b565b610beb7fb371867bc9c0f0d0a9733da0be5b600a167f1a96096318687c91de22c7ddf8da84848467ffffffffffffffff16818110610bd157610bd0611727565b5b9050602002016020810190610be69190611756565b610f2b565b8080610bf690611889565b915050610a80565b50505050565b6000801b81565b610c14826105fc565b610c2581610c20610cc4565b610ccc565b610c2f8383610e49565b505050565b600260009054906101000a900473ffffffffffffffffffffffffffffffffffffffff1681565b60007f01ffc9a7000000000000000000000000000000000000000000000000000000007bffffffffffffffffffffffffffffffffffffffffffffffffffffffff1916827bffffffffffffffffffffffffffffffffffffffffffffffffffffffff1916149050919050565b600033905090565b610cd6828261092b565b610d6557610cfb8173ffffffffffffffffffffffffffffffffffffffff166014610f39565b610d098360001c6020610f39565b604051602001610d1a929190611cec565b6040516020818303038152906040526040517f08c379a0000000000000000000000000000000000000000000000000000000008152600401610d5c9190611d70565b60405180910390fd5b5050565b610d73828261092b565b610e4557600180600084815260200190815260200160002060000160008373ffffffffffffffffffffffffffffffffffffffff1673ffffffffffffffffffffffffffffffffffffffff16815260200190815260200160002060006101000a81548160ff021916908315150217905550610dea610cc4565b73ffffffffffffffffffffffffffffffffffffffff168173ffffffffffffffffffffffffffffffffffffffff16837f2f8788117e7eff1d82e926ec794901d17c78024a50270940304540a733656f0d60405160405180910390a45b5050565b610e53828261092b565b15610f275760006001600084815260200190815260200160002060000160008373ffffffffffffffffffffffffffffffffffffffff1673ffffffffffffffffffffffffffffffffffffffff16815260200190815260200160002060006101000a81548160ff021916908315150217905550610ecc610cc4565b73ffffffffffffffffffffffffffffffffffffffff168173ffffffffffffffffffffffffffffffffffffffff16837ff6391f5c32d9c69d2a47ea670b442974b53935d1edc7fd64eb21e047a839171b60405160405180910390a45b5050565b610f358282610d69565b5050565b606060006002836002610f4c9190611d92565b610f569190611dec565b67ffffffffffffffff811115610f6f57610f6e611e42565b5b6040519080825280601f01601f191660200182016040528015610fa15781602001600182028036833780820191505090505b5090507f300000000000000000000000000000000000000000000000000000000000000081600081518110610fd957610fd8611727565b5b60200101907effffffffffffffffffffffffffffffffffffffffffffffffffffffffffffff1916908160001a9053507f78000000000000000000000000000000000000000000000000000000000000008160018151811061103d5761103c611727565b5b60200101907effffffffffffffffffffffffffffffffffffffffffffffffffffffffffffff1916908160001a9053506000600184600261107d9190611d92565b6110879190611dec565b90505b6001811115611127577f3031323334353637383961626364656600000000000000000000000000000000600f8616601081106110c9576110c8611727565b5b1a60f81b8282815181106110e0576110df611727565b5b60200101907effffffffffffffffffffffffffffffffffffffffffffffffffffffffffffff1916908160001a905350600485901c94508061112090611e71565b905061108a565b506000841461116b576040517f08c379a000000000000000000000000000000000000000000000000000000000815260040161116290611ee6565b60405180910390fd5b8091505092915050565b600080fd5b600080fd5b60007fffffffff0000000000000000000000000000000000000000000000000000000082169050919050565b6111b48161117f565b81146111bf57600080fd5b50565b6000813590506111d1816111ab565b92915050565b6000602082840312156111ed576111ec611175565b5b60006111fb848285016111c2565b91505092915050565b60008115159050919050565b61121981611204565b82525050565b60006020820190506112346000830184611210565b92915050565b600080fd5b600080fd5b600080fd5b60008083601f84011261125f5761125e61123a565b5b8235905067ffffffffffffffff81111561127c5761127b61123f565b5b60208301915083604082028301111561129857611297611244565b5b9250929050565b600080602083850312156112b6576112b5611175565b5b600083013567ffffffffffffffff8111156112d4576112d361117a565b5b6112e085828601611249565b92509250509250929050565b6000819050919050565b6112ff816112ec565b82525050565b600060208201905061131a60008301846112f6565b92915050565b611329816112ec565b811461133457600080fd5b50565b60008135905061134681611320565b92915050565b60006020828403121561136257611361611175565b5b600061137084828501611337565b91505092915050565b600073ffffffffffffffffffffffffffffffffffffffff82169050919050565b60006113a482611379565b9050919050565b6113b481611399565b81146113bf57600080fd5b50565b6000813590506113d1816113ab565b92915050565b600080604083850312156113ee576113ed611175565b5b60006113fc85828601611337565b925050602061140d858286016113c2565b9150509250929050565b60008083601f84011261142d5761142c61123a565b5b8235905067ffffffffffffffff81111561144a5761144961123f565b5b60208301915083606082028301111561146657611465611244565b5b9250929050565b6000806020838503121561148457611483611175565b5b600083013567ffffffffffffffff8111156114a2576114a161117a565b5b6114ae85828601611417565b92509250509250929050565b60008083601f8401126114d0576114cf61123a565b5b8235905067ffffffffffffffff8111156114ed576114ec61123f565b5b60208301915083602082028301111561150957611508611244565b5b9250929050565b60008060006040848603121561152957611528611175565b5b6000611537868287016113c2565b935050602084013567ffffffffffffffff8111156115585761155761117a565b5b611564868287016114ba565b92509250509250925092565b61157981611399565b82525050565b60006020820190506115946000830184611570565b92915050565b600082825260208201905092915050565b6000819050919050565b60006115c460208401846113c2565b905092915050565b6115d581611399565b82525050565b6000819050919050565b6115ee816115db565b81146115f957600080fd5b50565b60008135905061160b816115e5565b92915050565b600061162060208401846115fc565b905092915050565b611631816115db565b82525050565b6040820161164860008301836115b5565b61165560008501826115cc565b506116636020830183611611565b6116706020850182611628565b50505050565b60006116828383611637565b60408301905092915050565b600082905092915050565b6000604082019050919050565b60006116b2838561159a565b93506116bd826115ab565b8060005b858110156116f6576116d3828461168e565b6116dd8882611676565b97506116e883611699565b9250506001810190506116c1565b5085925050509392505050565b6000602082019050818103600083015261171e8184866116a6565b90509392505050565b7f4e487b7100000000000000000000000000000000000000000000000000000000600052603260045260246000fd5b60006020828403121561176c5761176b611175565b5b600061177a848285016113c2565b91505092915050565b600081905092915050565b50565b600061179e600083611783565b91506117a98261178e565b600082019050919050565b60006117bf82611791565b9150819050919050565b600082825260208201905092915050565b7f6661696c656420746f2073656e64206574686572000000000000000000000000600082015250565b60006118106014836117c9565b915061181b826117da565b602082019050919050565b6000602082019050818103600083015261183f81611803565b9050919050565b7f4e487b7100000000000000000000000000000000000000000000000000000000600052601160045260246000fd5b600067ffffffffffffffff82169050919050565b600061189482611875565b915067ffffffffffffffff82036118ae576118ad611846565b5b600182019050919050565b600082825260208201905092915050565b6000819050919050565b606082016118e560008301836115b5565b6118f260008501826115cc565b5061190060208301836115b5565b61190d60208501826115cc565b5061191b6040830183611611565b6119286040850182611628565b50505050565b600061193a83836118d4565b60608301905092915050565b600082905092915050565b6000606082019050919050565b600061196a83856118b9565b9350611975826118ca565b8060005b858110156119ae5761198b8284611946565b611995888261192e565b97506119a083611951565b925050600181019050611979565b5085925050509392505050565b600060208201905081810360008301526119d681848661195e565b90509392505050565b6119e8816115db565b82525050565b6000604082019050611a036000830185611570565b611a1060208301846119df565b9392505050565b611a2081611204565b8114611a2b57600080fd5b50565b600081519050611a3d81611a17565b92915050565b600060208284031215611a5957611a58611175565b5b6000611a6784828501611a2e565b91505092915050565b7f416363657373436f6e74726f6c3a2063616e206f6e6c792072656e6f756e636560008201527f20726f6c657320666f722073656c660000000000000000000000000000000000602082015250565b6000611acc602f836117c9565b9150611ad782611a70565b604082019050919050565b60006020820190508181036000830152611afb81611abf565b9050919050565b7f61646d696e20616464726573732063616e6e6f74206265203078300000000000600082015250565b6000611b38601b836117c9565b9150611b4382611b02565b602082019050919050565b60006020820190508181036000830152611b6781611b2b565b9050919050565b7f6f776e65722063616e6e6f742062652030783000000000000000000000000000600082015250565b6000611ba46013836117c9565b9150611baf82611b6e565b602082019050919050565b60006020820190508181036000830152611bd381611b97565b9050919050565b600081905092915050565b7f416363657373436f6e74726f6c3a206163636f756e7420000000000000000000600082015250565b6000611c1b601783611bda565b9150611c2682611be5565b601782019050919050565b600081519050919050565b60005b83811015611c5a578082015181840152602081019050611c3f565b83811115611c69576000848401525b50505050565b6000611c7a82611c31565b611c848185611bda565b9350611c94818560208601611c3c565b80840191505092915050565b7f206973206d697373696e6720726f6c6520000000000000000000000000000000600082015250565b6000611cd6601183611bda565b9150611ce182611ca0565b601182019050919050565b6000611cf782611c0e565b9150611d038285611c6f565b9150611d0e82611cc9565b9150611d1a8284611c6f565b91508190509392505050565b6000601f19601f8301169050919050565b6000611d4282611c31565b611d4c81856117c9565b9350611d5c818560208601611c3c565b611d6581611d26565b840191505092915050565b60006020820190508181036000830152611d8a8184611d37565b905092915050565b6000611d9d826115db565b9150611da8836115db565b9250817fffffffffffffffffffffffffffffffffffffffffffffffffffffffffffffffff0483118215151615611de157611de0611846565b5b828202905092915050565b6000611df7826115db565b9150611e02836115db565b9250827fffffffffffffffffffffffffffffffffffffffffffffffffffffffffffffffff03821115611e3757611e36611846565b5b828201905092915050565b7f4e487b7100000000000000000000000000000000000000000000000000000000600052604160045260246000fd5b6000611e7c826115db565b915060008203611e8f57611e8e611846565b5b600182039050919050565b7f537472696e67733a20686578206c656e67746820696e73756666696369656e74600082015250565b6000611ed06020836117c9565b9150611edb82611e9a565b602082019050919050565b60006020820190508181036000830152611eff81611ec3565b905091905056fea26469706673582212202042ed662e73d48e43a073a636fb3bb1d2d751e8ce4d852ebff65c4555d211b464736f6c634300080d0033",
  "devdoc": {
    "kind": "dev",
    "methods": {
      "getRoleAdmin(bytes32)": {
        "details": "Returns the admin role that controls `role`. See {grantRole} and {revokeRole}. To change a role's admin, use {_setRoleAdmin}."
      },
      "grantRole(bytes32,address)": {
        "details": "Grants `role` to `account`. If `account` had not been already granted `role`, emits a {RoleGranted} event. Requirements: - the caller must have ``role``'s admin role."
      },
      "hasRole(bytes32,address)": {
        "details": "Returns `true` if `account` has been granted `role`."
      },
      "renounceRole(bytes32,address)": {
        "details": "Revokes `role` from the calling account. Roles are often managed via {grantRole} and {revokeRole}: this function's purpose is to provide a mechanism for accounts to lose their privileges if they are compromised (such as when a trusted device is misplaced). If the calling account had been revoked `role`, emits a {RoleRevoked} event. Requirements: - the caller must be `account`."
      },
      "revokeRole(bytes32,address)": {
        "details": "Revokes `role` from `account`. If `account` had been granted `role`, emits a {RoleRevoked} event. Requirements: - the caller must have ``role``'s admin role."
      },
      "supportsInterface(bytes4)": {
        "details": "See {IERC165-supportsInterface}."
      },
      "transferERC20((address,address,uint256)[])": {
        "details": "If the `setApprove` field is true, the contract should approve that recipient for type(uint256).max",
        "params": {
          "_transfers": "An array of transfers. Each transfer object specifies the amount and recipient to send tokens to"
        }
      },
      "transferEther((address,uint256)[])": {
        "details": "This should use address(recipient).call to transfer the ether",
        "params": {
          "_transfers": "The ether transfers"
        }
      }
    },
    "version": 1
  },
  "userdoc": {
    "events": {
      "TransferERC20((address,address,uint256)[])": {
        "notice": "### Events"
      }
    },
    "kind": "user",
    "methods": {
      "initialize(address,address[])": {
        "notice": "### Functions"
      },
      "transferERC20((address,address,uint256)[])": {
        "notice": "Transfers amounts of an ERC20 to one or more recipients"
      },
      "transferEther((address,uint256)[])": {
        "notice": "Transfers amounts of ether to one or more recipeints"
      }
    },
    "version": 1
  },
  "storageLayout": {
    "storage": [
      {
        "astId": 7118,
        "contract": "contracts/implementations/ThinWallet.sol:ThinWallet",
        "label": "_initialized",
        "offset": 0,
        "slot": "0",
        "type": "t_bool"
      },
      {
        "astId": 7121,
        "contract": "contracts/implementations/ThinWallet.sol:ThinWallet",
        "label": "_initializing",
        "offset": 1,
        "slot": "0",
        "type": "t_bool"
      },
      {
        "astId": 6569,
        "contract": "contracts/implementations/ThinWallet.sol:ThinWallet",
        "label": "_roles",
        "offset": 0,
        "slot": "1",
        "type": "t_mapping(t_bytes32,t_struct(RoleData)6564_storage)"
      },
      {
        "astId": 14207,
        "contract": "contracts/implementations/ThinWallet.sol:ThinWallet",
        "label": "admin",
        "offset": 0,
        "slot": "2",
        "type": "t_address"
      }
    ],
    "types": {
      "t_address": {
        "encoding": "inplace",
        "label": "address",
        "numberOfBytes": "20"
      },
      "t_bool": {
        "encoding": "inplace",
        "label": "bool",
        "numberOfBytes": "1"
      },
      "t_bytes32": {
        "encoding": "inplace",
        "label": "bytes32",
        "numberOfBytes": "32"
      },
      "t_mapping(t_address,t_bool)": {
        "encoding": "mapping",
        "key": "t_address",
        "label": "mapping(address => bool)",
        "numberOfBytes": "32",
        "value": "t_bool"
      },
      "t_mapping(t_bytes32,t_struct(RoleData)6564_storage)": {
        "encoding": "mapping",
        "key": "t_bytes32",
        "label": "mapping(bytes32 => struct AccessControl.RoleData)",
        "numberOfBytes": "32",
        "value": "t_struct(RoleData)6564_storage"
      },
      "t_struct(RoleData)6564_storage": {
        "encoding": "inplace",
        "label": "struct AccessControl.RoleData",
        "members": [
          {
            "astId": 6561,
            "contract": "contracts/implementations/ThinWallet.sol:ThinWallet",
            "label": "members",
            "offset": 0,
            "slot": "0",
            "type": "t_mapping(t_address,t_bool)"
          },
          {
            "astId": 6563,
            "contract": "contracts/implementations/ThinWallet.sol:ThinWallet",
            "label": "adminRole",
            "offset": 0,
            "slot": "1",
            "type": "t_bytes32"
          }
        ],
        "numberOfBytes": "64"
      }
    }
  }
}