{
  "address": "0x7D04988b41a93E52142c7dc863dBf907c51Da2aD",
  "abi": [
    {
      "inputs": [],
      "name": "InvalidAddress",
      "type": "error"
    },
    {
      "inputs": [
        {
          "internalType": "address",
          "name": "_user",
          "type": "address"
        }
      ],
      "name": "InvalidPermissions",
      "type": "error"
    },
    {
      "anonymous": false,
      "inputs": [
        {
          "indexed": true,
          "internalType": "bytes32",
          "name": "role",
          "type": "bytes32"
        },
        {
          "indexed": true,
          "internalType": "bytes32",
          "name": "previousAdminRole",
          "type": "bytes32"
        },
        {
          "indexed": true,
          "internalType": "bytes32",
          "name": "newAdminRole",
          "type": "bytes32"
        }
      ],
      "name": "RoleAdminChanged",
      "type": "event"
    },
    {
      "anonymous": false,
      "inputs": [
        {
          "indexed": true,
          "internalType": "bytes32",
          "name": "role",
          "type": "bytes32"
        },
        {
          "indexed": true,
          "internalType": "address",
          "name": "account",
          "type": "address"
        },
        {
          "indexed": true,
          "internalType": "address",
          "name": "sender",
          "type": "address"
        }
      ],
      "name": "RoleGranted",
      "type": "event"
    },
    {
      "anonymous": false,
      "inputs": [
        {
          "indexed": true,
          "internalType": "bytes32",
          "name": "role",
          "type": "bytes32"
        },
        {
          "indexed": true,
          "internalType": "address",
          "name": "account",
          "type": "address"
        },
        {
          "indexed": true,
          "internalType": "address",
          "name": "sender",
          "type": "address"
        }
      ],
      "name": "RoleRevoked",
      "type": "event"
    },
    {
      "anonymous": false,
      "inputs": [
        {
          "components": [
            {
              "internalType": "address",
              "name": "token",
              "type": "address"
            },
            {
              "internalType": "address",
              "name": "recipient",
              "type": "address"
            },
            {
              "internalType": "uint256",
              "name": "amount",
              "type": "uint256"
            }
          ],
          "indexed": false,
          "internalType": "struct IThinWallet.TokenMovement[]",
          "name": "transfers",
          "type": "tuple[]"
        }
      ],
      "name": "TransferERC20",
      "type": "event"
    },
    {
      "anonymous": false,
      "inputs": [
        {
          "components": [
            {
              "internalType": "address",
              "name": "recipient",
              "type": "address"
            },
            {
              "internalType": "uint256",
              "name": "amount",
              "type": "uint256"
            }
          ],
          "indexed": false,
          "internalType": "struct IThinWallet.EtherPaymentTransfer[]",
          "name": "transfers",
          "type": "tuple[]"
        }
      ],
      "name": "TransferEther",
      "type": "event"
    },
    {
      "inputs": [],
      "name": "DEFAULT_ADMIN_ROLE",
      "outputs": [
        {
          "internalType": "bytes32",
          "name": "",
          "type": "bytes32"
        }
      ],
      "stateMutability": "view",
      "type": "function"
    },
    {
      "inputs": [],
      "name": "TRANSFER_ADMIN_ROLE",
      "outputs": [
        {
          "internalType": "bytes32",
          "name": "",
          "type": "bytes32"
        }
      ],
      "stateMutability": "view",
      "type": "function"
    },
    {
      "inputs": [],
      "name": "TRANSFER_ROLE",
      "outputs": [
        {
          "internalType": "bytes32",
          "name": "",
          "type": "bytes32"
        }
      ],
      "stateMutability": "view",
      "type": "function"
    },
    {
      "inputs": [],
      "name": "admin",
      "outputs": [
        {
          "internalType": "address",
          "name": "",
          "type": "address"
        }
      ],
      "stateMutability": "view",
      "type": "function"
    },
    {
      "inputs": [
        {
          "internalType": "address",
          "name": "_token",
          "type": "address"
        },
        {
          "internalType": "address",
          "name": "_destination",
          "type": "address"
        }
      ],
      "name": "emergencyEjectERC20",
      "outputs": [],
      "stateMutability": "nonpayable",
      "type": "function"
    },
    {
      "inputs": [
        {
          "internalType": "address",
          "name": "_destination",
          "type": "address"
        }
      ],
      "name": "emergencyEjectEth",
      "outputs": [],
      "stateMutability": "nonpayable",
      "type": "function"
    },
    {
      "inputs": [
        {
          "internalType": "bytes32",
          "name": "role",
          "type": "bytes32"
        }
      ],
      "name": "getRoleAdmin",
      "outputs": [
        {
          "internalType": "bytes32",
          "name": "",
          "type": "bytes32"
        }
      ],
      "stateMutability": "view",
      "type": "function"
    },
    {
      "inputs": [
        {
          "internalType": "bytes32",
          "name": "role",
          "type": "bytes32"
        },
        {
          "internalType": "address",
          "name": "account",
          "type": "address"
        }
      ],
      "name": "grantRole",
      "outputs": [],
      "stateMutability": "nonpayable",
      "type": "function"
    },
    {
      "inputs": [
        {
          "internalType": "bytes32",
          "name": "role",
          "type": "bytes32"
        },
        {
          "internalType": "address",
          "name": "account",
          "type": "address"
        }
      ],
      "name": "hasRole",
      "outputs": [
        {
          "internalType": "bool",
          "name": "",
          "type": "bool"
        }
      ],
      "stateMutability": "view",
      "type": "function"
    },
    {
      "inputs": [
        {
          "internalType": "address",
          "name": "_admin",
          "type": "address"
        },
        {
          "internalType": "address[]",
          "name": "_owners",
          "type": "address[]"
        }
      ],
      "name": "initialize",
      "outputs": [],
      "stateMutability": "nonpayable",
      "type": "function"
    },
    {
      "inputs": [
        {
          "internalType": "bytes32",
          "name": "role",
          "type": "bytes32"
        },
        {
          "internalType": "address",
          "name": "account",
          "type": "address"
        }
      ],
      "name": "renounceRole",
      "outputs": [],
      "stateMutability": "nonpayable",
      "type": "function"
    },
    {
      "inputs": [
        {
          "internalType": "bytes32",
          "name": "role",
          "type": "bytes32"
        },
        {
          "internalType": "address",
          "name": "account",
          "type": "address"
        }
      ],
      "name": "revokeRole",
      "outputs": [],
      "stateMutability": "nonpayable",
      "type": "function"
    },
    {
      "inputs": [
        {
          "internalType": "bytes4",
          "name": "interfaceId",
          "type": "bytes4"
        }
      ],
      "name": "supportsInterface",
      "outputs": [
        {
          "internalType": "bool",
          "name": "",
          "type": "bool"
        }
      ],
      "stateMutability": "view",
      "type": "function"
    },
    {
      "inputs": [
        {
          "components": [
            {
              "internalType": "address",
              "name": "token",
              "type": "address"
            },
            {
              "internalType": "address",
              "name": "recipient",
              "type": "address"
            },
            {
              "internalType": "uint256",
              "name": "amount",
              "type": "uint256"
            }
          ],
          "internalType": "struct IThinWallet.TokenMovement[]",
          "name": "_transfers",
          "type": "tuple[]"
        }
      ],
      "name": "transferERC20",
      "outputs": [],
      "stateMutability": "nonpayable",
      "type": "function"
    },
    {
      "inputs": [
        {
          "components": [
            {
              "internalType": "address",
              "name": "recipient",
              "type": "address"
            },
            {
              "internalType": "uint256",
              "name": "amount",
              "type": "uint256"
            }
          ],
          "internalType": "struct IThinWallet.EtherPaymentTransfer[]",
          "name": "_transfers",
          "type": "tuple[]"
        }
      ],
      "name": "transferEther",
      "outputs": [],
      "stateMutability": "nonpayable",
      "type": "function"
    },
    {
      "stateMutability": "payable",
      "type": "receive"
    }
  ],
  "transactionHash": "0xc986b71acf37a60de26214b14c815f5d1bd6b3d5712ee118c09d9d55e3ea4a1d",
  "args": [],
  "numDeployments": 2,
  "solcInputHash": "546259be553163ef8f5d5b223646a157",
  "bytecode": "0x608060405234801561001057600080fd5b506124a0806100206000396000f3fe6080604052600436106100ec5760003560e01c806368a37ae81161008a578063a217fddf11610059578063a217fddf146102fb578063d547741f14610326578063e7f7668e1461034f578063f851a44014610378576100f3565b806368a37ae81461024157806391d148541461026c578063946d9204146102a957806398a3caf5146102d2576100f3565b8063248a9ca3116100c6578063248a9ca3146101895780632f2ff15d146101c657806332a06d3a146101ef57806336568abe14610218576100f3565b806301ffc9a7146100f857806302b9d21d14610135578063206b60f91461015e576100f3565b366100f357005b600080fd5b34801561010457600080fd5b5061011f600480360381019061011a91906116b9565b6103a3565b60405161012c9190611701565b60405180910390f35b34801561014157600080fd5b5061015c60048036038101906101579190611781565b61041d565b005b34801561016a57600080fd5b50610173610650565b60405161018091906117e7565b60405180910390f35b34801561019557600080fd5b506101b060048036038101906101ab919061182e565b610674565b6040516101bd91906117e7565b60405180910390f35b3480156101d257600080fd5b506101ed60048036038101906101e891906118b9565b610694565b005b3480156101fb57600080fd5b506102166004803603810190610211919061194f565b6106bd565b005b34801561022457600080fd5b5061023f600480360381019061023a91906118b9565b6108fc565b005b34801561024d57600080fd5b5061025661097f565b60405161026391906117e7565b60405180910390f35b34801561027857600080fd5b50610293600480360381019061028e91906118b9565b6109a3565b6040516102a09190611701565b60405180910390f35b3480156102b557600080fd5b506102d060048036038101906102cb91906119f2565b610a0e565b005b3480156102de57600080fd5b506102f960048036038101906102f49190611a52565b610c7c565b005b34801561030757600080fd5b50610310610e55565b60405161031d91906117e7565b60405180910390f35b34801561033257600080fd5b5061034d600480360381019061034891906118b9565b610e5c565b005b34801561035b57600080fd5b5061037660048036038101906103719190611a7f565b610e85565b005b34801561038457600080fd5b5061038d611116565b60405161039a9190611ace565b60405180910390f35b60007f7965db0b000000000000000000000000000000000000000000000000000000007bffffffffffffffffffffffffffffffffffffffffffffffffffffffff1916827bffffffffffffffffffffffffffffffffffffffffffffffffffffffff1916148061041657506104158261113c565b5b9050919050565b6104477f9143236d81225394f3bd65b44e6e29fdf4d7ba0773d9bb3f5cc15eb80ba37777336109a3565b8061049f5750600260009054906101000a900473ffffffffffffffffffffffffffffffffffffffff1673ffffffffffffffffffffffffffffffffffffffff163373ffffffffffffffffffffffffffffffffffffffff16145b6104e057336040517ff9ba0a320000000000000000000000000000000000000000000000000000000081526004016104d79190611ace565b60405180910390fd5b7fc1e7ec1a8a17687668d538f95a36ade1bc8652575890097064778362136b9f578282604051610511929190611c52565b60405180910390a160005b828290508167ffffffffffffffff16101561064b57600083838367ffffffffffffffff168181106105505761054f611c76565b5b90506040020160000160208101906105689190611a52565b73ffffffffffffffffffffffffffffffffffffffff1684848467ffffffffffffffff1681811061059b5761059a611c76565b5b905060400201602001356040516105b190611cd6565b60006040518083038185875af1925050503d80600081146105ee576040519150601f19603f3d011682016040523d82523d6000602084013e6105f3565b606091505b5050905080610637576040517f08c379a000000000000000000000000000000000000000000000000000000000815260040161062e90611d48565b60405180910390fd5b50808061064390611dab565b91505061051c565b505050565b7f9143236d81225394f3bd65b44e6e29fdf4d7ba0773d9bb3f5cc15eb80ba3777781565b600060016000838152602001908152602001600020600101549050919050565b61069d82610674565b6106ae816106a96111a6565b6111ae565b6106b8838361124b565b505050565b6106e77f9143236d81225394f3bd65b44e6e29fdf4d7ba0773d9bb3f5cc15eb80ba37777336109a3565b8061073f5750600260009054906101000a900473ffffffffffffffffffffffffffffffffffffffff1673ffffffffffffffffffffffffffffffffffffffff163373ffffffffffffffffffffffffffffffffffffffff16145b61078057336040517ff9ba0a320000000000000000000000000000000000000000000000000000000081526004016107779190611ace565b60405180910390fd5b7f6aac0c7bc78083f9d8600911f1df6c4627e5dd66fe3e9c6e6958dfe5959d67c982826040516107b1929190611edd565b60405180910390a160005b828290508167ffffffffffffffff1610156108f757600083838367ffffffffffffffff168181106107f0576107ef611c76565b5b90506060020160000160208101906108089190611a52565b90508073ffffffffffffffffffffffffffffffffffffffff1663a9059cbb85858567ffffffffffffffff1681811061084357610842611c76565b5b905060600201602001602081019061085b9190611a52565b86868667ffffffffffffffff1681811061087857610877611c76565b5b905060600201604001356040518363ffffffff1660e01b815260040161089f929190611f10565b6020604051808303816000875af11580156108be573d6000803e3d6000fd5b505050506040513d601f19601f820116820180604052508101906108e29190611f65565b505080806108ef90611dab565b9150506107bc565b505050565b6109046111a6565b73ffffffffffffffffffffffffffffffffffffffff168173ffffffffffffffffffffffffffffffffffffffff1614610971576040517f08c379a000000000000000000000000000000000000000000000000000000000815260040161096890612004565b60405180910390fd5b61097b828261132b565b5050565b7fb371867bc9c0f0d0a9733da0be5b600a167f1a96096318687c91de22c7ddf8da81565b60006001600084815260200190815260200160002060000160008373ffffffffffffffffffffffffffffffffffffffff1673ffffffffffffffffffffffffffffffffffffffff16815260200190815260200160002060009054906101000a900460ff16905092915050565b600073ffffffffffffffffffffffffffffffffffffffff168373ffffffffffffffffffffffffffffffffffffffff1603610a7d576040517f08c379a0000000000000000000000000000000000000000000000000000000008152600401610a7490612070565b60405180910390fd5b82600260006101000a81548173ffffffffffffffffffffffffffffffffffffffff021916908373ffffffffffffffffffffffffffffffffffffffff160217905550610ae87fb371867bc9c0f0d0a9733da0be5b600a167f1a96096318687c91de22c7ddf8da8461140d565b610af56000801b8461140d565b60005b828290508167ffffffffffffffff161015610c7657600073ffffffffffffffffffffffffffffffffffffffff1683838367ffffffffffffffff16818110610b4257610b41611c76565b5b9050602002016020810190610b579190611a52565b73ffffffffffffffffffffffffffffffffffffffff1603610bad576040517f08c379a0000000000000000000000000000000000000000000000000000000008152600401610ba4906120dc565b60405180910390fd5b610c087f9143236d81225394f3bd65b44e6e29fdf4d7ba0773d9bb3f5cc15eb80ba3777784848467ffffffffffffffff16818110610bee57610bed611c76565b5b9050602002016020810190610c039190611a52565b61140d565b610c637fb371867bc9c0f0d0a9733da0be5b600a167f1a96096318687c91de22c7ddf8da84848467ffffffffffffffff16818110610c4957610c48611c76565b5b9050602002016020810190610c5e9190611a52565b61140d565b8080610c6e90611dab565b915050610af8565b50505050565b610ca67f9143236d81225394f3bd65b44e6e29fdf4d7ba0773d9bb3f5cc15eb80ba37777336109a3565b80610cfe5750600260009054906101000a900473ffffffffffffffffffffffffffffffffffffffff1673ffffffffffffffffffffffffffffffffffffffff163373ffffffffffffffffffffffffffffffffffffffff16145b610d3f57336040517ff9ba0a32000000000000000000000000000000000000000000000000000000008152600401610d369190611ace565b60405180910390fd5b600073ffffffffffffffffffffffffffffffffffffffff168173ffffffffffffffffffffffffffffffffffffffff1603610da5576040517fe6c4247b00000000000000000000000000000000000000000000000000000000815260040160405180910390fd5b60008173ffffffffffffffffffffffffffffffffffffffff1647604051610dcb90611cd6565b60006040518083038185875af1925050503d8060008114610e08576040519150601f19603f3d011682016040523d82523d6000602084013e610e0d565b606091505b5050905080610e51576040517f08c379a0000000000000000000000000000000000000000000000000000000008152600401610e4890611d48565b60405180910390fd5b5050565b6000801b81565b610e6582610674565b610e7681610e716111a6565b6111ae565b610e80838361132b565b505050565b610eaf7f9143236d81225394f3bd65b44e6e29fdf4d7ba0773d9bb3f5cc15eb80ba37777336109a3565b80610f075750600260009054906101000a900473ffffffffffffffffffffffffffffffffffffffff1673ffffffffffffffffffffffffffffffffffffffff163373ffffffffffffffffffffffffffffffffffffffff16145b610f4857336040517ff9ba0a32000000000000000000000000000000000000000000000000000000008152600401610f3f9190611ace565b60405180910390fd5b600073ffffffffffffffffffffffffffffffffffffffff168273ffffffffffffffffffffffffffffffffffffffff1603610fae576040517fe6c4247b00000000000000000000000000000000000000000000000000000000815260040160405180910390fd5b600073ffffffffffffffffffffffffffffffffffffffff168173ffffffffffffffffffffffffffffffffffffffff1603611014576040517fe6c4247b00000000000000000000000000000000000000000000000000000000815260040160405180910390fd5b60008290508073ffffffffffffffffffffffffffffffffffffffff1663a9059cbb838373ffffffffffffffffffffffffffffffffffffffff166370a08231306040518263ffffffff1660e01b815260040161106f9190611ace565b602060405180830381865afa15801561108c573d6000803e3d6000fd5b505050506040513d601f19601f820116820180604052508101906110b09190612111565b6040518363ffffffff1660e01b81526004016110cd929190611f10565b6020604051808303816000875af11580156110ec573d6000803e3d6000fd5b505050506040513d601f19601f820116820180604052508101906111109190611f65565b50505050565b600260009054906101000a900473ffffffffffffffffffffffffffffffffffffffff1681565b60007f01ffc9a7000000000000000000000000000000000000000000000000000000007bffffffffffffffffffffffffffffffffffffffffffffffffffffffff1916827bffffffffffffffffffffffffffffffffffffffffffffffffffffffff1916149050919050565b600033905090565b6111b882826109a3565b611247576111dd8173ffffffffffffffffffffffffffffffffffffffff16601461141b565b6111eb8360001c602061141b565b6040516020016111fc929190612250565b6040516020818303038152906040526040517f08c379a000000000000000000000000000000000000000000000000000000000815260040161123e91906122d4565b60405180910390fd5b5050565b61125582826109a3565b61132757600180600084815260200190815260200160002060000160008373ffffffffffffffffffffffffffffffffffffffff1673ffffffffffffffffffffffffffffffffffffffff16815260200190815260200160002060006101000a81548160ff0219169083151502179055506112cc6111a6565b73ffffffffffffffffffffffffffffffffffffffff168173ffffffffffffffffffffffffffffffffffffffff16837f2f8788117e7eff1d82e926ec794901d17c78024a50270940304540a733656f0d60405160405180910390a45b5050565b61133582826109a3565b156114095760006001600084815260200190815260200160002060000160008373ffffffffffffffffffffffffffffffffffffffff1673ffffffffffffffffffffffffffffffffffffffff16815260200190815260200160002060006101000a81548160ff0219169083151502179055506113ae6111a6565b73ffffffffffffffffffffffffffffffffffffffff168173ffffffffffffffffffffffffffffffffffffffff16837ff6391f5c32d9c69d2a47ea670b442974b53935d1edc7fd64eb21e047a839171b60405160405180910390a45b5050565b611417828261124b565b5050565b60606000600283600261142e91906122f6565b6114389190612350565b67ffffffffffffffff811115611451576114506123a6565b5b6040519080825280601f01601f1916602001820160405280156114835781602001600182028036833780820191505090505b5090507f3000000000000000000000000000000000000000000000000000000000000000816000815181106114bb576114ba611c76565b5b60200101907effffffffffffffffffffffffffffffffffffffffffffffffffffffffffffff1916908160001a9053507f78000000000000000000000000000000000000000000000000000000000000008160018151811061151f5761151e611c76565b5b60200101907effffffffffffffffffffffffffffffffffffffffffffffffffffffffffffff1916908160001a9053506000600184600261155f91906122f6565b6115699190612350565b90505b6001811115611609577f3031323334353637383961626364656600000000000000000000000000000000600f8616601081106115ab576115aa611c76565b5b1a60f81b8282815181106115c2576115c1611c76565b5b60200101907effffffffffffffffffffffffffffffffffffffffffffffffffffffffffffff1916908160001a905350600485901c945080611602906123d5565b905061156c565b506000841461164d576040517f08c379a00000000000000000000000000000000000000000000000000000000081526004016116449061244a565b60405180910390fd5b8091505092915050565b600080fd5b600080fd5b60007fffffffff0000000000000000000000000000000000000000000000000000000082169050919050565b61169681611661565b81146116a157600080fd5b50565b6000813590506116b38161168d565b92915050565b6000602082840312156116cf576116ce611657565b5b60006116dd848285016116a4565b91505092915050565b60008115159050919050565b6116fb816116e6565b82525050565b600060208201905061171660008301846116f2565b92915050565b600080fd5b600080fd5b600080fd5b60008083601f8401126117415761174061171c565b5b8235905067ffffffffffffffff81111561175e5761175d611721565b5b60208301915083604082028301111561177a57611779611726565b5b9250929050565b6000806020838503121561179857611797611657565b5b600083013567ffffffffffffffff8111156117b6576117b561165c565b5b6117c28582860161172b565b92509250509250929050565b6000819050919050565b6117e1816117ce565b82525050565b60006020820190506117fc60008301846117d8565b92915050565b61180b816117ce565b811461181657600080fd5b50565b60008135905061182881611802565b92915050565b60006020828403121561184457611843611657565b5b600061185284828501611819565b91505092915050565b600073ffffffffffffffffffffffffffffffffffffffff82169050919050565b60006118868261185b565b9050919050565b6118968161187b565b81146118a157600080fd5b50565b6000813590506118b38161188d565b92915050565b600080604083850312156118d0576118cf611657565b5b60006118de85828601611819565b92505060206118ef858286016118a4565b9150509250929050565b60008083601f84011261190f5761190e61171c565b5b8235905067ffffffffffffffff81111561192c5761192b611721565b5b60208301915083606082028301111561194857611947611726565b5b9250929050565b6000806020838503121561196657611965611657565b5b600083013567ffffffffffffffff8111156119845761198361165c565b5b611990858286016118f9565b92509250509250929050565b60008083601f8401126119b2576119b161171c565b5b8235905067ffffffffffffffff8111156119cf576119ce611721565b5b6020830191508360208202830111156119eb576119ea611726565b5b9250929050565b600080600060408486031215611a0b57611a0a611657565b5b6000611a19868287016118a4565b935050602084013567ffffffffffffffff811115611a3a57611a3961165c565b5b611a468682870161199c565b92509250509250925092565b600060208284031215611a6857611a67611657565b5b6000611a76848285016118a4565b91505092915050565b60008060408385031215611a9657611a95611657565b5b6000611aa4858286016118a4565b9250506020611ab5858286016118a4565b9150509250929050565b611ac88161187b565b82525050565b6000602082019050611ae36000830184611abf565b92915050565b600082825260208201905092915050565b6000819050919050565b6000611b1360208401846118a4565b905092915050565b611b248161187b565b82525050565b6000819050919050565b611b3d81611b2a565b8114611b4857600080fd5b50565b600081359050611b5a81611b34565b92915050565b6000611b6f6020840184611b4b565b905092915050565b611b8081611b2a565b82525050565b60408201611b976000830183611b04565b611ba46000850182611b1b565b50611bb26020830183611b60565b611bbf6020850182611b77565b50505050565b6000611bd18383611b86565b60408301905092915050565b600082905092915050565b6000604082019050919050565b6000611c018385611ae9565b9350611c0c82611afa565b8060005b85811015611c4557611c228284611bdd565b611c2c8882611bc5565b9750611c3783611be8565b925050600181019050611c10565b5085925050509392505050565b60006020820190508181036000830152611c6d818486611bf5565b90509392505050565b7f4e487b7100000000000000000000000000000000000000000000000000000000600052603260045260246000fd5b600081905092915050565b50565b6000611cc0600083611ca5565b9150611ccb82611cb0565b600082019050919050565b6000611ce182611cb3565b9150819050919050565b600082825260208201905092915050565b7f6661696c656420746f2073656e64206574686572000000000000000000000000600082015250565b6000611d32601483611ceb565b9150611d3d82611cfc565b602082019050919050565b60006020820190508181036000830152611d6181611d25565b9050919050565b7f4e487b7100000000000000000000000000000000000000000000000000000000600052601160045260246000fd5b600067ffffffffffffffff82169050919050565b6000611db682611d97565b915067ffffffffffffffff8203611dd057611dcf611d68565b5b600182019050919050565b600082825260208201905092915050565b6000819050919050565b60608201611e076000830183611b04565b611e146000850182611b1b565b50611e226020830183611b04565b611e2f6020850182611b1b565b50611e3d6040830183611b60565b611e4a6040850182611b77565b50505050565b6000611e5c8383611df6565b60608301905092915050565b600082905092915050565b6000606082019050919050565b6000611e8c8385611ddb565b9350611e9782611dec565b8060005b85811015611ed057611ead8284611e68565b611eb78882611e50565b9750611ec283611e73565b925050600181019050611e9b565b5085925050509392505050565b60006020820190508181036000830152611ef8818486611e80565b90509392505050565b611f0a81611b2a565b82525050565b6000604082019050611f256000830185611abf565b611f326020830184611f01565b9392505050565b611f42816116e6565b8114611f4d57600080fd5b50565b600081519050611f5f81611f39565b92915050565b600060208284031215611f7b57611f7a611657565b5b6000611f8984828501611f50565b91505092915050565b7f416363657373436f6e74726f6c3a2063616e206f6e6c792072656e6f756e636560008201527f20726f6c657320666f722073656c660000000000000000000000000000000000602082015250565b6000611fee602f83611ceb565b9150611ff982611f92565b604082019050919050565b6000602082019050818103600083015261201d81611fe1565b9050919050565b7f61646d696e20616464726573732063616e6e6f74206265203078300000000000600082015250565b600061205a601b83611ceb565b915061206582612024565b602082019050919050565b600060208201905081810360008301526120898161204d565b9050919050565b7f6f776e65722063616e6e6f742062652030783000000000000000000000000000600082015250565b60006120c6601383611ceb565b91506120d182612090565b602082019050919050565b600060208201905081810360008301526120f5816120b9565b9050919050565b60008151905061210b81611b34565b92915050565b60006020828403121561212757612126611657565b5b6000612135848285016120fc565b91505092915050565b600081905092915050565b7f416363657373436f6e74726f6c3a206163636f756e7420000000000000000000600082015250565b600061217f60178361213e565b915061218a82612149565b601782019050919050565b600081519050919050565b60005b838110156121be5780820151818401526020810190506121a3565b838111156121cd576000848401525b50505050565b60006121de82612195565b6121e8818561213e565b93506121f88185602086016121a0565b80840191505092915050565b7f206973206d697373696e6720726f6c6520000000000000000000000000000000600082015250565b600061223a60118361213e565b915061224582612204565b601182019050919050565b600061225b82612172565b915061226782856121d3565b91506122728261222d565b915061227e82846121d3565b91508190509392505050565b6000601f19601f8301169050919050565b60006122a682612195565b6122b08185611ceb565b93506122c08185602086016121a0565b6122c98161228a565b840191505092915050565b600060208201905081810360008301526122ee818461229b565b905092915050565b600061230182611b2a565b915061230c83611b2a565b9250817fffffffffffffffffffffffffffffffffffffffffffffffffffffffffffffffff048311821515161561234557612344611d68565b5b828202905092915050565b600061235b82611b2a565b915061236683611b2a565b9250827fffffffffffffffffffffffffffffffffffffffffffffffffffffffffffffffff0382111561239b5761239a611d68565b5b828201905092915050565b7f4e487b7100000000000000000000000000000000000000000000000000000000600052604160045260246000fd5b60006123e082611b2a565b9150600082036123f3576123f2611d68565b5b600182039050919050565b7f537472696e67733a20686578206c656e67746820696e73756666696369656e74600082015250565b6000612434602083611ceb565b915061243f826123fe565b602082019050919050565b6000602082019050818103600083015261246381612427565b905091905056fea26469706673582212202ba9b8f4f249f6d4d714ea21cc6dfec95961f763f1128cb800f09f848f9dc29264736f6c634300080d0033",
  "devdoc": {
    "kind": "dev",
    "methods": {
      "emergencyEjectERC20(address,address)": {
        "params": {
          "_destination": "The acccount to send the tokens to",
          "_token": "The token to transfer"
        }
      },
      "emergencyEjectEth(address)": {
        "params": {
          "_destination": "The account to send the ether to."
        }
      },
      "getRoleAdmin(bytes32)": {
        "details": "Returns the admin role that controls `role`. See {grantRole} and {revokeRole}. To change a role's admin, use {_setRoleAdmin}."
      },
      "grantRole(bytes32,address)": {
        "details": "Grants `role` to `account`. If `account` had not been already granted `role`, emits a {RoleGranted} event. Requirements: - the caller must have ``role``'s admin role."
      },
      "hasRole(bytes32,address)": {
        "details": "Returns `true` if `account` has been granted `role`."
      },
      "renounceRole(bytes32,address)": {
        "details": "Revokes `role` from the calling account. Roles are often managed via {grantRole} and {revokeRole}: this function's purpose is to provide a mechanism for accounts to lose their privileges if they are compromised (such as when a trusted device is misplaced). If the calling account had been revoked `role`, emits a {RoleRevoked} event. Requirements: - the caller must be `account`."
      },
      "revokeRole(bytes32,address)": {
        "details": "Revokes `role` from `account`. If `account` had been granted `role`, emits a {RoleRevoked} event. Requirements: - the caller must have ``role``'s admin role."
      },
      "supportsInterface(bytes4)": {
        "details": "See {IERC165-supportsInterface}."
      },
      "transferERC20((address,address,uint256)[])": {
        "details": "If the `setApprove` field is true, the contract should approve that recipient for type(uint256).max",
        "params": {
          "_transfers": "An array of transfers. Each transfer object specifies the amount and recipient to send tokens to"
        }
      },
      "transferEther((address,uint256)[])": {
        "details": "This should use address(recipient).call to transfer the ether",
        "params": {
          "_transfers": "The ether transfers"
        }
      }
    },
    "version": 1
  },
  "userdoc": {
    "events": {
      "TransferERC20((address,address,uint256)[])": {
        "notice": "### Events"
      }
    },
    "kind": "user",
    "methods": {
      "emergencyEjectERC20(address,address)": {
        "notice": "Transfers the current balance of a token to a destination without processing a split"
      },
      "emergencyEjectEth(address)": {
        "notice": "Transfers the current balance of Ether to the destination without processing a split"
      },
      "initialize(address,address[])": {
        "notice": "### Functions"
      },
      "transferERC20((address,address,uint256)[])": {
        "notice": "Transfers amounts of an ERC20 to one or more recipients"
      },
      "transferEther((address,uint256)[])": {
        "notice": "Transfers amounts of ether to one or more recipeints"
      }
    },
    "version": 1
  },
  "storageLayout": {
    "storage": [
      {
        "astId": 7118,
        "contract": "contracts/implementations/ThinWallet.sol:ThinWallet",
        "label": "_initialized",
        "offset": 0,
        "slot": "0",
        "type": "t_bool"
      },
      {
        "astId": 7121,
        "contract": "contracts/implementations/ThinWallet.sol:ThinWallet",
        "label": "_initializing",
        "offset": 1,
        "slot": "0",
        "type": "t_bool"
      },
      {
        "astId": 6569,
        "contract": "contracts/implementations/ThinWallet.sol:ThinWallet",
        "label": "_roles",
        "offset": 0,
        "slot": "1",
        "type": "t_mapping(t_bytes32,t_struct(RoleData)6564_storage)"
      },
      {
        "astId": 14725,
        "contract": "contracts/implementations/ThinWallet.sol:ThinWallet",
        "label": "admin",
        "offset": 0,
        "slot": "2",
        "type": "t_address"
      }
    ],
    "types": {
      "t_address": {
        "encoding": "inplace",
        "label": "address",
        "numberOfBytes": "20"
      },
      "t_bool": {
        "encoding": "inplace",
        "label": "bool",
        "numberOfBytes": "1"
      },
      "t_bytes32": {
        "encoding": "inplace",
        "label": "bytes32",
        "numberOfBytes": "32"
      },
      "t_mapping(t_address,t_bool)": {
        "encoding": "mapping",
        "key": "t_address",
        "label": "mapping(address => bool)",
        "numberOfBytes": "32",
        "value": "t_bool"
      },
      "t_mapping(t_bytes32,t_struct(RoleData)6564_storage)": {
        "encoding": "mapping",
        "key": "t_bytes32",
        "label": "mapping(bytes32 => struct AccessControl.RoleData)",
        "numberOfBytes": "32",
        "value": "t_struct(RoleData)6564_storage"
      },
      "t_struct(RoleData)6564_storage": {
        "encoding": "inplace",
        "label": "struct AccessControl.RoleData",
        "members": [
          {
            "astId": 6561,
            "contract": "contracts/implementations/ThinWallet.sol:ThinWallet",
            "label": "members",
            "offset": 0,
            "slot": "0",
            "type": "t_mapping(t_address,t_bool)"
          },
          {
            "astId": 6563,
            "contract": "contracts/implementations/ThinWallet.sol:ThinWallet",
            "label": "adminRole",
            "offset": 0,
            "slot": "1",
            "type": "t_bytes32"
          }
        ],
        "numberOfBytes": "64"
      }
    }
  }
}